:020000042400D6
:1000000000000220B1100024AD10002461860024FD
:10001000AD100024AD100024AD100024000000003D
:10002000000000000000000000000000AD100024EF
:10003000AD10002400000000AD100024E585002470
:10004000AD100024AD100024AD100024AD1000242C
:10005000AD100024AD100024AD100024AD1000241C
:10006000AD100024AD100024AD1000241580002434
:1000700021800024355F00242D8000243980002455
:10008000857E0124556B0024AD100024AD100024A2
:10009000AD100024AD100024AD100024AD100024DC
:1000A000AD100024AD100024AD100024AD100024CC
:1000B0009D720124A9720124B5720124896B002468
:1000C000AD100024956B0024AD1000240D6B0124AD
:1000D000196B0124B97C0124E57C0124197D0124DC
:1000E000AD100024AD10002400000000AD1000246D
:1000F000AD100024AD100024AD100024AD1000247C
:10010000AD10002489850024C1720124256B0124CF
:100110004D7D0124817D012401620024AD10002465
:10012000E9610024F5610024496B01247D6B012401
:10013000B97E0124AD100024AD100024AD100024C0
:1001400000000000000000000000000000000000AF
:10015000AD100024AD100024AD100024B57D0124A5
:10016000A16B0024AD100024F5850024198600241D
:10017000AD1000243D860024AD100024AD100024F5
:10018000AD100024AD100024E97D01241D7E012462
:10019000316B01243D6B0124AD100024AD1000240F
:1001A000AD100024AD100024AD100024AD100024CB
:1001B000357D0024AD100024AD100024AD100024C6
:1001C000AD100024AD100024ED570024F957002491
:1001D000AD10002405580024AD100024AD100024FB
:1001E000AD100024AD100024AD100024AD1000248B
:1001F000AD100024AD100024AD100024AD1000247B
:10020000AD100024AD100024AD100024AD1000246A
:10021000AD100024AD100024AD100024AD1000245A
:10022000AD100024AD100024AD100024000000002B
:10023000AD100024AD10002400000000AD1000241B
:10024000AD100024AD100024AD100024AD1000242A
:10025000AD100024AD100024AD100024AD1000241A
:10026000AD100024AD100024AD100024AD1000240A
:10027000AD100024AD100024517E012400000000C8
:10028000AD100024AD100024AD10002400000000CB
:0802900000000000AD10002485
:1002A00010B5054C237833B9044B13B10448AFF3B0
:1002B00000800123237010BD08060020000000000C
:1002C00018D6012408B5034B1BB103490348AFF30B
:1002D000008008BD000000000C06002018D6012494
:1002E000000000000000000000000000000000000E
:1002F00000000000000000000000000000000000FE
:1003000000000000000000000000000000000000ED
:1003100000000000000000000000000000000000DD
:1009900001F0FF01102A2BDB10F0070F08D010F830
:1009A000013B013A8B422DD010F0070F42B3F6D134
:1009B000F0B441EA012141EA014122F007047FF04D
:1009C00000070023F0E80256083C85EA010586EAA4
:1009D000010685FA47F5A3FA87F586FA47F6A5FAE0
:1009E00087F68EB9EED1F0BC01F0FF0102F00702EC
:1009F00032B110F8013B013A83EA010313B1F8D197
:100A00000020704701387047002D06BF3546033877
:100A1000073815F0010F07D1013015F4807F02BFB0
:100A2000013015F4C03F0130F0BC0138704700BF01
:100A300081F0004102E000BF83F0004330B54FEA8F
:100A400041044FEA430594EA050F08BF90EA020FFC
:100A50001FBF54EA000C55EA020C7FEA645C7FEA8F
:100A6000655C00F0E2804FEA5454D4EB5555B8BFB2
:100A70006D420CDD2C4480EA020281EA030382EA23
:100A8000000083EA010180EA020281EA0303362DB5
:100A900088BF30BD11F0004F4FEA01314FF4801C88
:100AA0004CEA113102D0404261EB410113F0004F9A
:100AB0004FEA03334CEA133302D0524263EB430351
:100AC00094EA050F00F0A780A4F10104D5F1200EEF
:100AD0000DDB02FA0EFC22FA05F2801841F100014A
:100AE00003FA0EF2801843FA05F359410EE0A5F11E
:100AF00020050EF1200E012A03FA0EFC28BF4CF04F
:100B0000020C43FA05F3C01851EBE37101F0004504
:100B100007D54FF0000EDCF1000C7EEB00006EEB11
:100B20000101B1F5801F1BD3B1F5001F0CD349089B
:100B30005FEA30004FEA3C0C04F101044FEA4452F2
:100B400012F5800F80F09A80BCF1004F08BF5FEA79
:100B5000500C50F1000041EB045141EA050130BD59
:100B60005FEA4C0C404141EB0101013C28BFB1F56B
:100B7000801FE9D291F0000F04BF01460020B1FAB6
:100B800081F308BF2033A3F10B03B3F120020CDA89
:100B90000C3208DD02F1140CC2F10C0201FA0CF067
:100BA00021FA02F10CE002F11402D8BFC2F1200CCC
:100BB00001FA02F120FA0CFCDCBF41EA0C01904082
:100BC000E41AA2BF01EB0451294330BD6FEA0404CB
:100BD0001F3C1CDA0C340EDC04F11404C4F12002B6
:100BE00020FA04F001FA02F340EA030021FA04F3C8
:100BF00045EA030130BDC4F10C04C4F1200220FA1F
:100C000002F001FA04F340EA0300294630BD21FA5C
:100C100004F0294630BD94F0000F83F4801306BF22
:100C200081F480110134013D4EE77FEA645C18BF16
:100C30007FEA655C29D094EA050F08BF90EA020FAD
:100C400005D054EA000C04BF1946104630BD91EAA5
:100C5000030F1EBF0021002030BD5FEA545C05D1A8
:100C60004000494128BF41F0004130BD14F58004E7
:100C70003CBF01F5801130BD01F0004545F0FE415B
:100C800041F470014FF0000030BD7FEA645C1ABF90
:100C9000194610467FEA655C1CBF0B46024650EAC7
:100CA000013406BF52EA033591EA030F41F40021F3
:100CB00030BD00BF90F0000F04BF0021704730B579
:100CC0004FF4806404F132044FF000054FF000014E
:100CD00050E700BF90F0000F04BF0021704730B50F
:100CE0004FF4806404F1320410F0004548BF4042E4
:100CF0004FF000013EE700BF42004FEAE2014FEA39
:100D000031014FEA02701FBF12F07F4393F07F4F13
:100D100081F06051704732F07F4208BF704793F016
:100D20007F4F04BF41F40021704730B54FF4607429
:100D300001F0004521F000411CE700BF50EA01022C
:100D400008BF704730B54FF000050AE050EA0102D5
:100D500008BF704730B511F0004502D5404261EB45
:100D600041014FF4806404F132045FEA915C3FF486
:100D7000D8AE4FF003025FEADC0C18BF03325FEA23
:100D8000DC0C18BF033202EBDC02C2F1200300FAD4
:100D900003FC20FA02F001FA03FE40EA0E0021FAF9
:100DA00002F11444BDE600BF53B94AB9002908BF97
:100DB00000281CBF4FF0FF314FF0FF3000F074B936
:100DC000ADF1080C6DE904CE00F006F8DDF804E0A2
:100DD000DDE9022304B070472DE9F047089D044681
:100DE0008E46002B4DD18A42944669D9B2FA82F2DE
:100DF00052B101FA02F3C2F1200120FA01F10CFA1A
:100E000002FC41EA030E94404FEA1C48210CBEFB51
:100E1000F8F61FFA8CF708FB16E341EA034306FBDA
:100E200007F199420AD91CEB030306F1FF3080F069
:100E30001F81994240F21C81023E63445B1AA4B2B6
:100E4000B3FBF8F008FB103344EA034400FB07F758
:100E5000A7420AD91CEB040400F1FF3380F00A8199
:100E6000A74240F207816444023840EA0640E41B8E
:100E700000261DB1D4400023C5E900433146BDE83A
:100E8000F0878B4209D9002D00F0EF800026C5E9DC
:100E9000000130463146BDE8F087B3FA83F6002EF4
:100EA0004AD18B4202D3824200F2F980841A61EB6C
:100EB000030301209E46002DE0D0C5E9004EDDE78A
:100EC00002B9FFDEB2FA82F2002A40F09280A1EB72
:100ED0000C014FEA1C471FFA8CFE0126200CB1FBC7
:100EE000F7F307FB131140EA01410EFB03F08842C0
:100EF00008D91CEB010103F1FF3802D2884200F24D
:100F0000CB804346091AA4B2B1FBF7F007FB1011DE
:100F100044EA01440EFB00FEA64508D91CEB04047C
:100F200000F1FF3102D2A64500F2BB800846A4EBD7
:100F30000E0440EA03409CE7C6F12007B34022FAC2
:100F400007FC4CEA030C20FA07F401FA06F31C43F1
:100F5000F9404FEA1C4900FA06F3B1FBF9F8200CFE
:100F60001FFA8CFE09FB181140EA014108FB0EF044
:100F7000884202FA06F20BD91CEB010108F1FF3A94
:100F800080F08880884240F28580A8F102086144A0
:100F9000091AA4B2B1FBF9F009FB101144EA0141AE
:100FA00000FB0EFE8E4508D91CEB010100F1FF3459
:100FB0006CD28E456AD90238614440EA0840A0FBF1
:100FC0000294A1EB0E01A142C846A64656D353D0C7
:100FD0005DB1B3EB080261EB0E0101FA07F722FAEB
:100FE00006F3F1401F43C5E9007100263146BDE814
:100FF000F087C2F12003D8400CFA02FC21FA03F377
:10100000914001434FEA1C471FFA8CFEB3FBF7F0F7
:1010100007FB10360B0C43EA064300FB0EF69E421C
:1010200004FA02F408D91CEB030300F1FF382FD2B5
:101030009E422DD9023863449B1B89B2B3FBF7F65D
:1010400007FB163341EA034106FB0EF38B4208D936
:101050001CEB010106F1FF3816D28B4214D9023E77
:101060006144C91A46EA004638E72E46284605E795
:101070000646E3E61846F8E64B45A9D2B9EB020866
:1010800064EB0C0E0138A3E74646EAE7204694E7F6
:101090004046D1E7D0467BE7023B614432E7304629
:1010A00009E76444023842E7704700BFFEE700BF2B
:1010B0000A480B4A904203D0121A0A491AF0BAF9A8
:1010C00009480A4A904203D0121A00211AF0C0F9C6
:1010D0001AF07CF901F0B4FFFEE700BF0000002029
:1010E0000806002058D601240806002064010120CB
:1010F000034B03EB800203445268187B5368184784
:1011000034080020074B1A5C52B903EB800219180F
:101110004FF0010C526803F800C0087B13681847B1
:10112000002070473408002030B4054C04EB8005E3
:1011300004446D68207BAC68A44630BC604700BFA7
:101140003408002030B4054C04EB800504446D687D
:10115000207BEC68A44630BC604700BF3408002008
:10116000044B03EB000C03EB80035B689CF80C0062
:101170001B6918473408002010B404689CB121781A
:10118000844622461F2913D93A2911D012F8013F6B
:101190001F2B0ED93A2BF9D10134A1F13000A24214
:1011A00001D101280CD94FF0FF305DF8044B704796
:1011B0000B463A2BF0D0044B18785DF8044B70477F
:1011C0000132CCF80020F8E72406002038B50D469F
:1011D00040B1036804462BB11A781AB18088DA88C6
:1011E000904203D0092000232B6038BD5878FFF7C8
:1011F0007FFF10F00100F5D12368F5E72DE9F041FC
:10120000456B00F13808044601232A4641464078E0
:10121000FFF798FFC0B9A26A0746236AAA1AE070CE
:101220009A420ED2A678012E01D80AE0236A1D4404
:10123000013E012341462A466078FFF783FF012ED5
:10124000F4D13846BDE8F08101273846BDE8F08189
:1012500070B5C37804465BB92378032B0FD0002206
:1012600060781146FFF77CFF003818BF012070BD81
:10127000FFF7C4FF0028FAD12378032BEFD125799B
:10128000012DECD104F138064FF4007200213046F4
:101290001AF0DEF855233146722684F836322B4692
:1012A0006569612084F81C62522284F81D622E0A4E
:1012B00084F83A0084F81F0284F82052206984F8E8
:1012C00021622E0C2D0E84F8382084F8392041221A
:1012D00084F82352050A84F83B2084F81E2284F8FF
:1012E0002402626A84F82552050C000E013284F84B
:1012F000226284F82702AA20626384F8370284F805
:1013000026526078FFF71EFF00232371A7E700BF76
:1013100038B5C37804460D4663B901232A4604F163
:1013200038016078FFF700FF10B101204FF0FF3562
:10133000656338BDFFF762FF0028EED038BD00BFFF
:1013400070B54FF0FF3600230446B142C3704663C8
:101350000CD00D460A46012300F138014078FFF712
:10136000E3FE10B10420666370BD65634AF6552341
:10137000B4F836229A421AD194F83830E92B07D0C3
:10138000A36B0D4A03F0FF13934201D0022070BDFE
:10139000D4F86E30094A23F07F43934209D0D4F841
:1013A0008A00074B984214BF0220002070BD032022
:1013B00070BD002070BD00BFEB009000464154009E
:1013C000464154330023F0B50B6085B00E461446F9
:1013D000FFF7D2FE051EC0F2BC808C4B53F825707F
:1013E000002F00F0C380376004F0FE043B787BB12F
:1013F0007878FFF77DFEC6070AD4002C00F0A280A3
:1014000010F0040400F09E800A24204605B0F0BDD0
:10141000E8B2002378703B70FFF774FEC50700F157
:1014200094800CB14407EFD400213846FFF788FFC1
:1014300002286DD0042800F09080012800F28180FD
:101440000025B7F84330B3F5007F7AD1B7F84E20C6
:1014500002B9FA6D97F848303A62591EBB700129FB
:101460006FD897F8451088B27881002869D0481E57
:10147000084266D1B7F8496030073E8161D1B7F8BC
:101480004B0000B9B86DB7F846E0BEF1000F58D078
:1014900002FB03F30EEB16141C44A04251D3001BB5
:1014A0008842B0FBF1FC4CD34FF6F5718C455FD808
:1014B00040F6F5710EEB05002C447D628C450CF175
:1014C00002013C63F961B86273D8002E39D003443D
:1014D00001EB410001F00101FB6201EB5001012031
:1014E00001F2FF11B2EB512F2BD34FF0FF338022CB
:1014F000C7E904333A71464A0021464C1388FC6020
:101500000C4601333870B9619BB21380FB8019E03F
:101510006C4607F5FB7307F2362520461A7911460B
:1015200002B19968103340F8041B9D42F6D104F1D2
:10153000100654F8045B03208DB9B442F9D1042895
:101540000BD00D24204605B0F0BD0324204605B085
:10155000F0BD0B24204605B0F0BD0124F2E729467A
:101560003846FFF7EDFE0128E7D86AE70C24E9E7E3
:101570000EEB05010CF102032C447D62B962B7F851
:1015800062103C633143FB61DBD19B00796E03F257
:10159000FF13F962B2EB532FD3D3B7F868204FF0A3
:1015A000FF338021012A3971C7E9043308D00320B1
:1015B000A1E7002EC5D0034449000220FB628FE75B
:1015C000691C7B6B994204D03846FFF7A1FE0028C6
:1015D000EDD14AF65523B7F8362200219A423971E7
:1015E000E5D1BA6B0C4B9A42E1D103F1FF53D7F826
:1015F0001C2203F5005320339A42D8D1D7F8202279
:101600000320D7F82432C7E9043274E72806002003
:101610003006002034060020525261412DE9F84383
:10162000037804460D461646022B06D0032B6AD0DB
:10163000012B27D00220BDE8F883876A436B07EBB4
:1016400011279F4200F09080C378002B40F0B680B5
:1016500004F1380801233A4660784146FFF764FDFB
:1016600000284AD167636D00C6F3072201230020DA
:1016700005F4FF7508EB050108F805604A70E37092
:10168000BDE8F88301EB5107826A436B02EB5728F0
:10169000984563D0C378002B40F08A8004F1380964
:1016A0000123424660784946FFF73EFD28BBC4F857
:1016B000348015F0010507F10108C7F308075ED073
:1016C00019F8073003F00F0343EA061309F807304F
:1016D0000123A76AE37007EB5827636B9F4278D01A
:1016E0002046FFF78BFD0028A5D101233A46494645
:1016F0006078FFF719FD002839D04FF0FF33012043
:101700006363BDE8F883826A436B02EBD1189845A6
:1017100027D0C378002B57D104F138070123424664
:1017200060783946FFF700FD0028E6D1C4F8348020
:10173000AD0026F0704205F4FE757B59791903F06F
:1017400070431A43130C7A55100A8B70120E012342
:101750004870CA700020E370BDE8F88300F13809D2
:10176000A7E700F13807E3E700F138087BE7C8F3A3
:101770000801676349447DB1C6F3071212E009F816
:1017800007600123A76AE37007EB5827636B9F424A
:10179000A6D1C8F3080149440B78C6F3032223F00D
:1017A0000F06324301230A700020E370BDE8F8837E
:1017B000FFF724FD00283FF471AF3CE7FFF71EFD63
:1017C00000283FF445AF36E7FFF718FD0028A3D007
:1017D00031E7C8F3080309EB0301CDE701294CD930
:1017E000C36999422DE9F0410C46054602D3012018
:1017F000BDE8F0810378022B5AD0032B3FD0012B98
:10180000F5D101EB5106826A436B02EB56279F42EA
:101810000ED0C378002B79D101233A4605F1380167
:101820006878FFF781FC00285FD1AA6A3B466F63A6
:10183000771CC6F3080602EB57282E44434596F85A
:1018400038600DD0EB78002B65D10123424605F1BD
:1018500038016878FFF768FC002846D1C5F8348065
:10186000C7F30807E3073D4495F8380046EA00202F
:101870004CBF0009C0F30B00BAE701207047866A2D
:10188000436B06EBD1169E4229D0C37893BB05F17A
:1018900038070123324668783946FFF745FC20BBFC
:1018A0006E63A40004F4FE74385920F070409FE782
:1018B000866A436B06EB11269E4213D0C37803BBA6
:1018C00005F138070123324668783946FFF72CFCCA
:1018D00058B96E63640004F4FF74385B88E700F164
:1018E0003807DEE700F13807F4E74FF0FF3318461A
:1018F0006B637DE7FFF782FC0028C8D04FF0FF3014
:1019000076E7FFF77BFC0028DAD0F7E7FFF776FCF5
:10191000002881D0F2E72846FFF770FC002894D019
:10192000ECE700BF012970B50C4634D9C369054600
:10193000994230D21146EAB193422CD9012A2AD0D9
:101940004FF0FF32FFF76AFEA0B170BDEE69B342FF
:1019500021D2FFF763FE0028F7D1EB696A69991E6F
:10196000501C8A4204D22A79686142F001022A712D
:101970009C4212D221462846FFF730FF01462346FB
:10198000002228460C4641B1012C194603D0661CA2
:1019900005D0012BDAD8022070BD002070BD0120D7
:1019A00070BD00BFF8B505460F46002942D1066953
:1019B000C36996BB0126344606E001282CD0431C9F
:1019C0002AD0A64234D0EB69013428469C4203D386
:1019D000012E4FF002042BD92146FFF7FFFE00280D
:1019E000EBD1012C22D9EB699C421FD24FF0FF3280
:1019F00021462846FFF712FE00B997B928BBEB69CC
:101A00006A69023B2C619A4201D8013A6A612B79DA
:101A1000204643F001032B71F8BD9E4228BF0126EA
:101A2000C9E7012F02D0EB699F4213D30120F8BD13
:101A30000020F8BDFFF7D2FE0128F7D9421C06D0DE
:101A4000EB699842E8D33E46B5E70128EED14FF066
:101A5000FF30F8BD224639462846FFF7DFFDCDE7C7
:101A60002DE9F04F056983B083692035B5F5001F76
:101A70003BD2002B39D0C5F3080804460768B8F1FB
:101A8000000F08D007F13806464400202561E661C2
:101A900003B0BDE8F08F0E4601334169836141B365
:101AA000B7F80A9009F1FF3919EA5529EAD1384601
:101AB000FFF794FE0128834623D9B0F1FF3F5DD0A4
:101AC000FA6982421FD9831E07F138060193023A50
:101AD0000199C4F814B08A4204D9B7F80A903B6B54
:101AE00001FB0939C4F81890CEE7042003B0BDE823
:101AF000F08F3B89B3EB551FC4D800230420A361AA
:101B0000C6E70220C4E7002EF7D061692068FFF71E
:101B100049FF8346002839D00128F2D0B0F1FF3FB9
:101B20002CD0FA78002A33D107F13806ABF1020342
:101B30004FF4007200213046019319F089FCF869D6
:101B4000019B821E934229D279893A6B019B03FB48
:101B500001227A6329B34FF0000A05E07A6B788995
:101B6000013250457A630BD94FF0010338460AF130
:101B7000010AFB70FFF742FB0028EFD0012087E746
:101B8000F869A2EB0A027A630246A0E707207FE722
:101B90003846FFF733FB0028C6D0EFE779890022EB
:101BA000D7E78A46EDE700BFB1F5001F42D2CA066B
:101BB000F8B50D4620D18168064607680561E9B190
:101BC0007B89B5EB432F4FEA432435D3384607E0F2
:101BD000012811D9FB6983420ED9AC422DD8306857
:101BE000FFF7FCFD431CA5EB04050146F0D10120E5
:101BF000F8BD0023C6E905130220F8BD3B78022B8F
:101C000013D83B89B3EB551FF6D9FA6AB2617161FB
:101C1000002AF1D007F13803C5F3080102EB552281
:101C200000200B44C6E90623F8BDFB6A002BE8D070
:101C30001946C5E702207047FB69023B881E98429F
:101C4000D7D27B893A6B00FB0322B261DFE700BF8A
:101C50002DE9F04F0021054607682DED028B85B078
:101C6000FFF7A2FFC8B94FF0FF094FF0FF3307F1AC
:101C70003808CA46EB62AC697B6B9C4213D0FB7898
:101C8000002B4FD10123224641467878FFF74CFACA
:101C900040B14FF0FF3301207B6305B0BDEC028BF8
:101CA000BDE8F08F7C63EC692678002E00F0AB80F5
:101CB000E27AE52E02F03F03AB7103D0100711D595
:101CC0000F2B39D04FF0FF334FF0FF0AEB620021AA
:101CD0002846FFF7C5FE0028CDD005B0BDEC028B2D
:101CE000BDE8F08F0F2B27D0BAF1000F77D095F811
:101CF0002B0010F00100E5D195F8201005F121022C
:101D000014F8013B05F12B065B1A002BDAD112F80F
:101D1000011B14F8013BB242A3EB0103F5D1002BE8
:101D2000D0D1BAE73846FFF769FA0028AAD005B043
:101D3000BDEC028BBDE8F08F95F82B305906C6D468
:101D4000720647D52B6906F0BF0694F80D90EB623A
:101D5000637B4B4540D1638B002B3DD194F800A0B1
:101D60000123F96808EE108A0AF03F0A02960195ED
:101D70000E460AF1FF3ADFF8C0B0184625460AEBD6
:101D80004A02039100970AEB820A13E0BAF1FE0FB0
:101D9000204618D801F036F8804636F81A00BA46C0
:101DA00001F030F8804520460DD1224B9B452CD0C8
:101DB0001BF8013F0AF10107EC5A0028E6D14FF663
:101DC000FF739C42F1D0DDE9007518EE108A4FF0E8
:101DD000FF0A7CE7B245BBD04FF0FF0A77E704F17A
:101DE0000B0022464FEACA1312F8011B43EA5A0AB3
:101DF000824251FA8AFA5FFA8AFAF3D1D1457FF426
:101E000076AF002049E7042047E72C46009F029E5A
:101E100018EE108A2378019D5B0600D520B906F1E3
:101E2000FF3A5FFA8AFA52E7039B33F81A30002B25
:101E3000F5D0D1E7DCC90124D0C901242DE9F04F48
:101E40000B7883B00E4607462F2BD0F800B037D062
:101E50005C2B37D0DBF81830836033781F2B3AD9EE
:101E60005A461F2BD56898B240F22181A5F102098C
:101E7000B046012408E029F8020F631C18F8010F8E
:101E80001F2840F21A811C462F2804F1FF3A2CD05B
:101E90005C282AD0B4F5807F0ED0012100F092FF9B
:101EA00050B17F28E7D82223B14A03E012F8013F5E
:101EB000002BE0D09842F9D1062003B0BDE8F08FA6
:101EC00016F8013F2F2BFBD05C2BF9D00023BB6011
:101ED00033781F2BC4D880230021384687F82B3055
:101EE00003B0BDE8F04FFFF75FBE335D32195C2BE6
:101EF00002D02F2B40F05C81631C33441E4613F844
:101F0000012B2F2AFAD05C2AF8D0BAF1010F4FF03A
:101F1000000800F0DA80BAF1020F40F0DC806B8834
:101F20002E2B00F01381934A05EB420205E0BAF133
:101F3000010A00F0BC8032F8023D202BF7D02E2B96
:101F4000F5D04FF02033002225F81A207B623B6247
:101F5000C7F827302888202802D02E2840F0FC809F
:101F60002A46002332F8020F1C4601332028F9D0FC
:101F70002E28F7D048F00308023405EB4A0333F863
:101F8000022D2E2A02D0BAF1010AF8D190B3002313
:101F90000822BC46314699461F462E465B461546EA
:101FA000E3460A46202803D02E283AD1544538D09B
:101FB00048F0030836F8140001340028F2D15946DD
:101FC0009B463B4616460F4691F820102A46E529C7
:101FD00002D1052187F82010082A00F0958003F02F
:101FE0000C020C2A04D003F00303032B40F096806C
:101FF00048F0020887F82B803846FFF729FE97F84B
:102000002B3060B304287FF458AF9C0640F1E48085
:1020100059073AD58023002087F82B3003B0BDE85C
:10202000F08F4D4534D9A4EB0A01B1FA81F1490989
:1020300071BB7F2858D82B21DFF840C103E01CF882
:10204000011F00297AD08142F9D148F003085F20AE
:102050000BEB090109F1010981F82000AAE75A07F1
:102060003FF52BAFBB79DB0640F1B4803B699BF8B1
:102070000010C3F308020BF13803032913445A8BF1
:1020800002D19B8A42EA0342BA603A683378E8E6B2
:102090000B2D00F08F80544502D048F003088ED8F5
:1020A000BF0054460B254FF00809FFB282E700231A
:1020B00006202B8003B0BDE8F08FA2461E444FF0EF
:1020C0000408BAF1010F7FF426AF2B882E2B45D0E0
:1020D0004FF0004228E7BAF1000FE8D06FF000425D
:1020E000524435F812301FE7CDE9003200F06AFEA5
:1020F000DDE90032F8B1204948F00208084410F840
:10210000800C0028A1D096E79B0003F00C020C2A5B
:102110003FF46EAF18F0020F08D06BE718F0020F13
:102120007FF468AF012B08BF48F01008042A08BFED
:1021300048F008085EE748F0020886E7A0F1410190
:1021400019292CD847F00207C0B281E72A882E2A25
:102150007FF4E9AE042302E001240EE7022300220B
:102160002E242020EA5207F1200201230DE000BFB7
:102170003CC901240100008050C9012448C9012440
:102180000B2B107006D001330132591E8A45F7D946
:102190001470F8E748F0200887F82B802CE7A0F1AE
:1021A000610119299CBF203847F00107C0B24FE7F1
:1021B0001646AAE6594616469B4648F0030891F88B
:1021C00020203B460F46E52A7FF409AF052281F81F
:1021D000202004E7052070E613F0040F08BF052057
:1021E0006BE600BF2DE9F04F2DED028B90F82B3000
:1021F0008BB013F0A002009340F02E81D0F800A025
:102200000646DAF80CE0BEF80030002B00F0C7817B
:102210009346724632F8023F0BF1010B002BF9D1C5
:1022200006F120030DF11C0893E8070088E8070079
:10223000009A0293D1076BD56FF01F054022B1467B
:102240000127AD1B86F82B20AD4C7346029EB44689
:10225000052F98E80700ACE803002CF8022B4FEAA2
:1022600012428CF800206FD9198800296CD09C4646
:102270003B46102001F00102490802EB4303DA0358
:1022800048BF63400138F5D13CF8021F0029F0D166
:102290000DF11B0C072203F00F004FEA131E013A49
:1022A00000F13001392988BF00F137010F2B734647
:1022B0000CF80119EFD80AAB7E21134403F8141C63
:1022C000002A43D009F11F01002302E001339A42A2
:1022D00003D011F8010F2028F8D120334B440AA96C
:1022E000072A01EB02004FF0200102D810F8141C5D
:1022F000013203F8011BE9180729F0D94846FFF716
:10230000A7FC28BB0137642F16D0DAF80C309EE703
:10231000009B54469B0726D57A4B0BF10C070021F6
:102320003046A3FB0737FFF73FFC8146BF08013764
:1023300008B3042840F03A814FF0070948460BB033
:10234000BDEC028BBDE8F08F3B46A1E71346C4E726
:1023500004284E468146F1D1009B346886F82B3024
:10236000009B9B07D8D400213046FFF71DFC0127B6
:1023700081460028DDD1054604F13808D6F818B0AA
:10238000636B9B4516D0E378002B5FD101235A463F
:1023900041466078FEF7C8FE50B14FF001094FF09A
:1023A000FF33484663630BB0BDEC028BBDE8F08F92
:1023B000C4F834B0F3691B78E52B0BD0B3FA83F281
:1023C00052093BB1154601213046FFF749FB002871
:1023D000D4D0AEE70135AF42F5D17B1E00933ED19C
:1023E000B469DAF834309C4211D09AF80330002BEB
:1023F00040F0DE80012322460AF138019AF80100FC
:10240000FEF792FE002840F0C380CAF83440202234
:102410000021F06919F01CF8F36906F12B01029A0A
:10242000013B12F8010B914203F8010FF9D196F824
:102430002B300122F169484603F018030B738AF828
:1024400003200BB0BDEC028BBDE8F08F2046FEF7F9
:10245000D5FE00289AD06CE74FF006096EE7316987
:102460003046009BA1EB4311FFF79EFB0190002833
:1024700040F0A68006F12B01029AC30143EA500303
:1024800012F8010B50FA83F38A42D8B2F5D10AF15F
:102490003803DFF874B0019008EE103ACDF80C90D4
:1024A000B469DAF834309C420FD09AF80330002B2C
:1024B00077D10123224618EE101A9AF80100FEF790
:1024C00033FE002864D1CAF834409DF800900F27ED
:1024D000F169002509F1FF30DAF80CE0CF722B46E4
:1024E00000EB4002019F01244FF6FF7800EB8200D1
:1024F0004FF0FF0C2A464F730D738D76CD761DE09D
:10250000211001004FECC44ED0C901243EF8103018
:10251000180A0B5568705BB901324FF6FF730D2A2C
:1025200023D01BF802000C1801F800C084F801C089
:10253000013238460D2A11D01BF80240434501EB09
:10254000040500F10107E1D1013201F804C007469A
:102550000C440D2A384684F801C0EDD14FF6FF72C5
:10256000934202D03EF817300BB949F040090123DD
:1025700081F80090304600218AF80330FFF770FAA6
:10258000A0B9009B013B00938AD1DDF80C9027E7AE
:102590004FF0FF334FF00109CAF83430CEE69B46C6
:1025A0003EE65046FEF72AFE002882D08146C5E668
:1025B0005046FEF723FE00283FF41CAF8146BDE6DF
:1025C000DDF80490BAE600BF30B585B0154601903D
:1025D00003A800910391FEF7CFFD031E1BDB0F4CF8
:1025E00054F8231009B100220A70019959B1002250
:1025F000012D44F823100A700AD101A96846FEF79C
:10260000E1FE05B030BD084644F8231005B030BDEA
:10261000104605B030BD0B2005B030BD28060020A7
:102620002DE9F04790B00191002800F0838002F07E
:102630003F071646044603A901A83A46FEF7C2FE24
:10264000054628B100232360284610B0BDE8F08776
:10265000039B04A801990493FFF7F0FB80B99DF94F
:102660003B30002B6BDB16F01C0F10D09DF81630A2
:1026700013F0110F65D1730740F1CA800825E1E717
:1026800016F01C0F01D004285FD00546DAE79DF84C
:102690001630DA0657D4B10701D5DA0751D4DDF880
:1026A0000C903B0748BF47F04007D9F8343023620D
:1026B0000B9B636299F800205E8B032A02D19A8AF1
:1026C00046EA02460021A66004F12C0AD3F81C80D9
:1026D000B9F806304FF4007227745046C4F80090E1
:1026E000C4F80C80A162A3806174E161616118F09B
:1026F000AFFEBF06A8D5B8F1000FA5D0B9F80A30D3
:10270000C4F81480B8EB432F4FEA432706D884E07F
:10271000701C00F0B880474580F0B58031462068D5
:10272000FFF75CF80128A8EB07080646F0D8022559
:10273000A06187E70925284610B0BDE8F087062587
:1027400080E707257EE704257CE704A847F0080713
:10275000FFF748FD002898D105F040FF0B9BC6B25B
:10276000C0F30742C0F30721000E9E734FF0200C08
:10277000D9731A7458740B9BDDF80C909E75D9753B
:102780001A7658760B9B83F80BC099F800200B9BA8
:10279000032A5E8B02D19A8A46EA024600229A7682
:1027A000DA7699F80010032901D11A755A750B9B36
:1027B00000221A775A779A77DA77012389F803305B
:1027C000002E3FF46EAF31460498D9F83480FFF7FD
:1027D000A9F800287FF459AFDDF80C90D9F834300F
:1027E00098453AD099F80330002B42D10123424654
:1027F00009F1380199F80100FEF796FC88B34FF013
:10280000FF31039B01250E44C9F834101E6119E7FE
:102810003007A1D4DDF80C9047E7A661C8F30803A0
:10282000002B3FF411AF0398023EC369023B9E4266
:1028300004D24289036B06FB02320AB9022501E782
:1028400002EB582251460123E2614078FEF76CFC0E
:1028500000283FF4F9AE0125F4E6013EC9F8106006
:102860001FE7013EC9F83480DDF80C90C9F810600C
:1028700017E74846FEF7C2FC0028B7D0039B013E8D
:1028800005461E61DEE6711CA6610CBF0123002314
:10289000C4D11D46D6E600BF2DE9F04F1E4687B0D5
:1028A0000023884605A9044633601746FEF78EFCD0
:1028B0000546002861D1657C002D5ED194F810A0FA
:1028C0001AF0010A00F0A1806069E3681B1A9F42B8
:1028D00028BF1F46002F50D004F50B7304F12C0BBA
:1028E000CDE90135C0F3080363BB0599430A4A8962
:1028F000013A12EA502244D0A069CB690238023B67
:1029000098424BD2B1F80AC00B6B0CFB0030002888
:1029100044D0B7F5007F02EB000946D2E2694A4590
:102920000BD094F91030002B71DB487801234A4614
:102930005946FEF7F9FB002860D16369C4F81C9082
:10294000C3F30803C3F5007C5B4408F1FF32BC45C8
:1029500028BFBC4603EB0C0013F8011B834202F8AE
:10296000011FF9D16069B7EB0C073368E04460449C
:10297000634460613360B5D1029D284607B0BDE86D
:10298000F08F38BBA068012808D9431C36D00599C0
:10299000A0610238CB69023B9842B3D302231D46A3
:1029A0006374284607B0BDE8F08F02EB57207D0A1C
:1029B00060454878414688BFACEB02054A462B4645
:1029C000FEF7B2FBD0B994F91020002A33DB4FEAAE
:1029D000452CC7E7A06A38B3216804304989B3FBA6
:1029E000F1F3016829B9D9E75B1A50F8081F0029EB
:1029F000D4D08B42F8D240681844C4E7554601232E
:102A00002846637407B0BDE8F08F0725B5E748781E
:102A100001235946FEF796FB0028EFD1237C059948
:102A200003F07F03237480E7A16920680392FEF717
:102A3000D5FE039AA7E7E269A2EB0909A945C6D228
:102A400008EB492904F12C01019809F1FF3211F832
:102A5000013B814202F8013FF9D1B8E72DE9F04F7F
:102A6000994685B000230E4603A90546C9F80030F3
:102A70001746FEF7ABFB804600285DD195F8118024
:102A8000B8F1000F58D12A7C910740F1B9806B69E9
:102A9000FB4228BFDF43002F00F0828005F12C0AA3
:102AA000C3F30804002C56D103995A0A4C89013CFF
:102AB00014EA53240FD1002B76D1A868002800F027
:102AC000A280012835D0431C00F09380AB68A86138
:102AD00003B9A860039995F91030002B7CDBAA6933
:102AE000CB69A2F1020B023B9B4522D248890A6BBB
:102AF00000FB0B22EAB1B7F5007F04EB020B1FD3FA
:102B000004EB57227B0A82425A4688BF031B48784F
:102B100031460193FEF716FB00286AD1EA69019B52
:102B2000A2EB0B0B9B45C0F0888006EB43265902B5
:102B300026E0022398466B74404605B0BDE8F08F4E
:102B4000EB696C695B4502D0EB689C426BD3C4F3C4
:102B50000804C5F81CB0C4F5007304F1FF3CBB4287
:102B6000D44428BF3B46194633460E4413F8012B84
:102B7000B3420CF8012FF9D12B7C63F07F032B7447
:102B80006B69EA680B449A426B6138BF1A467F1A38
:102B9000EA60D9F800200A44C9F8002080D12A7CD4
:102BA00042F040022A74C7E7A96A002933D02B6893
:102BB00004315B89B2FBF3F30A682AB9EFE79B1A89
:102BC00051F8082F002AEAD09342F8D248681844F6
:102BD00000287FF476AFE2E748780123EA6951469E
:102BE000FEF7B0FA28B92B7C039903F07F032B740E
:102BF00075E7012398466B74404605B0BDE8F08F39
:102C00004FF0070898E721462868FEF7CBFE00281A
:102C10007FF457AFC3E7A9692868FEF7C3FE002811
:102C20007FF44FAFBBE7487801235A465146FEF781
:102C30007BFA0028DDD16C6989E706EB4B2205F1B0
:102C40002B0102F5007412F8010BA24201F8010FEA
:102C5000F9D12A7C02F07F022A7466E770B3F8B5D6
:102C6000036804462BB11A781AB18188DA88914238
:102C700001D00920F8BD5878FEF73AFAC207F8D417
:102C8000237C13F04000F5D01B06266847D405F0DE
:102C9000A5FC276A736B05469F4212D0F378002B80
:102CA0004AD101233A4606F138017078FEF73CFA22
:102CB00030B14FF0FF3301207363F8BD0920704736
:102CC0007763636ADA7A42F02002DA72A2682168D6
:102CD000C2F307209A76D8760978032903D1120C1B
:102CE0001A75120A5A75E26830469D75110A1A77EC
:102CF0005977110C120E9977DA772A0ADA752A0CAD
:102D00002D0E1A7600225D769A74DA740123F37020
:102D1000FEF79EFA237C23F040032374F8BD0123C1
:102D2000E26904F12C017078FEF70CFA50B9237CAB
:102D300003F07F032374AAE73046FEF75FFA00280A
:102D4000AFD0F8BD0120F8BD10B582B00446FFF742
:102D500085FF08B102B010BD01A92046FEF736FA82
:102D60000028F7D1206002B010BD00BF144B9A7B41
:102D7000012A01D90120704793F80EC000225FFAA2
:102D80008CFC03F80C2093F80EC003EB8C0CCCF8F1
:102D9000040093F80EC0987B9C448CF80C2000F142
:102DA000010C30305FFA8CFC83F80EC04FF03A0C07
:102DB0002F23087081F801C010468B70CA707047CD
:102DC000340800207F2814D981B90D4AC72303E0B5
:102DD00080290DD032F8023F98421FFA81FC01F1A0
:102DE0000101F5D10CF1800080B27047FF2801D9B4
:102DF00000207047024B803833F81000704700BF46
:102E0000E0C90124B0F5805F244A41F67D51244B8E
:102E100034BF6121134610B5043303E00433DAB143
:102E200033F8041C1C46B1B1884214D333F8022C89
:102E30005FFA82FC120A0CEB010E7045EEDA082AEA
:102E400009D8DFE802F00512181B1E2124270E0006
:102E5000411A33F8110010BD04EB4C0334F81C1078
:102E6000DAE7A0F5E35080B210BD431A03F0010386
:102E7000C01A80B210BD103880B210BD203880B2A8
:102E800010BD303880B210BD1A3880B210BD083085
:102E900080B210BD503880B210BD00BFD4CC012428
:102EA000E0CA0124704700BF704700BF704700BFF1
:102EB000704700BFF8B5184816460D4600F0DAFF17
:102EC000154800F0E3FF154802F0B4FB144802F087
:102ED000B1FB144802F0AEFB134802F0ABFBCEB1DD
:102EE0000024124F124817F081FD97F82230DFEDD1
:102EF000117AFF2BD5E9003018BF20EE270A00EB2E
:102F0000840003EB8403013480ED000AA64283EDC4
:102F1000000AE7D1F8BD00BF8C0800204C08002053
:102F20005C0800206C0800207C0800204408002079
:102F3000B49D002000000000B9B30144F0B515466F
:102F4000A5B002F10807441E4E1E01E0A6422AD099
:102F500014F8011F6A46384602F094FA0028F5D0AA
:102F6000D5F8A8C090226946D5E92B03C31A00F111
:102F7000010E00EBC00048BF63440CF1FF3C9C45D0
:102F8000E4D0D5F8A430C5F8ACE003EB001018F09D
:102F900051FAD5E92A239342A3EB020328BFC5F8CF
:102FA000AC30A642D4D125B0F0BD704770B500F169
:102FB0004805044684B00126284600F0CFFD20468F
:102FC00000F0D4FC082328468DF800608DF801300D
:102FD00000F048FF009904F1080002F011FB0923FA
:102FE00028468DF804608DF8053000F03BFF01990C
:102FF00004F1180002F004FB042328468DF8086051
:103000008DF8093000F02EFF029904F1280002F03B
:10301000F7FA032328468DF80C308DF80D3000F0B8
:1030200021FF039904F1380002F0EAFA3021284622
:1030300004B0BDE8704000F0E7BE00BF0000000033
:103040002DE9F04F85480126854C0027854D2DED53
:10305000048B93B0FFF7AAFF012002F0DDF982484C
:1030600002F0CCF9814800F05BFF0146804800295E
:1030700014BF2146294602F0C1F931467B4800F0D1
:103080007BFF01467B48002914BF2146294602F0F8
:10309000B5F9032307A905A8079308968DF82470AE
:1030A00005F0C0F93146744805F074FA3A467349A0
:1030B0007348FFF789FA002800F03D820AAB09EE59
:1030C000103A68496F4802F099F941F2883005F0EA
:1030D00039FB00236C4AB7EE000A19EE100A0D9373
:1030E0000B9217F055FCB6EE000A19EE100A17F015
:1030F0004FFC664BDFF8B4811B78002B40F029822F
:103100005A4800F0ABFEF7EE006AF0EE407A604AF3
:103110009FED607A4FF07C531046144682ED027AA0
:10312000B0EE470A86EEA77A5360D3600023C2ED63
:10313000047A936182ED057A17F012FE0023564956
:103140004A482370039340F2011384ED070A238554
:1031500000F052FE05F0F4FA012381468346029303
:103160008246044605F0ECFAA0EB09030546022B63
:103170002CD8A5EB0B03B3F5FA6F4BD82B1B642BA4
:103180005DD8A5EB0A03B3F57A7F00F24E813F4B81
:103190001B788BB1414802F0F3FB002800F09481CA
:1031A000D8F8AC20D8F8B030D11A00290846C0F2BF
:1031B0004481002840F04781284800F025FC05F0B4
:1031C000BFFAA0EB09030546022BD2D9B9EE048A57
:1031D00019EE100A17F0ECFBF2EE048A01211F48E9
:1031E000F0EE487AA946E0EE287AB0EE670A00F0E1
:1031F000E1FA19EE100A17F0DBFBA0EE288A022193
:103200001648B0EE480A00F0D5FAA5EB0B03B3F56B
:10321000FA6FB3D9029B01211048AB461A464B40C6
:10322000029300F0B7FB039B02210C481A4683F07F
:103230000103039300F0AEFB2B1B642BA1D91848AC
:10324000012702F0DBF8174802F0D8F816486FF0B3
:103250000306002402F0D2F853E000BF4408002027
:1032600090CD012498CD0124C0CD01248C080020EC
:10327000E0CD0124F0CD0124E002002400CE0124A1
:10328000E402002434CE012400007A44B09D0020E2
:10329000B49D00200000C842B52E0024700C002010
:1032A00044CE01245CCE012474CE01246C0C002099
:1032B000B5EEC00AF1EE10FA00F11281B0EEC00ACC
:1032C00020239FEDC16BFDEEC07AB8EEE77ACDED1D
:1032D000007A30EE477AB7EEC77A27EE067B3A4699
:1032E000BB49BC48BDEEC77B8DED017A02F030F8DA
:1032F0000134B94802F02CF801360A2C07F1010715
:1033000033D0052E2146B54840F2A88100F0D4FA0A
:10331000032CCDD8B5EEC00AF1EE10FA00F1F28020
:10332000B0EEC00A20239FEDA86BFDEEC07AB8EE88
:10333000E77ACDED007A30EE477AB7EEC77A27EE1E
:10334000067B3A46A649A348BDEEC77B8DED017AC0
:1033500001F0FEFF032CCBD10134A24801F0F8FFAD
:1033600001360A2C07F10107CBD19C4F9E4802F091
:1033700045F89E4802F042F89D4B9E4AB97C9E4813
:10338000FF290CBF114619469C4E01F0E1FF9C4CF1
:1033900097F822109B48FF290CBF3146214601F0C7
:1033A000D7FF97F832109848FF290CBF31462146C5
:1033B00001F0CEFF97F842109448FF290CBF314628
:1033C000214601F0C5FF97F80E32002B00F0AC80CB
:1033D00007F5FC7003F066F980F00100C0B28C4B79
:1033E0008C49002808BF19468B4801F0B1FF7B4B80
:1033F0008A4893F82632002B00F09A8003F052F9A5
:1034000080F00100C0B2824B2C468249002808BFE0
:103410001946834801F0F2FF734801F0EFFFA5EB76
:103420000A03B3F57A7F7FF6B2AE7E48AA4603F070
:1034300041FA7D4803F03EFAA9E6D8F8A80008440E
:1034400000283FF4B9AE93423FF4AFAE03EBC3069E
:10345000581CD8E929133501984201EB06164F5D37
:103460007168357A767AC8F8B00002D3C01AC8F805
:10347000B000012F7FF496AE33462A466B4801F028
:10348000BDFF002E3FF48CAE07EE905A9FED687A98
:10349000F2EE080A674DF8EE677AB0EE000A77EEB2
:1034A000C77AC7EEA00A17F083FCDFED637A2846DF
:1034B00020EE270A85ED020A17F052FC85ED070A77
:1034C000D8E92B23D11A70E65C4802F093F85C48E7
:1034D00002F05AFA5B4A5C49101D02F047FA5FE6B7
:1034E000B0EEC00A2D239FED386BFDEEC07AB8EE2A
:1034F000E77ACDED007A30EE477AB7EEC77A27EE5D
:10350000067BECE6B0EEC00A2D239FED2F6BFDEE9F
:10351000C07AB8EEE77ACDED007A30EE477AB7EEB2
:10352000C77A27EE067B0CE7484803F0BBF856E75E
:1035300003F0B8F867E70A2245494648FFF770F8F4
:10354000A8B10AAB434809EE103AFFF7FDFB294644
:10355000B8E5404640F20133A8F8003050F8041BAB
:1035600002F0DAF908F1080002F044F8C8E50AAB05
:103570000A9016223849374809EE103AFFF76EFADA
:1035800005463448FFF7E0FB002D7FF49AAD324644
:103590002F493048FFF744F820B12E48FFF7D4FBFD
:1035A00021468FE5069006AB162219EE101A29481F
:1035B000FFF772F905462748FFF7C6FB002D7FF499
:1035C00080AD21467EE500BF0000000000408F4036
:1035D00018CF01241CCF012488CE012444080020E8
:1035E0002CCF012484CE01245CCE01248CCE012476
:1035F000A4CD0124A0CD01249CCE0124A8CD01247A
:10360000ACCD0124A8CE0124B8CE0124C8CE01241B
:10361000BCCD0124B4CD0124D8CE0124540A00200D
:10362000E8CE01246C0A0020700A0020F8CE0124A4
:1036300000008A42B49D00200000DC43740C00208E
:10364000700C00206C0C0020392F00243C0A002054
:1036500004CE0124600700241CCE012400F0A0F950
:10366000B5EEC00AE21EF1EE10FA22D4B0EEC00AA6
:1036700020231F491F48FDEEC07A9FED1B6BB8EE5B
:10368000E77ACDED007A30EE477AB7EEC77A27EECB
:10369000067BBDEEC77B8DED017A01F059FE032C50
:1036A0007FF658AE062C3FF457AE092C7FF420AEBF
:1036B00052E6B0EEC00A2D230D490E48FDEEC07A49
:1036C0009FED096BB8EEE77ACDED007A30EE477AE0
:1036D000B7EEC77A27EE067BBDEEC77B8DED017A8C
:1036E00001F036FEDEE700BF0000000000408F4022
:1036F00030CF01241CCF012438B5244800244FF6D4
:103700000B75234A234904628462C0E90344C0E97B
:103710006C54C0E96E44C0E97254C0E9744417F0B7
:1037200025FB1D484FF44073194A1C4903601C4B8C
:103730004460C0F89C3040F20F73C0F8AC40C0F851
:10374000A03000F1B403C0F8B040C0F8A43040F29B
:103750000113C0F8A83017F009FB0D4A11491248AF
:1037600017F004FB11480A4A846604671049C0E94F
:103770001544C0E97E54C0E98044C0E98454C0E9DE
:103780008644BDE8384017F0F1BA00BF7C0A00203B
:1037900000000020A52E00246C0C0020B12E002477
:1037A0000080707FA92E0024B49D002044080020D2
:1037B000AD2E0024F1EE047AB4EEE70AF1EE10FA31
:1037C00026DCF9EE047AB4EEE70AF1EE10FA26D51B
:1037D00001295ED0B0EE670A9FED2F7ADFED2F7AD8
:1037E000F1EE046A37EE677A30EE260A80EE266A3A
:1037F000E7EE067AB0EE670AF1EE047AB4EEE70A75
:10380000F1EE10FA34DDB0EE670A483000F046BB46
:10381000012937D09FED220A483000F03FBBB5EEBA
:10382000C00A0129DFED1F6A9FED1F5A9FED1F7A25
:10383000DFED195A46FE856ADFED1D7A9FED176AA6
:1038400007FE257A47FE867AF1EE10FAC8D9B1EE66
:10385000046A76EEC76AC0EE067AA6EEA77AF1EEA3
:10386000047AB0EE470AB4EEE70AF1EE10FACADCC9
:10387000B5EEC00AF1EE10FACED59FED0E0A483033
:1038800000F00CBBB0EE670ADFED066A9FED077A29
:10389000DDE79FED070ABFE7F8532340128384401A
:1038A0003C0A773F508D773F3D0A773F8195234013
:1038B00008AC84400000000010B50C46483000F011
:1038C000E7FA032C28D8234A234B02EB840223492E
:1038D00003EB8403D2ED007A01EB8404D3ED006A9C
:1038E000B4EEE70A94ED007AF1EE10FA15D930EE55
:1038F000676A9FED1B0A77EE677A9FED1A7AC6EE2C
:10390000276AF7EE007AA6EE870AB4EEE70AF1EE30
:1039100010FA15DDB0EE670A10BD30EE666A9FED55
:10392000117A77EEE67A9FED100AC6EE276AF7EE77
:10393000007AA6EE870AB4EEE70AF1EE10FAE9DCA7
:10394000FFEE007AB4EE670AF1EE10FA48BFB0EE6F
:10395000670A10BD38CF012458CF012448CF012475
:1039600000000000CDCC4C3FCDCC4CBF70B5084E14
:103970000125044633884580038002F09FFE2046DF
:10398000B388E58020F8043FBDE8704002F096BEA1
:10399000C8C801240129114618BF043002F078BFBD
:1039A0000A1F032A02D9483000F072BAC9B25C304B
:1039B00008B502F05DFA07EE100A9FED0F6AB8EE47
:1039C000477ADFED0E7ADFED0E6A87EE060A37EEF4
:1039D000C00A20EE260AB5EEC00AF1EE10FA08D4AD
:1039E000F7EE007AB4EE670AF1EE10FA37FE800ABD
:1039F00008BD9FED040A08BD00FF7F47F853033F51
:103A000085EB414000000000837CFF2B00D0704715
:103A1000F0B583B0044604F093FE07EE900AD4EDAF
:103A2000056AF8EE677A9FED217A77EEE67AF4EE92
:103A3000C77AF1EE10FA36DB04F148001C4F01257D
:103A40002646019000F012FA019800F0D9F93B885F
:103A500020466580238002F031FEBB88E580042586
:103A600026F8043F304602F029FE0121204602F0EC
:103A70000FFF0021304602F00BFF642004F062FECD
:103A80000021204602F004FF3046012102F000FF31
:103A9000642004F057FE013DE7D1032003B0BDE8E8
:103AA000F04004F051BE03B0F0BD00BF00803B45C4
:103AB000C8C8012400294ED0274BF0B5D0E9002416
:103AC000481E03F10C0E951C03F1100C4E00AC4285
:103AD00018BF052802EB41058CBF0120002062457C
:103AE00038BFAE452CBF01270027384227D02644D7
:103AF000644538BFB64522D39D890026D8894FEA50
:103B0000510E65F30F06A44602EB8E0E65F31F46B9
:103B1000002560F30F0560F31F45104640F8046B65
:103B200070454CF8045BF9D121F00100C90705D5B7
:103B3000998922F81010DB8924F81030F0BD023A80
:103B4000023C023D998922F8021FAA42D98924F831
:103B5000021FF7D1F0BD7047E09D00202DE9F04332
:103B600040F20113964A012706462DED028BDDB087
:103B7000C0F8EC21ADF81C30002306978DF81E30FC
:103B800004F0C4FF044604F025FE06A905460028FB
:103B900040F00081002C00F0FD8030468DF81E7052
:103BA00004F03AFF072C0DF198080DD0854906F175
:103BB0000C00854B854ACDE9261301234146289206
:103BC000ADF8A43003F044FE032201234FF00009B6
:103BD0001CA904A806F11005CDF870904446CDF854
:103BE00010905CAFCDE9202300220123CDE92223F0
:103BF000774B01221D9303F1007303F540731E936D
:103C00004FF44173ADF87C300023CDE9242304F058
:103C10008FFA01230CA905A80C930E931023CDF85D
:103C200014908DF840306B4BCDF83C900D9302F022
:103C3000BDFF059906F1200000F0F4F94FF07E5326
:103C40003020049A0A9308A90B930323CDE90803B3
:103C5000284601F0D9F9284601F020FA2846B0EEAE
:103C6000408A01F009FAD0ED007A0DF1580CDFF826
:103C700084E1F8EE677A6546BEE80F0088EE277AA1
:103C8000ACE80F009EE803008CE8030086ED7A7A2A
:103C900035F8023B204612340222ADF80C3003996D
:103CA00001F0A8FEA742F3D106F1140704230C2269
:103CB0004146384606F1300500249FED478A01F061
:103CC000ADFE09E002F0E0F896ED7A0A01462846DA
:103CD000013401F05DFA2035072CE1B23846F1D904
:103CE000E1B2013402F0D0F800230146F0EE480AB8
:103CF00028461A4696ED7A0A01F018FA0C2CEAD1F9
:103D00003046364B40F82C3F02F0D8FC344B0122B1
:103D100006F5D870196801F0C1FA324B012206F598
:103D2000E470196801F0BAFA2F4B06F5F070C6F886
:103D3000E03102F0C3FC2D4B06F5F270C6F8E43119
:103D400002F0BCFC0123D6F8EC0111A9CDE9133334
:103D5000022310301293002315934BF680331193F6
:103D600002F0E6FA384602F067F8D6F8EC41237D17
:103D700004F11005FBB928461D4D2368D4E9011252
:103D8000009502F053FB012323755DB0BDEC028B5F
:103D9000BDE8F083304604F03FFE25B106F108008F
:103DA00000F042FAFEE6002C7FF4FCAE06F10800BB
:103DB00000F03AFAF6E6284602F06EFBDBE700BFB9
:103DC000E09D00200508050905070506050A060609
:103DD00004020404010A010B6F12033B02070100F5
:103DE0006CCF012468CF0124020E0100020D0100F6
:103DF000B53A0024D0C80124103001F053B900BFF7
:103E0000103001F071B900BFF8B500F11007054698
:103E100000F1300400F5D87638462DED028B01F024
:103E20002FF9384601F03AF93846B0EE408A01F0F1
:103E300023F9D0ED007AF8EE677A88EE270A85ED4F
:103E40007A0A01E095ED7A0A2046203401F0FAF969
:103E5000B442F7D1BDEC028BF8BD00BF103001F0C9
:103E60001DB900BF90ED7A0A704700BF143001F011
:103E7000F9BF00BF38B500F1300400F5D875204611
:103E8000203401F0BBF9AC42F9D138BD704700BF16
:103E900000EB411191ED0F0A704700BF0129D0F8E6
:103EA000EC211CD931F002010DD19FED1B7ADFED21
:103EB0001B7A20EE070AB4EEE70AF1EE10FA03DDF2
:103EC00040F6FF71D1817047B5EEC00AF1EE10FAED
:103ED000F8D4BCEEC00A10EE103A99B2F2E7DFED6A
:103EE0000E7A9FED0E7A60EE277AF4EEC77AF1EE45
:103EF00010FA0ADCF5EEC07AF1EE10FA09D4FCEE05
:103F0000E77A17EE903A9BB201E040F6FF73938197
:103F1000C8E70023FBE700BF00C04C4400F07F452A
:103F20004FF04043134A10B543F8042BB3F1444F0C
:103F3000FAD14FF0404300240E491A6804338A42F4
:103F400018BF0134B3F1444FF7D14FF08062002124
:103F50004FF0404017F07CFA4FF040431A680433AA
:103F600002B10134B3F1444FF8D1B4FA84F04009FE
:103F700010BD00BFEFBEADDE2DE9F041B1BB4FF487
:103F800000020F46144600F10C083946404603F083
:103F90002FFD204616F0F1FE064622460021751E32
:103FA00017F056FA0022294601F8012F0132A242E9
:103FB000FAD1394640463346224603F015FD601ECD
:103FC00029460027304401310B784A1E521BD2B2D9
:103FD000934218BF01378142F5D13046214616F091
:103FE000CAFEB7FA87F04009BDE8F081024A4FF4F3
:103FF00080444FF48007C6E7004040000749002294
:10400000074B01F1600010B4302459601A611C6044
:104010001A755DF8044BC3E90202704700000030D6
:10402000E09D0020F0B58C2387B001600022037171
:104030000124FA26194605AB8DF814200296402279
:10404000009323460194054602F046FE002840F006
:104050009B809DF814300DF117074022284603F08D
:104060007F030097CDE901468DF814308DF81730A5
:104070002346297902F056FE002840F0858004206E
:1040800004F060FB05AB4022284600932346CDE9AF
:104090000146297902F020FE002875D19DF81430E0
:1040A00040220097284603F0BF03CDE901468DF872
:1040B00014308DF817302346297902F033FE00289A
:1040C00062D1042004F03EFB0DF115034322284683
:1040D00000932346CDE90146297902F0FDFD002831
:1040E00052D10DF116034822284600932346CDE90C
:1040F0000146297902F0F0FD002845D19DF81530E0
:1041000043220097284643F001038DF815308DF8BF
:1041100017309DF8163043F00103CDE901468DF8C4
:1041200016302346297902F0FDFD68BB9DF8163054
:104130004822009728468DF817302346CDE90146DE
:10414000297902F0EFFDF8B905AB4022284600932B
:104150002346CDE90146297902F0BEFDA0B99DF8BC
:10416000142023460194284602F0CF0402960097BB
:10417000402229798DF814408DF8174002F0D2FDC5
:10418000003818BF012000E0012007B0F0BD00BFDB
:10419000F0B5102387B0234C01220025012600270B
:1041A00002A920460195CDE902234FF48052CDE9C2
:1041B00004670DF05BFE642005F074FD02A94FF466
:1041C00080522046CDE9046702261027CDE9026718
:1041D0000DF04CFE0322102302A92046CDE9022354
:1041E00000230422CDE904234FF480520DF03EFE5B
:1041F00040F23223042202A9019310232046CDE984
:104200000223019A012305924FF4805204930DF08A
:104210002DFE40F6060120460DF048FE284607B068
:10422000F0BD00BF009E00201C4B00221C494FF037
:10423000400C30B5054689B00220596007219A60CC
:104240001A620124DA620A224FF4006EDC600692E0
:104250002022CDE9000104200821CDE9020103203C
:104260001021CDE9040108206946C3E904024FF496
:10427000C072181DC3E906C24FF48052C3E909E2B7
:104280000DF0CAFD38B92846FFF782FF003818BF85
:10429000012009B030BD204609B030BDFC9D002092
:1042A00040410052614A0021D0B513688EB00A9196
:1042B000002B40F0B9805E4B01214FF683700C2437
:1042C00011600221D3F8D4200026032742F4805243
:1042D000C3F8D420D3F8D42002F480520092009A7C
:1042E000D3F8E02042F01002C3F8E020D3F8E02039
:1042F00002F010020192019AD3F8E02042F040024D
:10430000C3F8E020D3F8E02002F040020292029AC3
:10431000D3F8E02042F00802C3F8E020D3F8E02010
:1043200002F008020392039AD3F8E02042F480726C
:10433000C3F8E020D3F8E02002F480720492049ADB
:10434000D3F8E02042F08002C3F8E020D3F8E02068
:1043500002F080020592059AD3F8E02042F0200294
:10436000C3F8E020D3F8E02002F020020692069A7B
:10437000D3F8E02042F00402C3F8E020D3F8E030A4
:104380000C9403F0040307930323079A0B93CDE9DE
:10439000080108A9274807F0C5FE48F23712022392
:1043A00008A925480C94CDE90823CDE90A6707F050
:1043B000B9FE4CF20372022308A920480C94CDE9FF
:1043C0000823CDE90A6707F0ADFE40F2FF62022341
:1043D00008A91B480C94CDE90823CDE90A6707F02A
:1043E000A1FE4FF60C72022308A916480C94CDE9E1
:1043F0000823CDE90A6707F095FE4FF63F02022336
:1044000008A911480C94CDE90823CDE90A6707F003
:1044100089FE2022022308A90A480C94CDE90A67E4
:10442000CDE9082307F07EFE0EB0D0BDF89D002038
:10443000004402580010025800180258000C02589C
:1044400000200258001C0258001402582DE9F04FB9
:10445000DFF8108406460D46144608F118002DEDCD
:10446000028B89B000AF03F05BFFD8F8183073B34C
:10447000D8F81C30D8F80490002B43690BBF4FF0DC
:10448000080A4FF0100A4FF0020B4FF0040BB9F17D
:10449000000F2AD0A200EA46012B02F1070222F007
:1044A0000702ADEB020D6846ADEB020D694600F068
:1044B0003F81022B00F0D680002B6FD02246C847E8
:1044C000D5462437BD46BDEC028BBDE8F08FD8F849
:1044D0001C30002BF5D0D8F804904FF0080A4FF0AC
:1044E000020B4369B9F1000FD4D1FB61D8F8003059
:1044F000BB61002BE5D0D54803F090FF6B46BBF1C4
:10450000020F786108EE103AFB6900F083816A4679
:104510005146A2EBC40295466200EA46B2FBFBF2AA
:10452000AAEBC40085460AEB8200EE46F861ADEBCB
:10453000010DF8690EEB820CC7F810C0EC46ADEB2C
:10454000010D00EB8201CCF80400CCF8081001EB5F
:1045500082013869E946CCF80C1000EB8201CCF8F6
:1045600000A001EB8202C9E900E0C9E90212012BB7
:1045700000F06483022B00F06C82002B00F080813D
:10458000620849466046BB69984718EE103A2437DE
:104590009D46BD46BDEC028BBDE8F08F002C8DD052
:1045A0001A46D8ED0C6A9FEDB27A8446331D36F96F
:1045B00022E00CF1080C07EE90EA33F922E0023217
:1045C000F8EEE77A944267EE877A67EEA67A4CEDCA
:1045D000027A07EE90EAF8EEE77A67EE877A67EEFE
:1045E000A67A4CED017AE2D8F9612246C847984E86
:1045F000D8ED0D6A0020F9692B1D9FED9E7A9FED85
:104600009E6ADFED9E5A22E0F4EEC67AF1EE10FAD1
:10461000C0F2C88447F6FE72D1ED017A45F8202039
:1046200066EEA77AF4EEC77AF1EE10FA40F2F08067
:10463000F4EEC67AF1EE10FAC0F2D58447F6FE72B7
:1046400043F820200230083184427FF639AFD1EDA3
:10465000007A66EEA77AF4EEC77AF1EE10FAD3D8B4
:104660003246D9E7002C3FF429AFD8ED0C6A8446D6
:104670009FED787A0022331D8E4656F822100CF1F9
:10468000080C07EE901A53F822100232F8EEE77A7F
:10469000944267EE877A67EEA67A4CED027A07EECF
:1046A000901AF8EEE77A67EE877A67EEA67A4CED15
:1046B000017AE2D871462246C7F81CE0C847664E28
:1046C000D8ED0D6A0020F9692B1D9FED6A7A9FEDE8
:1046D0006A6ADFF894C120E0F4EEC67AF1EE10FACF
:1046E000C0F279843246D1ED017A45F8202066EE99
:1046F000A77AF4EEC77AF1EE10FA40F28780F4EE72
:10470000C67AF1EE10FAC0F25E84324643F82020F9
:104710000230083184427FF6D3AED1ED007A66EEE6
:10472000A77AF4EEC77AF1EE10FAD5D86246DAE746
:10473000002C3FF4C3AED8ED0C6A86469FED477A55
:104740004FF0000C331D56F82C200EF1080E82F4A9
:104750000002A2F5000207EE902A53F82C200CF17B
:10476000020CF8EEE77A82F400026445A2F500023A
:1047700067EE877A67EEA67A4EED027A07EE902A08
:10478000F8EEE77A67EE877A67EEA67A4EED017A61
:10479000D9D8F9612246C847314ED8ED0D6A0020BC
:1047A000F9692B1D9FED337A9FED336ADFF8BCC0AA
:1047B0001FE0F4EEC67AF1EE10FAC0F2FC83324646
:1047C000D1ED017A45F8202066EEA77AF4EEC77A9B
:1047D000F1EE10FA18D9F4EEC67AF1EE10FAC0F242
:1047E000DA83324643F820200230083184427FF6D3
:1047F00067AED1ED007A66EEA77AF4EEC77AF1EEF5
:1048000010FAD6D86246DBE76246EBE762467DE700
:10481000324615E7A100D6466208073121F00701AC
:10482000ADEB010DEA46ADEB010D6946ADEB0E0DAA
:104830000AEB8200EC46ADEB0E0D01EB8202F86153
:10484000E946CCE900A0C9E9001290E6509E00209C
:104850000280FFFF000000300082FF7F0000003474
:1048600082FF7F00349E0020007E00807E0080FF5B
:104870000000003804FF7FBF04FF7F3F00FEFF46BB
:10488000002C00F0C982BBF1020FD8F8242000F000
:10489000FA827969C7F8049002EB810E5FED0C5A39
:1048A0008A00DCF808100EF104007A611A46DCF880
:1048B0000C303B61331DD7F810903D61FD69C7E9AD
:1048C00002CB8C46834636F92210D8ED0C7A06EEE0
:1048D000101A33F9221006EE901A3EF92210B8EEA3
:1048E000C66A07EE101AF8EEE66A3BF92210B8EE37
:1048F000C77A26EE256A66EEA56A27EE257A26EEA9
:10490000276A66EEA76A27EE277A07EE901A510803
:104910000232F8EEE77A0AEB8100944280ED006AF9
:1049200005EB810067EEA57AC0ED006A0CEB810013
:1049300009EB810180ED007A98ED0C7A67EE877AB9
:10494000C1ED007ABFD8D7F804903D69D7E902CB12
:1049500060466208BB6949469847D8F82C307A69A6
:10496000D8ED0D6A1A441FED3D7A1FED3D6A2B1DEF
:10497000904602F1040A5FED3F5A0022A84ED9E9A1
:1049800000EC51E0F4EEC67AF1EE10FAC0F2C78204
:1049900047F6FE7045F822000CEB0100D0ED007ADE
:1049A00066EEA77AF4EEC77AF1EE10FA4BD9F4EE80
:1049B000C67AF1EE10FAC0F2BA8247F6FE70BBF189
:1049C000020F43F822002BD0D9F808000844D0ED9C
:1049D000007A66EEA77AF4EEC77AF1EE10FA36D9CD
:1049E000F4EEC67AF1EE10FAC0F2CD8247F6FE7010
:1049F00048F82200D9F80C000144D1ED007A66EEA7
:104A0000A77AF4EEC77AF1EE10FA1ED9F4EEC67A60
:104A1000F1EE10FAC0F2AF8247F6FE714AF82210AA
:104A2000023294427FF6B1AD51080EEB810089004D
:104A3000D0ED007A66EEA77AF4EEC77AF1EE10FABE
:104A4000A0D83046A6E73046B9E73146E6E730461B
:104A5000CEE7002C00F0E081BBF1020FD8F8243043
:104A600000F0E1817A69DCF8081003EB820EC7F8E8
:104A700004909300DFED6B5A0EF1040000227B617D
:104A8000DCF80C303B61331DD7F810903D61FD69B7
:104A9000C7E902CB8C46834656F82210D8ED0C7A33
:104AA00007EE101A53F82210B8EEC76A07EE101A74
:104AB0005EF82210F8EEC76A07EE101A26EE256A95
:104AC0005BF82210B8EEC77A66EEA56A26EE276A72
:104AD00027EE257A66EEA76A27EE277A07EE901A68
:104AE00051080232F8EEE77A0AEB8100944280ED39
:104AF000006A05EB810067EEA57AC0ED006A0CEB59
:104B0000810009EB810180ED007A98ED0C7A67EE67
:104B1000877AC1ED007ABFD8D7F804903D69D7E90C
:104B200002CB60466208BB6949469847D8F82C30EA
:104B30007A69D8ED0D6A1A449FED3E7A9FED3E6A80
:104B4000131D9246DFF8E4C00022FB612B1D364E98
:104B5000D9E9008E4EE0F4EEC67AF1EE10FAC0F21A
:104B6000FC81304645F822000EEB0100D0ED007AC2
:104B700066EEA77AF4EEC77AF1EE10FA49D9F4EEB0
:104B8000C67AF1EE10FAC0F2EF813046BBF1020FA7
:104B900043F822002AD0D9F808000844D0ED007A62
:104BA00066EEA77AF4EEC77AF1EE10FA35D9F4EE94
:104BB000C67AF1EE10FAC0F2C98130464AF82200F6
:104BC000D9F80C000144D1ED007A66EEA77AF4EE34
:104BD000C77AF1EE10FA1ED9F4EEC67AF1EE10FAA9
:104BE000C0F2AD813146F86940F822100232944299
:104BF0007FF6CBAC510808EB81008900D0ED007A3C
:104C000066EEA77AF4EEC77AF1EE10FAA3D8604602
:104C1000A8E76046BAE76146E5E76046CEE700BF31
:104C20000280FFFF000000300082FF7F007E0080D6
:104C30000000003404FF7FBF04FF7F3F002C00F022
:104C4000EB807A690021D8F82430C7F8109003EB84
:104C5000820ED7F81C909300FD610EF104021FED47
:104C60000C6A7B61331D154656F821204808D8EDA3
:104C70000C6ABBF1020F82F40002A2F5000207EEFB
:104C8000902A53F8212082F40002B8EEE77AA2F5C8
:104C9000000227EE067A07EE902A0AEB8002F8EE71
:104CA000E77A27EE267A67EE867A82ED007A09EBBC
:104CB00080024FEA800067EEA67AC2ED007A27D024
:104CC0005EF8212082F40002A2F5000207EE902A8D
:104CD00055F8212082F40002B8EEE77AA2F500022E
:104CE00027EE067A07EE902ADCF80820F8EEE77A3D
:104CF000024427EE267A67EE867A82ED007A98EDF6
:104D00000C7ADCF80C2067EE877A0244C2ED007A58
:104D100002318C42A8D8D7F8109060466208BB696F
:104D20004946FD699847D8F82C307A69D8ED0D6A64
:104D30001A441FED407A1FED406A131D9246DFF8BA
:104D4000C4C20022FB612B1DAB4ED9E9008E4EE0A0
:104D5000F4EEC67AF1EE10FAC0F2C580304645F89E
:104D600022000EEB0100D0ED007A66EEA77AF4EE99
:104D7000C77AF1EE10FA49D9F4EEC67AF1EE10FADC
:104D8000C0F2BF803046BBF1020F43F822002AD0A8
:104D9000D9F808000844D0ED007A66EEA77AF4EE60
:104DA000C77AF1EE10FA35D9F4EEC67AF1EE10FAC0
:104DB000C0F2AE8030464AF82200D9F80C00014417
:104DC000D1ED007A66EEA77AF4EEC77AF1EE10FA2A
:104DD0001ED9F4EEC67AF1EE10FAC0F28B8031469D
:104DE000F86940F82210023294427FF6CEAB5108A7
:104DF00008EB81008900D0ED007A66EEA77AF4EE28
:104E0000C77AF1EE10FAA3D86046A8E76046BAE781
:104E10006146E5E76046CEE7224649466046BB6903
:104E20009847FFF7B2BBC7F810B0002298ED0C6AA4
:104E3000331DDFED726AD7F81CB0786956F822107E
:104E400007EE901A53F82210B8EEE77A07EE901AA0
:104E500051080232F8EEE77A27EE267A0AEB810E45
:104E600094420BEB810167EEA67A27EE067A67EE95
:104E7000867A8EED007AC1ED007ADFD88300D7F80C
:104E800010B07B614DE61A46C7F810B098ED0C6A79
:104E9000331DDFED5B6AD7F81CB0786936F9221054
:104EA00007EE101A33F9221007EE901AB8EEC77AFF
:104EB00051080232F8EEE77A27EE267A0AEB810EE5
:104EC00094420BEB810167EEA67A27EE067A67EE35
:104ED000867A8EED007AC1ED007ADFD88300D7F8AC
:104EE00010B07B6134E5F0EE675AFEEEE45A15EE41
:104EF000900A34E7F0EE675AFEEEE45A15EE901A87
:104F00006EE7F0EE675AFEEEE45A15EE900A3AE7C5
:104F1000F0EE675AFEEEE45A15EE900A4BE767EEA4
:104F2000A57AFDEEE77A17EE900A00B232E567EE59
:104F3000A57AFDEEE77A17EE900A00B23FE5F0EEB3
:104F4000675AFEEEE05A15EE901A4CE6F0EE675AFC
:104F5000FEEEE05A15EE900A30E6F0EE675AFEEEED
:104F6000E05A15EE900AFDE5F0EE675AFEEEE05AC3
:104F700015EE900A0AE667EEA57AFDEEE77A17EEDF
:104F8000901A09B24AE567EEA57AFDEEE77A17EEC8
:104F9000900A00B22CE5F0EE675AFEEEE45A15EEE8
:104FA000902A1FE467EEA57AFDEEE77A17EE902AC5
:104FB00012B2FFF731BBF0EE675AFEEEE45A15EE7F
:104FC000902AFFF7FDBBF0EE675AFEEEE05A15EEB1
:104FD000902AFFF79BBBF0EE675AFEEEE05A15EE03
:104FE000902AFFF780BB67EEA57AFDEEE77A17EE11
:104FF000902A12B2FFF724BB82FF7F00000000302E
:10500000000000387E0080FF30B5184C154685B092
:10501000046004F1080EEC460FC98EE80F00D4EDD1
:10502000047AF5EEC07A8CE80F00F1EE10FA1ADD82
:10503000B7EE006A94ED057A27EE277AC6EE276A66
:1050400084ED0D7AC4ED0C6A6DB1204640F8185F0E
:1050500003F066F9064903690020064A2162A2624C
:10506000E36005B030BD012005B030BD349E0020A6
:10507000C0200030C000003000680830704700BF1A
:10508000B1F5807F03680A4628BF4FF48072B1F5FE
:10509000807F9A6094BF002001207047006818301C
:1050A00003F0AAB930B5046883B00D46E3694BB18B
:1050B000A3680020E26A616A9B00009004F11C0072
:1050C00003F030F9A3680748A26A9B00216A0090A8
:1050D00004F1180003F026F90020C4E9005003B0E1
:1050E00030BD00BF4D44002410B50468A3691BB156
:1050F00004F1180003F074F9E3691BB104F11C001A
:1051000003F06EF9002010BD10B4074B4FF07E5134
:1051100030240022032019619C60D8605DF8044BA4
:105120005961C3E906227047349E0020F6EE007AEA
:105130009FED166A20EE207A0160F7EE006A80ED9E
:10514000036A80ED020A27EE277AC6EE877AF4EE2C
:10515000E67AF1EE10FA11DDF0EE667A4FF07E514C
:105160004FF0000C02760022C0ED017AC0F814C0A6
:10517000016143768276C0ED070A7047F4EEC67A85
:10518000F1EE10FAEAD5F0EE467AE7E7000000000B
:10519000DFED187AB6EE007AF7EE006A9FED166A38
:1051A00060EE277A016080ED036A80ED020A67EE07
:1051B000877A86EEA77AB4EEE67AF1EE10FA10DD81
:1051C000B0EE667A4FF0804C4FF07C514FF4807215
:1051D000012380ED017AC0F810C04161028383761B
:1051E0007047B4EEC67AF1EE10FAEBD5B0EE467A1F
:1051F000E8E700BF6F12033B000000000268037E77
:10520000128807EE902AFBEEC87A1BB1B7EE007A3F
:1052100077EE677AD0ED056A90ED047A77EEE67A5C
:10522000437E67EE877A0BB1F1EE677A90ED030A61
:1052300090ED017A77EEC07AA7EE270A80ED030A97
:10524000704700BF837E80ED020AABB9D0ED077ACC
:1052500027EE800AF6EE007AB7EE007A20EE270AF3
:10526000C7EE007AF4EEC77AF1EE10FA07DDF0EE41
:10527000477AC0ED017A7047DFED067AE8E7F5EE90
:10528000C07AF1EE10FAF4D5DFED037AC0ED017AC1
:10529000704700BF6F12033B0000000070B584B080
:1052A000002504461646ADF80C102B462A460399F5
:1052B000009501F011F9A582A67504B070BD00BF7C
:1052C000704700BFF8B5134F3C687F2C07D9802387
:1052D000114A42F224411C463B60A2F87E100F4D59
:1052E0002B68012B0AD90C4E0D4D2246314628461B
:1052F00000F056FA0028F8D13860F8BD2246064979
:10530000074800F04DFA0028F7D12B6838600133C8
:105310002B60F8BD709E0020749E00206C9E0020C3
:10532000F89E002010B5084C02460B46074821683D
:105330000844C1F1800116F0F7F923681844206091
:10534000FFF7C0FF10BD00BF709E0020749E0020BC
:105350000FB400B583B004A951F8040B0191FFF715
:10536000E1FF03B05DF804EB04B0704730B4154CB6
:105370002168F1B14B1E144DE81810F801298C4634
:1053800019460A2A01D00D2A02D14BB1013BF4E79C
:105390000CF102037F2B10D98023236030BC7047AF
:1053A0000122022323600D200A236854AB5430BC31
:1053B000704701220223044DF4E70CF1010261461B
:1053C000F0E700BF709E0020749E002010B5094CCD
:1053D00002460B46084821680844C1F1800116F0D6
:1053E000A3F9236818442060FFF7C0FFFFF76AFFA6
:1053F00010BD00BF709E0020749E00200FB400B549
:1054000083B004A951F8040B0191FFF7DFFF03B04B
:105410005DF804EB04B0704710B5044601210A485A
:1054200000F038F9002C094B14BF02220022084872
:105430001A60FFF7E3FF0748FFF7E0FF0A20BDE827
:10544000104003F07FB900BFF89E00206C9E002042
:1054500070CF012480CF0124064A0749074808B5C8
:1054600015F084FC034A04490548BDE8084015F0DE
:105470007DBC00BF00000020C1520024F49E00202B
:10548000F89E002038B50446104694F8953019422D
:10549000237815D0032B19D094F89820002594F880
:1054A00096300A4025700B40A26001F0F8021B09FB
:1054B000F82A237100F08680092B73D9002038BDAB
:1054C000032BFBD8DFE803F0112A5102F7291CD087
:1054D00094F98E2094F88E30002AEFDBE218013325
:1054E0000020917384F88E3038BD94F8942094F89D
:1054F000973022711940131F012B217305D994F89D
:105500008F3003F0FD03012B45D10023237018B128
:105510009022211D15F08EFF012038BD94F89730A0
:1055200094F894201940131F2173012B05D994F886
:105530008F3003F0FD03012B29D1002323700028B5
:105540004CD09022211D15F075FF94F89420012075
:10555000032AB4D1237B772BB1D90922783B22715E
:1055600084F8942084F8913038BD94F8973094F8FA
:1055700094201940012A617300D181B118B19022A1
:10558000211D15F057FF00230120237038BD022391
:1055900000202370DCE702230020237038BD0023A5
:1055A0002371EBE70122072B227019D101F00703C9
:1055B000A56084F88F30CBB90322184684F88E306A
:1055C000227038BD0823237194F8993000221940C5
:1055D000227084F8901000289AD19DE70120B7E747
:1055E000082BF1D0284684F8943038BD4B077FF55E
:1055F00065AF8AE700220A2302700371704700BF7B
:1056000070B5044682B0C1F30726CDB2ADF80410E0
:1056100003F096F84FF480724FF001232060A01D34
:10562000A571A280E671A36002B0BDE8704001F0F0
:1056300045B800BF38B5044603F082F8002223685D
:105640002271834210D00122A57AE37A954020602E
:105650002271A01D6DB243B901F00CF940B228438C
:10566000C0B27F28A0720AD038BD01F003F9B0FAA9
:1056700080F040092843C0B27F28A072F4D103F023
:105680005FF807EE900AF8EE677AC4ED037A38BD4A
:10569000704700BF012910B506D0022915D051B1BD
:1056A000BDE8104008F05EBD0A46344834490FF0AA
:1056B00025FCE8B1FEE7334B0A46334C3349344806
:1056C0001C600FF01BFC68B1FEE701222C492B483F
:1056D0000FF014FC00B1FEE72E4928480FF030FC13
:1056E000C0B1FEE72B492A480FF02AFC60B1FEE763
:1056F000284922480FF024FC00B1FEE726491F4844
:105700000FF0ACFB08B3FEE7244921480FF0A6FBDD
:10571000A8B1FEE7204919480FF0A0FB00B1FEE751
:1057200016480FF023FC024640B9164B164C174999
:1057300017481C600FF0E2FB68B1FEE7FEE7144873
:105740000FF014FC0028ABD0FEE70C480FF00EFC65
:105750000028A5D0FEE70F490D480FF0F1FB00B17E
:10576000FEE70E490A480FF079FB00B1FEE7084852
:105770000FF0FCFB002893D0FEE700BF98A10020AB
:105780009800002034A40020915600247C000020C2
:10579000FC9E0020000100205C0000204C00002046
:1057A000084691B208B503F09DFA003818BF0120F1
:1057B00008BD00BF10B50B4B012A0B4C0846196001
:1057C000216006D0022A01D03AB110BD03F0A0FA40
:1057D0002068BDE8104003F0A1BABDE8104003F016
:1057E00097BA00BF34A4002038A40020014807F075
:1057F00097BF00BF58D90020014807F091BF00BFF4
:1058000058D90020014807F08BBF00BF58D90020AD
:10581000704700BF30B5D0F80C44ADF2044D3CB336
:10582000D0F80824D0F804349A4224D0EC46002161
:10583000E6460131D0F80834D0F804249B1AC3F3AB
:105840000903002BF6D0D0F804345A1C0344C2F3E9
:1058500009021D79C0F80424D0F80824D0F80434D3
:105860000EF8015B9A42E4D1D0F810246046A047BC
:105870000DF2044D30BD0021EC46F5E7F8B5254C9E
:10588000E378002B43D00B680E46002B3FD000215D
:1058900005460F465B1A032B30D96B5C294413F085
:1058A0000E0F2BD003F00F03234493F818382BB3BB
:1058B000013B481C50FA83F0D4F80434D4F808248F
:1058C000013B9B1AC3F3090313B311F801CFD4F8BA
:1058D0000434D4F80824013B9B1AC3F30903002BBA
:1058E000F5D0D4F80834814203F101022344C2F315
:1058F000090283F804C0C4F80824DDD10437204627
:10590000FFF788FF3368BFB29F423946C2D3F8BD64
:10591000E370F3E740A40020CAB2114BA2F10102E8
:1059200010B5B2FA82F282B00E4C5209ADF80410F2
:1059300004600120A4F8011011461870204600925E
:10594000FFF7A8FE00230A20E37002F0FBFE009A96
:105950002046054902B0BDE81040FFF72BBF00BF4D
:105960003CA4002040A400207D58002403684FF090
:10597000010CC3F80C1483F803C0C3F8102470475B
:105980000368D878704700BF0368D3F80424C3F8CD
:105990000824704730B54FF44072114C114BA4F8F5
:1059A000012004F61805104A03F1100E04F6280C25
:1059B000C4F838284FF60F02A4F83C28072284F8D0
:1059C0003E280FCB85E80F009EE80F008CE80F0003
:1059D0002046064A0649BDE8304015F0C7B900BF69
:1059E00040A40020E8C8012480707FF0000000205F
:1059F0001158002400B583B04FF0000E4FF0030C97
:105A00004274ADF80410BDF8043080F810E0A0F83E
:105A100002C0038003B05DF804FB00BF2DE9F04F26
:105A2000DFF81C8300258DB0C04C037008F14003E3
:105A30004260074601920E46202229464046C4F89D
:105A40006831C4F86481CDE90255CDE90455CDE94A
:105A50000655CDE90855CDE90A5515F0F9FC202287
:105A6000294604F5A170C4F83151C4F83551C4F881
:105A70003951C4F83D5115F0EBFC019B84F84852B4
:105A800084F830317A68002A6AD02B4604F5987180
:105A9000454606F1100A9E46F01856F803B0E21883
:105AA0000EF1010ED0F80CC0D0F80490D0F80880A8
:105AB00044F803B0C2F80CC04FF0000CC2F80490D8
:105AC000C2F80880008A25F802CB10821AF8032059
:105AD00001F8012F002A70D07A684FF001001233CC
:105AE000724584F84802D7D84FF4802290489DF838
:105AF000043008214FF000084FF00009C4F8843149
:105B00000023C4E95B020122C4F8743184F88031B7
:105B1000C4E95E2194F84812C4E96489A9B3C4F8C1
:105B20009821002284F8813184F888313B78C4E9D7
:105B30006722002B38D0012200200121013B84F88C
:105B4000A421C4E96C01082B30D8DFE813F0BD00B4
:105B5000C200C700CC00D100D600DB00E100E800A5
:105B60009DF804300121C4F87421C4F884314FF445
:105B7000802384F880216E4AC4E95B230823002235
:105B8000C4E95E130023C4E964230123002284F8DE
:105B90008131002384F888310323C4F898313B789D
:105BA000C4E96722002BC6D184F8A431614804F00F
:105BB00073FD034638B1FFBEFEE77A6812337245C3
:105BC0003FF66AAF90E702A95A48029304F0C2FE7A
:105BD0008246002876D1042240F2FF710A90CDE976
:105BE000081294F83021002A00F0F3804FF00608E4
:105BF0000AEBCA034FEACA0904EB43035B7C072B99
:105C000007D8DFE803F0595C5653504D4A04072388
:105C100007930FFA8AF6D14406EBC60604EB49094E
:105C200004EB46077500384600F048FD99F810303F
:105C3000042B00F3AA80022B00F3BD8000F0B98092
:105C400004EB0A03002283F8202114F81630002BFD
:105C500078D0022B00F08A80012B40F0B2807B7854
:105C6000012B00F0B080002B334B18BF002305A997
:105C70003048CDE9053804F079F8002840F0AC80D0
:105C80000AF1010A94F830315FFA8AFA534540F27A
:105C9000A0802A4B53F82A80AAE706230793B8E787
:105CA00005230793B5E704230793B2E7032307937C
:105CB000AFE702230793ACE700230793A9E701238B
:105CC0000793A6E7FFBEFEE703224023C4E96A2349
:105CD0006CE707226023C4E96A2367E70F22802369
:105CE000C4E96A2362E71F22A023C4E96A235DE7AF
:105CF0003F22C023C4E96A2358E77F22E023C4E996
:105D00006A2353E7FF224FF48073C4E96A234DE707
:105D100040F2FF124FF49073C4E96A2346E740F261
:105D2000FF324FF4A073C4E96A233FE780AC002040
:105D300000200240ECAD00200002B02590CF0124ED
:105D4000C04000307B78062B37D0072B3DD0022B8C
:105D50004AD0032B4AD0002B4CD0012B48D0042B27
:105D60004AD0052B254B18BF002380E77B78042BF6
:105D700025D0052B2BD08BB3012B31D0022B31D06A
:105D8000032B1F4B18BF002371E70323043504EBDB
:105D90000A0B4FF0000925448BF82031284609F101
:105DA000010900F08BFC9BF8203104354B45F5DCF4
:105DB0004BE70123EAE70223E8E7124B57E7124BD0
:105DC00055E7002353E7114B51E7114B4FE7114BB8
:105DD0004DE70DB0BDE8F08FFFBEFEE70E4B46E786
:105DE0000E4B44E70E4B42E70E4B40E70E4B3EE7AF
:105DF0000E4B3CE70E4B3AE70E4B38E70000B84F2E
:105E0000002090360800900C1000C0102000F01404
:105E10008000501D000180210004002A0008302E5F
:105E2000001060320040C03A0080F03E000052474F
:105E3000000021430000844B38B5094C40F2FF724A
:105E40004FF0011104F5B675284604F031FD94F8C1
:105E50003021D4F864112846BDE8384004F054BA23
:105E600080AC0020014804F00DBB00BFECAD002069
:105E7000044B0F29D3F8643198BF03EB4103188812
:105E8000704700BF80AC0020034B0F29D3F864019A
:105E900098BF00EB4100704780AC0020214B0268A6
:105EA0009A4200D07047204A00232048D2F8D810E8
:105EB00030B51F4C41F0200183B0C4F8D001092057
:105EC00004F5E875C4E975034FF48060C2F8D81092
:105ED000D2F8D8204FF40061C4E9773094F8480232
:105EE00002F02002C4F8E4114FF4005198420192EC
:105EF0002846C4F8E811C4E97C33019B14BF002391
:105F00004FF48073C4F8EC3105F034F908B1FFBEEA
:105F1000FEE704F5B673C4F8B851C4F8083203B00C
:105F200030BD00BF00200240004402584000024043
:105F300080AC0020014805F0A3BD00BF50AE00209A
:105F400002682DE9F84F4B4B9A4201D0BDE8F88F1B
:105F5000494D95F84832002BF8D095F83031002B98
:105F600077D0002405F10C0905F5A17605F59877A1
:105F7000A04613E003F0010117F811BCA9F10800D5
:105F800000F086FCBBF1010F25D895F830310134C3
:105F900009F112090236A2B293422BD917F8012F48
:105FA000002AF4D0D5F864310021327833F8140097
:105FB000D5F8683103EB041323F81200338801335A
:105FC0009BB233805FFA83FA3A789A42D2D88A46F3
:105FD000A6F80080D0E7CAF34001A9F1040000F060
:105FE00057FCBBF1020FCAF38001CED0484600F047
:105FF0004FFCCAE7002395F848022049092298423D
:10600000C5F8D8314FF48060C5F8D011C5F8D42157
:106010004FF400614FF40052C5F8DC3108BF4FF473
:106020008073C5F8E821C5E9780100221448C5E964
:106030007B32C5F8F42105F09DF808B1FFBEFEE7FC
:1060400095F83021D5F864110E48BDE8F84F04F0FA
:106050005BB90A4909224FF48060C5F8D831C5E917
:1060600074124FF400614FF40052C5E97730C5E96E
:106070007912DAE70020024080AC002040000240A4
:1060800050AE0020ECAD0020704700BF4F4B0268BF
:106090009A4200D070474E4BD3F8E81030B541F02B
:1060A00000514C4C85B0D4F84821C3F8E810D3F81F
:1060B000E81001F0005101910199D3F8E01041F08E
:1060C0000101C3F8E010D3F8E03003F001030293BC
:1060D000029B32F002033DD0013A012A6BD9D4F879
:1060E0004C31012B0AD000223620114604F0A6FCC8
:1060F000362005B0BDE8304004F0DEBCD4F84831AD
:1061000033F0020234D0013B012BECD8442240236F
:106110003149324DC4F88C1000212846C4F8B01023
:10612000C4E9242300224FF48063C4E926234FF4FA
:1061300000624FF40053C4E928234FF480724FF4F7
:106140008033C4E92A2305F015F880B9E560C4F866
