:020000042400D6
:1000000000000220A1060024950600246554002467
:1000100095060024950600249506002400000000A3
:100020000000000000000000000000009506002411
:10003000950600240000000095060024E9530024E2
:1000400095060024950600249506002495060024B4
:1000500095060024950600249506002495060024A4
:10006000950600249506002495060024B94F002427
:10007000C54F002415340024D14F0024DD4F002447
:10008000FD320124954000249506002495060024A5
:100090009506002495060024950600249506002464
:1000A0009506002495060024950600249506002454
:1000B0007D2401248924012495240124C94000249D
:1000C00095060024D540002495060024C51C012473
:1000D000D11C0124313101245D31012491310124ED
:1000E00095060024950600240000000095060024D3
:1000F0009506002495060024950600249506002404
:100100009506002495060024A1240124DD1C012469
:10011000C5310124F9310124353700249506002426
:100120001D37002429370024011D0124351D012419
:1001300031330124950600249506002495060024F9
:1001400000000000000000000000000000000000AF
:100150009506002495060024950600242D320124DE
:10016000E140002495060024F95300241D54002486
:100170009506002441540024950600249506002489
:10018000950600249506002461320124953201244D
:10019000E91C0124F51C0124950600249506002481
:1001A0009506002495060024950600249506002453
:1001B000AD4C0024950600249506002495060024E5
:1001C0009506002495060024D12E0024DD2E00245F
:1001D00095060024E92E00249506002495060024A7
:1001E0009506002495060024950600249506002413
:1001F0009506002495060024950600249506002403
:1002000095060024950600249506002495060024F2
:1002100095060024950600249506002495060024E2
:100220009506002495060024950600240000000091
:100230009506002495060024000000009506002481
:1002400095060024950600249506002495060024B2
:1002500095060024950600249506002495060024A2
:100260009506002495060024950600249506002492
:100270009506002495060024C932012400000000E0
:100280009506002495060024950600240000000031
:080290000000000095060024A7
:1002A00010B5054C237833B9044B13B10448AFF3B0
:1002B00000800123237010BD78070020000000009B
:1002C000D48A012408B5034B1BB103490348AFF39B
:1002D000008008BD000000007C070020D48A0124B3
:1002E000034613F8012B002AFBD1181A0138704776
:1002F00001F0FF01102A2BDB10F0070F08D010F8D7
:10030000013B013A8B422DD010F0070F42B3F6D1DA
:10031000F0B441EA012141EA014122F007047FF0F3
:1003200000070023F0E80256083C85EA010586EA4A
:10033000010685FA47F5A3FA87F586FA47F6A5FA86
:1003400087F68EB9EED1F0BC01F0FF0102F0070292
:1003500032B110F8013B013A83EA010313B1F8D13D
:100360000020704701387047002D06BF354603381E
:10037000073815F0010F07D1013015F4807F02BF57
:10038000013015F4C03F0130F0BC0138704700BFA8
:1003900053B94AB9002908BF00281CBF4FF0FF31EC
:1003A0004FF0FF3000F074B9ADF1080C6DE904CEE8
:1003B00000F006F8DDF804E0DDE9022304B0704740
:1003C0002DE9F047089D04468E46002B4DD18A4208
:1003D000944669D9B2FA82F252B101FA02F3C2F13B
:1003E000200120FA01F10CFA02FC41EA030E9440CC
:1003F0004FEA1C48210CBEFBF8F61FFA8CF708FBED
:1004000016E341EA034306FB07F199420AD91CEBC4
:10041000030306F1FF3080F01F81994240F21C81F6
:10042000023E63445B1AA4B2B3FBF8F008FB10333E
:1004300044EA034400FB07F7A7420AD91CEB040473
:1004400000F1FF3380F00A81A74240F20781644443
:10045000023840EA0640E41B00261DB1D4400023C8
:10046000C5E900433146BDE8F0878B4209D9002D2C
:1004700000F0EF800026C5E9000130463146BDE8B6
:10048000F087B3FA83F6002E4AD18B4202D3824220
:1004900000F2F980841A61EB030301209E46002DCF
:1004A000E0D0C5E9004EDDE702B9FFDEB2FA82F224
:1004B000002A40F09280A1EB0C014FEA1C471FFA82
:1004C0008CFE0126200CB1FBF7F307FB131140EA69
:1004D00001410EFB03F0884208D91CEB010103F136
:1004E000FF3802D2884200F2CB804346091AA4B2F8
:1004F000B1FBF7F007FB101144EA01440EFB00FECC
:10050000A64508D91CEB040400F1FF3102D2A64530
:1005100000F2BB800846A4EB0E0440EA03409CE7CF
:10052000C6F12007B34022FA07FC4CEA030C20FA7C
:1005300007F401FA06F31C43F9404FEA1C4900FA9C
:1005400006F3B1FBF9F8200C1FFA8CFE09FB181119
:1005500040EA014108FB0EF0884202FA06F20BD98C
:100560001CEB010108F1FF3A80F08880884240F2DC
:100570008580A8F102086144091AA4B2B1FBF9F020
:1005800009FB101144EA014100FB0EFE8E4508D91B
:100590001CEB010100F1FF346CD28E456AD90238A0
:1005A000614440EA0840A0FB0294A1EB0E01A14285
:1005B000C846A64656D353D05DB1B3EB080261EBF3
:1005C0000E0101FA07F722FA06F3F1401F43C5E9CD
:1005D000007100263146BDE8F087C2F12003D84003
:1005E0000CFA02FC21FA03F3914001434FEA1C4745
:1005F0001FFA8CFEB3FBF7F007FB10360B0C43EA37
:10060000064300FB0EF69E4204FA02F408D91CEBE6
:10061000030300F1FF382FD29E422DD902386344E4
:100620009B1B89B2B3FBF7F607FB163341EA034184
:1006300006FB0EF38B4208D91CEB010106F1FF38D3
:1006400016D28B4214D9023E6144C91A46EA0046CA
:1006500038E72E46284605E70646E3E61846F8E65C
:100660004B45A9D2B9EB020864EB0C0E0138A3E7A5
:100670004646EAE7204694E74046D1E7D0467BE786
:10068000023B614432E7304609E76444023842E7FE
:10069000704700BF684620F007018D46FEE700BFA7
:1006A0000A480B4A904208B503D0121A094914F0BF
:1006B00093FE0948094A904203D0121A002114F00F
:1006C00099FE14F055FE00F097F8FEE700000020B8
:1006D00078070020188B012478070020306F002055
:1006E000704700BF704700BF704700BF10B50D4C8A
:1006F00004F1B80001F0A2F804F1B80001F0AAF882
:1007000004F1280002F028FB04F14C0002F024FB65
:1007100004F1700002F020FB04F19400BDE81040E9
:1007200002F01ABB9407002030B500F1B80504466A
:1007300083B0284600F0E0FD204600F0D1FC2846BA
:1007400001F074F8254B04F128001A78597842EA30
:10075000012102F0E9FA284601F068F8204B04F183
:100760004C001A78597842EA012102F0DDFA284655
:1007700001F05CF81B4B04F170001A78597842EADA
:10078000012102F0D1FA284601F050F8164B04F18D
:1007900094001A78597842EA012102F0C5FA2846F5
:1007A0003021002501F018F8104B009504F52A704F
:1007B0001A7859782B4642EA0121012203F020FAE7
:1007C0000B4B009504F52F701A7859782B4642EAA6
:1007D0000121012203F014FA03B030BD94840124F6
:1007E00098840124A0840124B08401248C840124F1
:1007F00090840124000000002DE9F04718484FF0D4
:1008000000080127164CC2462DED068BFFF78CFF22
:10081000012002F053FA4FF47A7004F095FE11486B
:1008200002F03EFA0221104802F03AFA02210F4883
:1008300002F036FA4FF47A7004F086FE0C490D4847
:1008400000F0C2FF04F07EFE0122814604481146FA
:1008500000F066FC42460221014800F061FCA8E17C
:1008600094070020E8810124088201241C820124CD
:10087000ED0600244C08002094F88C30FF2B00F08B
:10088000318294F8B030FF2B00F0608294F8B030E1
:10089000FF2B3FD00721D84800F048FCF1EE009A2A
:1008A000B0EE409A0821D44800F040FC0921A9EE9E
:1008B000290AD1489FEDCEABB0EE408A00F036FC5D
:1008C000B7EEC00A0221CD48B7EEC87AA0EE0A7B87
:1008D000B7EEC70B00F0C6FF0421C74800F026FCA6
:1008E000B0EE409A0521C44800F020FC0621A9EE94
:1008F000290AC148B0EE408A00F018FCB7EEC00AE1
:100900000121BE48B7EEC87AA0EE0A7BB7EEC70B4E
:1009100000F0A8FFA5EB0903642B40F24681B8481C
:10092000A94602F0BDF9B74802F0BAF9B64BB7498B
:10093000B748002F08BF194602F0B2F90421AE48AB
:1009400000F0F4FBB0EE408A0721AB4800F0EEFB6C
:10095000B7EEC00AB7EEC87AAE489FEDA59BA0EEF1
:10096000097BB7EEC77BB7EEC77A53EC172B02F0C3
:1009700097F90521A04800F0D9FBB0EE408A082184
:100980009D4800F0D3FBB7EEC00AB7EEC87AA24884
:10099000B0EE006BA0EE097B37EE067BB7EEC77BAF
:1009A000B7EEC77A53EC172B02F07AF9062192487A
:1009B00000F0BCFBB0EE408A09218F4800F0B6FB86
:1009C000B7EEC00AB7EEC87A9448B1EE006BA0EE5D
:1009D000097B37EE067BB7EEC77BB7EEC77A53ECE1
:1009E000172B02F05DF98E4802F05AF90021824877
:1009F00000F01CFBB7EEC07A8A4853EC172B02F0CC
:100A00004FF900217D4800F027FFB7EEC07A8648F5
:100A100053EC172B02F044F90121774800F006FB54
:100A2000B7EEC07A814853EC172B02F039F9012157
:100A3000724800F011FFB7EEC07A7D4853EC172BD7
:100A400002F02EF902216C4800F0F0FAB7EEC07AFD
:100A5000784853EC172B02F023F90221674800F085
:100A6000FBFEB7EEC07A744853EC172B02F018F96E
:100A70000321614800F0DAFAB7EEC07A6F4853EC10
:100A8000172B02F00DF903215C4800F0E5FEB7EEEC
:100A9000C07A6B4853EC172B02F002F9694802F058
:100AA000FFF80421544800F041FBB7EEC07A6648D5
:100AB00053EC172B02F0F4F80421504800F0CCFE60
:100AC000B7EEC07A614853EC172B02F0E9F8052124
:100AD000494800F02BFBB7EEC07A5D4853EC172B6A
:100AE00002F0DEF80521454800F0B6FEB7EEC07A08
:100AF000584853EC172B02F0D3F806213E4800F07B
:100B000015FBB7EEC07A544853EC172B02F0C8F827
:100B100006213A4800F0A0FEB7EEC07A4F4853ECE9
:100B2000172B02F0BDF80721334800F0FFFAB7EEAB
:100B3000C07A4B4853EC172B02F0B2F807212F482C
:100B400000F08AFEB7EEC07A464853EC172B02F04D
:100B5000A7F80821284800F0E9FAB7EEC07A424821
:100B600053EC172B02F09CF80821244800F074FE87
:100B7000B7EEC07A3D4853EC172B02F091F80921EB
:100B80001D4800F0D3FAB7EEC07A394853EC172B62
:100B900002F086F81948092100F05EFEB7EEC07A2F
:100BA000344853EC172B02F07BF81348B04600F0A2
:100BB000EDFA04F0C7FC94F844600546A6F1FF0680
:100BC000B6FA86F67609B8F1000F55D1002E53D04B
:100BD000012187F0010708488AEA010A3A4600F035
:100BE0009FFA02215246044800F09AFA44E000BFFE
:100BF0007B14AE47E17A943F940700204C08002014
:100C00002C82012444820124DC810124D08101242E
:100C10005082012460820124788201249082012480
:100C2000A8820124B4820124C4820124D482012434
:100C3000E4820124F4820124048301241483012426
:100C400024830124348301243C8301245083012420
:100C500064830124788301248C830124A0830124EC
:100C6000B4830124C8830124DC830124F08301249C
:100C7000048401241884012494F86830FF2B7FF445
:100C8000FBAD94F88C30FF2B3FF444AE94F8B030B9
:100C9000FF2B3FF43FAEB1EE040A002F00F0858039
:100CA0000121674800F042F90421654800F03EFA4E
:100CB000B0EE408A0721624800F038FA0221B7EE10
:100CC000C87A9FED5D6BB7EEC00A5E48A0EE067B6A
:100CD000B7EEC70B00F0C6FD94F86830FF2B3FF469
:100CE00019AEC9E594F8B030FF2B3FF413AE9FED79
:100CF000560A002F6DD00121514800F017F9052147
:100D00004F4800F013FAB0EE408A08214C4800F03A
:100D10000DFAB0EE006BB7EEC87A0221B7EEC00A4A
:100D20009FED455BA0EE057B464837EE060BB7EE20
:100D3000C00B00F097FD94F86830FF2B3FF4EAAD4C
:100D400094F88C30FF2B3FF4E5AD9AE5B9EE040A38
:100D5000002F56D001213A4800F0E8F80621384823
:100D600000F0E4F9B0EE408A0921354800F0DEF9E0
:100D7000B1EE006BB7EEC87A0221B7EEC00A9FED64
:100D80002E5BA0EE057B2F4837EE060BB7EEC00BAF
:100D900000F068FD94F86830FF2B3FF4BBAD94F889
:100DA0008C30FF2B7FF472ADB4E50221244800F0B3
:100DB000BDF80421224800F0B9F9B0EE408A0721BD
:100DC0001F4800F0B3F90121B7EEC87A9FED1A6B06
:100DD00079E702211A4800F0A9F80521184800F027
:100DE000A5F9B0EE408A0821154800F09FF9B0EE51
:100DF000006BB7EEC87A0121B7EEC00A9FED0E5B1B
:100E000090E702210E4800F091F806210C4800F00E
:100E10008DF9B0EE408A0921094800F087F9B1EE5A
:100E2000006BB7EEC87A0121B7EEC00A9FED025BF6
:100E3000A7E700BFAFF300807B14AE47E17A943F91
:100E4000940700204C0800200000000038B530480E
:100E500000244FF60B752F4A2F4904628463C0E9C2
:100E60000344C0E90A45C0E90C44C0E97054C0E934
:100E70007244C0E97654C0E97844C0E97C54C0E9C2
:100E80007E44C0E98154C0E9834414F04FFA214AFA
:100E90002249234814F04AFA22481E4AC0F8D84092
:100EA000C0F8F0402049C0E90054C0E90244C0E95C
:100EB0000554C0E90744C0E90C54C0E90E44C0E938
:100EC0001554C0E91744C0E91E54C0E92044C0E9E4
:100ED0002754C0E92944C0E93144C0E93845C0E994
:100EE0003A44C0E99E54C0E9A044C0E9A454C0E912
:100EF000A644C0E9AA54C0E9AC44A0F8BC52C0F86A
:100F0000C842C0E9B044BDE8384014F00FBA00BF91
:100F10006C0A002000000020E1060024E506002401
:100F20008C0C002094070020E9060024F1EE047ADE
:100F3000B4EEE70AF1EE10FA26DCF9EE047AB4EE2C
:100F4000E70AF1EE10FA26D501295ED0B0EE670A65
:100F50009FED2F7ADFED2F7AF1EE046A37EE677A94
:100F600030EE260A80EE266AE7EE067AB0EE670AD1
:100F7000F1EE047AB4EEE70AF1EE10FA34DDB0EEE9
:100F8000670AB83000F06EBC012937D09FED220A05
:100F9000B83000F067BCB5EEC00A0129DFED1F6A6A
:100FA0009FED1D5A9FED1E7ADFED195A46FE856AA8
:100FB000DFED1C7A9FED176A07FE257A47FE867AD9
:100FC000F1EE10FAC8D9B1EE046A76EEC76AC0EE47
:100FD000067AA6EEA77AF1EE047AB0EE470AB4EEEE
:100FE000E70AF1EE10FACADCB5EEC00AF1EE10FA2B
:100FF000CED59FED0D0AB83000F034BCB0EE670AD4
:10100000DFED066A9FED067ADDE79FED060ABFE792
:1010100096432340E17A8840A245563F508D573F82
:10102000492E2340894188400000000010B50C463D
:10103000B83000F011FC032C28D8234A234B02EBD4
:101040008402234903EB8403D2ED007A01EB84048C
:10105000D3ED006AB4EEE70A94ED007AF1EE10FAEF
:1010600015D930EE676A9FED1B0A77EE677A9FED20
:101070001A7AC6EE276AF7EE007AA6EE870AB4EE71
:10108000E70AF1EE10FA15DDB0EE670A10BD30EE9A
:10109000666A9FED117A77EEE67A9FED100AC6EE4A
:1010A000276AF7EE007AA6EE870AB4EEE70AF1EEB9
:1010B00010FAE9DCFFEE007AB4EE670AF1EE10FAFE
:1010C00048BFB0EE670A10BD7C8401246C84012403
:1010D0002C84012400000000CDCC4C3FCDCC4CBF73
:1010E0000D4B30B51A7883B000245978054642EA92
:1010F000012123460122009402F082FD074B009457
:1011000005F114001A785978234642EA0121012298
:1011100002F076FD03B030BDA4840124A88401242C
:101120000129114618BF143002F05CBE10B50C4600
:10113000B83000F091FB211F05291CD8104A114B33
:1011400002EB810203EB810192ED007AD1ED007A8E
:1011500070EE476A77EEC77A86EEA70AB5EEC00A48
:10116000F1EE10FA08D4F7EE007AB4EE670AF1EE69
:1011700010FA37FE800A10BD9FED030A10BD00BFB4
:101180003C840124548401240000000090F8443081
:10119000FF2B00D0704770B584B0044604F0D2F93C
:1011A00007EE900AD4ED126AF8EE677A9FED257A81
:1011B00077EEE67AF4EEC77AF1EE10FA3FDB04F14F
:1011C000B800002504F11406039000F033FB0398E7
:1011D00000F0FEFA1C4B009520461A7859782B46F1
:1011E00042EA0121012202F00BFD184A00952B462C
:1011F000117830465278042541EA0221012202F09A
:10120000FFFC0121204602F0EDFD0021304602F0F6
:10121000E9FD642004F098F90021204602F0E2FD87
:101220003046012102F0DEFD642004F08DF9013D1D
:10123000E7D1032004B0BDE8704004F087B904B0E2
:1012400070BD00BF00803B45A4840124A884012414
:1012500000294ED0274BF0B5D0E90024481E03F1F9
:101260000C0E951C03F1100C4E00AC4218BF052863
:1012700002EB41058CBF01200020624538BFAE451E
:101280002CBF01270027384227D02644644538BFA9
:10129000B64522D39D890026D8894FEA510E65F3C1
:1012A0000F06A44602EB8E0E65F31F46002560F381
:1012B0000F0560F31F45104640F8046B70454CF86D
:1012C000045BF9D121F00100C90705D5998922F8FD
:1012D0001010DB8924F81030F0BD023A023C023DC8
:1012E000998922F8021FAA42D98924F8021FF7D14E
:1012F000F0BD7047B80C00202DE9F04F40F201130B
:101300000E4A012680462DED028BADF2844DC0F8C9
:101310001C22ADF81430002304968DF8163004F02A
:101320000FFB044604F060F904A9054640B93CB13E
:1013300040468DF8166004F083FA0BE0B80C0020EC
:10134000404604F07DFA002D00F02A8208F10800E2
:1013500000F0E0FB072C24AC0CD0D24908F10C00C3
:10136000D14BD24AC4E9001301232146A260A381D4
:1013700003F0BAFA0322012300251AA902A8DFF814
:101380003CA3029508F1100B0DF1500927462E469B
:10139000CDE91E2300220123CDE9202301220023D1
:1013A000CDE92223C24BCDE91A5303F1007303F5B3
:1013B00040731C934FF44173ADF8743003F088FE12
:1013C00001230AA903A80D950A930C9310230395F2
:1013D0008DF83830B74B0B9302F088FE039908F173
:1013E000200000F095FA0DF1180C9AE80F008CE837
:1013F0000F006146029A584601F07CFA584601F007
:10140000C3FA5846B0EE408A01F0ACFAD0ED007A4B
:101410004FF60B7300200021F8EE677A0DF583621A
:1014200023800AF1100CA382CE4688EE277AE5606D
:10143000C4E90155CDE92A012385A38725626563A7
:10144000C4E90B55CDE93401A4F85430A56488ED06
:10145000867ACDE93A01A4F86830A4F87C30256694
:101460006567C4E91B55CDE94401A4F89030A4F8A0
:10147000A830C4F88850C4F89C50C4E92555C4E984
:101480002B55A4F8BC30C4F8B450CDE95401A4F8ED
:10149000D030A4F8E430C4F8C850C4F8DC50C4E933
:1014A0003555CDE95E01A4F8FC30C4F8F050CDE923
:1014B0006401A4F81031A4F82431C4F80851C4F828
:1014C0001C51C4E94555CDE96E01A4F83831A4F8A2
:1014D0005031A4F86431C4F83051C4F84451C4F810
:1014E0005C51C4E94F55C4E95555CDE97E01C4F8B6
:1014F0007051A4F87831A4F88C31C4F88451C4E94F
:101500005F55CDE98801A4F8A431C4F89851CDE91C
:101510008E01A4F8B831A4F8CC31C4F8B051C4F8A5
:10152000C451C4E96F55CDE99801A4F8E031A4F89D
:10153000F831A4F80C32C4F8D851C4F8EC51C4F80E
:101540000452C4E97955C4E97F55CDE9A801A4F84E
:101550002032A4F83432C4F81852C4F82C52C4E92A
:101560008955CDE9B201A4F84C32C4F84052CDE916
:10157000B801A4F86032A4F87432C4F85852C4F820
:101580006C52C4E99955CDE9C201A4F88832A4F897
:10159000A032A4F8B432C4F88052C4F89452C4F80B
:1015A000AC52C4E9A355C4E9A955CDE9D201A4F8C8
:1015B000C832A4F8DC32C4F8C052C4F8D452C4E92A
:1015C000B355CDE9DC01A4F8F432C4F8E852CDE912
:1015D000E201C4F80053A4F80833A4F81C33C4F89B
:1015E0001453C4E9C355CDE9EC01A4F83033A4F891
:1015F0004833A4F85C33C4F82853C4F83C53C4F807
:101600005453C4E9CD55C4E9D355CDE9FC01A4F840
:101610007033A4F88433C4F86853C4F87C53C4E925
:10162000DD55C2E900010DF58662A4F89C33C4F8CB
:101630009053C2E900010DF58B62A4F8B033A4F811
:10164000C433C4F8A853C4F8BC53C4E9ED55C2E987
:101650000001A4F8D833C4F8D053C4F8E453BCE86C
:101660000F00AEE80F009CE80300C4E9F7558EE8D0
:10167000030039F8161001363846022201F03AFC10
:101680000C2E07F15407F4D108F114072146042366
:101690003246384608F1400500249FED078A01F0E4
:1016A00039FC17E00508050905070506050A0606C1
:1016B00004020404010A010B6F12033B748101242C
:1016C00001F04CFE98ED860A01462846013401F0EF
:1016D000D5F92035072CE1B23846F1D9E1B2013411
:1016E00001F03CFE00230146F0EE480A28461A4667
:1016F00098ED860A01F090F90C2CEAD100242C4ACE
:1017000008F12C00234611680094012202F078FAB7
:10171000284B012208F5E070196801F035FA264BD4
:10172000012208F5EC70196801F02EFA234A2346CD
:1017300008F5F87011680122009402F061FA204A5D
:10174000234608F5017011680122009402F058FA4E
:101750000123D8F81C024BF680320FA913941030E5
:101760000F92CDE911330223109302F07BF8384633
:1017700001F0D8FDD8F81C42237D04F110059BB977
:101780002846104D2368D4E90112009502F0E8F8CC
:10179000012323750DF2844DBDEC028BBDE8F08F63
:1017A000002C3FF4D3ADD5E5284602F00FF9E7E76A
:1017B000B4840124AC8401249C8401248C840124FD
:1017C0009084012451120024103001F0E1B800BFD0
:1017D000103001F0FFB800BFF8B500F11007054662
:1017E00000F1400400F5E07638462DED028B01F063
:1017F000BDF8384601F0C8F83846B0EE408A01F02E
:10180000B1F8D0ED007AF8EE677A88EE270A85ED18
:10181000860A01E095ED860A2046203401F088F919
:10182000B442F7D1BDEC028BF8BD00BF90ED860A43
:10183000704700BF143001F08BBD00BF38B500F118
:10184000400400F5E0752046203401F04DF9AC422B
:10185000F9D138BD704700BF00EB411191ED130A7B
:10186000704700BF0129D0F81C221CD931F00201B9
:101870000DD19FED1B7ADFED1B7A20EE070AB4EE47
:10188000E70AF1EE10FA03DD40F6FF71D1817047EF
:10189000B5EEC00AF1EE10FAF8D4BCEEC00A10EEB4
:1018A000103A99B2F2E7DFED0E7A9FED0E7A60EE14
:1018B000277AF4EEC77AF1EE10FA0ADCF5EEC07A78
:1018C000F1EE10FA09D4FCEEE77A17EE903A9BB2EB
:1018D00001E040F6FF739381C8E70023FBE700BFF8
:1018E00000C04C4400F07F4507490022074B01F13E
:1018F000600010B4302459601A611C601A755DF8DC
:10190000044BC3E90202704700000030B80C00200D
:10191000F0B5462387B00160002203710124FA2646
:10192000194605AB8DF814200296402200932346F9
:101930000194054602F072FC002840F09B809DF85F
:1019400014300DF117074022284603F07F0300975B
:10195000CDE901468DF814308DF8173023462979EA
:1019600002F084FC002840F08580042003F0ECFDA8
:1019700005AB4022284600932346CDE9014629794C
:1019800002F04CFC002875D19DF8143040220097DD
:10199000284603F0BF03CDE901468DF814308DF8D9
:1019A00017302346297902F061FC002862D1042017
:1019B00003F0CAFD0DF11503432228460093234688
:1019C000CDE90146297902F029FC002852D10DF118
:1019D00016034822284600932346CDE9014629797B
:1019E00002F01CFC002845D19DF8153043220097D9
:1019F000284643F001038DF815308DF817309DF817
:101A0000163043F00103CDE901468DF81630234628
:101A1000297902F02BFC68BB9DF81630482200970C
:101A200028468DF817302346CDE90146297902F082
:101A30001DFCF8B905AB4022284600932346CDE9AA
:101A40000146297902F0EAFBA0B99DF8142023464B
:101A50000194284602F0CF0402960097402229798B
:101A60008DF814408DF8174002F000FC003818BFC4
:101A7000012000E0012007B0F0BD00BFF0B5102349
:101A800087B0234C012200250126002702A9204609
:101A90000195CDE902234FF48052CDE904670CF0A3
:101AA000EDFE642004F084FC02A94FF4805220462D
:101AB000CDE9046702261027CDE902670CF0DEFEAF
:101AC0000322102302A92046CDE902230023042289
:101AD000CDE904234FF480520CF0D0FE40F23223C3
:101AE000042202A9019310232046CDE90223019A82
:101AF000012305924FF4805204930CF0BFFE40F690
:101B0000060120460CF0DAFE284607B0F0BD00BF03
:101B1000D80C00201C4B00221C494FF0400C30B563
:101B2000054689B00220596007219A601A62012493
:101B3000DA620A224FF4006EDC6006922022CDE9C0
:101B4000000104200821CDE9020103201021CDE984
:101B5000040108206946C3E904024FF4C072181D4D
:101B6000C3E906C24FF48052C3E909E20CF05CFEFF
:101B700038B92846FFF782FF003818BF012009B0A6
:101B800030BD204609B030BDD40C00204041005289
:101B9000614A0021D0B513688EB00A91002B40F045
:101BA000B9805E4B01214FF683700C241160022135
:101BB000D3F8D4200026032742F48052C3F8D4205F
:101BC000D3F8D42002F480520092009AD3F8E02097
:101BD00042F01002C3F8E020D3F8E02002F0100237
:101BE0000192019AD3F8E02042F04002C3F8E020CD
:101BF000D3F8E02002F040020292029AD3F8E020EB
:101C000042F00802C3F8E020D3F8E02002F0080216
:101C10000392039AD3F8E02042F48072C3F8E020E4
:101C2000D3F8E02002F480720492049AD3F8E02002
:101C300042F08002C3F8E020D3F8E02002F08002F6
:101C40000592059AD3F8E02042F02002C3F8E02084
:101C5000D3F8E02002F020020692069AD3F8E020A2
:101C600042F00402C3F8E020D3F8E0300C9403F013
:101C7000040307930323079A0B93CDE9080108A9EE
:101C8000274806F0EDFF48F23712022308A925483D
:101C90000C94CDE90823CDE90A6706F0E1FF4CF288
:101CA0000372022308A920480C94CDE90823CDE94A
:101CB0000A6706F0D5FF40F2FF62022308A91B481D
:101CC0000C94CDE90823CDE90A6706F0C9FF4FF669
:101CD0000C72022308A916480C94CDE90823CDE91B
:101CE0000A6706F0BDFF4FF63F02022308A911481C
:101CF0000C94CDE90823CDE90A6706F0B1FF202254
:101D0000022308A90A480C94CDE90A67CDE9082303
:101D100006F0A6FF0EB0D0BDD00C00200044025843
:101D20000010025800180258000C025800200258F7
:101D3000001C0258001402582DE9F04FDFF81084FF
:101D400006460D46144608F118002DED028B89B0A9
:101D500000AF03F0B5FAD8F8183073B3D8F81C30D8
:101D6000D8F80490002B43690BBF4FF0080A4FF0DE
:101D7000100A4FF0020B4FF0040BB9F1000F2AD0FC
:101D8000A200EA46012B02F1070222F00702ADEBA6
:101D9000020D6846ADEB020D694600F03F81022B53
:101DA00000F0D680002B6FD02246C847D546243796
:101DB000BD46BDEC028BBDE8F08FD8F81C30002B7F
:101DC000F5D0D8F804904FF0080A4FF0020B4369A1
:101DD000B9F1000FD4D1FB61D8F80030BB61002B02
:101DE000E5D0D54803F0EAFA6B46BBF1020F786103
:101DF00008EE103AFB6900F083816A465146A2EB77
:101E0000C40295466200EA46B2FBFBF2AAEBC400AC
:101E100085460AEB8200EE46F861ADEB010DF869EC
:101E20000EEB820CC7F810C0EC46ADEB010D00EBD9
:101E30008201CCF80400CCF8081001EB820138696B
:101E4000E946CCF80C1000EB8201CCF800A001EBC5
:101E50008202C9E900E0C9E90212012B00F06483A3
:101E6000022B00F06C82002B00F080816208494652
:101E70006046BB69984718EE103A24379D46BD4628
:101E8000BDEC028BBDE8F08F002C8DD01A46D8ED4A
:101E90000C6A9FEDB27A8446331D36F922E00CF1CC
:101EA000080C07EE90EA33F922E00232F8EEE77A06
:101EB000944267EE877A67EEA67A4CED027A07EED7
:101EC00090EAF8EEE77A67EE877A67EEA67A4CED4D
:101ED000017AE2D8F9612246C847984ED8ED0D6ADA
:101EE0000020F9692B1D9FED9E7A9FED9E6ADFED24
:101EF0009E5A22E0F4EEC67AF1EE10FAC0F2C884DF
:101F000047F6FE72D1ED017A45F8202066EEA77AF9
:101F1000F4EEC77AF1EE10FA40F2F080F4EEC67AF1
:101F2000F1EE10FAC0F2D58447F6FE7243F8202095
:101F30000230083184427FF639AFD1ED007A66EE87
:101F4000A77AF4EEC77AF1EE10FAD3D83246D9E781
:101F5000002C3FF429AFD8ED0C6A84469FED787AC7
:101F60000022331D8E4656F822100CF1080C07EEA5
:101F7000901A53F822100232F8EEE77A944267EE94
:101F8000877A67EEA67A4CED027A07EE901AF8EEA1
:101F9000E77A67EE877A67EEA67A4CED017AE2D8A7
:101FA00071462246C7F81CE0C847664ED8ED0D6A58
:101FB0000020F9692B1D9FED6A7A9FED6A6ADFF8B0
:101FC00094C120E0F4EEC67AF1EE10FAC0F2798402
:101FD0003246D1ED017A45F8202066EEA77AF4EE7C
:101FE000C77AF1EE10FA40F28780F4EEC67AF1EE8D
:101FF00010FAC0F25E84324643F8202002300831E5
:1020000084427FF6D3AED1ED007A66EEA77AF4EE85
:10201000C77AF1EE10FAD5D86246DAE7002C3FF421
:10202000C3AED8ED0C6A86469FED477A4FF0000CA0
:10203000331D56F82C200EF1080E82F40002A2F592
:10204000000207EE902A53F82C200CF1020CF8EE57
:10205000E77A82F400026445A2F5000267EE877A0F
:1020600067EEA67A4EED027A07EE902AF8EEE77A4E
:1020700067EE877A67EEA67A4EED017AD9D8F961D4
:102080002246C847314ED8ED0D6A0020F9692B1D54
:102090009FED337A9FED336ADFF8BCC01FE0F4EEAA
:1020A000C67AF1EE10FAC0F2FC833246D1ED017A25
:1020B00045F8202066EEA77AF4EEC77AF1EE10FA22
:1020C00018D9F4EEC67AF1EE10FAC0F2DA8332468D
:1020D00043F820200230083184427FF667AED1ED0C
:1020E000007A66EEA77AF4EEC77AF1EE10FAD6D847
:1020F0006246DBE76246EBE762467DE7324615E77C
:10210000A100D6466208073121F00701ADEB010DB1
:10211000EA46ADEB010D6946ADEB0E0D0AEB820010
:10212000EC46ADEB0E0D01EB8202F861E946CCE91D
:1021300000A0C9E9001290E6280D00200280FFFFF0
:10214000000000300082FF7F0000003482FF7F002B
:102150000C0D0020007E00807E0080FF0000003813
:1021600004FF7FBF04FF7F3F00FEFF46002C00F00E
:10217000C982BBF1020FD8F8242000F0FA827969F5
:10218000C7F8049002EB810E5FED0C5A8A00DCF870
:1021900008100EF104007A611A46DCF80C303B613D
:1021A000331DD7F810903D61FD69C7E902CB8C461D
:1021B000834636F92210D8ED0C7A06EE101A33F960
:1021C000221006EE901A3EF92210B8EEC66A07EE0B
:1021D000101AF8EEE66A3BF92210B8EEC77A26EE3E
:1021E000256A66EEA56A27EE257A26EE276A66EE50
:1021F000A76A27EE277A07EE901A51080232F8EE06
:10220000E77A0AEB8100944280ED006A05EB8100D9
:1022100067EEA57AC0ED006A0CEB810009EB810145
:1022200080ED007A98ED0C7A67EE877AC1ED007A3E
:10223000BFD8D7F804903D69D7E902CB6046620861
:10224000BB6949469847D8F82C307A69D8ED0D6AB1
:102250001A441FED3D7A1FED3D6A2B1D904602F199
:10226000040A5FED3F5A0022A84ED9E900EC51E084
:10227000F4EEC67AF1EE10FAC0F2C78247F6FE70AD
:1022800045F822000CEB0100D0ED007A66EEA77A4B
:10229000F4EEC77AF1EE10FA4BD9F4EEC67AF1EE0D
:1022A00010FAC0F2BA8247F6FE70BBF1020F43F893
:1022B00022002BD0D9F808000844D0ED007A66EE51
:1022C000A77AF4EEC77AF1EE10FA36D9F4EEC67AB0
:1022D000F1EE10FAC0F2CD8247F6FE7048F8220007
:1022E000D9F80C000144D1ED007A66EEA77AF4EE3D
:1022F000C77AF1EE10FA1ED9F4EEC67AF1EE10FAB2
:10230000C0F2AF8247F6FE714AF8221002329442C0
:102310007FF6B1AD51080EEB81008900D0ED007A57
:1023200066EEA77AF4EEC77AF1EE10FAA0D830463E
:10233000A6E73046B9E73146E6E73046CEE7002C5F
:1023400000F0E081BBF1020FD8F8243000F0E18109
:102350007A69DCF8081003EB820EC7F8049093004A
:10236000DFED6B5A0EF1040000227B61DCF80C30CB
:102370003B61331DD7F810903D61FD69C7E902CB81
:102380008C46834656F82210D8ED0C7A07EE101AC8
:1023900053F82210B8EEC76A07EE101A5EF8221042
:1023A000F8EEC76A07EE101A26EE256A5BF82210CF
:1023B000B8EEC77A66EEA56A26EE276A27EE257A7A
:1023C00066EEA76A27EE277A07EE901A51080232C6
:1023D000F8EEE77A0AEB8100944280ED006A05EBA3
:1023E000810067EEA57AC0ED006A0CEB810009EB75
:1023F000810180ED007A98ED0C7A67EE877AC1ED65
:10240000007ABFD8D7F804903D69D7E902CB60467F
:102410006208BB6949469847D8F82C307A69D8EDEC
:102420000D6A1A449FED3E7A9FED3E6A131D924657
:10243000DFF8E4C00022FB612B1D364ED9E9008E87
:102440004EE0F4EEC67AF1EE10FAC0F2FC813046AE
:1024500045F822000EEB0100D0ED007A66EEA77A77
:10246000F4EEC77AF1EE10FA49D9F4EEC67AF1EE3D
:1024700010FAC0F2EF813046BBF1020F43F82200A0
:102480002AD0D9F808000844D0ED007A66EEA77A81
:10249000F4EEC77AF1EE10FA35D9F4EEC67AF1EE21
:1024A00010FAC0F2C98130464AF82200D9F80C006F
:1024B0000144D1ED007A66EEA77AF4EEC77AF1EE28
:1024C00010FA1ED9F4EEC67AF1EE10FAC0F2AD8120
:1024D0003146F86940F82210023294427FF6CBACC4
:1024E000510808EB81008900D0ED007A66EEA77AEA
:1024F000F4EEC77AF1EE10FAA3D86046A8E760467A
:10250000BAE76146E5E76046CEE700BF0280FFFF1D
:10251000000000300082FF7F007E00800000003459
:1025200004FF7FBF04FF7F3F002C00F0EB807A693F
:102530000021D8F82430C7F8109003EB820ED7F8AA
:102540001C909300FD610EF104021FED0C6A7B618B
:10255000331D154656F821204808D8ED0C6ABBF10A
:10256000020F82F40002A2F5000207EE902A53F84F
:10257000212082F40002B8EEE77AA2F5000227EEED
:10258000067A07EE902A0AEB8002F8EEE77A27EE49
:10259000267A67EE867A82ED007A09EB80024FEAAE
:1025A000800067EEA67AC2ED007A27D05EF821207F
:1025B00082F40002A2F5000207EE902A55F82120CD
:1025C00082F40002B8EEE77AA2F5000227EE067A5E
:1025D00007EE902ADCF80820F8EEE77A024427EEAE
:1025E000267A67EE867A82ED007A98ED0C7ADCF82E
:1025F0000C2067EE877A0244C2ED007A02318C42E9
:10260000A8D8D7F8109060466208BB694946FD69B2
:102610009847D8F82C307A69D8ED0D6A1A441FED26
:10262000407A1FED406A131D9246DFF8C4C20022B3
:10263000FB612B1DAB4ED9E9008E4EE0F4EEC67A5D
:10264000F1EE10FAC0F2C580304645F822000EEBDC
:102650000100D0ED007A66EEA77AF4EEC77AF1EECB
:1026600010FA49D9F4EEC67AF1EE10FAC0F2BF8042
:102670003046BBF1020F43F822002AD0D9F80800F7
:102680000844D0ED007A66EEA77AF4EEC77AF1EE50
:1026900010FA35D9F4EEC67AF1EE10FAC0F2AE8037
:1026A00030464AF82200D9F80C000144D1ED007AF6
:1026B00066EEA77AF4EEC77AF1EE10FA1ED9F4EEC0
:1026C000C67AF1EE10FAC0F28B803146F86940F814
:1026D0002210023294427FF6CEAB510808EB810003
:1026E0008900D0ED007A66EEA77AF4EEC77AF1EEB3
:1026F00010FAA3D86046A8E76046BAE76146E5E766
:102700006046CEE7224649466046BB699847FFF7D8
:10271000B2BBC7F810B0002298ED0C6A331DDFED94
:10272000726AD7F81CB0786956F8221007EE901A32
:1027300053F82210B8EEE77A07EE901A51080232E9
:10274000F8EEE77A27EE267A0AEB810E94420BEB3D
:10275000810167EEA67A27EE067A67EE867A8EED1D
:10276000007AC1ED007ADFD88300D7F810B07B6122
:102770004DE61A46C7F810B098ED0C6A331DDFED30
:102780005B6AD7F81CB0786936F9221007EE101A88
:1027900033F9221007EE901AB8EEC77A51080232C8
:1027A000F8EEE77A27EE267A0AEB810E94420BEBDD
:1027B000810167EEA67A27EE067A67EE867A8EEDBD
:1027C000007AC1ED007ADFD88300D7F810B07B61C2
:1027D00034E5F0EE675AFEEEE45A15EE900A34E75F
:1027E000F0EE675AFEEEE45A15EE901A6EE7F0EE40
:1027F000675AFEEEE45A15EE900A3AE7F0EE675A91
:10280000FEEEE45A15EE900A4BE767EEA57AFDEE70
:10281000E77A17EE900A00B232E567EEA57AFDEE90
:10282000E77A17EE900A00B23FE5F0EE675AFEEE47
:10283000E05A15EE901A4CE6F0EE675AFEEEE05ABA
:1028400015EE900A30E6F0EE675AFEEEE05A15EE0D
:10285000900AFDE5F0EE675AFEEEE05A15EE900A9A
:102860000AE667EEA57AFDEEE77A17EE901A09B24E
:102870004AE567EEA57AFDEEE77A17EE900A00B218
:102880002CE5F0EE675AFEEEE45A15EE902A1FE4AE
:1028900067EEA57AFDEEE77A17EE902A12B2FFF7FF
:1028A00031BBF0EE675AFEEEE45A15EE902AFFF7C0
:1028B000FDBBF0EE675AFEEEE05A15EE902AFFF7E8
:1028C0009BBBF0EE675AFEEEE05A15EE902AFFF73A
:1028D00080BB67EEA57AFDEEE77A17EE902A12B27A
:1028E000FFF724BB82FF7F000000003000000038AB
:1028F0007E0080FF30B5184C154685B0046004F1A9
:10290000080EEC460FC98EE80F00D4ED047AF5EE00
:10291000C07A8CE80F00F1EE10FA1ADDB7EE006A0B
:1029200094ED057A27EE277AC6EE276A84ED0D7AB4
:10293000C4ED0C6A6DB1204640F8185F02F0C0FC8F
:10294000064903690020064A2162A262E36005B0DD
:1029500030BD012005B030BD0C0D0020C02000307E
:10296000C000003000680830704700BFB1F5807FBC
:1029700003680A4628BF4FF48072B1F5807F9A60E1
:1029800094BF0020012070470068183002F004BD99
:1029900030B5046883B00D46E3694BB1A3680020ED
:1029A000E26A616A9B00009004F11C0002F08AFC5C
:1029B000A3680748A26A9B00216A009004F11800EE
:1029C00002F080FC0020C4E9005003B030BD00BF1D
:1029D000391D002410B50468A3691BB104F1180067
:1029E00002F0CEFCE3691BB104F11C0002F0C8FC4C
:1029F000002010BD10B4074B4FF07E513024002250
:102A0000032019619C60D8605DF8044B5961C3E9EB
:102A1000062270470C0D0020F6EE007A9FED166A34
:102A200020EE207A0160F7EE006A80ED036A80ED07
:102A3000020A27EE277AC6EE877AF4EEE67AF1EEFE
:102A400010FA11DDF0EE667A4FF07E514FF0000C77
:102A500002760022C0ED017AC0F814C0016143760D
:102A60008276C0ED070A7047F4EEC67AF1EE10FAEE
:102A7000EAD5F0EE467AE7E700000000DFED187ACD
:102A8000B6EE007AF7EE006A9FED166A60EE277ADE
:102A9000016080ED036A80ED020A67EE877A86EEB8
:102AA000A77AB4EEE67AF1EE10FA10DDB0EE667AAF
:102AB0004FF0804C4FF07C514FF48072012380ED39
:102AC000017AC0F810C04161028383767047B4EE8A
:102AD000C67AF1EE10FAEBD5B0EE467AE8E700BF21
:102AE0006F12033B000000000268037E128807EEAD
:102AF000902AFBEEC87A1BB1B7EE007A77EE677AC0
:102B0000D0ED056A90ED047A77EEE67A437E67EEC3
:102B1000877A0BB1F1EE677A90ED030A90ED017AB6
:102B200077EEC07AA7EE270A80ED030A704700BF50
:102B3000837E80ED020AABB9D0ED077A27EE800ADA
:102B4000F6EE007AB7EE007A20EE270AC7EE007A9A
:102B5000F4EEC77AF1EE10FA07DDF0EE477AC0ED39
:102B6000017A7047DFED067AE8E7F5EEC07AF1EE1C
:102B700010FAF4D5DFED037AC0ED017A704700BF9B
:102B80006F12033B0000000070B584B000250446BE
:102B90001646ADF80C102B462A460399009501F015
:102BA0002FF8A582A67504B070BD00BF704700BFA6
:102BB000F8B5134F3C687F2C07D98023114A42F2A5
:102BC00024411C463B60A2F87E100F4D2B68012B60
:102BD0000AD90C4E0D4D22463146284600F06EF9BA
:102BE0000028F8D13860F8BD22460649074800F0B1
:102BF00065F90028F7D12B68386001332B60F8BDE8
:102C0000480D00204C0D0020440D0020D00D002068
:102C100030B4154C2168F1B14B1E144DE81810F872
:102C200001298C4619460A2A01D00D2A02D14BB13E
:102C3000013BF4E70CF102037F2B10D980232360C2
:102C400030BC70470122022323600D200A23685400
:102C5000AB5430BC704701220223044DF4E70CF161
:102C600001026146F0E700BF480D00204C0D002036
:102C700010B5094C02460B46084821680844C1F1CA
:102C8000800113F065F9236818442060FFF7C0FF46
:102C9000FFF78EFF10BD00BF480D00204C0D002037
:102CA0000FB400B583B004A951F8040B0191FFF7EC
:102CB000DFFF03B05DF804EB04B0704710B50446C5
:102CC00001210A4800F074F8002C094B14BF0222BD
:102CD000002208481A60FFF7E3FF0748FFF7E0FF0C
:102CE0000A20BDE8104002F02FBC00BFD00D00202C
:102CF000440D0020B8840124C8840124064A0749F1
:102D0000074808B512F012FB034A04490548BDE81C
:102D1000084012F00BBB00BF00000020AD2B0024C8
:102D2000CC0D0020D00D002010B586B00446ADF8C3
:102D30000C10ADF8141002F005FC4FF48071002265
:102D400020600123A18004F10800A183059900926D
:102D500000F056FF06B010BD10B5044602F0F2FBBD
:102D6000002122682171824200D110BD0346012258
:102D700004F108002360227101F028F8227F617FAE
:102D800053005BB281B180F0010252B21343DBB257
:102D90007F2B2377E9D102F0D5FB07EE900AF8EEFE
:102DA000677AC4ED087A10BD42B2EFE7704700BF02
:102DB000012910B506D0022915D051B1BDE8104047
:102DC00008F0BEBA0A46344834490DF099FBE8B120
:102DD000FEE7334B0A46334C334934481C600DF050
:102DE0008FFB68B1FEE701222C492B480DF088FBD0
:102DF00000B1FEE72E4928480DF0A6FBC0B1FEE762
:102E00002B492A480DF0A0FB60B1FEE72849224873
:102E10000DF09AFB00B1FEE726491F480DF010FBAC
:102E200008B3FEE7244921480DF00AFBA8B1FEE7EC
:102E3000204919480DF004FB00B1FEE716480DF0DB
:102E4000ABFB024640B9164B164C174917481C609D
:102E50000DF056FB68B1FEE7FEE714480DF09CFB51
:102E60000028ABD0FEE70C480DF096FB0028A5D05B
:102E7000FEE70F490D480DF067FB00B1FEE70E4974
:102E80000A480DF0DDFA00B1FEE708480DF084FBBA
:102E9000002893D0FEE700BFB0100020A000002063
:102EA0008C130020AD2D002484000020D40D0020C0
:102EB00008010020600000204C000020084691B26C
:102EC00008B502F029FE003818BF012008BD00BF78
:102ED000014807F0CBBA00BF80440020014807F04A
:102EE000C5BA00BF80440020014807F0BFBA00BF48
:102EF0008044002010B4002383B00324018080F8B4
:102F0000503080F85120C0E9014303B05DF8044B14
:102F1000704700BF2DE9F04FBE4F0024BE4D8DB06D
:102F2000037007F14003426080461646894620221E
:102F300021463846C5F88835C5F88475CDE9024480
:102F4000CDE90444CDE90644CDE90844CDE90A447D
:102F500012F050FA2022214605F26250C5F8514580
:102F6000C5F85545C5F85945C5F85D4512F042FA12
:102F700085F85065D8F8043085F86846002B62D093
:102F800005F5AA6A09F1500B264609EB0401281938
:102F90005222013612F020FA4FF0000327F8023BCC
:102FA0001BF804300AF8013F002B70D0D8F8043029
:102FB0004FF0010254349E4285F86826E5D3974AC3
:102FC000082195F850350026C5F88C254FF480224D
:102FD00093480027C5F8A4350023C5F890250122A1
:102FE000C5F89C1595F86816C5F8943585F8A03590
:102FF000C5F89825C0E9006700293ED0C5F8B82576
:1030000085F8A13585F8A835002298F80030C5F874
:10301000BC25C5F8C025002B40D00122002001218D
:10302000013B85F8C4257F4AC2E90001082B37D847
:10303000DFE813F0BD00C200C700CC00D100D6000D
:10304000DB00E100E800C5F89435F6B285F8A0355C
:103050000020724B0021C5F8A465C5F88C354FF4EB
:103060008023C5F890350123C5F898350823C5F8A5
:103070009C3505F5B663C3E90001012385F8A13548
:10308000002385F8A8350323C5F8B835BCE7D8F880
:1030900004305434B3423FF678AF90E785F8C43536
:1030A000614803F0ADFE034608B1FFBEFEE702A98A
:1030B0005D48029304F004F80446002875D1042307
:1030C00040F2FF720A90CDE9082395F85035002BA5
:1030D00000F0F58006234FF05409019309FB0453D7
:1030E00093F85130072B07D8DFE803F0595C5653AB
:1030F000504D4A040723079326B206EB4606C6EB5B
:10310000C60605EB8608B700404600F09BFC09FBAD
:10311000045393F85030042B00F3AD80022B00F3DE
:10312000C08000F0BC802B19002283F8402515F8E0
:10313000262098F80130002A7CD0022A00F08D80E9
:10314000012A40F0B480012B00F0B380002B374BF4
:1031500018BF0023059305A9019B3348069303F08C
:103160008BF9002840F0AE80013495F85035E4B278
:10317000A34240F2A4802E4B53F824300193ADE7D4
:1031800006230793B8E705230793B5E704230793BE
:10319000B2E703230793AFE702230793ACE70023CB
:1031A0000793A9E701230793A6E7FFBEFEE70320E5
:1031B000402142E9020173E70720602142E9020150
:1031C0006EE70F20802142E9020169E71F20A0215C
:1031D00042E9020164E73F20C02142E902015FE7C2
:1031E0007F20E02142E902015AE7FF204FF480717D
:1031F00042E9020154E740F2FF104FF4907142E9B6
:1032000002014DE740F2FF304FF4A07142E90201A4
:1032100046E700BFC0400030981300200020024065
:103220004819002068190020241900200002B02548
:10323000D8840124062B36D0072B3CD0022B49D052
:10324000032B49D0002B4BD0012B47D0042B49D066
:10325000052B254B18BF00237CE7042B25D0052B1D
:103260002BD08BB3012B31D0022B31D0032B1F4B32
:1032700018BF00236EE70323143705EB040B4FF050
:10328000000A2F448BF8403538460AF1010A00F055
:10329000D9FB9BF8403514375345F5DC47E701234C
:1032A000EAE70223E8E7124B54E7124B52E7002308
:1032B00050E7114B4EE7114B4CE7114B4AE70DB06D
:1032C000BDE8F08FFFBEFEE70E4B43E70E4B41E734
:1032D0000E4B3FE70E4B3DE70E4B3BE70E4B39E7FE
:1032E0000E4B37E70E4B35E70000B84F0020903605
:1032F0000800900C1000C0102000F0148000501D39
:10330000000180210004002A0008302E00106032E5
:103310000040C03A0080F03E0000524700002143C8
:103320000000844B38B5094C40F2FF724FF0011198
:1033300004F28C55284603F071FE94F85025D4F819
:1033400084152846BDE8384003F088BB9813002058
:10335000014803F04FBC00BF24190020034B0F2984
:10336000D3F8840598BF00EB410070479813002004
:10337000244B02689A4200D07047234A0023234816
:10338000D2F8D81030B5224C41F0200183B0C4F8F7
:10339000F0050920C4F8F83504F5BE65C4F8F40555
:1033A0004FF48060C2F8D8104FF40061D2F8D820F2
:1033B000C4F8000694F8680602F02002C4F8FC3550
:1033C00098420192C4F804164FF40051C4F8103624
:1033D0002846C4F81436019B14BF00234FF48073B1
:1033E000C4F80816C4F80C3604F096FA08B1FFBE0B
:1033F000FEE704F28C53C4F8D855C4F8283603B05D
:1034000030BD00BF0020024000440258400002408E
:1034100098130020014805F0D1B800BF881900209A
:1034200002682DE9F84F504B9A4201D0BDE8F88F61
:103430004E4D95F86836002BF8D095F85035002B96
:103440007BD0002405F13C0905F2625605F5AA6718
:10345000A04613E003F0010117F811BCA9F1280000
:1034600000F0C0FCBBF1010F25D895F850350134B0
:1034700009F154090236A2B293422BD917F8012F51
:10348000002AF4D0D5F884350021327833F81400BE
:10349000D5F8883503EB041323F812003388013381
:1034A0009BB233805FFA83FA3A789A42D2D88A463E
:1034B000A6F80080D0E7CAF34001A9F1140000F09B
:1034C00091FCBBF1020FCAF38001CED0484600F058
:1034D00089FCCAE7002395F8680625490922984225
:1034E000C5F8F8354FF48060C5F8F015C5F8F42537
:1034F0004FF400614FF40052C5F8FC3508BF4FF49B
:103500008073C5F80006C5F80416C5F80826002221
:103510001848C5F80C36C5F81026C5F8142604F06E
:10352000FBF908B1FFBEFEE795F85025D5F88415E4
:103530001148BDE8F84F03F091BA0D4909224FF444
:103540008060C5F8F835C5F8F0154FF40061C5F88E
:10355000F4254FF40052C5F8FC35C5F80006C5F84F
:103560000416C5F80826D2E7002002409813002070
:10357000400002408819002024190020704700BF35
:103580000C4B4FF60B71002203F5A8601980DA602E
:1035900099821A6219855A6399879A64C3E901224C
:1035A000C3E90622C3E90B22C3E91022543398422F
:1035B000ECD1704798130020504B02689A4200D01B
:1035C00070474F4BD3F8E81030B541F000514D4CE7
:1035D00087B0D4F85421C3F8E810D3F8E81001F00C
:1035E000005104910499D3F8E01041F00101C3F8AF
:1035F000E010D3F8E03003F001030593059B32F0AF
:1036000002033DD0013A012A6CD9D4F85831012B7C
:103610000AD000223620114603F0CCFD362007B038
:10362000BDE8304003F004BED4F8543133F0020258
:1036300035D0013B012BECD8442240233249334D95
:10364000C4F88C1000212846C4F8B010C4E9242323
:1036500000224FF48063C4E926234FF400624FF444
:103660000053C4E928234FF480724FF48033C4E937
:103670002A2304F051F988B9E560C4F8C440C8E7CA
:103680004FF48061032204F5BA700093ADF80C107A
:10369000039900F0B5FAD4F85421B3E7FEE71C4BC8
:1036A000A2634322636140231A4DC4E9062300222A
:1036B0004FF480632846C4E908234FF400624FF4B6
:1036C0000053C4E90A234FF480724FF48033C4E9F5
:1036D0000C2304F021F920B9D4F85431A560E46436
:1036E000A7E7FEE74FF4A061002303220A48ADF8E4
:1036F0000C100399009300F083FA86E700740040F1
:1037000000440258081A002028040240941A00209D
:10371000100402401C1A0020901B0020014804F0F5
:103720004DBF00BF1C1A0020014804F047BF00BF76
:10373000941A002010B5054C204603F007FF04F54D
:103740008270BDE810400BF00FBB00BF081A0020CC
:10375000164BD3F85421D3F86411022A4FEA5101D1
:1037600030B583B00CD088B2D3F86821D3F870415B
:1037700002EB400300930CB16846A04703B030BD94
:10378000D3F86C21002AF9D088B2D3F86841D3F875
:10379000705104EB400402EB4002CDE90042002DE1
:1037A000ECD06846A84703B030BD00BF081A00201F
:1037B000134BD3F85421022A10B582B00CD0D3F8A1
:1037C0006811D3F87021009122B1D3F864116846D2
:1037D0004908904702B010BDD3F86C21002AF9D0F7
:1037E000D3F86811D3F87041CDE90012002CF1D064
:1037F000D3F8641168464908A04702B010BD00BF65
:10380000081A0020094BD3F85421022A0DD000B524
:10381000D3E95B1283B0019122B1D3F8641101A8FE
:103820004908904703B05DF804FB7047081A002070
:103830000B4BD3F85421022A10D0D3F8641110B5E1
:10384000D3E95B24C1F34F0382B0490802EB430381
:1038500001930CB101A8A04702B010BD704700BF92
:10386000081A002030B58C463A4C3B4D8DB00460B0
:1038700004F5A87EBCE80F00AEE80F00DCF80030CD
:1038800020462560CEF8003003F072FD0023D4F806
:1038900058510393CDB11622012D049218D0002265
:1038A000D4F860110125D4F854319142CDE9065283
:1038B00018BF0222059233F0020235D0013B012BE2
:1038C0003DD9002528460DB030BD02230493E6E71C
:1038D000224A0093C4F80C31C4F81431C4F804210E
:1038E000C4F81C31CDE9013302F028F8D4F8503186
:1038F0004BF68032C4F80851002B08BF1346B0FBCA
:10390000F3F304F58270C4F810310AF0EFFF0028D9
:10391000D8D120230290694604F5827000930BF001
:10392000CDFA0028BBD0CDE703A90A4803F042FE38
:103930000028C7D1D4F85431013B012BC1D8102243
:1039400003A9044803F036FE051E18BF01252846CA
:103950000DB030BD081A0020007400400010004077
:1039600070B504681D4682B01046D4F85831012B5A
:1039700003D0D4F85431022B24D1D4F85C31069A08
:10398000002BC4F86811C4F870212B460CBF082620
:103990000026C4F86C010A46C4F864510021204690
:1039A000009603F0FBFCD4F86C212B461021204636
:1039B000009603F0F3FC04F582700BF04DF8002044
:1039C00002B070BD012002B070BD00BF10B5046828
:1039D000D4F85831012B09D1D4F8543133F0020115
:1039E00006D0013B012B0BD9002010BD012010BDDA
:1039F000204603F05FFDD4F85431013B012BF3D88E
:103A00001021204603F056FD002010BD00000000EC
:103A10009FED097B0A4B00224FF60B71C3F8802102
:103A2000C3F88C21A3F87411A3F8881183ED5E7B91
:103A3000C3E96422704700BF0000000000000000DE
:103A4000081A002003780B2B2DD042780F2A2AD891
:103A50004168022910B590B03ED0032902D0012957
:103A600000D000210C918168012902D0022918BFE1
:103A700000210D91C168022904D0032902D0012937
:103A800018BF00210A2B0E910ED85B4C04EB832447
:103A900004610A2B17D8DFE803F009A09284766846
:103AA0005A4C3E30220070470024F1E7534BD3F8C4
:103AB000E01041F00101C3F8E010D3F8E03003F06A
:103AC00001030093009B01230BA9204693400B9315
:103AD00005F0C6F810B010BD11210C91C3E7474B9B
:103AE000D3F8E01041F48061C3F8E010D3F8E0307F
:103AF00003F480630A930A9BE5E7404BD3F8E01098
:103B000041F40071C3F8E010D3F8E03003F400731F
:103B10000993099BD7E7394BD3F8E01041F4807142
:103B2000C3F8E010D3F8E03003F480730893089BE7
:103B3000C9E7324BD3F8E01041F08001C3F8E01040
:103B4000D3F8E03003F080030793079BBBE72B4BD0
:103B5000D3F8E01041F04001C3F8E010D3F8E030B2
:103B600003F040030693069BADE7244BD3F8E01027
:103B700041F02001C3F8E010D3F8E03003F0200357
:103B80000593059B9FE71D4BD3F8E01041F0100112
:103B9000C3F8E010D3F8E03003F010030493049B63
:103BA00091E7164BD3F8E01041F00801C3F8E0109C
:103BB000D3F8E03003F008030393039B83E70F4B34
:103BC000D3F8E01041F00401C3F8E010D3F8E0307E
:103BD00003F004030293029B75E7084BD3F8E0104F
:103BE00041F00201C3F8E010D3F8E03003F0020323
:103BF0000193019B67E700BF000002580044025890
:103C000010B592B0ADF804100180C9B2149C0B2914
:103C1000C460C0E901233FD090F801C0BCF10F0F90
:103C20003AD8022A3FD0032A02D0012A00D000222B
:103C30000E92012B02D0022B18BF0023022C0F93EF
:103C40002CD0032C2AD0012C28D000230A29109331
:103C500027D85C4A02EB812202610A2914D8DFE8E6
:103C600001F0A39587796B5D4F4133250600564BD4
:103C7000D3F8E01041F48061C3F8E010D3F8E030ED
:103C800003F480630C930C9B01230DA9104603FAE7
:103C90000CF30D9304F0E4FF12B010BD0A29109448
:103CA000D7D90022D8E711220E92C2E7464BD3F8AB
:103CB000E01041F40071C3F8E010D3F8E03003F4F1
:103CC00000730B930B9BDFE73F4BD3F8E01041F4FD
:103CD0008071C3F8E010D3F8E03003F480730A93E6
:103CE0000A9BD1E7384BD3F8E01041F08001C3F8CC
:103CF000E010D3F8E03003F080030993099BC3E799
:103D0000314BD3F8E01041F04001C3F8E010D3F894
:103D1000E03003F040030893089BB5E72A4BD3F843
:103D2000E01041F02001C3F8E010D3F8E03003F0D8
:103D300020030793079BA7E7234BD3F8E01041F03C
:103D40001001C3F8E010D3F8E03003F0100306933D
:103D5000069B99E71C4BD3F8E01041F00801C3F82B
:103D6000E010D3F8E03003F008030593059B8BE7E0
:103D7000154BD3F8E01041F00401C3F8E010D3F87C
:103D8000E03003F004030493049B7DE70E4BD3F86B
:103D9000E01041F00201C3F8E010D3F8E03003F086
:103DA00002030393039B6FE7074BD3F8E01041F046
:103DB0000101C3F8E010D3F8E03003F001030293EF
:103DC000029B61E7000002580044025808B5012137
:103DD00043780069994089B205F044F9003818BF6A
:103DE000012008BD01230A464178006903FA01F168
:103DF00089B205F03DB900BF10B5002386B012228C
:103E000004460493CDE902230368022B1FDC002B38
:103E100001DB0423059323790A2B1FD8114800EBFB
:103E200083206279012301A99340019304F018FFD4
:103E3000A3790A2B14D80B4800EB8320E2790123E5
:103E400001A99340019304F00BFF06B010BD032BB2
:103E5000E1D10623059323790A2BDFD90020E0E77F
:103E60000020EBE700000258634A0368934210B554
:103E70008CB028D0614A934258D0614A934200F0F6
:103E80009480604A934201D00CB010BD5E4C5F48F4
:103E9000D4F8E03043F00203C4F8E030D4F8E03066
:103EA00003F002030A930A9BFFF7A6FFD4F8F4304D
:103EB00043F08003C4F8F430D4F8F43003F0800306
:103EC0000B930B9BE0E7504C5148D4F8E03043F0A3
:103ED0000203C4F8E030D4F8E03003F002030193A9
:103EE000019BFFF789FFD4F8E83000221F2043F43C
:103EF00000131146C4F8E830D4F8E83003F4001396
:103F00000293029BD4F8D83043F00103C4F8D830B0
:103F1000D4F8D83003F001030393039B03F04AF96C
:103F20001F200CB0BDE8104003F082B9364C394870
:103F3000D4F8E03043F08003C4F8E030D4F8E03047
:103F400003F080030493049BD4F8E03043F00203B1
:103F5000C4F8E030D4F8E03003F002030593059B89
:103F6000FFF74AFFD4F8E8300022212043F4800311
:103F70001146C4F8E830D4F8E83003F4800306931F
:103F8000069BD4F8D83043F00103C4F8D830D4F8F5
:103F9000D83003F001030793079B03F00BF92120AE
:103FA0000CB0BDE8104003F043B91B48FFF724FFF5
:103FB000154B00224820D3F8E840114644F4000491
:103FC000C3F8E840D3F8E84004F400040894089CDF
:103FD000D3F8D84044F00104C3F8D840D3F8D8301F
:103FE00003F001030993099B03F0E4F848200CB0A7
:103FF000BDE8104003F01CB90054004000580040D8
:10400000005C0040001C005800440258481E00207C
:10401000A81B0020881C0020681D00202DE9F0430B
:104020001A4B87B000254FF010099E46EC46184BFE
:10403000FF22E04667461A700EF118060EF13004B2
:10404000CDE90055CDE90255ADF80090BCE80F0070
:10405000CDE90455AEE80F009CE803000095ADF8EB
:1040600000908EE80300B8E80F000FC69CE803003C
:104070000095ADF8009086E803000FCF0FC49CE8D0
:10408000030084E8030007B0BDE8F08304000020CB
:10409000A41B002010B5EFF3108472B6084B1A78F9
:1040A000120602D504B962B610BD1878054B40B2AD
:1040B000C0EBC00003EB4010143004F07FFAF1E7CE
:1040C000A41B0020A81B0020014806F0BDB800BFBB
:1040D000341C0020014806F0B7B800BF141D0020B2
:1040E000014806F0B1B800BFF41D00202DE9F043EF
:1040F0000D6885B0404EC5EBC503032D4FEA43174D
:1041000006EB4313036041DCCA680C46012A3DD824
:104110004FEAC5084CD020689C466168A8EB0509A9
:10412000A2680DF1100EE36806EB4919ACE80F0028
:10413000324B227C8CF80020D9F808C00FCB0EE956
:104140000F000EEB8503BCF1010F53F8103CC9F8CA
:104150008C3032D0BCF1020F43D0BCF1000F36D00E
:10416000227C8C37A8EB050500233744520006EB70
:10417000451601213846C6F8AC30C6E92521C6E906
:104180002733C6E9293305F06FFD18B1012005B0CA
:10419000BDE8F0830146384606F062F80028F5D104
:1041A0000146384606F086F8003818BF0120EEE7D1
:1041B0000A7C103A672AAED9E8E701F0BDFB104B44
:1041C00098420CBF0F4B104BC9F89030C8E701F074
:1041D000B3FB0B4B98420CBF0C4B0D4BC9F8903006
:1041E000BEE701F0A9FB064B98420CBF094B0A4BF6
:1041F000C9F89030B4E700BFA81B00209C810124BF
:10420000000E27072D0FB0303211D0205F43906091
:104210008A62E030200BA0101A0980102DE9F041CD
:10422000046884B09846E368BDF82C70CBB90D469D
:1042300016468C34204606F00FF82028FAD1204686
:104240000C9C69004346324689B2CDE901740A9C50
:10425000009405F093FE003818BF012004B0BDE8BB
:10426000F081012004B0BDE8F08100BF2DE9F041EC
:10427000046884B09846E368BDF82C70CBB90D464D
:1042800016468C34204605F0E7FF2028FAD1204658
:104290000C9C69004346324689B2CDE901740A9C00
:1042A000009405F037FD003818BF012004B0BDE8C8
:1042B000F081012004B0BDE8F08100BF094B6FF030
:1042C000F41110225960C3F8E4101A7483F8F02036
:1042D000C3F8C41183F8D021C3F8A41283F8B02224
:1042E000704700BFA81B002030B5002395B04FF4E5
:1042F0008071062204460B9306921393CDE90C13AA
:10430000CDE90E33CDE9113301F01AFB07282BD08C
:1043100004F1100541F2883206A9284607F040F959
:1043200028B10123184684F85C3015B030BD022254
:10433000022306A92846CDE9002310220123CDE956
:10434000022300224FF48003CDE9042305224FF01D
:10435000807306926A460F9341F2883307F08CFA15
:104360000028DED115B030BD0323012084F85C3075
:1043700015B030BD0000000070B50023A4B04FF0B0
:1043800080724FF480750446ADF806300D93CDE988
:1043900010320122CDE90E53CDE91223CDE91433B9
:1043A000002943D0F02300F1100508AEADF8063027
:1043B000C02341F2883231462846089307F0F0F8CE
:1043C00028B10123184684F85C3024B070BD41F256
:1043D00088320DF10601284607F04CF90346002803
:1043E000EFD105224FF480711E93284616924FF0AC
:1043F00080721B9321931F9202AA9FED1F7BCDE930
:104400001C13CDE922338DED027B9FED1D7B41F224
:10441000883316A98DED047B9FED1B7B8DED067B0C
:1044200007F02AFA0028CCD124B070BD00F11005A5
:1044300008AE612341F2883231462846089307F0DE
:10444000AFF80028BDD141F288320DF106012846AF
:1044500007F08EF90028B4D1BDF80630204623F0CD
:10446000780343F04003ADF80630FFF73DFF002826
:104470009ED0A6E7AFF3008000000000010000001E
:1044800010000000010000000000000000004000DB
:104490002DE9F04F00234FF4807501264FF080780E
:1044A00004462DED028BABB08DF8073013932193AA
:1044B000299314950E96CDF85C80CDE91533CDE99E
:1044C0001863CDE91A33CDE92253CDE92433CDE980
:1044D000273306231C9301F033FA072808D004F190
:1044E000100741F288321CA9384607F059F840B14C
:1044F0000123184684F85C302BB0BDEC028BBDE87C
:10450000F08F4FF0020A4FF0020B4FF0050941F215
:10451000883308AA1CA93846CDF89480CDF870904D
:104520009FED2F8BCDE908AB4FF0000A4FF4800BC5
:104530008DED0A8BCDE90CAB07F09EF90028D7D1A1
:1045400041F2883238460EA907F02AF80028CFD168
:10455000402341F288320DF1070138468DF80730CB
:1045600007F088F80028C3D141F288330EA902AAC7
:104570003846CDF83890CDF85C809FED1B7BCDE9B7
:1045800006AB8DED027B9FED1A7B8DED047B07F072
:1045900073F903460028ABD1CDF870904FF00109B4
:1045A000CDF894804FF00008219308AA29931CA904
:1045B00038462295CDE92333CDE9273341F28833BC
:1045C0008DED0A8BCDE90CABCDE9088907F054F9E4
:1045D000002891D0304684F85C608DE7AFF300800E
:1045E0001000000001000000400000004300000037
:1045F00000800000010000002DE9F04F00234FF47F
:10460000807601254FF0807804462DED028BABB00B
:10461000CDE9153313932193299314960E95CDF874
:104620005C80CDE91853CDE91A33CDE92263CDE999
:104630002433CDE9273306231C9301F081F90728A1
:1046400008D004F1100741F288321CA9384606F060
:10465000A7FF40B10123184684F85C302BB0BDECB5
:10466000028BBDE8F08F4FF0020A4FF0020B4FF0C3
:10467000050941F2883308AA1CA93846CDF8948070
:10468000CDF870909FED308BCDE908AB4FF0000A6C
:104690004FF4800B8DED0A8BCDE90CAB07F0ECF8F5
:1046A0000028D7D141F2883238460EA906F078FFAB
:1046B0000028CFD1402341F288320DF1070138465E
:1046C0008DF8073006F0D6FF0028C3D19DF80730DB
:1046D00008AA0C90FF2008934FF400430EA90B95F5
:1046E000CDF83890CDF85C80CDE909034FF4800314
:1046F00038460D9341F2883307F0BEF80346002890
:10470000A8D10022219329931CA938462296CDF8DE
:104710007090CDF89480CDE92333CDE92733012380
:10472000CDE9022341F2883302AA8DED048BCDE955
:1047300006AB07F0A1F8002890D0284684F85C501A
:104740008CE700BFAFF30080100000000100000004
:1047500070B50122AAB004460D465F48C02104F09E
:1047600087FC00265D4B06965B4895FAA5F5CDE9DA
:104770000466D3F8E02042F02002C3F8E020C02213
:10478000D3F8E03003F0200301930123019902A93B
:10479000CDE9022304F064FA142001F009FE324648
:1047A000C0214D4804F064FC142001F001FE0122F8
:1047B000C021494804F05CFC142001F0F9FD0123FC
:1047C000474AE6612261C4E90533002D77D0B5FA86
:1047D00085F1013900234FF4807604F11005C4E916
:1047E00008162846C4E90B3306F06CFE30B10123ED
:1047F0001D4684F85C3028462AB070BD66231690AA
:10480000179041F2883213900EA91B900E93CDE9B8
:104810001460CDE91900284606F0C2FE0028E6D152
:1048200099230EA941F2883228460E9306F0B8FE6D
:104830000028DCD105230121249008AA219027908B
:104840001C934FF08073CDE92260CDE92800102041
:10485000259341F28833CDE90A019FED1D7B0020AD
:104860004FF48001CDE90C011CA928468DED087B91
:1048700007F002F80028BAD12046FFF7BDFE002855
:10488000B5D1284606F07AFE05460028AFD1237937
:104890000A2B18D963790121994004F01BFBA379F5
:1048A0000A2B0ED80F4800EB83200126E17906FA87
:1048B00001F104F00FFB266684F864609BE71F217A
:1048C00088E70020F1E7074800EB8320E2E700BF1C
:1048D00000000000010000000014025800440258CB
:1048E00000500052000002582DE9F041684CA2B07F
:1048F0000D46046001F024F807284BD028682346B1
:10490000AA68696807C3AA89184620F8042B267B81
:10491000677B06F033FE002834D1012E94F8643012
:1049200014BF4FF480154FF400052366002B39D0D7
:10493000584B95FAA5F523610123C4E905330023FB
:10494000E361002D6ED0B5FA85F1013900234FF4F3
:1049500080785148C4E90818C4E90B3306F0B2FD69
:1049600080B966230B90139041F2883206A9069312
:10497000CDE90C80CDE90E00CDE91100464806F0E6
:104980000FFEA0B101231D4684F85C30284622B0FA
:10499000BDE8F08101250323284684F85C3022B06D
:1049A000BDE8F08129462046FFF7D2FEC0E79923F3
:1049B00041F2883206A93848069306F0F1FD002836
:1049C000E0D105231C9019906A4614934FF0807330
:1049D000219014A91D9341F288339FED277BCDE9E7
:1049E0001A80CDE91F008DED007B9FED257B2A48C5
:1049F0008DED027B9FED247B8DED047B06F03CFF6B
:104A00000028BFD131462248FFF7B6FC0028B9D1B3
:104A10001F48FFF73DFD05460028B3D127B102230B
:104A20002366B3E71F2191E7EB23002600271890A8
:104A300014934FF440631F9006AA1B934FF4005346
:104A4000209014A917934FF4404313481C93A023BC
:104A5000CDF868801693062319934FF08053219365
:104A60004FF04073CDE906671D9306F07DFF0028E7
:104A7000D5D087E7AFF30080000000000100000000
:104A800010000000010000000000000000004000D5
:104A9000281F002000500052381F00205E4B026883
:104AA0002DE9F0419A428CB04FF00004CDE9074463
:104AB000CDE909440B9402D00CB0BDE8F081574B0E
:104AC000574DD3F8D420574F42F48042564EDFF86A
:104AD0005C81C3F8D420D3F8D42002F48042009241
:104AE000009ADA6F42F48042DA67DA6F22F4804289
:104AF000DA67D3F8E02042F04002C3F8E020D3F8B0
:104B0000E02002F040020192019AD3F8E02042F046
:104B10002002C3F8E020D3F8E02002F02002029245
:104B2000029AD3F8E02042F01002C3F8E020D3F854
:104B3000E02002F010020392039AD3F8E02042F042
:104B40000202C3F8E020D3F8E03003F0020304933C
:104B5000049B22E014F0FC0252D103F1200155F82D
:104B6000211008780A2839D891F801C0012109924A
:104B700007EB802201FA0CF107910221CDF8148095
:104B8000089103210A910CA90B4413F81C3C07A9B6
:104B9000104601340B9304F063F82A6EE3B2002A46
:104BA000D8D0052B2CD803F11A0255F822100A7818
:104BB0000A2A18D9497801228A4002210792002244
:104BC000CDE9081203210A910CA90B4496E80300D1
:104BD0000590ADF8181013F81C3CD8E7487801216F
:104BE00009928140C8E74878012107EB8222814081
:104BF000022007910021CDE9080103210A91E3E792
:104C000000225C20114602F0D5FA5C2002F010FB75
:104C10000CB0BDE8F08100BF0050005200440258C3
:104C2000281F002000000258188501240A0A090ADA
:104C30000268F8B5194B9A4200D0F8BD184A002412
:104C4000184F0125D2F8D430174E23F48043C2F810
:104C5000D43011E014F0FC0F1BD157F821301A7832
:104C60000020597801340A2A05FA01F198BF06EBB1
:104C7000822089B204F02EF9E3B23A6E03F12001EA
:104C8000002AE7D0052B03F11A0202D857F8223088
:104C9000E5E75C20BDE8F84002F0D8BA00500052C9
:104CA00000440258281F002000000258014806F066
:104CB000E7BE00BF381F00200E4B6FF0F41200213A
:104CC000981C30B41C1D9D1D9A605D671C67C3E96C
:104CD0000022C3E9181103F10A0203F1080130BCF4
:104CE000C3E91A30C3E91E12C3E92030C3E9221216
:104CF000704700BF281F002038B5036871B9026AE9
:104D000000F1280500F5AC74012A0CBF00214021F8
:104D10008BBB1D4B5722C0F858310DE0426A00F1A1
:104D2000C00500F5E874012A0CBF00214021EBB159
:104D3000164B5A22C0F8D03100232046C4E9012185
:104D40004FF480524FF48061636262614FF480429D
:104D5000C4E903314FF48073C4E906234FF40033F0
:104D6000236202F0D9FD58B1FFBEFEE7084B58227E
:104D7000C0F8D031E0E7074B5922C0F85831DBE7E3
:104D8000C5E92044A56338BD100002407000024010
:104D900028000240580002402DE9F043C28889B043
:104DA00081468388ADF800200089B9F80A10B9F867
:104DB0000C20ADF80230D9F81830ADF80400ADF889
:104DC0000610ADF80820002B3FD0D9F81C70B7FAB8
:104DD00087F77F09012502236C460DF10A06DFF8EB
:104DE00070800695CDE9043599F804202078824238
:104DF000627818D0D9F80010F9B1012902D1F8B1C0
:104E00000A2107910A2805FA02F203A994BF08EBC8
:104E100080200020039203F023FF0234A642E3D156
:104E200009B0BDE8F08399F805109142E2D1002F56
:104E3000F3D0D9F800100029DFD106210791E1E76E
:104E4000022A0CBF08210A21DBE70127C2E700BFC5
:104E500000000258534A0368934230B505468BB0B0
:104E600055D02032934252D04F4A934204D0203240
:104E7000934201D00BB030BD4C4C4D48D4F8E030DB
:104E800043F00103C4F8E030D4F8E03003F001034C
:104E90000593059BD4F8E03043F00803C4F8E030F4
:104EA000D4F8E03003F008030693069BD4F8E03012
:104EB00043F04003C4F8E030D4F8E03003F040039E
:104EC0000793079BD4F8F03043F40003C4F8F030A4
:104ED000D4F8F03003F400030893089BFFF75CFF5D
:104EE000D4F8D830296843F001032F4A3048C4F879
:104EF000D830891AD4F8D83018BF012103F0010343
:104F00000993099B0BB0BDE83040FFF7F5BE274C75
:104F10002848D4F8E03043F00103C4F8E030D4F876
:104F2000E03003F001030093009BD4F8E03043F03D
:104F30001003C4F8E030D4F8E03003F0100301931C
:104F4000019BD4F8E03043F04003C4F8E030D4F8DB
:104F5000E03003F040030293029BD4F8F03043F4B6
:104F60008003C4F8F030D4F8F03003F480030393E6
:104F7000039BFFF711FFD4F8D830296843F00103F1
:104F8000084A0C48C4F8D830891AD4F8D83018BF69
:104F9000012103F001030493049B0BB0BDE83040F2
:104FA000FFF7AABE04580140045C014000440258C7
:104FB00014220020B81F0020014803F0FFBA00BFF0
:104FC00010210020014803F0F9BA00BF8821002019
:104FD000014803F0F3BA00BF6C230020014803F03E
:104FE000EDBA00BFE42300201A4A0368934210B4CC
:104FF0000BD02032934208D0174A934216D0203269
:10500000934213D05DF8044B7047144B0022D3F841
:105010005442C3F85822002CF4D0D3F84802D3E904
:10502000931223465DF8044B520818470B4B00229D
:10503000D3F8B044C3F8B424002CE3D0D3F8AC24A4
:10504000D3F8A814D3F8A404520823465DF8044BFF
:10505000184700BF04580140045C0140B81F0020FD
:10506000184A0368934210B40BD02032934208D000
:10507000154A934217D02032934214D05DF8044B66
:105080007047124BD3E994245208C3F85822002CDD
:10509000F4D0D3E99201234601EB820100EB8200B8
:1050A0005DF8044B1847094BD3F8AC24D3F8B0444F
:1050B0005208C3F8B424002CE0D0D3F8A814D3F8D5
:1050C000A404E8E704580140045C0140B81F002034
:1050D0002DE9F0470C684FF41776774F86B004FB44
:1050E00006F6012C07EB0608C0F8008000F39F804D
:1050F00000230D468E46C446C8F85032C8E99233A4
:1051000069A3D3E900236AA1D1E90001CDE9022313
:1051100006AB03EB8403CDE9040153F810AC53F85C
:10512000089CBEE80F00ACE80F00BEE80F00ACE83A
:105130000F009EE80300C8F828A0C8F8C0908CE8CB
:1051400003002B69042B0CD8DFE803F078828C96DF
:1051500003004FF41773594A03FB04739A64C3F8AE
:10516000E020AA692B6A002A42D0002B4FF4177363
:1051700008BF022203FB047318BF0322DA62012274
:105180001A63EA696B6A002A3FD1191E4FF417733C
:1051900018BF012103FB0473C3E9311269690129B6
:1051A00043D0022947D1032500214FF4177306F19C
:1051B00028002A46019103FB0473002438445C64F0
:1051C0005C63DC65C3F8DC40C3F8CC40C3F8F44052
:1051D000C3E90F44C3E91544C3E93544C3E93B447B
:1051E000022309F053F8019900284FD0FFBEFEE7D3
:1051F000191E4FF4177318BF012103FB0473C3E991
:105200000B12EA696B6A002ABFD0002B4FF41773A8
:105210000CBF0222032203FB0473C3F8C420012243
:10522000C3F8C82069690129BBD10225BDE7012067
:1052300006B0BDE8F08700252946B6E74FF417739E
:105240004FF4FA5203FB04739A64C3F8E02088E732
:105250004FF417734FF47A5203FB04739A64C3F844
:10526000E0207EE74FF417734FF4FA4203FB047318
:105270009A64C3F8E02074E74FF417734BF680325A
:1052800003FB04739A64C3F8E0206AE706F1C000E8
:1052900002232A46384408F0F9FF0028C8D0FFBE90
:1052A000FEE700BFAFF3008004580140045C0140FA
:1052B00024580140245C0140B81F00200077010001
:1052C0000068704770B5046882B015460E46C4F891
:1052D0005032C4E99212069AC4F85422A269012AF3
:1052E00026D0626A012A9AB211D0294604F1C00080
:1052F000019209F0F3F8236A019A012B10D0294694
:1053000004F1280009F0EAF8002002B070BD04F1B1
:10531000C000019209F074F9236A019A012BEED1C1
:10532000314604F1280009F06BF9002002B070BD8D
:10533000226A012A9AB211D0294604F1280001926A
:1053400009F0CCF8636A019A012B10D0294604F1C8
:10535000C00009F0C3F8002002B070BD04F12800BD
:10536000019209F04DF9636A019A012BEED13146A1
:1053700004F1C00009F044F9002002B070BD00BF84
:1053800010B5046804F1280009F03AF804F1C000EF
:1053900009F036F8002010BD03681B69042B05D8FE
:1053A000044A02EB830393ED000A70479FED020A63
:1053B000704700BF2085012400803B470368D3F875
:1053C00058027047064B6FF0F4124FF60B71C3E9A9
:1053D00001229981A3F86812C3E99822704700BF9F
:1053E000B81F0020704700BF08B500F0CFFFBDE830
:1053F000084001F0B9BF00BF064808B503680BB10B
:1054000003F03AFE044803681BB1BDE8084005F00C
:105410002DB808BDA050002090490020064808B5CE
:1054200003680BB103F028FE044803681BB1BDE814
:10543000084005F01BB808BDA0500020904900208E
:10544000064808B503680BB103F016FE044803686C
:105450001BB1BDE8084005F009B808BDA050002008
:1054600090490020364BDA6A520062D59A6A9A6AED
:105470009A6A9B6A180600D500BE314B9B6A990652
:1054800000D500BE2E4B9B6ADA0600D500BE2C4B21
:105490009B6A1B0700D500BE294B9B6A980700D565
:1054A00000BE274B9B6AD90700D500BE244B9B6AE0
:1054B0001A0400D500BE224B9B6A9B0400D500BE97
:1054C0001F4B9B6AD80400D500BE1D4B9B6A190573
:1054D00000D500BE1A4B9B6A5A0500D500BE184B7A
:1054E0009B6A9B0500D500BE154B9B6AD80500D56D
:1054F00000BE134B9B6A990100D500BE104B9B6AFE
:10550000DA0100D500BE0E4B9B6A1B0300D500BE1E
:105510000B4B9B6A580300D500BE094B9B6A99034D
:1055200000D500BE064B9B6ADA0306D400BE00BE5F
:10553000FEE7DB6A9B07FAD5F8E700BEF6E700BF97
:1055400000ED00E000F02EBF00F032BFB0B1431E0E
:10555000022B12D81F4B9B6803F17843B3F5003F31
:105560000BD3022831D003282BD11B4B1B4A1A60C6
:105570001B4B00221A6601F07DBE704700B540F259
:10558000063189B04FF60B720346ADF80810029948
:105590000090ADF80C2001220690CDE9040003A88C
:1055A000FEF72EFB03A80121FEF71CFC0A2000F0E9
:1055B000FFFE0B4B00221A6609B05DF804EB01F008
:1055C00059BE054B00221A60D2E7034B054A1A6008
:1055D000CEE700BF00ED00E000008038FA4E07B0D3
:1055E0000044025807B0FE5A0A4B9B6803F1784307
:1055F000B3F5003F0BD3084B986848B19868012871
:1056000006D09868022803D09B68032070470120C9
:10561000704700BF00ED00E000008038000000008F
:105620002DE9F041CEB004464C2200210AA80FF02B
:10563000E1FE2022002102A80FF0DCFEC0220021A2
:105640001EA80FF0D7FE022005F056FE2368012B9E
:105650004FF0000354D0584A02250193C820D16A64
:10566000564B21F00101D162D26A02F0010201928F
:105670009A6942F440429A619B6903F44043019362
:10568000019B4E4A93699B04FCD54D49022400229C
:1056900001268B6A04274FF0080823F003032343F5
:1056A0008B62052316900AA818934FF48033109646
:1056B000179419941597CDF86880CDE91B22212203
:1056C000CDE91344CDE90A2306F07AFB00B1FEE7E9
:1056D0003F220323294602A8CDE902230022082302
:1056E000CDE9042340224023CDE9062340234FF493
:1056F0008062CDE9082306F0FDFE0346B8B1FEE75F
:105700002E4A04250093F02091692B4B41F440412F
:105710009161926902F440420092DA6A42F0010219
:10572000DA62DB6A03F001030093009BA9E7202201
:1057300026932E9380212C924FF48052319306258C
:105740003F931EA8279236924FF4803225914FF452
:1057500040113292479200222895802540911021D5
:10576000CDF888802B9720962A91CDE92F3440F2EE
:10577000271329934FF480632D930023CDE923460B
:10578000CDE93C234FF480740C23449402242193EC
:1057900007A3D3E90023CDE93445CDE91E2307F063
:1057A00095F900B1FEE705F0CBFD4EB0BDE8F08104
:1057B0000F130F03000000000004005800480258B7
:1057C0000044025870B584B0012401F07BFD4FF411
:1057D00080764FF04052194B68460025ADF80040E6
:1057E0000396CDE9012301F08BFD19224FF04043D0
:1057F00068468DF8082001938DF80F40ADF80D60D4
:105800008DF801408DF80A5001F07AFD02230B2239
:1058100068468DF80F508DF801304FF062538DF8C7
:1058200008200193ADF80D408DF80A4001F068FDA5
:10583000042001F055FD04B070BD00BF0E0001034F
:1058400030B50D46044685B0D1E9000184E8030077
:1058500000F06CFDAB79002B63D00DF03DFFFEF73F
:10586000DDFB0CF0EFF90DF0DBFB2B795BB3304C7B
:10587000636913F4803326D1C4F88430BFF34F8FAB
:10588000D4F8801043F6E07EC1F34E3CC1F3C90169
:105890004FEA4C1C0CEA0E000B4640EA8372013BB7
:1058A000C4F860225A1CF8D1ACF1200C1CF1200F76
:1058B000F0D1BFF34F8F636943F480336361BFF36B
:1058C0004F8FBFF36F8F6B79B3B1194A536913F4DC
:1058D000003311D1BFF34F8FBFF36F8FC2F8503237
:1058E000BFF34F8FBFF36F8F536943F4003353619E
:1058F000BFF34F8FBFF36F8F4FF0FF3200230024B1
:10590000002569460B4802928DF80C30CDE9004520
:105910000CF0CCFD07480CF031FE0BF02FFB05B06E
:1059200030BD2046FFF77CFE2046FFF74BFF94E793
:1059300000ED00E07024002006F044BF06F08ABFAE
:105940001C4B9B6803F17842B2F5003F25D3B3F5B9
:10595000803F20D303F16042B2F5003F1FD303F133
:105960005C42B2F5002F1CD303F17042B2F5902FC8
:1059700019D303F14842B2F5803F16D303F18042B8
:10598000B2F1806F13D303F1E043B3F5000F2CBFE6
:105990000820072070470120704700207047022030
:1059A0007047032070470420704705207047062089
:1059B000704700BF00ED00E003480023034A04499C
:1059C00003600FF0B3BC00BF702400200000002073
:1059D000E5530024704700BF0020704770B50446AF
:1059E000074E0D46304621460AF044FD30460AF087
:1059F00069FD044B204629461B689847002070BD6E
:105A0000D40D00207444002070B50446074E0D46A6
:105A1000304621460AF02EFD30460AF053FD044B75
:105A2000204629461B689847002070BDB010002012
:105A30007844002000220949094808B50AF00CFD05
:105A4000084907480AF016FD074B1A680AB10020FA
:105A500008BD064A00201A6008BD00BF743400204B
:105A6000D40D00207424002074440020D559002453
:105A700000220949094808B50AF0EEFC0849074820
:105A80000AF0F8FC074B1A680AB1002008BD064A64
:105A900000201A6008BD00BF743C0020B010002038
:105AA000742C002078440020D559002420280AD0E6
:105AB000212806D1094B18689A889B7908608A804A
:105AC0008B7100207047054B0868B1F804C08A79D3
:105AD00018600020A3F804C09A7170477400002079
