:020000042400D6
:1000000000000220110A00240D0A00244D5B002488
:100010000D0A00240D0A00240D0A0024000000002F
:100020000000000000000000000000000D0A002495
:100030000D0A0024000000000D0A0024D15A0024FB
:100040000D0A00240D0A00240D0A00240D0A0024C4
:100050000D0A00240D0A00240D0A00240D0A0024B4
:100060000D0A00240D0A00240D0A0024BD560024A8
:10007000C956002411360024D5560024E156002428
:10008000D11D0124FD4100240D0A00240D0A002485
:100090000D0A00240D0A00240D0A00240D0A002474
:1000A0000D0A00240D0A00240D0A00240D0A002464
:1000B000E9110124F5110124011201243142002427
:1000C0000D0A00243D4200240D0A0024590A01248F
:1000D000650A0124051C0124311C0124651C01242E
:1000E0000D0A00240D0A0024000000000D0A00245F
:1000F0000D0A00240D0A00240D0A00240D0A002414
:100100000D0A00240D0A00240D120124710A012495
:10011000991C0124CD1C0124DD3800240D0A002483
:10012000C5380024D1380024950A0124C90A0124C5
:10013000051E01240D0A00240D0A00240D0A0024C6
:1001400000000000000000000000000000000000AF
:100150000D0A00240D0A00240D0A0024011D0124AB
:10016000494200240D0A0024E15A0024055B0024C2
:100170000D0A0024295B00240D0A00240D0A002426
:100180000D0A00240D0A0024351D0124691D0124D7
:100190007D0A0124890A01240D0A00240D0A002485
:1001A0000D0A00240D0A00240D0A00240D0A002463
:1001B000DD5300240D0A00240D0A00240D0A00243A
:1001C0000D0A00240D0A0024AD300024B9300024AB
:1001D0000D0A0024C53000240D0A00240D0A002455
:1001E0000D0A00240D0A00240D0A00240D0A002423
:1001F0000D0A00240D0A00240D0A00240D0A002413
:100200000D0A00240D0A00240D0A00240D0A002402
:100210000D0A00240D0A00240D0A00240D0A0024F2
:100220000D0A00240D0A00240D0A0024000000001D
:100230000D0A00240D0A0024000000000D0A00240D
:100240000D0A00240D0A00240D0A00240D0A0024C2
:100250000D0A00240D0A00240D0A00240D0A0024B2
:100260000D0A00240D0A00240D0A00240D0A0024A2
:100270000D0A00240D0A00249D1D01240000000029
:100280000D0A00240D0A00240D0A002400000000BD
:08029000000000000D0A00242B
:1002A00010B5054C237833B9044B13B10448AFF3B0
:1002B00000800123237010BD78070020000000009B
:1002C0001486012408B5034B1BB103490348AFF35F
:1002D000008008BD000000007C0700201486012477
:1002E000034613F8012B002AFBD1181A0138704776
:1002F00001F0FF01102A2BDB10F0070F08D010F8D7
:10030000013B013A8B422DD010F0070F42B3F6D1DA
:10031000F0B441EA012141EA014122F007047FF0F3
:1003200000070023F0E80256083C85EA010586EA4A
:10033000010685FA47F5A3FA87F586FA47F6A5FA86
:1003400087F68EB9EED1F0BC01F0FF0102F0070292
:1003500032B110F8013B013A83EA010313B1F8D13D
:100360000020704701387047002D06BF354603381E
:10037000073815F0010F07D1013015F4807F02BF57
:10038000013015F4C03F0130F0BC0138704700BFA8
:1003900081F0004102E000BF83F0004330B54FEA36
:1003A00041044FEA430594EA050F08BF90EA020FA3
:1003B0001FBF54EA000C55EA020C7FEA645C7FEA36
:1003C000655C00F0E2804FEA5454D4EB5555B8BF59
:1003D0006D420CDD2C4480EA020281EA030382EACA
:1003E000000083EA010180EA020281EA0303362D5C
:1003F00088BF30BD11F0004F4FEA01314FF4801C2F
:100400004CEA113102D0404261EB410113F0004F40
:100410004FEA03334CEA133302D0524263EB4303F7
:1004200094EA050F00F0A780A4F10104D5F1200E95
:100430000DDB02FA0EFC22FA05F2801841F10001F0
:1004400003FA0EF2801843FA05F359410EE0A5F1C4
:1004500020050EF1200E012A03FA0EFC28BF4CF0F5
:10046000020C43FA05F3C01851EBE37101F00045AB
:1004700007D54FF0000EDCF1000C7EEB00006EEBB8
:100480000101B1F5801F1BD3B1F5001F0CD3490842
:100490005FEA30004FEA3C0C04F101044FEA445299
:1004A00012F5800F80F09A80BCF1004F08BF5FEA20
:1004B000500C50F1000041EB045141EA050130BD00
:1004C0005FEA4C0C404141EB0101013C28BFB1F512
:1004D000801FE9D291F0000F04BF01460020B1FA5D
:1004E00081F308BF2033A3F10B03B3F120020CDA30
:1004F0000C3208DD02F1140CC2F10C0201FA0CF00E
:1005000021FA02F10CE002F11402D8BFC2F1200C72
:1005100001FA02F120FA0CFCDCBF41EA0C01904028
:10052000E41AA2BF01EB0451294330BD6FEA040471
:100530001F3C1CDA0C340EDC04F11404C4F120025C
:1005400020FA04F001FA02F340EA030021FA04F36E
:1005500045EA030130BDC4F10C04C4F1200220FAC5
:1005600002F001FA04F340EA0300294630BD21FA03
:1005700004F0294630BD94F0000F83F4801306BFC9
:1005800081F480110134013D4EE77FEA645C18BFBD
:100590007FEA655C29D094EA050F08BF90EA020F54
:1005A00005D054EA000C04BF1946104630BD91EA4C
:1005B000030F1EBF0021002030BD5FEA545C05D14F
:1005C0004000494128BF41F0004130BD14F580048E
:1005D0003CBF01F5801130BD01F0004545F0FE4102
:1005E00041F470014FF0000030BD7FEA645C1ABF37
:1005F000194610467FEA655C1CBF0B46024650EA6E
:10060000013406BF52EA033591EA030F41F4002199
:1006100030BD00BF90F0000F04BF0021704730B51F
:100620004FF4806404F132044FF000054FF00001F4
:1006300050E700BF90F0000F04BF0021704730B5B5
:100640004FF4806404F1320410F0004548BF40428A
:100650004FF000013EE700BF42004FEAE2014FEADF
:1006600031014FEA02701FBF12F07F4393F07F4FBA
:1006700081F06051704732F07F4208BF704793F0BD
:100680007F4F04BF41F40021704730B54FF46074D0
:1006900001F0004521F000411CE700BF50EA0102D3
:1006A00008BF704730B54FF000050AE050EA01027C
:1006B00008BF704730B511F0004502D5404261EBEC
:1006C00041014FF4806404F132045FEA915C3FF42D
:1006D000D8AE4FF003025FEADC0C18BF03325FEACA
:1006E000DC0C18BF033202EBDC02C2F1200300FA7B
:1006F00003FC20FA02F001FA03FE40EA0E0021FAA0
:1007000002F11444BDE600BF53B94AB9002908BF3D
:1007100000281CBF4FF0FF314FF0FF3000F074B9DC
:10072000ADF1080C6DE904CE00F006F8DDF804E048
:10073000DDE9022304B070472DE9F047089D044627
:100740008E46002B4DD18A42944669D9B2FA82F284
:1007500052B101FA02F3C2F1200120FA01F10CFAC0
:1007600002FC41EA030E94404FEA1C48210CBEFBF8
:10077000F8F61FFA8CF708FB16E341EA034306FB81
:1007800007F199420AD91CEB030306F1FF3080F010
:100790001F81994240F21C81023E63445B1AA4B25D
:1007A000B3FBF8F008FB103344EA034400FB07F7FF
:1007B000A7420AD91CEB040400F1FF3380F00A8140
:1007C000A74240F207816444023840EA0640E41B35
:1007D00000261DB1D4400023C5E900433146BDE8E1
:1007E000F0878B4209D9002D00F0EF800026C5E983
:1007F000000130463146BDE8F087B3FA83F6002E9B
:100800004AD18B4202D3824200F2F980841A61EB12
:10081000030301209E46002DE0D0C5E9004EDDE730
:1008200002B9FFDEB2FA82F2002A40F09280A1EB18
:100830000C014FEA1C471FFA8CFE0126200CB1FB6D
:10084000F7F307FB131140EA01410EFB03F0884266
:1008500008D91CEB010103F1FF3802D2884200F2F3
:10086000CB804346091AA4B2B1FBF7F007FB101185
:1008700044EA01440EFB00FEA64508D91CEB040423
:1008800000F1FF3102D2A64500F2BB800846A4EB7E
:100890000E0440EA03409CE7C6F12007B34022FA69
:1008A00007FC4CEA030C20FA07F401FA06F31C4398
:1008B000F9404FEA1C4900FA06F3B1FBF9F8200CA5
:1008C0001FFA8CFE09FB181140EA014108FB0EF0EB
:1008D000884202FA06F20BD91CEB010108F1FF3A3B
:1008E00080F08880884240F28580A8F10208614447
:1008F000091AA4B2B1FBF9F009FB101144EA014155
:1009000000FB0EFE8E4508D91CEB010100F1FF34FF
:100910006CD28E456AD90238614440EA0840A0FB97
:100920000294A1EB0E01A142C846A64656D353D06D
:100930005DB1B3EB080261EB0E0101FA07F722FA91
:1009400006F3F1401F43C5E9007100263146BDE8BA
:10095000F087C2F12003D8400CFA02FC21FA03F31D
:10096000914001434FEA1C471FFA8CFEB3FBF7F09E
:1009700007FB10360B0C43EA064300FB0EF69E42C3
:1009800004FA02F408D91CEB030300F1FF382FD25C
:100990009E422DD9023863449B1B89B2B3FBF7F604
:1009A00007FB163341EA034106FB0EF38B4208D9DD
:1009B0001CEB010106F1FF3816D28B4214D9023E1E
:1009C0006144C91A46EA004638E72E46284605E73C
:1009D0000646E3E61846F8E64B45A9D2B9EB02080D
:1009E00064EB0C0E0138A3E74646EAE7204694E79D
:1009F0004046D1E7D0467BE7023B614432E73046D0
:100A000009E76444023842E7704700BFFEE700BFD1
:100A10000A480B4A904203D0121A0A4914F05EFAAF
:100A200009480A4A904203D0121A002114F064FACD
:100A300014F020FA00F09CF8FEE700BF0000002050
:100A4000740700204C8601247807002014670020DA
:100A5000704700BF704700BF704700BFF8B5184827
:100A600016460D4600F0D4FE154800F0DDFE154890
:100A700002F052FA144802F04FFA144802F04CFA0D
:100A8000134802F049FACEB10024124F124813F075
:100A9000C9FE97F82230DFED117AFF2BD5E900303F
:100AA00018BF20EE270A00EB840003EB8403013417
:100AB00080ED000AA64283ED000AE7D1F8BD00BF31
:100AC000DC0700209C070020AC070020BC070020AA
:100AD000CC07002094070020BC0B00200000000081
:100AE00070B500F14805044684B00126284600F0A0
:100AF00003FD204600F008FC082328468DF800601E
:100B00008DF8013000F07CFE009904F1080002F03D
:100B1000E9F9092328468DF804608DF8053000F0C6
:100B20006FFE019904F1180002F0DCF90423284655
:100B30008DF808608DF8093000F062FE029904F12A
:100B4000280002F0CFF9032328468DF80C308DF8E9
:100B50000D3000F055FE039904F1380002F0C2F99F
:100B60003021284604B0BDE8704000F01BBE00BF35
:100B70002DE9F0472D4801272D4D2E4E2E4C2DED01
:100B8000068BFFF7ADFF012002F076F92B4802F04B
:100B900065F92B4800F092FE01462A48002914BF4F
:100BA0003146294602F0D4F80121254800F0B2FE72
:100BB00001462548002914BF31462946002502F088
:100BC000C7F81F4800F018FEF7EE006AF0EE407A12
:100BD00000224FF07C539FED1D0A2046A26186EE55
:100BE000A77AC4ED047A6360A846E360AA4684ED60
:100BF000020A84ED057A13F0CFFF40F20113144985
:100C00000F48238584ED070A257000F0C3FD05F029
:100C10000DF80122814605481146044C00F088FB7E
:100C20002A460221014800F083FB26E194070020B8
:100C3000D87C0124D07C0124BC0B0020F87C01244A
:100C4000DC070020207D0124307D01240000C84203
:100C50005D0A002494F83230FF2B00F05F8194F895
:100C60004230FF2B00F0BA8194F84230FF2B3FD086
:100C70000721C74800F062FBF1EE009AB0EE409AFF
:100C80000821C34800F05AFB0921A9EE290AC048EF
:100C90009FEDBDABB0EE408A00F050FBB7EEC00A4E
:100CA0000221BC48B7EEC87AA0EE0A7BB7EEC70BAC
:100CB00000F0C2FD0421B64800F040FBB0EE409ABF
:100CC0000521B34800F03AFB0621A9EE290AB048F5
:100CD000B0EE408A00F032FBB7EEC00A0121AD4809
:100CE000B7EEC87AA0EE0A7BB7EEC70B00F0A4FD02
:100CF000A5EB0903642B40F2BC80A748A94602F08B
:100D0000ADF8A64802F0AAF8A54BA649A648002FC0
:100D100008BF194602F0A2F804219D4800F00EFB1E
:100D2000B0EE408A07219A4800F008FBB7EEC00AEF
:100D3000B7EEC87A9D489FED949BA0EE097BB7EE75
:100D4000C77BB7EEC77A53EC172B02F087F8052163
:100D50008F4800F0F3FAB0EE408A08218C4800F08A
:100D6000EDFAB7EEC00AB7EEC87A9148B0EE006B64
:100D7000A0EE097B37EE067BB7EEC77BB7EEC77AEE
:100D800053EC172B02F06AF80621814800F0D6FADE
:100D9000B0EE408A09217E4800F0D0FAB7EEC00AD2
:100DA000B7EEC87A8348B1EE006BA0EE097B37EE50
:100DB000067BB7EEC77BB7EEC77A53EC172B02F072
:100DC0004DF80021724800F045FAB7EEC07A7A4833
:100DD00053EC172B02F042F800216E4800F026FD7C
:100DE000B7EEC07A754853EC172B02F037F80121A3
:100DF000674800F02FFAB7EEC07A714853EC172B12
:100E000002F02CF80121634800F010FDB7EEC07A23
:100E10006C4853EC172B02F021F802215C4800F0DB
:100E200019FAB7EEC07A684853EC172B02F016F89F
:100E30000221584800F0FAFCB7EEC07A634853EC40
:100E4000172B02F00BF80321514800F003FAB7EE1C
:100E5000C07A5F4853EC172B02F000F84D4803218D
:100E600000F0E4FCB7EEC07A5A4853EC172B01F0BF
:100E7000F5FF4748B04600F095FA04F0D7FEA67C8F
:100E80000546A6F1FF06B6FA86F67609B8F1000F18
:100E90000ED16EB1012187F001073D488AEA010AAF
:100EA0003A4600F045FA02215246394800F040FA2D
:100EB00094F82230FF2B7FF4CDAE94F83230FF2B24
:100EC0003FF416AF94F84230FF2B3FF411AFB1EE70
:100ED000040A002F00F0B18001212D4800F038F9FC
:100EE00004212B4800F02AFAB0EE408A0721284856
:100EF00000F024FA0221B7EEC87A9FED236BB7EE1B
:100F0000C00A2448A0EE067BB7EEC70B00F094FCA5
:100F100094F82230FF2B3FF4EBAE9BE694F842307E
:100F2000FF2B3FF4E5AE9FED2C0A002F00F09980D7
:100F30000121174800F00CF90521154800F0FEF9D1
:100F4000B0EE408A0821124800F0F8F9B0EE006BCC
:100F5000B7EEC87A0221B7EEC00A9FED0B5BA0EE98
:100F6000057B0C4837EE060BB7EEC00B00F064FCB7
:100F700094F82230FF2B3FF4BBAE94F83230FF2BB5
:100F80003FF4B6AE6BE600BF7B14AE47E17A943F08
:100F900094070020DC070020407D0124587D0124B7
:100FA000EC7C0124E07C0124647D0124747D012417
:100FB0008C7D0124A47D0124BC7D0124CC7D0124F1
:100FC000DC7D0124EC7D0124FC7D01240C7E0124C8
:100FD0001C7E01242C7E012400000000B9EE040ACE
:100FE000002F56D001213A4800F0B2F806213848C7
:100FF00000F0A4F9B0EE408A0921354800F09EF9CE
:10100000B1EE006BB7EEC87A0221B7EEC00A9FEDD1
:101010002E5BA0EE057B2F4837EE060BB7EEC00B1C
:1010200000F00AFC94F82230FF2B3FF461AE94F8F4
:101030003230FF2B7FF418AE5AE60221244800F02C
:1010400087F80421224800F079F9B0EE408A0721A0
:101050001F4800F073F90121B7EEC87A9FED1A6BB3
:101060004DE702211A4800F073F80521184800F0F6
:1010700065F9B0EE408A0821154800F05FF9B0EE3E
:10108000006BB7EEC87A0121B7EEC00A9FED0E5B88
:1010900065E702210E4800F05BF806210C4800F0DD
:1010A0004DF9B0EE408A0921094800F047F9B1EE48
:1010B000006BB7EEC87A0121B7EEC00A9FED025B64
:1010C000A7E700BFAFF300807B14AE47E17A943FFF
:1010D00094070020DC07002038B5164800244FF69E
:1010E0000B75154A154904628462C0E90344C0E9DE
:1010F0006C54C0E96E44C0E97254C0E9744413F002
:1011000051FD0D4A0E490F4813F04CFD0E480A4A96
:10111000846604670D49C0E91544C0E97E54C0E9FE
:101120008044C0E98454C0E98644BDE8384013F0E7
:1011300039BD00BFCC09002000000020510A002466
:10114000550A0024BC0B002094070020590A0024F3
:10115000F1EE047AB4EEE70AF1EE10FA26DCF9EECD
:10116000047AB4EEE70AF1EE10FA26D501295ED032
:10117000B0EE670A9FED2F7ADFED2F7AF1EE046A69
:1011800037EE677A30EE260A80EE266AE7EE067AB8
:10119000B0EE670AF1EE047AB4EEE70AF1EE10FA67
:1011A00034DDB0EE670A483000F046BB012937D085
:1011B0009FED220A483000F03FBBB5EEC00A01297E
:1011C000DFED1F6A9FED1F5A9FED1F7ADFED195A61
:1011D00046FE856ADFED1D7A9FED176A07FE257AC8
:1011E00047FE867AF1EE10FAC8D9B1EE046A76EEBF
:1011F000C76AC0EE067AA6EEA77AF1EE047AB0EEE0
:10120000470AB4EEE70AF1EE10FACADCB5EEC00AFE
:10121000F1EE10FACED59FED0E0A483000F00CBB6F
:10122000B0EE670ADFED066A9FED077ADDE79FED16
:10123000070ABFE7F8532340128384403C0A773FF4
:10124000508D773F3D0A773F8195234008AC84401D
:101250000000000010B50C46483000F0E7FA032CFF
:1012600028D8234A234B02EB8402234903EB84034F
:10127000D2ED007A01EB8404D3ED006AB4EEE70A04
:1012800094ED007AF1EE10FA15D930EE676A9FED11
:101290001B0A77EE677A9FED1A7AC6EE276AF7EE99
:1012A000007AA6EE870AB4EEE70AF1EE10FA15DD31
:1012B000B0EE670A10BD30EE666A9FED117A77EEE8
:1012C000E67A9FED100AC6EE276AF7EE007AA6EEE0
:1012D000870AB4EEE70AF1EE10FAE9DCFFEE007AD5
:1012E000B4EE670AF1EE10FA48BFB0EE670A10BD1F
:1012F0003C7E01245C7E01244C7E01240000000021
:10130000CDCC4C3FCDCC4CBF70B5084E012504462A
:1013100033884580038002F033FD2046B388E580A2
:1013200020F8043FBDE8704002F02ABD7C7C012417
:101330000129114618BF043002F00CBE0A1F032A0F
:1013400002D9483000F072BAC9B25C3008B502F078
:10135000FDF807EE100A9FED0F6AB8EE477ADFED51
:101360000E7ADFED0E6A87EE060A37EEC00A20EE2F
:10137000260AB5EEC00AF1EE10FA08D4F7EE007AAC
:10138000B4EE670AF1EE10FA37FE800A08BD9FED51
:10139000040A08BD00FF7F47F853033F85EB414037
:1013A00000000000837CFF2B00D07047F0B583B0B5
:1013B000044604F03BFC07EE900AD4ED056AF8EE13
:1013C000677A9FED217A77EEE67AF4EEC77AF1EE4E
:1013D00010FA36DB04F148001C4F01252646019027
:1013E00000F012FA019800F0D9F93B882046658098
:1013F000238002F0C5FCBB88E580042526F8043F65
:10140000304602F0BDFC0121204602F0A3FD002180
:10141000304602F09FFD642004F00AFC00212046C3
:1014200002F098FD3046012102F094FD642004F0A2
:10143000FFFB013DE7D1032003B0BDE8F04004F01D
:10144000F9BB03B0F0BD00BF00803B457C7C0124AC
:1014500000294ED0274BF0B5D0E90024481E03F1F7
:101460000C0E951C03F1100C4E00AC4218BF052861
:1014700002EB41058CBF01200020624538BFAE451C
:101480002CBF01270027384227D02644644538BFA7
:10149000B64522D39D890026D8894FEA510E65F3BF
:1014A0000F06A44602EB8E0E65F31F46002560F37F
:1014B0000F0560F31F45104640F8046B70454CF86B
:1014C000045BF9D121F00100C90705D5998922F8FB
:1014D0001010DB8924F81030F0BD023A023C023DC6
:1014E000998922F8021FAA42D98924F8021FF7D14C
:1014F000F0BD7047E80B00202DE9F04340F20113E6
:10150000964A012706462DED028BDDB0C0F8EC218E
:10151000ADF81C30002306978DF81E3004F06CFDEA
:10152000044604F0CDFB06A90546002840F00081E2
:10153000002C00F0FD8030468DF81E7004F0E2FCB7
:10154000072C0DF198080DD0854906F10C00854B4C
:10155000854ACDE92613012341462892ADF8A430EF
:1015600003F0CAFC032201234FF000091CA904A8C0
:1015700006F11005CDF870904446CDF810905CAFA0
:10158000CDE9202300220123CDE92223774B01223C
:101590001D9303F1007303F540731E934FF44173E1
:1015A000ADF87C300023CDE9242304F015F90123A4
:1015B0000CA905A80C930E931023CDF814908DF868
:1015C00040306B4BCDF83C900D9302F043FE0599F3
:1015D00006F1200000F0F4F94FF07E533020049A19
:1015E0000A9308A90B930323CDE90803284601F0C9
:1015F000D9F9284601F020FA2846B0EE408A01F0D9
:1016000009FAD0ED007A0DF1580CDFF884E1F8EE1C
:10161000677A6546BEE80F0088EE277AACE80F00CF
:101620009EE803008CE8030086ED7A7A35F8023BE9
:10163000204612340222ADF80C30039901F048FD27
:10164000A742F3D106F1140704230C224146384681
:1016500006F1300500249FED478A01F04DFD09E0B9
:1016600001F080FF96ED7A0A01462846013401F028
:101670005DFA2035072CE1B23846F1D9E1B20134E8
:1016800001F070FF00230146F0EE480A28461A4692
:1016900096ED7A0A01F018FA0C2CEAD13046364B56
:1016A00040F82C3F02F06CFB344B012206F5D87059
:1016B000196801F0C1FA324B012206F5E47019688D
:1016C00001F0BAFA2F4B06F5F070C6F8E03102F0DF
:1016D00057FB2D4B06F5F270C6F8E43102F050FBD3
:1016E0000123D6F8EC0111A9CDE913330223103000
:1016F0001293002315934BF68033119302F086F971
:10170000384601F007FFD6F8EC41237D04F11005BF
:10171000FBB928461D4D2368D4E90112009502F05B
:10172000F3F9012323755DB0BDEC028BBDE8F083B6
:10173000304604F0E7FB25B106F1080000F042FA5C
:10174000FEE6002C7FF4FCAE06F1080000F03AFA49
:10175000F6E6284602F00EFADBE700BFE80B0020B1
:101760000508050905070506050A0606040204041E
:10177000010A010B6F12033B02070100707E012476
:101780006C7E0124020E0100020D010051140024A0
:10179000847C0124103001F053B900BF103001F0F7
:1017A00071B900BFF8B500F11007054600F130042B
:1017B00000F5D87638462DED028B01F02FF938462A
:1017C00001F03AF93846B0EE408A01F023F9D0ED45
:1017D000007AF8EE677A88EE270A85ED7A0A01E04A
:1017E00095ED7A0A2046203401F0FAF9B442F7D197
:1017F000BDEC028BF8BD00BF103001F01DB900BF79
:1018000090ED7A0A704700BF143001F099BE00BF16
:1018100038B500F1300400F5D8752046203401F0C9
:10182000BBF9AC42F9D138BD704700BF00EB4111A4
:1018300091ED0F0A704700BF0129D0F8EC211CD9A7
:1018400031F002010DD19FED1B7ADFED1B7A20EE06
:10185000070AB4EEE70AF1EE10FA03DD40F6FF7175
:10186000D1817047B5EEC00AF1EE10FAF8D4BCEEA3
:10187000C00A10EE103A99B2F2E7DFED0E7A9FED52
:101880000E7A60EE277AF4EEC77AF1EE10FA0ADCEF
:10189000F5EEC07AF1EE10FA09D4FCEEE77A17EE15
:1018A000903A9BB201E040F6FF739381C8E70023B2
:1018B000FBE700BF00C04C4400F07F454FF04043C1
:1018C000134A10B543F8042BB3F1444FFAD14FF04B
:1018D000404300240E491A6804338A4218BF013479
:1018E000B3F1444FF7D14FF0806200214FF04040F8
:1018F00013F002FB4FF040431A68043302B1013485
:10190000B3F1444FF8D1B4FA84F0400910BD00BFE0
:10191000EFBEADDE2DE9F041B1BB4FF400020F4642
:10192000144600F10C083946404603F0B5FB20464A
:1019300013F03FF9064622460021751E13F0DCFA2B
:101940000022294601F8012F0132A242FAD139467C
:1019500040463346224603F09BFB601E2946002783
:10196000304401310B784A1E521BD2B2934218BF49
:1019700001378142F5D13046214613F018F9B7FA04
:1019800087F04009BDE8F081024A4FF480444FF4EB
:101990008007C6E70040400007490022074B01F1DD
:1019A000600010B4302459601A611C601A755DF82B
:1019B000044BC3E90202704700000030E80B00202E
:1019C000F0B58C2387B00160002203710124FA2650
:1019D000194605AB8DF81420029640220093234649
:1019E0000194054602F0CCFC002840F09B809DF855
:1019F00014300DF117074022284603F07F030097AB
:101A0000CDE901468DF814308DF817302346297939
:101A100002F0DCFC002840F08580042004F008F986
:101A200005AB4022284600932346CDE9014629799B
:101A300002F0A6FC002875D19DF8143040220097D2
:101A4000284603F0BF03CDE901468DF814308DF828
:101A500017302346297902F0B9FC002862D104200E
:101A600004F0E6F80DF115034322284600932346BF
:101A7000CDE90146297902F083FC002852D10DF10D
:101A800016034822284600932346CDE901462979CA
:101A900002F076FC002845D19DF8153043220097CE
:101AA000284643F001038DF815308DF817309DF866
:101AB000163043F00103CDE901468DF81630234678
:101AC000297902F083FC68BB9DF816304822009704
:101AD00028468DF817302346CDE90146297902F0D2
:101AE00075FCF8B905AB4022284600932346CDE9A2
:101AF0000146297902F044FCA0B99DF81420234640
:101B00000194284602F0CF040296009740222979DA
:101B10008DF814408DF8174002F058FC003818BFBB
:101B2000012000E0012007B0F0BD00BFF0B5102398
:101B300087B0234C012200250126002702A9204658
:101B40000195CDE902234FF48052CDE904670CF0F2
:101B500091F9642005F056F802A94FF4805220460E
:101B6000CDE9046702261027CDE902670CF082F95F
:101B70000322102302A92046CDE9022300230422D8
:101B8000CDE904234FF480520CF074F940F2322373
:101B9000042202A9019310232046CDE90223019AD1
:101BA000012305924FF4805204930CF063F940F640
:101BB000060120460CF07EF9284607B0F0BD00BFB4
:101BC000080C00201C4B00221C494FF0400C30B583
:101BD000054689B00220596007219A601A620124E3
:101BE000DA620A224FF4006EDC6006922022CDE910
:101BF000000104200821CDE9020103201021CDE9D4
:101C0000040108206946C3E904024FF4C072181D9C
:101C1000C3E906C24FF48052C3E909E20CF000F9AF
:101C200038B92846FFF782FF003818BF012009B0F5
:101C300030BD204609B030BD040C002040410052A8
:101C4000614A0021D0B513688EB00A91002B40F094
:101C5000B9805E4B01214FF683700C241160022184
:101C6000D3F8D4200026032742F48052C3F8D420AE
:101C7000D3F8D42002F480520092009AD3F8E020E6
:101C800042F01002C3F8E020D3F8E02002F0100286
:101C90000192019AD3F8E02042F04002C3F8E0201C
:101CA000D3F8E02002F040020292029AD3F8E0203A
:101CB00042F00802C3F8E020D3F8E02002F0080266
:101CC0000392039AD3F8E02042F48072C3F8E02034
:101CD000D3F8E02002F480720492049AD3F8E02052
:101CE00042F08002C3F8E020D3F8E02002F0800246
:101CF0000592059AD3F8E02042F02002C3F8E020D4
:101D0000D3F8E02002F020020692069AD3F8E020F1
:101D100042F00402C3F8E020D3F8E0300C9403F062
:101D2000040307930323079A0B93CDE9080108A93D
:101D3000274807F0A7F948F23712022308A92548D7
:101D40000C94CDE90823CDE90A6707F09BF94CF222
:101D50000372022308A920480C94CDE90823CDE999
:101D60000A6707F08FF940F2FF62022308A91B48B7
:101D70000C94CDE90823CDE90A6707F083F94FF603
:101D80000C72022308A916480C94CDE90823CDE96A
:101D90000A6707F077F94FF63F02022308A91148B6
:101DA0000C94CDE90823CDE90A6707F06BF92022EE
:101DB000022308A90A480C94CDE90A67CDE9082353
:101DC00007F060F90EB0D0BD000C002000440258AE
:101DD0000010025800180258000C02580020025847
:101DE000001C0258001402582DE9F04FDFF810844F
:101DF00006460D46144608F118002DED028B89B0F9
:101E000000AF03F0E1FDD8F8183073B3D8F81C30F8
:101E1000D8F80490002B43690BBF4FF0080A4FF02D
:101E2000100A4FF0020B4FF0040BB9F1000F2AD04B
:101E3000A200EA46012B02F1070222F00702ADEBF5
:101E4000020D6846ADEB020D694600F03F81022BA2
:101E500000F0D680002B6FD02246C847D5462437E5
:101E6000BD46BDEC028BBDE8F08FD8F81C30002BCE
:101E7000F5D0D8F804904FF0080A4FF0020B4369F0
:101E8000B9F1000FD4D1FB61D8F80030BB61002B51
:101E9000E5D0D54803F016FE6B46BBF1020F786122
:101EA00008EE103AFB6900F083816A465146A2EBC6
:101EB000C40295466200EA46B2FBFBF2AAEBC400FC
:101EC00085460AEB8200EE46F861ADEB010DF8693C
:101ED0000EEB820CC7F810C0EC46ADEB010D00EB29
:101EE0008201CCF80400CCF8081001EB82013869BB
:101EF000E946CCF80C1000EB8201CCF800A001EB15
:101F00008202C9E900E0C9E90212012B00F06483F2
:101F1000022B00F06C82002B00F0808162084946A1
:101F20006046BB69984718EE103A24379D46BD4677
:101F3000BDEC028BBDE8F08F002C8DD01A46D8ED99
:101F40000C6A9FEDB27A8446331D36F922E00CF11B
:101F5000080C07EE90EA33F922E00232F8EEE77A55
:101F6000944267EE877A67EEA67A4CED027A07EE26
:101F700090EAF8EEE77A67EE877A67EEA67A4CED9C
:101F8000017AE2D8F9612246C847984ED8ED0D6A29
:101F90000020F9692B1D9FED9E7A9FED9E6ADFED73
:101FA0009E5A22E0F4EEC67AF1EE10FAC0F2C8842E
:101FB00047F6FE72D1ED017A45F8202066EEA77A49
:101FC000F4EEC77AF1EE10FA40F2F080F4EEC67A41
:101FD000F1EE10FAC0F2D58447F6FE7243F82020E5
:101FE0000230083184427FF639AFD1ED007A66EED7
:101FF000A77AF4EEC77AF1EE10FAD3D83246D9E7D1
:10200000002C3FF429AFD8ED0C6A84469FED787A16
:102010000022331D8E4656F822100CF1080C07EEF4
:10202000901A53F822100232F8EEE77A944267EEE3
:10203000877A67EEA67A4CED027A07EE901AF8EEF0
:10204000E77A67EE877A67EEA67A4CED017AE2D8F6
:1020500071462246C7F81CE0C847664ED8ED0D6AA7
:102060000020F9692B1D9FED6A7A9FED6A6ADFF8FF
:1020700094C120E0F4EEC67AF1EE10FAC0F2798451
:102080003246D1ED017A45F8202066EEA77AF4EECB
:10209000C77AF1EE10FA40F28780F4EEC67AF1EEDC
:1020A00010FAC0F25E84324643F820200230083134
:1020B00084427FF6D3AED1ED007A66EEA77AF4EED5
:1020C000C77AF1EE10FAD5D86246DAE7002C3FF471
:1020D000C3AED8ED0C6A86469FED477A4FF0000CF0
:1020E000331D56F82C200EF1080E82F40002A2F5E2
:1020F000000207EE902A53F82C200CF1020CF8EEA7
:10210000E77A82F400026445A2F5000267EE877A5E
:1021100067EEA67A4EED027A07EE902AF8EEE77A9D
:1021200067EE877A67EEA67A4EED017AD9D8F96123
:102130002246C847314ED8ED0D6A0020F9692B1DA3
:102140009FED337A9FED336ADFF8BCC01FE0F4EEF9
:10215000C67AF1EE10FAC0F2FC833246D1ED017A74
:1021600045F8202066EEA77AF4EEC77AF1EE10FA71
:1021700018D9F4EEC67AF1EE10FAC0F2DA833246DC
:1021800043F820200230083184427FF667AED1ED5B
:10219000007A66EEA77AF4EEC77AF1EE10FAD6D896
:1021A0006246DBE76246EBE762467DE7324615E7CB
:1021B000A100D6466208073121F00701ADEB010D01
:1021C000EA46ADEB010D6946ADEB0E0D0AEB820060
:1021D000EC46ADEB0E0D01EB8202F861E946CCE96D
:1021E00000A0C9E9001290E6580C00200280FFFF11
:1021F000000000300082FF7F0000003482FF7F007B
:102200003C0C0020007E00807E0080FF0000003833
:1022100004FF7FBF04FF7F3F00FEFF46002C00F05D
:10222000C982BBF1020FD8F8242000F0FA82796944
:10223000C7F8049002EB810E5FED0C5A8A00DCF8BF
:1022400008100EF104007A611A46DCF80C303B618C
:10225000331DD7F810903D61FD69C7E902CB8C466C
:10226000834636F92210D8ED0C7A06EE101A33F9AF
:10227000221006EE901A3EF92210B8EEC66A07EE5A
:10228000101AF8EEE66A3BF92210B8EEC77A26EE8D
:10229000256A66EEA56A27EE257A26EE276A66EE9F
:1022A000A76A27EE277A07EE901A51080232F8EE55
:1022B000E77A0AEB8100944280ED006A05EB810029
:1022C00067EEA57AC0ED006A0CEB810009EB810195
:1022D00080ED007A98ED0C7A67EE877AC1ED007A8E
:1022E000BFD8D7F804903D69D7E902CB60466208B1
:1022F000BB6949469847D8F82C307A69D8ED0D6A01
:102300001A441FED3D7A1FED3D6A2B1D904602F1E8
:10231000040A5FED3F5A0022A84ED9E900EC51E0D3
:10232000F4EEC67AF1EE10FAC0F2C78247F6FE70FC
:1023300045F822000CEB0100D0ED007A66EEA77A9A
:10234000F4EEC77AF1EE10FA4BD9F4EEC67AF1EE5C
:1023500010FAC0F2BA8247F6FE70BBF1020F43F8E2
:1023600022002BD0D9F808000844D0ED007A66EEA0
:10237000A77AF4EEC77AF1EE10FA36D9F4EEC67AFF
:10238000F1EE10FAC0F2CD8247F6FE7048F8220056
:10239000D9F80C000144D1ED007A66EEA77AF4EE8C
:1023A000C77AF1EE10FA1ED9F4EEC67AF1EE10FA01
:1023B000C0F2AF8247F6FE714AF822100232944210
:1023C0007FF6B1AD51080EEB81008900D0ED007AA7
:1023D00066EEA77AF4EEC77AF1EE10FAA0D830468E
:1023E000A6E73046B9E73146E6E73046CEE7002CAF
:1023F00000F0E081BBF1020FD8F8243000F0E18159
:102400007A69DCF8081003EB820EC7F80490930099
:10241000DFED6B5A0EF1040000227B61DCF80C301A
:102420003B61331DD7F810903D61FD69C7E902CBD0
:102430008C46834656F82210D8ED0C7A07EE101A17
:1024400053F82210B8EEC76A07EE101A5EF8221091
:10245000F8EEC76A07EE101A26EE256A5BF822101E
:10246000B8EEC77A66EEA56A26EE276A27EE257AC9
:1024700066EEA76A27EE277A07EE901A5108023215
:10248000F8EEE77A0AEB8100944280ED006A05EBF2
:10249000810067EEA57AC0ED006A0CEB810009EBC4
:1024A000810180ED007A98ED0C7A67EE877AC1EDB4
:1024B000007ABFD8D7F804903D69D7E902CB6046CF
:1024C0006208BB6949469847D8F82C307A69D8ED3C
:1024D0000D6A1A449FED3E7A9FED3E6A131D9246A7
:1024E000DFF8E4C00022FB612B1D364ED9E9008ED7
:1024F0004EE0F4EEC67AF1EE10FAC0F2FC813046FE
:1025000045F822000EEB0100D0ED007A66EEA77AC6
:10251000F4EEC77AF1EE10FA49D9F4EEC67AF1EE8C
:1025200010FAC0F2EF813046BBF1020F43F82200EF
:102530002AD0D9F808000844D0ED007A66EEA77AD0
:10254000F4EEC77AF1EE10FA35D9F4EEC67AF1EE70
:1025500010FAC0F2C98130464AF82200D9F80C00BE
:102560000144D1ED007A66EEA77AF4EEC77AF1EE77
:1025700010FA1ED9F4EEC67AF1EE10FAC0F2AD816F
:102580003146F86940F82210023294427FF6CBAC13
:10259000510808EB81008900D0ED007A66EEA77A39
:1025A000F4EEC77AF1EE10FAA3D86046A8E76046C9
:1025B000BAE76146E5E76046CEE700BF0280FFFF6D
:1025C000000000300082FF7F007E008000000034A9
:1025D00004FF7FBF04FF7F3F002C00F0EB807A698F
:1025E0000021D8F82430C7F8109003EB820ED7F8FA
:1025F0001C909300FD610EF104021FED0C6A7B61DB
:10260000331D154656F821204808D8ED0C6ABBF159
:10261000020F82F40002A2F5000207EE902A53F89E
:10262000212082F40002B8EEE77AA2F5000227EE3C
:10263000067A07EE902A0AEB8002F8EEE77A27EE98
:10264000267A67EE867A82ED007A09EB80024FEAFD
:10265000800067EEA67AC2ED007A27D05EF82120CE
:1026600082F40002A2F5000207EE902A55F821201C
:1026700082F40002B8EEE77AA2F5000227EE067AAD
:1026800007EE902ADCF80820F8EEE77A024427EEFD
:10269000267A67EE867A82ED007A98ED0C7ADCF87D
:1026A0000C2067EE877A0244C2ED007A02318C4238
:1026B000A8D8D7F8109060466208BB694946FD6902
:1026C0009847D8F82C307A69D8ED0D6A1A441FED76
:1026D000407A1FED406A131D9246DFF8C4C2002203
:1026E000FB612B1DAB4ED9E9008E4EE0F4EEC67AAD
:1026F000F1EE10FAC0F2C580304645F822000EEB2C
:102700000100D0ED007A66EEA77AF4EEC77AF1EE1A
:1027100010FA49D9F4EEC67AF1EE10FAC0F2BF8091
:102720003046BBF1020F43F822002AD0D9F8080046
:102730000844D0ED007A66EEA77AF4EEC77AF1EE9F
:1027400010FA35D9F4EEC67AF1EE10FAC0F2AE8086
:1027500030464AF82200D9F80C000144D1ED007A45
:1027600066EEA77AF4EEC77AF1EE10FA1ED9F4EE0F
:10277000C67AF1EE10FAC0F28B803146F86940F863
:102780002210023294427FF6CEAB510808EB810052
:102790008900D0ED007A66EEA77AF4EEC77AF1EE02
:1027A00010FAA3D86046A8E76046BAE76146E5E7B5
:1027B0006046CEE7224649466046BB699847FFF728
:1027C000B2BBC7F810B0002298ED0C6A331DDFEDE4
:1027D000726AD7F81CB0786956F8221007EE901A82
:1027E00053F82210B8EEE77A07EE901A5108023239
:1027F000F8EEE77A27EE267A0AEB810E94420BEB8D
:10280000810167EEA67A27EE067A67EE867A8EED6C
:10281000007AC1ED007ADFD88300D7F810B07B6171
:102820004DE61A46C7F810B098ED0C6A331DDFED7F
:102830005B6AD7F81CB0786936F9221007EE101AD7
:1028400033F9221007EE901AB8EEC77A5108023217
:10285000F8EEE77A27EE267A0AEB810E94420BEB2C
:10286000810167EEA67A27EE067A67EE867A8EED0C
:10287000007AC1ED007ADFD88300D7F810B07B6111
:1028800034E5F0EE675AFEEEE45A15EE900A34E7AE
:10289000F0EE675AFEEEE45A15EE901A6EE7F0EE8F
:1028A000675AFEEEE45A15EE900A3AE7F0EE675AE0
:1028B000FEEEE45A15EE900A4BE767EEA57AFDEEC0
:1028C000E77A17EE900A00B232E567EEA57AFDEEE0
:1028D000E77A17EE900A00B23FE5F0EE675AFEEE97
:1028E000E05A15EE901A4CE6F0EE675AFEEEE05A0A
:1028F00015EE900A30E6F0EE675AFEEEE05A15EE5D
:10290000900AFDE5F0EE675AFEEEE05A15EE900AE9
:102910000AE667EEA57AFDEEE77A17EE901A09B29D
:102920004AE567EEA57AFDEEE77A17EE900A00B267
:102930002CE5F0EE675AFEEEE45A15EE902A1FE4FD
:1029400067EEA57AFDEEE77A17EE902A12B2FFF74E
:1029500031BBF0EE675AFEEEE45A15EE902AFFF70F
:10296000FDBBF0EE675AFEEEE05A15EE902AFFF737
:102970009BBBF0EE675AFEEEE05A15EE902AFFF789
:1029800080BB67EEA57AFDEEE77A17EE902A12B2C9
:10299000FFF724BB82FF7F000000003000000038FA
:1029A0007E0080FF30B5184C154685B0046004F1F8
:1029B000080EEC460FC98EE80F00D4ED047AF5EE50
:1029C000C07A8CE80F00F1EE10FA1ADDB7EE006A5B
:1029D00094ED057A27EE277AC6EE276A84ED0D7A04
:1029E000C4ED0C6A6DB1204640F8185F02F0ECFFB0
:1029F000064903690020064A2162A262E36005B02D
:102A000030BD012005B030BD3C0C0020C02000309E
:102A1000C000003000680830704700BFB1F5807F0B
:102A200003680A4628BF4FF48072B1F5807F9A6030
:102A300094BF0020012070470068183003F030B8C0
:102A400030B5046883B00D46E3694BB1A36800203C
:102A5000E26A616A9B00009004F11C0002F0B6FF7C
:102A6000A3680748A26A9B00216A009004F118003D
:102A700002F0ACFF0020C4E9005003B030BD00BF3D
:102A8000E91D002410B50468A3691BB104F1180006
:102A900002F0FAFFE3691BB104F11C0002F0F4FF3D
:102AA000002010BD10B4074B4FF07E51302400229F
:102AB000032019619C60D8605DF8044B5961C3E93B
:102AC000062270473C0C0020F6EE007A9FED166A55
:102AD00020EE207A0160F7EE006A80ED036A80ED57
:102AE000020A27EE277AC6EE877AF4EEE67AF1EE4E
:102AF00010FA11DDF0EE667A4FF07E514FF0000CC7
:102B000002760022C0ED017AC0F814C0016143765C
:102B10008276C0ED070A7047F4EEC67AF1EE10FA3D
:102B2000EAD5F0EE467AE7E700000000DFED187A1C
:102B3000B6EE007AF7EE006A9FED166A60EE277A2D
:102B4000016080ED036A80ED020A67EE877A86EE07
:102B5000A77AB4EEE67AF1EE10FA10DDB0EE667AFE
:102B60004FF0804C4FF07C514FF48072012380ED88
:102B7000017AC0F810C04161028383767047B4EED9
:102B8000C67AF1EE10FAEBD5B0EE467AE8E700BF70
:102B90006F12033B000000000268037E128807EEFC
:102BA000902AFBEEC87A1BB1B7EE007A77EE677A0F
:102BB000D0ED056A90ED047A77EEE67A437E67EE13
:102BC000877A0BB1F1EE677A90ED030A90ED017A06
:102BD00077EEC07AA7EE270A80ED030A704700BFA0
:102BE000837E80ED020AABB9D0ED077A27EE800A2A
:102BF000F6EE007AB7EE007A20EE270AC7EE007AEA
:102C0000F4EEC77AF1EE10FA07DDF0EE477AC0ED88
:102C1000017A7047DFED067AE8E7F5EEC07AF1EE6B
:102C200010FAF4D5DFED037AC0ED017A704700BFEA
:102C30006F12033B0000000070B584B0002504460D
:102C40001646ADF80C102B462A460399009500F065
:102C5000B1FFA582A67504B070BD00BF704700BF6C
:102C6000F8B5134F3C687F2C07D98023114A42F2F4
:102C700024411C463B60A2F87E100F4D2B68012BAF
:102C80000AD90C4E0D4D22463146284600F0FAF97D
:102C90000028F8D13860F8BD22460649074800F000
:102CA000F1F90028F7D12B68386001332B60F8BDAB
:102CB000000D0020040D0020FC0C0020840D0020DD
:102CC00030B4154C2168F1B14B1E144DE81810F8C2
:102CD00001298C4619460A2A01D00D2A02D14BB18E
:102CE000013BF4E70CF102037F2B10D98023236012
:102CF00030BC70470122022323600D200A23685450
:102D0000AB5430BC704701220223044DF4E70CF1B0
:102D100001026146F0E700BF000D0020040D002015
:102D200010B5094C02460B46084821680844C1F119
:102D3000800112F091FE236818442060FFF7C0FF65
:102D4000FFF78EFF10BD00BF000D0020040D002016
:102D50000FB400B583B004A951F8040B0191FFF73B
:102D6000DFFF03B05DF804EB04B07047F8B5134F14
:102D70003C687F2C07D98023114A42F224411C462B
:102D80003B60A2F87E100F4D2B68012B0AD90C4E28
:102D90000D4D22463146284600F07EF90028F8D134
:102DA0003860F8BD22460649074800F075F900284A
:102DB000F7D12B68386001332B60F8BD780C002008
:102DC0007C0C0020740C0020880D002030B4154CC1
:102DD0002168F1B14B1E144DE81810F801298C46FA
:102DE00019460A2A01D00D2A02D14BB1013BF4E762
:102DF0000CF102037F2B10D98023236030BC704775
:102E00000122022323600D200A236854AB5430BCF6
:102E1000704701220223044DF4E70CF101026146E0
:102E2000F0E700BF780C00207C0C002010B5094CA6
:102E300002460B46084821680844C1F1800112F09F
:102E40000BFE236818442060FFF7C0FFFFF78EFFDA
:102E500010BD00BF780C00207C0C00200FB400B522
:102E600083B004A951F8040B0191FFF7DFFF03B011
:102E70005DF804EB04B0704710B5044601210A4820
:102E800000F07AF8002C094B14BF022200220848F7
:102E90001A60FFF7E3FF0748FFF7E0FF0A20BDE8ED
:102EA000104002F0C5BE00BF880D0020740C002049
:102EB000747E0124847E0124064A0749074808B528
:102EC00011F070FE034A04490548BDE8084011F0BE
:102ED00069BE00BF000000205D2C0024840D00208E
:102EE000880D002070B5044682B0C1F30726CDB22C
:102EF000ADF8041002F09AFE4FF480724FF00123F7
:102F00002060A01DA571A280E671A36002B0BDE89B
:102F1000704000F035BF00BF38B5044602F086FEB1
:102F2000002223682271834210D00122A57AE37A1D
:102F3000954020602271A01D6DB243B900F0FCFFE6
:102F400040B22843C0B27F28A0720AD038BD00F03A
:102F5000F3FFB0FA80F040092843C0B27F28A07286
:102F6000F4D102F063FE07EE900AF8EE677AC4ED42
:102F7000037A38BD704700BF012910B506D0022979
:102F800015D051B1BDE8104008F01EB80A463448CB
:102F900034490CF0A5FCE8B1FEE7334B0A46334C4C
:102FA000334934481C600CF09BFC68B1FEE70122F9
:102FB0002C492B480CF094FC00B1FEE72E49284820
:102FC0000CF0B0FCC0B1FEE72B492A480CF0AAFC7B
:102FD00060B1FEE7284922480CF0A4FC00B1FEE7EE
:102FE00026491F480CF02CFC08B3FEE72449214871
:102FF0000CF026FCA8B1FEE7204919480CF020FC93
:1030000000B1FEE716480CF0A3FC024640B9164B8F
:10301000164C174917481C600CF062FC68B1FEE7BB
:10302000FEE714480CF094FC0028ABD0FEE70C48F7
:103030000CF08EFC0028A5D0FEE70F490D480CF0DF
:1030400071FC00B1FEE70E490A480CF0F9FB00B133
:10305000FEE708480CF07CFC002893D0FEE700BF98
:103060002810002098000020C4120020752F002492
:103070007C0000208C0D0020000100205C0000205E
:103080004C000020084691B208B503F0A1F80038C2
:1030900018BF012008BD00BF084691B208B503F073
:1030A000ADF8003818BF012008BD00BF014807F087
:1030B00069BA00BF283F0020014807F063BA00BF8B
:1030C000283F0020014807F05DBA00BF283F0020DC
:1030D00000B583B04FF0000E4FF0030C4274ADF812
:1030E0000410BDF8043080F810E0A0F802C003809E
:1030F00003B05DF804FB00BF2DE9F04FDFF81C833F
:1031000000258DB0C04C037008F1400342600746B3
:1031100001920E46202229464046C4F86831C4F880
:103120006481CDE90255CDE90455CDE90655CDE9D7
:103130000855CDE90A5511F0DFFE2022294604F595
:10314000A170C4F83151C4F83551C4F83951C4F8EC
:103150003D5111F0D1FE019B84F8485284F8303182
:103160007A68002A6AD02B4604F59871454606F124
:10317000100A9E46F01856F803B0E2180EF1010E40
:10318000D0F80CC0D0F80490D0F8088044F803B010
:10319000C2F80CC04FF0000CC2F80490C2F80880CE
:1031A000008A25F802CB10821AF8032001F8012FBB
:1031B000002A70D07A684FF001001233724584F80B
:1031C0004802D7D84FF4802290489DF80430082157
:1031D0004FF000084FF00009C4F884310023C4E91F
:1031E0005B020122C4F8743184F88031C4E95E21A5
:1031F00094F84812C4E96489A9B3C4F8982100225C
:1032000084F8813184F888313B78C4E96722002B47
:1032100038D0012200200121013B84F8A421C4E917
:103220006C01082B30D8DFE813F0BD00C200C700E6
:10323000CC00D100D600DB00E100E8009DF80430AE
:103240000121C4F87421C4F884314FF4802384F838
:1032500080216E4AC4E95B2308230022C4E95E137F
:103260000023C4E964230123002284F88131002370
:1032700084F888310323C4F898313B78C4E9672285
:10328000002BC6D184F8A431614804F0B5F9034697
:1032900038B1FFBEFEE77A68123372453FF66AAF77
:1032A00090E702A95A48029304F004FB82460028E2
:1032B00076D1042240F2FF710A90CDE9081294F809
:1032C0003021002A00F0F3804FF006080AEBCA0311
:1032D0004FEACA0904EB43035B7C072B07D8DFE8FE
:1032E00003F0595C5653504D4A04072307930FFAD5
:1032F0008AF6D14406EBC60604EB490904EB4607FF
:103300007500384600F03CFD99F81030042B00F3AE
:10331000AA80022B00F3BD8000F0B98004EB0A0301
:10332000002283F8202114F81630002B78D0022BCD
:1033300000F08A80012B40F0B2807B78012B00F0F6
:10334000B080002B334B18BF002305A93048CDE9CE
:10335000053803F0BBFC002840F0AC800AF1010AFC
:1033600094F830315FFA8AFA534540F2A0802A4B34
:1033700053F82A80AAE706230793B8E705230793A3
:10338000B5E704230793B2E703230793AFE70223CC
:103390000793ACE700230793A9E701230793A6E768
:1033A000FFBEFEE703224023C4E96A236CE707223D
:1033B0006023C4E96A2367E70F228023C4E96A23F4
:1033C00062E71F22A023C4E96A235DE73F22C023EE
:1033D000C4E96A2358E77F22E023C4E96A2353E75C
:1033E000FF224FF48073C4E96A234DE740F2FF12D5
:1033F0004FF49073C4E96A2346E740F2FF324FF47A
:10340000A073C4E96A233FE7D012002000200240E5
:103410003C1400200002B025947E0124C0400030FE
:103420007B78062B37D0072B3DD0022B4AD0032BBD
:103430004AD0002B4CD0012B48D0042B4AD0052B6E
:10344000254B18BF002380E77B78042B25D0052B64
:103450002BD08BB3012B31D0022B31D0032B1F4B40
:1034600018BF002371E70323043504EB0A0B4FF068
:10347000000925448BF82031284609F1010900F0A4
:103480007FFC9BF8203104354B45F5DC4BE70123ED
:10349000EAE70223E8E7124B57E7124B55E7002310
:1034A00053E7114B51E7114B4FE7114B4DE70DB06F
:1034B000BDE8F08FFFBEFEE70E4B46E70E4B44E73C
:1034C0000E4B42E70E4B40E70E4B3EE70E4B3CE700
:1034D0000E4B3AE70E4B38E70000B84F002090360D
:1034E0000800900C1000C0102000F0148000501D47
:1034F000000180210004002A0008302E00106032F4
:103500000040C03A0080F03E0000524700002143D6
:103510000000844B38B5094C40F2FF724FF00111A6
:1035200004F5B675284604F073F994F83021D4F800
:1035300064112846BDE8384003F096BED012002042
:10354000014803F04FBF00BF3C140020044B0F297B
:10355000D3F8643198BF03EB41031888704700BF6C
:10356000D0120020034B0F29D3F8640198BF00EB61
:1035700041007047D0120020214B02689A4200D0CF
:103580007047204A00232048D2F8D81030B51F4C8D
:1035900041F0200183B0C4F8D001092004F5E8759A
:1035A000C4E975034FF48060C2F8D810D2F8D8206F
:1035B0004FF40061C4E9773094F8480202F0200229
:1035C000C4F8E4114FF40051984201922846C4F81F
:1035D000E811C4E97C33019B14BF00234FF48073CE
:1035E000C4F8EC3104F076FD08B1FFBEFEE704F547
:1035F000B673C4F8B851C4F8083203B030BD00BF88
:10360000002002400044025840000240D012002036
:10361000014805F0E5B900BFA014002002682DE9BB
:10362000F84F4B4B9A4201D0BDE8F88F494D95F8C1
:103630004832002BF8D095F83031002B77D0002499
:1036400005F10C0905F5A17605F59877A04613E07C
:1036500003F0010117F811BCA9F1080000F07AFC91
:10366000BBF1010F25D895F83031013409F1120969
:103670000236A2B293422BD917F8012F002AF4D0B8
:10368000D5F864310021327833F81400D5F8683168
:1036900003EB041323F81200338801339BB2338009
:1036A0005FFA83FA3A789A42D2D88A46A6F800801E
:1036B000D0E7CAF34001A9F1040000F04BFCBBF1D4
:1036C000020FCAF38001CED0484600F043FCCAE79F
:1036D000002395F84802204909229842C5F8D831BC
:1036E0004FF48060C5F8D011C5F8D4214FF40061C3
:1036F0004FF40052C5F8DC3108BF4FF48073C5F8B1
:10370000E821C5E9780100221448C5E97B32C5F8F3
:10371000F42104F0DFFC08B1FFBEFEE795F830218C
:10372000D5F864110E48BDE8F84F03F09DBD0A4975
:1037300009224FF48060C5F8D831C5E974124FF4FE
:1037400000614FF40052C5E97730C5E97912DAE734
:1037500000200240D012002040000240A0140020AF
:103760003C140020704700BF4F4B02689A4200D0C3
:1037700070474E4BD3F8E81030B541F000514C4C37
:1037800085B0D4F84821C3F8E810D3F8E81001F068
:10379000005101910199D3F8E01041F00101C3F803
:1037A000E010D3F8E03003F001030293029B32F003
:1037B00002033DD0013A012A6BD9D4F84C31012BD8
:1037C0000AD000223620114604F0E8F8362005B071
:1037D000BDE8304004F020B9D4F8483133F002029B
:1037E00034D0013B012BECD8442240233149324DE7
:1037F000C4F88C1000212846C4F8B010C4E9242372
:1038000000224FF48063C4E926234FF400624FF492
:103810000053C4E928234FF480724FF48033C4E985
:103820002A2304F057FC80B9E560C4F8C440C8E717
:103830004FF48062032303A8ADF80C208DF80E30FE
:1038400000F09EFAD4F84821B4E7FEE71B4BA263D0
:103850004322636140231A4DC4E9062300224FF43A
:1038600080632846C4E908234FF400624FF40053F4
:10387000C4E90A234FF480724FF48033C4E90C2367
:1038800004F028FC20B9D4F84831A560E464A8E726
:10389000FEE74FF4A062032303A8ADF80C208DF8D7
:1038A0000E3000F06DFA88E70074004000440258C2
:1038B0002015002028040240AC150020100402400E
:1038C00034150020014805F08BB800BF34150020E6
:1038D000014805F085B800BFAC15002010B5054CB7
:1038E000204604F027FA04F58270BDE810400AF083
:1038F0008FBC00BF20150020164BD3F84821D3F809
:103900005811022A4FEA510130B583B00CD088B269
:10391000D3F85C21D3F8644102EB400300930CB16F
:103920006846A04703B030BDD3F86021002AF9D023
:1039300088B2D3F85C41D3F8645104EB400402EB45
:103940004002CDE90042002DECD06846A84703B004
:1039500030BD00BF20150020134BD3F84821022AA8
:1039600010B582B00CD0D3F85C11D3F8642100916B
:1039700022B1D3F8581168464908904702B010BDEB
:10398000D3F86021002AF9D0D3F85C11D3F8644150
:10399000CDE90012002CF1D0D3F85811684649083F
:1039A000A04702B010BD00BF20150020094BD3F87E
:1039B0004821022A0DD000B5D3E9581283B00191F5
:1039C00022B1D3F8581101A84908904703B05DF817
:1039D00004FB7047201500200B4BD3F84821022A26
:1039E00010D0D3F8581110B5D3E95824C1F34F03C0
:1039F00082B0490802EB430301930CB101A8A04730
:103A000002B010BD704700BF2015002030B58C46B5
:103A10003A4C3B4D8DB0046004F5A27EBCE80F002B
:103A2000AEE80F00DCF8003020462560CEF800300C
:103A300004F092F80023D4F84C510393C5B1162238
:103A4000012D049217D00022D4F85411D4F8483133
:103A50009142CDE9062218BF0222059233F00202FC
:103A600035D0013B012B3CD9002528460DB030BD97
:103A700002230493E7E7234A0093C4F80C31C4F807
:103A80001431C4F80421C4F81C31CDE9013302F02B
:103A9000B1FAD4F844314BF68032C4F80851002B07
:103AA00008BF1346B0FBF3F304F58270C4F810317D
:103AB0000AF018FA0028D8D120230290694604F5AC
:103AC000827000930AF05CFC0028BCD0CDE703A90B
:103AD0000A4804F063F978B9D4F84831013B012B66
:103AE000C2D8102203A9054804F058F9051E18BFD2
:103AF000012528460DB030BD0125B6E72015002070
:103B0000007400400010004070B504681D4682B08B
:103B10001046D4F84C31012B03D0D4F84831022B95
:103B200024D1D4F85031069A002BC4F85C11C4F8A3
:103B300064212B460CBF08260026C4F860010A4603
:103B4000C4F8585100212046009604F01BF8D4F820
:103B500060212B4610212046009604F013F804F54E
:103B600082700AF05FFA002002B070BD012002B03E
:103B700070BD00BF10B50468D4F84C31012B09D1D9
:103B8000D4F8483133F0020106D0013B012B0BD9A8
:103B9000002010BD012010BD204604F07FF8D4F8AD
:103BA0004831013B012BF3D81021204604F076F870
:103BB000002010BD10B592B0ADF804100180C9B25C
:103BC000149C0B29C460C0E901233FD090F801C0C8
:103BD000BCF10F0F3AD8022A3FD0032A02D0012AA3
:103BE00000D000220E92012B02D0022B18BF00231E
:103BF000022C0F932CD0032C2AD0012C28D0002388
:103C00000A29109327D85C4A02EB812202610A2913
:103C100014D8DFE801F0A39587796B5D4F41332518
:103C20000600564BD3F8E01041F48061C3F8E01071
:103C3000D3F8E03003F480630C930C9B01230DA9AF
:103C4000104603FA0CF30D9305F01CFA12B010BDE8
:103C50000A291094D7D90022D8E711220E92C2E780
:103C6000464BD3F8E01041F40071C3F8E010D3F8EC
:103C7000E03003F400730B930B9BDFE73F4BD3F86B
:103C8000E01041F48071C3F8E010D3F8E03003F4A1
:103C900080730A930A9BD1E7384BD3F8E01041F0C8
:103CA0008001C3F8E010D3F8E03003F080030993FB
:103CB000099BC3E7314BD3F8E01041F04001C3F852
:103CC000E010D3F8E03003F040030893089BB5E719
:103CD0002A4BD3F8E01041F02001C3F8E010D3F8EC
:103CE000E03003F020030793079BA7E7234BD3F8AB
:103CF000E01041F01001C3F8E010D3F8E03003F019
:103D000010030693069B99E71C4BD3F8E01041F093
:103D10000801C3F8E010D3F8E03003F0080305937E
:103D2000059B8BE7154BD3F8E01041F00401C3F875
:103D3000E010D3F8E03003F004030493049B7DE724
:103D40000E4BD3F8E01041F00201C3F8E010D3F8B5
:103D5000E03003F002030393039B6FE7074BD3F8B4
:103D6000E01041F00101C3F8E010D3F8E03003F0B7
:103D700001030293029B61E70000025800440258CD
:103D80008378022B30B504468FB037D0032B33D065
:103D9000012B31D000230A93E378012B2AD0022B88
:103DA00028D000230B93002320460C9302F008FE3A
:103DB0000546204602F00CFE23780990082B13D804
:103DC000DFE803F01F3245586B7E91A40500594B84
:103DD000D3F8E02042F48072C3F8E020D3F8E0305A
:103DE00003F480730893089B09A9284605F04AF953
:103DF0000FB030BD0B93D6E70A93CDE711230A939A
:103E0000CAE74C4B09A92846D3F8E02042F001024A
:103E1000C3F8E020D3F8E03003F001030093009BE7
:103E200005F030F90FB030BD424B09A92846D3F850
:103E3000E02042F00202C3F8E020D3F8E03003F0C3
:103E400002030193019B05F01DF90FB030BD394B02
:103E500009A92846D3F8E02042F00402C3F8E02084
:103E6000D3F8E03003F004030293029B05F00AF953
:103E70000FB030BD2F4B09A92846D3F8E02042F0FF
:103E80000802C3F8E020D3F8E03003F008030393FE
:103E9000039B05F0F7F80FB030BD264B09A9284663
:103EA000D3F8E02042F01002C3F8E020D3F8E0306D
:103EB00003F010030493049B05F0E4F80FB030BD49
:103EC0001C4B09A92846D3F8E02042F02002C3F891
:103ED000E020D3F8E03003F020030593059B05F0C4
:103EE000D1F80FB030BD134B09A92846D3F8E02014
:103EF00042F04002C3F8E020D3F8E03003F0400382
:103F00000693069B05F0BEF80FB030BD094B09A91A
:103F10002846D3F8E02042F08002C3F8E020D3F82E
:103F2000E03003F080030793079B05F0ABF80FB078
:103F300030BD00BF0044025838B5054602F040FDD0
:103F40000446284602F044FD01462046BDE83840BC
:103F500005F0A0BA70B506460D4602F031FD0446E4
:103F6000304602F035FD2A1E0146204618BF0122C8
:103F7000BDE8704005F094BA0023122270B586B0F7
:103F8000CDE9022304930368032B01D8042305938E
:103F9000061D841D304602F013FD0546304602F032
:103FA00017FD034601A92846019305F06BF820464A
:103FB00002F006FD034620461C4602F009FD01A959
:103FC00003462046019305F05DF806B070BD00BFC2
:103FD000634A0368934210B58CB028D0614A93427B
:103FE00058D0614A934200F09480604A934201D0D5
:103FF0000CB010BD5E4C5F48D4F8E03043F00203D3
:10400000C4F8E030D4F8E03003F002030A930A9BCE
:10401000FFF7B2FFD4F8F43043F08003C4F8F43073
:10402000D4F8F43003F080030B930B9BE0E7504C83
:104030005148D4F8E03043F00203C4F8E030D4F83B
:10404000E03003F002030193019BFFF795FFD4F8E2
:10405000E83000221F2043F400131146C4F8E83072
:10406000D4F8E83003F400130293029BD4F8D8305C
:1040700043F00103C4F8D830D4F8D83003F001037A
:104080000393039B03F08AFC1F200CB0BDE8104093
:1040900003F0C2BC364C3948D4F8E03043F080031A
:1040A000C4F8E030D4F8E03003F080030493049BBC
:1040B000D4F8E03043F00203C4F8E030D4F8E03044
:1040C00003F002030593059BFFF756FFD4F8E83091
:1040D0000022212043F480031146C4F8E830D4F8CC
:1040E000E83003F480030693069BD4F8D83043F0FD
:1040F0000103C4F8D830D4F8D83003F00103079393
:10410000079B03F04BFC21200CB0BDE8104003F0EE
:1041100083BC1B48FFF730FF154B00224820D3F823
:10412000E840114644F40004C3F8E840D3F8E840FE
:1041300004F400040894089CD3F8D84044F0010427
:10414000C3F8D840D3F8D83003F001030993099B92
:1041500003F024FC48200CB0BDE8104003F05CBC28
:104160000054004000580040005C0040001C005813
:1041700000440258141900208C16002064170020F7
:104180003C1800202DE9F0431A4B87B000254FF072
:1041900010099E46EC46184BFF22E04667461A700F
:1041A0000EF118060EF13004CDE90055CDE90255A7
:1041B000ADF80090BCE80F00CDE90455AEE80F0063
:1041C0009CE803000095ADF800908EE80300B8E885
:1041D0000F000FC69CE803000095ADF8009086E83C
:1041E00003000FCF0FC49CE8030084E8030007B06E
:1041F000BDE8F083040000208816002010B5EFF31E
:10420000108472B6084B1A78120602D504B962B649
:1042100010BD1B78D82205485BB202FB03001430A6
:1042200004F0DEFBF2E700BF881600208C160020A9
:10423000014806F08DB800BF18170020014806F0AD
:1042400087B800BFF0170020014806F081B800BF12
:10425000C81800202DE9F0430F68D8243F4D85B0E1
:1042600007FB04F4032F05EB0403036040DCCB6879
:104270000E46012B3CD84DD04FF0D808B646DFF89B
:10428000FC9008FB0758BEE80F00C446ACE80F00DE
:10429000DEF800300DF1100ECCF80030D8F808C070
:1042A00099E80F000EE90F000EEB8703BCF1010F38
:1042B00053F8103CC8F88C3031D0BCF1020F42D01A
:1042C000BCF1000F35D0317C8C34D8230022012082
:1042D0002C4403FB07534900C3E92602C3F894109A
:1042E0002046C3E92822C3E92A2205F063FD18B15C
:1042F000012005B0BDE8F0830146204606F034F801
:104300000028F5D10146204606F058F8003818BFBD
:104310000120EEE70B7C103B672BADD9E8E701F0FD
:1043200067FE0F4B98420CBF0E4B0F4BC8F89030F6
:10433000C9E701F05DFE0A4B98420CBF0B4B0C4BDA
:10434000C8F89030BFE701F053FE054B98420CBF10
:10435000084B094BC8F89030B5E700BF8C16002019
:10436000000E27072D0FB0303211D0205F43906030
:104370008A62E030200BA0101A0980109C7C012476
:104380002DE9F041046884B01E46E368BDF82C8036
:10439000C3B90D4617468C34204605F0E1FF2028AE
:1043A000FAD120460C9C33463A462946CDE9018491
:1043B0000A9C009405F07EFE003818BF012004B06E
:1043C000BDE8F081012004B0BDE8F0812DE9F041A5
:1043D000046884B01E46E368BDF82C80C3B90D465E
:1043E00017468C34204605F0BBFF2028FAD1204622
:1043F0000C9C33463A462946CDE901840A9C009438
:1044000005F02EFD003818BF012004B0BDE8F08192
:10441000012004B0BDE8F081044B10221A7483F827
:10442000E82083F8C02183F8982270478C1600207A
:1044300030B5002395B04FF48071062204460B93EB
:1044400006921393CDE90C13CDE90E33CDE9113368
:1044500001F0D2FD07282BD004F1100541F288327B
:1044600006A9284606F0FCFE28B10123184684F868
:104470005C3015B030BD0222022306A92846CDE9E2
:10448000002310220123CDE9022300224FF48003F0
:10449000CDE9042305224FF0807306926A460F93FC
:1044A00041F2883307F048F80028DED115B030BD5E
:1044B0000323012084F85C3015B030BD00000000FB
:1044C00070B50023A4B04FF080724FF4807504469D
:1044D000ADF806300D93CDE910320122CDE90E532F
:1044E000CDE91223CDE91433002943D0F02300F1A4
:1044F000100508AEADF80630C02341F288323146CF
:104500002846089306F0ACFE28B10123184684F82B
:104510005C3024B070BD41F288320DF106012846AE
:1045200006F008FF03460028EFD105224FF4807102
:104530001E93284616924FF080721B9321931F9270
:1045400002AA9FED1F7BCDE91C13CDE922338DED2F
:10455000027B9FED1D7B41F2883316A98DED047B14
:104560009FED1B7B8DED067B06F0E6FF0028CCD18E
:1045700024B070BD00F1100508AE612341F288320D
:1045800031462846089306F06BFE0028BDD141F263
:1045900088320DF10601284606F04AFF0028B4D102
:1045A000BDF80630204623F0780343F04003ADF811
:1045B0000630FFF73DFF00289ED0A6E7AFF300804E
:1045C00000000000010000001000000001000000D9
:1045D00000000000000040002DE9F04F00234FF4E0
:1045E000807501264FF0807804462DED028BABB02C
:1045F0008DF8073013932193299314950E96CDF8D7
:104600005C80CDE91533CDE91863CDE91A33CDE9E6
:104610002253CDE92433CDE9273306231C9301F03F
:10462000EBFC072808D004F1100741F288321CA9DE
:10463000384606F015FE40B10123184684F85C3078
:104640002BB0BDEC028BBDE8F08F4FF0020A4FF0AB
:10465000020B4FF0050941F2883308AA1CA938461D
:10466000CDF89480CDF870909FED2D8BCDE908ABFF
:104670004FF0000A4FF4800B8DED0A8BCDE90CABA7
:1046800006F05AFF0028D7D141F2883238460EA9E9
:1046900006F0E6FD0028CFD1402341F288320DF12B
:1046A000070138468DF8073006F044FE0028C3D1D4
:1046B00041F288330EA902AA3846CDF83890CDF8D9
:1046C0005C809FED197B8DED048BCDE906AB8DED04
:1046D000027B06F031FF03460028ADD1CDF8709083
:1046E0004FF00109CDF894804FF00008219308AAFB
:1046F00029931CA938462295CDE92333CDE92733E8
:1047000041F288338DED0A8BCDE90CABCDE90889F8
:1047100006F012FF002893D0304684F85C608FE7E3
:1047200010000000010000004000000040000000F8
:104730002DE9F043A3B004460D4601F05DFC0728C7
:1047400000F0A98028682346AA6804F11006696869
:1047500007C3AA8930461A80257B677B06F062FD75
:10476000E0B9574B012D4FF00108E061236114BF00
:104770004FF480134FF40003C4E9058893FAA3F3C0
:10478000B3FA83F34FF48079013BC4F82490C4E971
:104790000B002362304606F0D9FC38B101221346E3
:1047A00084F85C20184623B0BDE8F08366230B90A4
:1047B000139041F2883206A90693CDE90C90CDE919
:1047C0000E00CDE91100304606F04AFD0028E5D183
:1047D000992341F2883206A93046069306F040FD3F
:1047E0000028DBD105231C9019906A4614934FF0E2
:1047F0008073219014A91D9341F288339FED2A7B89
:10480000CDE91A90CDE91F008DED007B9FED287B4F
:1048100030468DED027B9FED287B8DED047B06F00D
:104820008BFE0028BAD129462046FFF749FE002812
:10483000B4D12046FFF7D0FE03460028AED1002FAA
:10484000B0D1189330460027002606AA14A9CDF847
:104850006890CDE91F33EB2314934FF440631B930F
:104860004FF4005317934FF440431C93A023169327
:10487000062319934FF0805321934FF04073CDE9F5
:1048800006671D9306F0D0FE034600288AD04346F3
:1048900084F85C8086E701230322184684F85C20B4
:1048A00023B0BDE8F08300BF00000000010000005D
:1048B00010000000010000000000000000004000A7
:1048C00000500052000000002DE9F0414173A2B0F9
:1048D000044601F091FB072823D004F11005267B44
:1048E000677B284606F09EFCD8B90123012EE061C3
:1048F000C4E90533524B236114BF4FF480134FF4C6
:10490000000393FAA3F3B3FA83F34FF48078013BE7
:10491000C4F82480C4E90B002362284606F016FC84
:1049200068B1022300222146204684F85C3062737D
:10493000FFF7FEFE0123184622B0BDE8F081662392
:104940000B90139041F2883206A90693CDE90C80B2
:10495000CDE90E00CDE91100284606F081FC0028C3
:10496000DFD1992341F2883206A92846069306F042
:1049700077FC0028D5D105231C9019906A46149322
:104980004FF08073219014A91D9341F288339FED5D
:10499000267BCDE91A80CDE91F008DED007B9FEDD0
:1049A000247B28468DED027B9FED237B8DED047BE0
:1049B00006F0C2FD0028B4D131462046FFF780FD45
:1049C0000028AED12046FFF707FE03460028A8D1F5
:1049D000002FB0D118930026002706AA14A9284654
:1049E000CDF86880CDE91F334FF0805321934FF00D
:1049F00040731D93EB2314934FF440631B934FF4C8
:104A0000005317934FF440431C93A023169306239F
:104A1000CDE90667199306F007FE034600288AD001
:104A20007FE700BFAFF3008000000000010000003E
:104A30001000000001000000000000000000400025
:104A4000005000522DE9F04FA3B004460E469146A7
:104A500098469DF8B07001F0CFFA072860D0637BCC
:104A6000012B2FD1B9F5807F4FF480634A464FF078
:104A7000000528BF4FF480720D934FF4807A4FF4F5
:104A800000534FF0020B4FF08079204607961092AA
:104A90000E950B951395CDF830A0CDF818B009936D
:104AA000CDF83C90CDE91155FFF7C2FC0646E0B1C8
:104AB000637B002B3BD10123184684F85C3023B084
:104AC000BDE8F08F0125214620466573FFF730FED3
:104AD0000028C7D00022022321462046627384F8B2
:104AE0005C30FFF725FE2846E9E704F1100541F2A6
:104AF000883206A9284606F0B3FB38B3637B002B47
:104B0000D9D0214620466673FFF712FE0028D2D086
:104B100021462046667384F85CB0FFF709FECAE7B9
:104B20000323012084F85C3023B0BDE8F08F2146D8
:104B300020466573FFF7FCFD0028BCD021462046C7
:104B4000657384F85CB0FFF7F3FDB4E7414641F2CA
:104B50008832284606F0EEFB034638B1637B002B13
:104B6000A9D000212046FFF7AFFEA4E70022199349
:104B7000219305212846CDF868A0149114A9CDF8F9
:104B80007490CDE91B33CDE91F330123CDE9002318
:104B900010220123CDE9022300224FF48003CDE946
:104BA000042341F288336A4606F0C6FC014658B930
:104BB000002F84D0607B002881D02046FFF784FE40
:104BC000003818BF01207AE70122637B84F85C205B
:104BD000002B3FF470AFC4E72DE9F04F21F070488F
:104BE000D5B211F0FF0183461E462DED068BABB00A
:104BF00004957CD1FF2A40F25081110A1C46CDF861
:104C0000188003EB012303934B1E0593A8EB0603C7
:104C10009FEDB3AB9FEDB49B9FEDB58B9A4613E030
:104C20009BF80D3043B1594658468BF80D80FFF77D
:104C30007FFD002840F0498101238BF85C3004F5AA
:104C40008074039B9C4274D001F0D6F9072804EBD2
:104C50000A0566D09BF80D30012B09D00123594677
:104C600058468BF80D30FFF763FD002840F0A18017
:104C70004FF480634FF000080F9502274FF48075C2
:104C800015934FF080764FF400535846CDF8588076
:104C9000CDF84C80CDF86C80149518950E97119333
:104CA0001796CDE91988FFF7C3FB81460028B7D1D5
:104CB0000BF1100841F288320EA9404606F0D0FAF6
:104CC000002854D09BF80D30002BB5D059465846DB
:104CD0008BF80D90FFF72CFD0028ADD059465846B3
:104CE0008BF80D908BF85C70FFF722FDA4E7FF2A8C
:104CF000C1F5807700F29780AF4280F08E80A5F5F5
:104D0000807400253A460C4400954146FFF79AFE10
:104D1000F319224608EB070158460095FFF792FE6B
:104D200012E0032304F580748BF85C30039B9C42F3
:104D30008AD1DDF81880059B08F5807808EB0321FF
:104D4000049B002B40F0AE809BF80D304BB100244B
:104D5000594658468BF80D40FFF7EAFC002840F012
:104D6000A98000202BB0BDEC068BBDE8F08F07902A
:104D700041F288322146404606F0DCFA814618B3FB
:104D80009BF80D20002A3FF457AF079B5946584621
:104D90008BF80D30FFF7CCFC079B00283FF44CAF9D
:104DA000594658468BF80D308BF85C70FFF7C0FC05
:104DB00042E70023594658468BF80D3002238BF802
:104DC0005C30FFF7B5FC3AE70523404608AA1CA96A
:104DD0001C9341F2883322952596CDF88490CDF826
:104DE000A490CDE92399CDE927998DED08AB8DED00
:104DF0000A9B8DED0C8B06F09FFB00283FF41FAF44
:104E000001238BF85C309BF80D30002B3FF414AF7E
:104E100049465846FFF758FD0EE7002441460094E6
:104E2000FFF710FE90E7A2F580744FF000093A46B4
:104E30003E442144CDF8009047440D0ACCB241468F
:104E4000FFF700FE6B1E0393DDB12B02A6EB070AF2
:104E500007EB05283D4604930AEB0503294605F5B3
:104E600080754FF480725846CDF80090FFF7EAFD48
:104E70004545F1D1049B07F580771E44039B07EB62
:104E80000327002C3FF460AF00203346224639460A
:104E900000905846FFF7D6FD56E700914146FFF7D0
:104EA000D1FD51E700201A46234600905846FFF7EF
:104EB000C9FD49E70223594658468BF80D408BF847
:104EC0005C30FFF735FC01204CE7594658468BF81B
:104ED0000D808BF85C70FFF72BFCADE6AFF3008024
:104EE00000000000010000001000000001000000B0
:104EF00000000000000040002DE9F043624CA3B028
:104F00000D46046001F078F8072800F0A9802868B1
:104F100023466968AA6807C31E46AB8926F8043B86
:104F20003046257B677B06F07DF9E0B9574B012DB4
:104F30004FF00108E061236114BF4FF480134FF478
:104F40000003C4E9058893FAA3F3B3FA83F34FF49B
:104F50008079013BC4F82490C4E90B0030462362F9
:104F600006F0F4F838B10122134684F85C201846A4
:104F700023B0BDE8F08366230B90139041F2883292
:104F800006A90693CDE90C90CDE90E00CDE91100FC
:104F9000304606F065F90028E5D1992341F28832C0
:104FA00006A93046069306F05BF90028DBD10523FD
:104FB0001C9019906A4614934FF08073219014A9A5
:104FC0001D9341F288339FED2A7BCDE91A90CDE9FC
:104FD0001F008DED007B9FED287B30468DED027B21
:104FE0009FED277B8DED047B06F0A6FA0028BAD151
:104FF00029462046FFF764FA0028B4D12046FFF77F
:10500000EBFA03460028AED1002FB0D118933046FA
:105010000027002606AA14A9CDF86890CDE91F3311
:10502000EB2314934FF440631B934FF400531793F7
:105030004FF440431C93A0231693062319934FF07B
:10504000805321934FF04073CDE906671D9306F01E
:10505000EBFA034600288AD0434684F85C8086E752
:1050600001230322184684F85C2023B0BDE8F083B6
:10507000000000000100000010000000010000001E
:105080000000000000004000EC1900200050005219
:105090000068FFF7A1BD00BF2DE9F04F724E056813
:1050A0000E40B2422DED048BA3B040F2A5804FF02C
:1050B000000A4FF4800B91469FED679B9FED688B34
:1050C000D72300244FF480714FF4806206934FF48D
:1050D000005301270C91099326F070430E940D9212
:1050E0000F940B940793CDE91074CDE9124400F0AE
:1050F00083FF072846D06B7BBB4207D02946284652
:105100006F73FFF715FB002840F083802846FFF7F8
:105110008FF9044658B16B7B002B38D10123184618
:1051200085F85C3023B0BDEC048BBDE8F08F05F151
:10513000100841F2883206A9404606F091F8074669
:10514000002835D06B7B002BE8D0294628466C73AD
:10515000FFF7EEFA18BB01226B7B85F85C20002B71
:10516000DCD00024294628466C73FFF7E1FA0028BA
:10517000D4D00223294628466C7385F85C30FFF7AB
:10518000D7FACBE703226B7B85F85C20E7E70024A6
:10519000294628466C73FFF7CBFA0028DBD00223A0
:1051A000294628466C7385F85C30FFF7C1FAD2E7D0
:1051B0004FF4807340466A4614A91A930523199741
:1051C00014934FF0807321971D9341F28833CDE9FA
:1051D0001B77CDE91F778DED009B8DED028BCDE91F
:1051E00004AB06F0A9F90446E8B96B7B53B906F5A0
:1051F0008056B1453FF664AF002023B0BDEC048B70
:10520000BDE8F08F687329462846FFF791FA002819
:10521000EDD00223294628466C7385F85C30FFF7F1
:1052200087FA6B7B9BE701226B7B85F85C20002B68
:105230003FF474AF294628466F73FFF779FA0028C8
:1052400089D00223294628466F7385F85C30FFF722
:105250006FFA80E7AFF3008000000000010000005B
:10526000100000000100000000F0FFFF2DE9F04FEA
:105270008FB0414B0024026800AF9A427C63C7E9BB
:105280000944C7E90B4403D03C37BD46BDE8F08F65
:105290003A4B40F609213A48EB46D3F8D42007F1BF
:1052A0001C0607F1220A4FF0020942F480424FF037
:1052B0000308C3F8D420D3F8D42002F48042BA60A3
:1052C000BA68D3F8E02042F04002C3F8E020D3F8F7
:1052D000E02002F04002FA60FA68D3F8E02042F0E1
:1052E0002002C3F8E020D3F8E02002F020023A6167
:1052F0003A69D3F8E02042F01002C3F8E020D3F876
:10530000E02002F010027A617A69D3F8E02042F0DE
:105310000202C3F8E020D3F8E030F86103F00203A2
:105320003984BB61174B7B60BB697B6853F8040F02
:105330007B6001F045FB7B680546186801F048FB7F
:1053400016F8013B786207F124012846C7F830803F
:105350007B63C7E90A9403F095FE5645E5D1002228
:105360005C20114602F01AFB5C2002F055FB3C3732
:10537000DD46BD46BDE8F08F0050005200440258A3
:105380000A0A0909481A0020114B02689A4200D003
:105390007047104A70B5D2F8D4300F4C23F48043D4
:1053A00004F11806C2F8D43054F8040F01F008FBD9
:1053B0000546206801F00CFB0146284603F0A2FFD9
:1053C000B442F1D15C20BDE8704002F033BB00BFB5
:1053D0000050005200440258481A0020014806F0CC
:1053E000AFB900BFFC190020084B1A1D981D03F12E
:1053F000080110B49C1C9A6603F10A02C3E9183430
:10540000C3E91B015DF8044B5A677047EC19002093
:1054100038B5036871B9026A00F1280500F5AC746B
:10542000012A0CBF002140218BBB1D4B5722C0F825
:1054300058310DE0426A00F1C00500F5E874012A18
:105440000CBF00214021EBB1164B5A22C0F8D031DD
:1054500000232046C4E901214FF480524FF48061BB
:10546000636262614FF48042C4E903314FF4807398
:10547000C4E906234FF40033236202F02BFE58B137
:10548000FFBEFEE7084B5822C0F8D031E0E7074BDB
:105490005922C0F85831DBE7C5E92044A56338BD7F
:1054A00010000240700002402800024058000240F4
:1054B0002DE9F043821D05468BB0031D05F10A015D
:1054C0000830CDE9052305F10C02AB69CDE90701F0
:1054D0000992002B3DD0EB69B3FA83F84FEA5818D4
:1054E0000123022205AE0AAF4FF006090393CDE96E
:1054F000012356F8044B2B792278934216D02B685F
:10550000F3B1012B02D1F2B10A230493204601F03A
:105510005FFA03462046009301F052FA694603F011
:10552000B1FDBE42E5D10BB0BDE8F0836979637887
:105530009942E4D1B8F1000FF3D02B68002BE0D1F1
:10554000CDF81090E2E76378022B14BF0A230823FA
:10555000DBE74FF00108C3E7534A0368934230B5D5
:1055600005468BB055D02032934252D04F4A9342D9
:1055700004D02032934201D00BB030BD4C4C4D488A
:10558000D4F8E03043F00103C4F8E030D4F8E03060
:1055900003F001030593059BD4F8E03043F00803C2
:1055A000C4F8E030D4F8E03003F008030693069B1B
:1055B000D4F8E03043F04003C4F8E030D4F8E030F1
:1055C00003F040030793079BD4F8F03043F4000343
:1055D000C4F8F030D4F8F03003F400030893089BCB
:1055E000FFF766FFD4F8D830296843F001032F4A4B
:1055F0003048C4F8D830891AD4F8D83018BF0121FF
:1056000003F001030993099B0BB0BDE83040FFF79D
:10561000FFBE274C2848D4F8E03043F00103C4F81B
:10562000E030D4F8E03003F001030093009BD4F89D
:10563000E03043F01003C4F8E030D4F8E03003F079
:1056400010030193019BD4F8E03043F04003C4F809
:10565000E030D4F8E03003F040030293029BD4F82A
:10566000F03043F48003C4F8F030D4F8F03003F4A1
:1056700080030393039BFFF71BFFD4F8D8302968FE
:1056800043F00103084A0C48C4F8D830891AD4F80A
:10569000D83018BF012103F001030493049B0BB021
:1056A000BDE83040FFF7B4BE04580140045C01403F
:1056B00000440258C01C0020641A0020014803F076
:1056C0008FB900BFBC1B0020014803F089B900BF9F
:1056D000341C0020014803F083B900BF181E0020CD
:1056E000014803F07DB900BF901E00201A4A0368EC
:1056F000934210B40BD02032934208D0174A934201
:1057000016D02032934213D05DF8044B7047144BEF
:105710000022D3F85442C3F85822002CF4D0D3F816
:105720004802D3E9931223465DF8044B5208184708
:105730000B4B0022D3F8B044C3F8B424002CE3D0C0
:10574000D3F8AC24D3F8A814D3F8A4045208234601
:105750005DF8044B184700BF04580140045C014049
:10576000641A0020184A0368934210B40BD0203208
:10577000934208D0154A934217D02032934214D056
:105780005DF8044B7047124BD3E994245208C3F8D8
:105790005822002CF4D0D3E99201234601EB820178
:1057A00000EB82005DF8044B1847094BD3F8AC249A
:1057B000D3F8B0445208C3F8B424002CE0D0D3F896
:1057C000A814D3F8A404E8E704580140045C01409D
:1057D000641A0020000000002DE9F04F0C684FF41F
:1057E0001776754F87B004FB06F6012C07EB060A07
:1057F000C0F800A000F3A0800D468E464FF00008D0
:10580000D44669A3D3E9002369A1D1E90001CDE918
:10581000022306ABCAF8508203EB8403CDE90401EE
:1058200053F810BC53F8083CCAE992880193BEE8CB
:105830000F00ACE80F00BEE80F00ACE80F00019BC2
:105840009EE80300CAF828B0CAF8C0308CE803000C
:105850002B69042B0CD8DFE803F0737D87910300DC
:105860004FF41773554A03FB04739A64C3F8E0209E
:10587000AA692B6A002A43D0002B4FF4177308BF84
:10588000022203FB047318BF0322DA6201221A63A7
:10589000EA696B6A002A40D1191E4FF4177318BFCA
:1058A000012103FB0473C3E931126B69022B05D894
:1058B000434A12F80380434A52F823904FF4177377
:1058C00006F128004246494603FB0474002338448D
:1058D00063646363E365C4F8DC30C4F8CC30C4F8B7
:1058E000F430C4E90F33C4E91533C4E93533C4E9EE
:1058F0003B33022307F0C6FF002849D0FFBEFEE776
:10590000191E4FF4177318BF012103FB0473C3E979
:105910000B12EA696B6A002ABED0002B4FF4177392
:1059200008BF022203FB047318BF0322C3F8C4207C
:105930000122C3F8C820B8E7012007B0BDE8F08F06
:105940004FF417734FF4FA5203FB04739A64C3F8CD
:10595000E0208DE74FF417734FF47A5203FB047382
:105960009A64C3F8E02083E74FF417734FF4FA42C8
:1059700003FB04739A64C3F8E02079E74FF41773CC
:105980004BF6803203FB04739A64C3F8E0206FE7A0
:1059900006F1C000022342464946384407F072FF30
:1059A0000028CAD0FFBEFEE704580140045C014055
:1059B00024580140245C0140641A00200077010053
:1059C000D47E0124D87E01240068704770B5046835
:1059D00082B015460E46C4F85032C4E99212069AB7
:1059E000C4F85422A269012A26D0626A012A9AB216
:1059F00011D0294604F1C000019208F06BF8236A27
:105A0000019A012B10D0294604F1280008F062F811
:105A1000002002B070BD04F1C000019208F0ECF863
:105A2000236A019A012BEED1314604F1280008F0D7
:105A3000E3F8002002B070BD226A012A9AB211D0A8
:105A4000294604F12800019208F044F8636A019A9B
:105A5000012B10D0294604F1C00008F03BF80020CB
:105A600002B070BD04F12800019208F0C5F8636A25
:105A7000019A012BEED1314604F1C00008F0BCF8C8
:105A8000002002B070BD00BF10B5046804F128000A
:105A900007F0B4FF04F1C00007F0B0FF002010BD14
:105AA00003681B69042B05D8044A02EB830393EDBA
:105AB000000A70479FED020A704700BFE47E012490
:105AC00000803B470368D3F858027047704700BF17
:105AD00008B501F085F8BDE8084002F039B800BF0C
