:020000042400D6
:100000000000022061090024550900246D590024D4
:10001000550900245509002455090024000000005A
:10002000000000000000000000000000550900244E
:10003000550900240000000055090024F15800244F
:1000400055090024550900245509002455090024A8
:100050005509002455090024550900245509002498
:10006000550900245509002455090024C1540024D1
:10007000CD5400241D390024D9540024E554002413
:10008000D52301249D450024550900245509002449
:100090005509002455090024550900245509002458
:1000A0005509002455090024550900245509002448
:1000B00055150124611501246D150124D145002435
:1000C00055090024DD450024550900249D0D012417
:1000D000A90D0124092201243522012469220124C9
:1000E000550900245509002400000000550900248A
:1000F00055090024550900245509002455090024F8
:10010000550900245509002479150124B50D012451
:100110009D220124D12201243D3C002455090024C4
:10012000253C0024313C0024D90D01240D0E01246E
:1001300009240124550900245509002455090024E7
:1001400000000000000000000000000000000000AF
:1001500055090024550900245509002405230124CC
:10016000E94500245509002401590024255900249B
:100170005509002449590024550900245509002433
:100180005509002455090024392301246D23012435
:10019000C10D0124CD0D0124550900245509002469
:1001A0005509002455090024550900245509002447
:1001B000B55100245509002455090024550900248F
:1001C0005509002455090024550900245509002427
:1001D0005509002455090024550900245509002417
:1001E0005509002455090024550900245509002407
:1001F00055090024550900245509002455090024F7
:1002000055090024550900245509002455090024E6
:1002100055090024550900245509002455090024D6
:100220005509002455090024550900240000000048
:100230005509002455090024000000005509002438
:1002400055090024550900245509002455090024A6
:100250005509002455090024550900245509002496
:100260005509002455090024550900245509002486
:100270005509002455090024A12301240000000091
:1002800055090024550900245509002400000000E8
:080290000000000055090024E4
:1002980010B5054C237833B9044B13B10448AFF3B8
:1002A80000800123237010BDE80300200000000037
:1002B8008850012408B5034B1BB103490348AFF329
:1002C800008008BD00000000EC03002088500124D5
:1002D80081F0004102E000BF83F0004330B54FEAEF
:1002E80041044FEA430594EA050F08BF90EA020F5C
:1002F8001FBF54EA000C55EA020C7FEA645C7FEAEF
:10030800655C00F0E2804FEA5454D4EB5555B8BF11
:100318006D420CDD2C4480EA020281EA030382EA82
:10032800000083EA010180EA020281EA0303362D14
:1003380088BF30BD11F0004F4FEA01314FF4801CE7
:100348004CEA113102D0404261EB410113F0004FF9
:100358004FEA03334CEA133302D0524263EB4303B0
:1003680094EA050F00F0A780A4F10104D5F1200E4E
:100378000DDB02FA0EFC22FA05F2801841F10001A9
:1003880003FA0EF2801843FA05F359410EE0A5F17D
:1003980020050EF1200E012A03FA0EFC28BF4CF0AE
:1003A800020C43FA05F3C01851EBE37101F0004564
:1003B80007D54FF0000EDCF1000C7EEB00006EEB71
:1003C8000101B1F5801F1BD3B1F5001F0CD34908FB
:1003D8005FEA30004FEA3C0C04F101044FEA445252
:1003E80012F5800F80F09A80BCF1004F08BF5FEAD9
:1003F800500C50F1000041EB045141EA050130BDB9
:100408005FEA4C0C404141EB0101013C28BFB1F5CA
:10041800801FE9D291F0000F04BF01460020B1FA15
:1004280081F308BF2033A3F10B03B3F120020CDAE8
:100438000C3208DD02F1140CC2F10C0201FA0CF0C6
:1004480021FA02F10CE002F11402D8BFC2F1200C2B
:1004580001FA02F120FA0CFCDCBF41EA0C019040E1
:10046800E41AA2BF01EB0451294330BD6FEA04042A
:100478001F3C1CDA0C340EDC04F11404C4F1200215
:1004880020FA04F001FA02F340EA030021FA04F327
:1004980045EA030130BDC4F10C04C4F1200220FA7E
:1004A80002F001FA04F340EA0300294630BD21FABC
:1004B80004F0294630BD94F0000F83F4801306BF82
:1004C80081F480110134013D4EE77FEA645C18BF76
:1004D8007FEA655C29D094EA050F08BF90EA020F0D
:1004E80005D054EA000C04BF1946104630BD91EA05
:1004F800030F1EBF0021002030BD5FEA545C05D108
:100508004000494128BF41F0004130BD14F5800446
:100518003CBF01F5801130BD01F0004545F0FE41BA
:1005280041F470014FF0000030BD7FEA645C1ABFEF
:10053800194610467FEA655C1CBF0B46024650EA26
:10054800013406BF52EA033591EA030F41F4002152
:1005580030BD00BF90F0000F04BF0021704730B5D8
:100568004FF4806404F132044FF000054FF00001AD
:1005780050E700BF90F0000F04BF0021704730B56E
:100588004FF4806404F1320410F0004548BF404243
:100598004FF000013EE700BF42004FEAE2014FEA98
:1005A80031014FEA02701FBF12F07F4393F07F4F73
:1005B80081F06051704732F07F4208BF704793F076
:1005C8007F4F04BF41F40021704730B54FF4607489
:1005D80001F0004521F000411CE700BF50EA01028C
:1005E80008BF704730B54FF000050AE050EA010235
:1005F80008BF704730B511F0004502D5404261EBA5
:1006080041014FF4806404F132045FEA915C3FF4E5
:10061800D8AE4FF003025FEADC0C18BF03325FEA82
:10062800DC0C18BF033202EBDC02C2F1200300FA33
:1006380003FC20FA02F001FA03FE40EA0E0021FA58
:1006480002F11444BDE600BF53B94AB9002908BFF6
:1006580000281CBF4FF0FF314FF0FF3000F074B995
:10066800ADF1080C6DE904CE00F006F8DDF804E001
:10067800DDE9022304B070472DE9F047089D0446E0
:100688008E46002B4DD18A42944669D9B2FA82F23D
:1006980052B101FA02F3C2F1200120FA01F10CFA79
:1006A80002FC41EA030E94404FEA1C48210CBEFBB1
:1006B800F8F61FFA8CF708FB16E341EA034306FB3A
:1006C80007F199420AD91CEB030306F1FF3080F0C9
:1006D8001F81994240F21C81023E63445B1AA4B216
:1006E800B3FBF8F008FB103344EA034400FB07F7B8
:1006F800A7420AD91CEB040400F1FF3380F00A81F9
:10070800A74240F207816444023840EA0640E41BED
:1007180000261DB1D4400023C5E900433146BDE899
:10072800F0878B4209D9002D00F0EF800026C5E93B
:10073800000130463146BDE8F087B3FA83F6002E53
:100748004AD18B4202D3824200F2F980841A61EBCB
:10075800030301209E46002DE0D0C5E9004EDDE7E9
:1007680002B9FFDEB2FA82F2002A40F09280A1EBD1
:100778000C014FEA1C471FFA8CFE0126200CB1FB26
:10078800F7F307FB131140EA01410EFB03F088421F
:1007980008D91CEB010103F1FF3802D2884200F2AC
:1007A800CB804346091AA4B2B1FBF7F007FB10113E
:1007B80044EA01440EFB00FEA64508D91CEB0404DC
:1007C80000F1FF3102D2A64500F2BB800846A4EB37
:1007D8000E0440EA03409CE7C6F12007B34022FA22
:1007E80007FC4CEA030C20FA07F401FA06F31C4351
:1007F800F9404FEA1C4900FA06F3B1FBF9F8200C5E
:100808001FFA8CFE09FB181140EA014108FB0EF0A3
:10081800884202FA06F20BD91CEB010108F1FF3AF3
:1008280080F08880884240F28580A8F102086144FF
:10083800091AA4B2B1FBF9F009FB101144EA01410D
:1008480000FB0EFE8E4508D91CEB010100F1FF34B8
:100858006CD28E456AD90238614440EA0840A0FB50
:100868000294A1EB0E01A142C846A64656D353D026
:100878005DB1B3EB080261EB0E0101FA07F722FA4A
:1008880006F3F1401F43C5E9007100263146BDE873
:10089800F087C2F12003D8400CFA02FC21FA03F3D6
:1008A800914001434FEA1C471FFA8CFEB3FBF7F057
:1008B80007FB10360B0C43EA064300FB0EF69E427C
:1008C80004FA02F408D91CEB030300F1FF382FD215
:1008D8009E422DD9023863449B1B89B2B3FBF7F6BD
:1008E80007FB163341EA034106FB0EF38B4208D996
:1008F8001CEB010106F1FF3816D28B4214D9023ED7
:100908006144C91A46EA004638E72E46284605E7F4
:100918000646E3E61846F8E64B45A9D2B9EB0208C5
:1009280064EB0C0E0138A3E74646EAE7204694E755
:100938004046D1E7D0467BE7023B614432E7304688
:1009480009E76444023842E7704700BF684620F070
:1009580007018D46FEE700BF0A480B4A904208B5DA
:1009680003D0121A094914F077F80948094A904245
:1009780003D0121A002114F07DF814F049F800F0A1
:10098800F3FEFEE700000020E4030020C850012425
:10099800E8030020D4450020704700BF30B500F1BF
:1009A800B805044683B0284601F0C6F8204600F092
:1009B8008BFF284601F05EFB254B04F128001A78CE
:1009C800597842EA012102F0D3FC284601F052FB93
:1009D800204B04F14C001A78597842EA012102F0C0
:1009E800C7FC284601F046FB1B4B04F170001A783F
:1009F800597842EA012102F0BBFC284601F03AFB93
:100A0800164B04F194001A78597842EA012102F051
:100A1800AFFC28463021002501F0FEFA104B009566
:100A280004F52A701A7859782B4642EA01210122E6
:100A380003F066FB0B4B009504F52F701A78597874
:100A48002B4642EA0121012203F05AFB03B030BDD4
:100A5800084B01240C4B0124144B0124244B012482
:100A6800004B0124044B012460EE211AF5EE400AE4
:100A7800F7EE007AFDEEE11AF1EE10FAF0B5054650
:100A88002DED0E8B87EE80BA8BB0C0ED031A31EED8
:100A980001CAF0EE628AB0EE43AA00F16B82B1EEB1
:100AA800E00ADFEDE07AB5EE401A2CEE000AF1EE2E
:100AB80010FAC0EE279A00F13482B1EEC10AB5EE01
:100AC800400AF1EE10FA00F10382F1EEC07A9FEDD0
:100AD800D67A21EE271ADFEDD57AB3EE000A6CEE4E
:100AE8000CCA81EE078A29EE800AB7EE009A6CEEEE
:100AF8008BAA20EE290A6AEE8BAA20EE0B0A20EEBA
:100B08000B0A38EE278A78EE08BA3BEEC99A20EE2F
:100B1800090AAAEEAA0AB5EE400AF1EE10FA00F1A7
:100B2800B281F1EEC07A77EEAAAA39EE099A8AEE76
:100B3800890AB5EE400AF1EE10FA00F16582B1EECD
:100B4800C07AB7EE003AC3EE077AFDEEE77A17EE01
:100B5800903A032B00F35881F5EE00AA04230322F0
:100B6800DFEDB3DA6B602BEE0CCADFEDB27A2BEE59
:100B7800297AAA6024EE274A8CEE2ADA29EEA9CA35
:100B8800F1EE009A2CEEACEA25EE275A6CEE299A83
:100B9800B0EE4E0A87EE2D9A69EE847AA7EE840AA3
:100BA800B5EE400AF1EE10FA00F10D82F1EEC07ACE
:100BB80069EE859A3CEE0CCA77EEEC7AA9EE85EAE6
:100BC800C7EE8C9AB5EE40EAF1EE10FA00F13E81DC
:100BD800B1EECE0A9FED983AAF68012F30EE6C0A5D
:100BE800C9EEA57A80EE0C4AB7EE005AC5EE252A62
:100BF80079EEC49AB1EE444A84EE247A37EE277A25
:100C0800C5EE247A27EE037AC7EE295A77EEE27A00
:100C180067EE837A35EE483AC7EEA94A25EE8B7A15
:100C2800F6EE007A64EE8B5A7DEEAD4AC5EEAD2A3B
:100C380085EEA44A7DEE0D5AF1EE084AE5EECDBAEE
:100C480064EEC94AF0EE435AEDEE0D5AE4EE89BA65
:100C580072EE884A38EE628AE7EE274AA7EE678A7C
:100C6800B0EE447AC5ED80BA93EE274AA3EE277A10
:100C7800C5EE242A85ED7E8A85ED7D4AF1EE007A5F
:100C880085ED7F7A29EE497A69EE277A85ED827AB1
:100C9800B0EE657AA7EE897A64EE227AC5ED652A08
:100CA80085ED817AC5ED4D7A40F3B980B1EE443ACD
:100CB8007A1E05F59C710123F0EE645A9342B7EE53
:100CC800005A03F1010301F10401E3EE275ADFEDB5
:100CD8005B7A85EE257AB8BF64EE077ABB4281ED70
:100CE800177A41ED017AE7D1D5ED017AF8EEE77A86
:100CF80026EE276ABDEEC67A17EE103A93427FDADF
:100D0800B8EEC77A36EE476A002B02DA9FED4B6AD7
:100D1800002366EEA77AC5F80C3285ED856ABDEE2C
:100D2800E77A17EE103A934266DAB8EEC77A77EEAA
:100D3800C77A002B02DADFED417A0023002FC5F8CD
:100D48001032C5ED867A42DDF0EE4A9A05F1740656
:100D5800B6EE008A0024B1EE429AEBEE239A28EE12
:100D6800888A01349FED350A9FED326A07EE904A72
:100D7800B8EEE77AF0EE497AE7EE2A7A37EEC87AE3
:100D880078EE276A27EE667AB4EEC07AF1EE10FAAA
:100D98000DDD27EE860A80EE280A13F035FBB7EE44
:100DA800007AF6EE007A30EE070A20EE270A6AEE9D
:100DB800007AA74229EE800AC6ED187AA6EC010A45
:100DC800CFD1BA00002105F1140013F053FE02211F
:100DD80001234FF07E52002029612B70002318490F
:100DE800C5F81C02C5F82012C5F8242285F8283257
:100DF8000BB0BDEC0E8BF0BDF7EE007ABB1E98E78A
:100E0800B7EE006ABB1E7FE7182B40F32281182338
:100E18001722DFED0CAADFED0CDA6B60A3E67A1E71
:100E280062E700BFDB0F494000007A449A99193FF6
:100E38000000803DDB0FC940550C5D4100000000FB
:100E4800ABAAAA3CABAA2A3D3A8EE33AB0EE4E0AC8
:100E5800CDED066A8DED056ACDED045ACDED034A58
:100E6800CDED023A8DED012A13F092FDDDED066A13
:100E78009DED056ADDED045ADDED034ADDED023A2C
:100E88009DED012AA6E6CDED086A8DED076ACDED48
:100E9800065A8DED055ACDED044A8DED034ACDED88
:100EA800023A8DED012A13F073FDDDED086AF0EECC
:100EB800407A9DED076ADDED065A9DED055ADDED98
:100EC800044A9DED034ADDED023A9DED012A2AE62A
:100ED800CDED096A8DED086ACDED075A8DED065AFC
:100EE800CDED054A8DED044ACDED033A8DED022A8C
:100EF8008DED011A13F04CFDDDED096AF0EE407A34
:100F08009DED086ADDED075A9DED065ADDED054AAF
:100F18009DED044ADDED033A9DED022A9DED011A8F
:100F2800D5E5B0EE410ACDED096A8DED086ACDED43
:100F3800075A8DED065ACDED054A8DED044ACDEDE3
:100F4800033A8DED022A8DED011A13F021FDDDED36
:100F5800096A9DED086ADDED075A9DED065ADDED3B
:100F6800054A9DED044ADDED033A9DED022A9DED0B
:100F7800011AA4E5B0EE600ACDED096A8DED086AA4
:100F8800CDED075A8DED065ACDED054A8DED044A93
:100F9800CDED033A8DED022A8DED011A13F0F8FC20
:100FA800DDED096A9DED086ADDED075A9DED065AEB
:100FB800DDED054A9DED044ADDED033A9DED022A7B
:100FC8009DED011A6DE5CDED076A8DED066ACDED53
:100FD800055ACDED044ACDED033A8DED022A8DED8B
:100FE800015A13F0D5FCDDED076AF0EE407A9DED6D
:100FF800066ADDED055ADDED044ADDED033A9DEDA7
:10100800022A9DED015AD3E5CDED086A8DED076AF8
:10101800CDED065A8DED055ACDED044A8DED034A06
:10102800CDED023A8DED012A13F0B2FCDDED086A30
:10103800B0EE407A9DED076ADDED065A9DED055A42
:10104800DDED044A9DED034ADDED023A9DED012AEE
:1010580077E5C5ED017AF8EEE77A5A1EC3EE27AABE
:101068006AEEAADA7FE500BFF8B50022734E4FF0AA
:10107800FF303346154604462DED088B19780029B4
:1010880000F0D58093F8281219B1B4F1FF3F08BFDA
:101098001446196903F51973814201DD154608469E
:1010A8000132042AEAD1631C00F0C4800027644D91
:1010B80005F1B80000F0DAFF04212846F0EE409A66
:1010C80000F028FC05212846B0EE409A00F022FCEA
:1010D80006212846B0EE40AA00F01CFC072128464D
:1010E800B0EE408A00F016FC08212846B0EE40BA5F
:1010F80000F010FC09212846F0EE408A00F00AFCB6
:1011080000212846F0EE40AA00F0AAFBF3EE086A98
:10111800B0EE407ADFED4B5AB0EE000AFFEE007AEF
:10112800E9EE256ADFED485AB1EE045AE8EE807A16
:10113800F2EE080A27EE057A77EEA67AE7EE207A2D
:1011480077EEE57AC7EEA00A13F08EFADFED3F6A74
:10115800DFED3F2A9FED3F7A95F86830F2EE007A8E
:101168009FED3D3A20EE261A9FED3C2AF6EE004A06
:10117800FF2BF0EE625AF1EE0C3AEBEE274AC1EE85
:10118800267ADFED376A02FE262AE8EE633AEAEEAF
:10119800875AEAEE072A28EE033A64EEA55A67EE64
:1011A800A33A7FBB4FF419734FF07E502D4903FBD0
:1011B80004632D4A2D4CC3F83002C3F838122C486A
:1011C8002C49C3F84C220122C3ED8B9A83ED8D1A6A
:1011D80083ED8F2AC3ED902A83ED913AC3ED923ABD
:1011E800C3ED944AC3F85442C3ED965AC3F85C025F
:1011F800C3F8601283F828221F4B0522BDEC088B28
:101208001A60F8BD4FF41970F2EE041AF7EE000AEE
:10121800DFED1A6AB0EE690A9FED196A9FED195A57
:1012280000FB04609FED184AFFF71EFCE4E7144634
:1012380001273CE72C46002739E700BFE4060020D9
:101248000C0400200000904200008A420000DC43A9
:10125800CDCCCC3D6666663F6F12833A3333B33EDE
:10126800CDCC4C3D000020410000C84200007A442B
:101278009A99993E3333333F080400203333333F80
:101288009A99993E00007A440000C8422DE9F84333
:1012980003780F461646002B00F01B81856804462C
:1012A800002D40F31B81DFF860E200F16C0390ED44
:1012B800804AA5F1020CD0ED7E4A0122F0460020BA
:1012C8002BE0691E94ED816A93ED015AD4ED7F6A93
:1012D8008142D3ED195AE6EE057AA6EEA57A2CDC02
:1012E8001146012805D994ED826AD3ED006AE6EE2D
:1012F800267A844505DD94ED826AD3ED046AE6EE2C
:10130800267A77EEC77A8D4200F1010003F10403D3
:1013180002F10102E8EC017A1BDDD3ED027A93EDCC
:101328001A7A64EE277A24EE877A0028C9D1012D2B
:101338000DD094ED816AD4ED7F6A93ED035A11467E
:10134800D3ED1B5AE6EE057AA6EEA57AC9E7114653
:10135800CFE79EED007A012DD4ED657A27EE277A46
:101368008EED007A00F0C68094ED7D6A04F5CA73AC
:10137800644804F5CC71B1EE466A03EB85034FEA85
:101388008508D0ED007AF1EC016AE6EE077A8B4227
:1013980027EEA67AA0EC017AF3D14FEA8C02131D4E
:1013A80002F59C7273442244194672ED016A0CF1ED
:1013B800FF3C043B91ED007AD3ED007ABCF1FF3F8E
:1013C800E6EEC77AC3ED007AEED104F1140942467D
:1013D8004D49484613F040FBD4F80C32B7EE007A7A
:1013E800D4ED857A04EB8303D3ED065A37EE676AAA
:1013F800D3ED056A67EEA57AD4F8103204EB8303BF
:10140800E6EE267AC7ED007AD4ED867AD3ED065A51
:1014180037EE676AD3ED056A67EEA57AE6EE267AB7
:10142800C6ED007AD4ED877AF4EEC77AF1EE10FAB9
:1014380032D404F17406424604F1D400314613F064
:101448000BFB42464946304613F006FB2369E26827
:101458000133934223611BDAC3F30B03D3B9002D85
:1014680016DD49469FED297AC844F1EC017AF0EE81
:10147800E77AF4EE477AF1EE10FA37FE877A4145BB
:10148800F3D1DFED237AB4EEE77AF1EE10FA01D565
:1014980000232370BDE8F883D7ED006A66EEA77ACB
:1014A800C7ED007AD4ED876AD6ED007A67EEA67AA2
:1014B800C6ED007AD4ED877AD4ED886A77EEA67AFD
:1014C800F4EEC77AF1EE10FA37FE277A84ED877AC0
:1014D800AFE7002313600B60BDE8F8830A4B4FEABF
:1014E800850890ED657AD3ED007A67EE877AC3EDCB
:1014F800007A6AE7BCF1FF3F4FF004083FF465AF9C
:101508004BE700BF78100020741000200000000096
:1015180095BFD6332DE9F043894C8846174604F128
:10152800B8002DED028B83B000F0ACFD04F1B800DB
:1015380000F0B4FD04F1280001F032FF04F14C0082
:1015480001F02EFF94F8446094F88E3204F51E7072
:10155800A6F1FF05B5FA85F56D09002B00F0CB80E3
:1015680002F0B4FEFF2E80F00100DFF8F891C4B25B
:1015780000F0C980734E1CB13378002B00F0D58081
:1015880089F800503470002F00F0D78000256E4E87
:101598009FED6E8A6E4CF0EE488A2378002B46D178
:1015A80004F51974B442F8D19FED6A7AF7EE006A2F
:1015B80068EE877A28EE078AF4EEE67AF1EE10FAFA
:1015C80040F38F80F0EE667AB7EE007AB4EEC78A01
:1015D800F1EE10FA7BDDB0EE478AD8E9000300EBA4
:1015E800850003EB85030135C0ED007AAF4283ED3A
:1015F800008ACDD1564B1A7803F519730AB99E4261
:10160800F9D1554C02214E4800F07EF92368002B91
:1016180040F3818001224A48114600F075F9236899
:10162800013B236003B0BDEC028BBDE8F08320468C
:1016380001AA6946FFF72AFE94F82832DFED476AC7
:101648009FED476A43B99DED007ADDED017A38EEEA
:10165800278A78EE878AA3E7D4ED897A9DED007A08
:1016680067EEA66ADDED015A27EE877A67EEA57A5E
:10167800F4EEC66AC4ED896A8DED007ACDED017A83
:10168800F1EE10FAE3D5D4ED986A204694ED976A06
:10169800D4ED965A94ED955AD4ED944A94ED934A24
:1016A800D4ED923A94ED913AD4ED902A94ED8F2AA4
:1016B800D4ED8E1A94ED8D1AD4ED8C0A94ED8B0A24
:1016C800FFF7D2F9DFED217AB0EE677ABFE7BFEE18
:1016D800007AB4EE478AF1EE10FA48BFB0EE478AB6
:1016E8007BE7BFEE007AF4EE477AF1EE10FA48BFD6
:1016F800F0EE477A68E702F0E9FDFF2E0446DFF8CE
:1017080064907FF437AF99F80030002B7FF432AF44
:10171800FFF7AAFC2EE700220121094803B0BDEC1F
:10172800028BBDE8F04300F0EFB8FFF79DFC89F8A5
:1017380000503470002F7FF429AF034E5AE700BFE2
:101748000C04002004040020741000200000000095
:10175800E40600200000964308040020A4707D3FA2
:1017680017B7D138050400200A4808B5FFF716F95D
:10177800094B002209490A481A7083F8642283F841
:10178800C82483F82C2700F03FFC024800F0E6F854
:10179800FBE700BF0C040020E40600201D15002410
:1017A800C40400202A4A10B402F519640023002159
:1017B8004FF07E50C2F81C12C2F82012C2F8240260
:1017C80082F828321370C2E90133C2E9033302F503
:1017D8001972A242EAD11F484FF60B741E4AC0F88C
:1017E800D830C0F8F0301D49C0E90043C0E90543CE
:1017F800C0E90C43C0E91543C0E91E43C0E92743CB
:10180800C0E93834C0E90233C0E90733C0E90E3310
:10181800C0E91733C0E92033C0E92933C0E93133BF
:10182800C0E93A33C0E99E43A0F8BC42C0F8C832C8
:10183800C0E9A443C0E9AA43C0E9A0335DF8044B5A
:10184800C0E9A633C0E9AC33C0E9B03312F0D6BD65
:10185800E40600200C04002000000020A109002458
:1018680010B50C46B83000F01BFC032C1BD89FEDBC
:10187800137ADFED137AB4EEC70AF1EE10FA9CBFC3
:1018880030EE270A9FED0F7AC0EE276AA6EEA77AF8
:10189800F7EE007AB4EEE77AB0EE470AF1EE10FA06
:1018A80002DDB0EE670A10BDFFEE007AB4EE677A8B
:1018B800F1EE10FA48BFB0EE670A10BD0000000054
:1018C800CDCC4C3FCDCC4CBF0D4B30B51A7883B046
:1018D80000245978054642EA012123460122009452
:1018E80002F00EFC074B009405F114001A785978A1
:1018F800234642EA0121012202F002FC03B030BD76
:10190800184B01241C4B01240129114618BF14301F
:1019180002F0E8BC10B50C46B83000F0C1FB211F3E
:10192800052913D80B4B03EB8101D1ED007A80EE2A
:10193800270AB5EEC00AF1EE10FA08D4F7EE007ADD
:10194800B4EE670AF1EE10FA37FE800A10BD9FED7B
:10195800020A10BDE84A012400000000F0B5044660
:1019680085B0283001F01CFD04F1300002F0AEFC17
:1019780094F8453013B180F00100C0B23F4D002803
:1019880051D02B78002B57D03D4E04F05BF83368CC
:10199800C01A40F6B733984248D994F84430FF2B20
:1019A80069D0002704F1B8002F7004250390376030
:1019B80000F064FB039804F1140600F029FB314B96
:1019C800009720461A7859783B4642EA01210122BD
:1019D80002F096FB2C4A00973B4611783046527825
:1019E80041EA0221012202F08BFB0121204602F08C
:1019F80079FC0021304602F075FC642004F024F8DC
:101A08000021204602F06EFC3046012102F06AFCFB
:101A1800642004F019F8013DE7D1032005B0BDE8C2
:101A2800F04004F013B8164E2870306094F8443033
:101A3800FF2B0ED005B0F0BD0123114E2B7004F022
:101A480001F82B783060002B9FD194F84430FF2B9D
:101A5800F0D103F0F7FF07EE900AD4ED126AF8EE22
:101A6800677A9FED0A7A77EEE67AF4EEC77AF1EEB6
:101A780010FA96DADEE703F0E5FF92E7D8100020C7
:101A8800D4100020184B01241C4B012400007A4478
:101A980000294ED0274BF0B5D0E90024481E03F1A9
:101AA8000C0E951C03F1100C4E00AC4218BF052813
:101AB80002EB41058CBF01200020624538BFAE45CE
:101AC8002CBF01270027384227D02644644538BF59
:101AD800B64522D39D890026D8894FEA510E65F371
:101AE8000F06A44602EB8E0E65F31F46002560F331
:101AF8000F0560F31F45104640F8046B70454CF81D
:101B0800045BF9D121F00100C90705D5998922F8AC
:101B18001010DB8924F81030F0BD023A023C023D77
:101B2800998922F8021FAA42D98924F8021FF7D1FD
:101B3800F0BD7047DC1000202DE9F04F40F2011392
:101B48000E4A012680462DED028BADF2844DC0F879
:101B58001C22ADF81430002304968DF8163004F0DA
:101B68006FF9044603F0C0FF04A9054640B93CB12B
:101B780040468DF8166004F0E3F80BE0DC10002016
:101B8800404604F0DDF8002D00F02A8208F1080034
:101B980000F0A2FB072C24AC0CD0D24908F10C00B1
:101BA800D14BD24AC4E9001301232146A260A38184
:101BB80003F01AF90322012300251AA902A8DFF865
:101BC8003CA3029508F1100B0DF1500927462E464B
:101BD800CDE91E2300220123CDE920230122002381
:101BE800CDE92223C24BCDE91A5303F1007303F563
:101BF80040731C934FF44173ADF8743003F0E8FC64
:101C080001230AA903A80D950A930C9310230395A1
:101C18008DF83830B74B0B9302F0E8FC039908F1C4
:101C2800200000F057FA0DF1180C9AE80F008CE824
:101C38000F006146029A584601F03EFA584601F0F4
:101C480085FA5846B0EE408A01F06EFAD0ED007A77
:101C58004FF60B7300200021F8EE677A0DF58362CA
:101C680023800AF1100CA382CE4688EE277AE5601D
:101C7800C4E90155CDE92A012385A3872562656357
:101C8800C4E90B55CDE93401A4F85430A56488EDB6
:101C9800867ACDE93A01A4F86830A4F87C30256644
:101CA8006567C4E91B55CDE94401A4F89030A4F850
:101CB800A830C4F88850C4F89C50C4E92555C4E934
:101CC8002B55A4F8BC30C4F8B450CDE95401A4F89D
:101CD800D030A4F8E430C4F8C850C4F8DC50C4E9E3
:101CE8003555CDE95E01A4F8FC30C4F8F050CDE9D3
:101CF8006401A4F81031A4F82431C4F80851C4F8D8
:101D08001C51C4E94555CDE96E01A4F83831A4F851
:101D18005031A4F86431C4F83051C4F84451C4F8BF
:101D28005C51C4E94F55C4E95555CDE97E01C4F865
:101D38007051A4F87831A4F88C31C4F88451C4E9FE
:101D48005F55CDE98801A4F8A431C4F89851CDE9CC
:101D58008E01A4F8B831A4F8CC31C4F8B051C4F855
:101D6800C451C4E96F55CDE99801A4F8E031A4F84D
:101D7800F831A4F80C32C4F8D851C4F8EC51C4F8BE
:101D88000452C4E97955C4E97F55CDE9A801A4F8FE
:101D98002032A4F83432C4F81852C4F82C52C4E9DA
:101DA8008955CDE9B201A4F84C32C4F84052CDE9C6
:101DB800B801A4F86032A4F87432C4F85852C4F8D0
:101DC8006C52C4E99955CDE9C201A4F88832A4F847
:101DD800A032A4F8B432C4F88052C4F89452C4F8BB
:101DE800AC52C4E9A355C4E9A955CDE9D201A4F878
:101DF800C832A4F8DC32C4F8C052C4F8D452C4E9DA
:101E0800B355CDE9DC01A4F8F432C4F8E852CDE9C1
:101E1800E201C4F80053A4F80833A4F81C33C4F84A
:101E28001453C4E9C355CDE9EC01A4F83033A4F840
:101E38004833A4F85C33C4F82853C4F83C53C4F8B6
:101E48005453C4E9CD55C4E9D355CDE9FC01A4F8F0
:101E58007033A4F88433C4F86853C4F87C53C4E9D5
:101E6800DD55C2E900010DF58662A4F89C33C4F87B
:101E78009053C2E900010DF58B62A4F8B033A4F8C1
:101E8800C433C4F8A853C4F8BC53C4E9ED55C2E937
:101E98000001A4F8D833C4F8D053C4F8E453BCE81C
:101EA8000F00AEE80F009CE80300C4E9F7558EE880
:101EB800030039F8161001363846022201F09AFA62
:101EC8000C2E07F15407F4D108F114072146042316
:101ED8003246384608F1400500249FED078A01F094
:101EE80099FA17E00508050905070506050A060613
:101EF80004020404010A010B6F12033B8C4A0124FB
:101F080001F0ACFC98ED860A01462846013401F040
:101F180097F92035072CE1B23846F1D9E1B20134FE
:101F280001F09CFC00230146F0EE480A28461A46B8
:101F380098ED860A01F052F90C2CEAD100242C4ABB
:101F480008F12C00234611680094012202F0D8F809
:101F5800284B012208F5E070196801F0F7F9264BC3
:101F6800012208F5EC70196801F0F0F9234A2346BC
:101F780008F5F87011680122009402F0C1F8204AAF
:101F8800234608F5017011680122009402F0B8F8A0
:101F98000123D8F81C024BF680320FA91394103095
:101FA8000F92CDE911330223109301F0DBFE38467E
:101FB80001F038FCD8F81C42237D04F110059BB9C8
:101FC8002846104D2368D4E90112009501F048FF16
:101FD800012323750DF2844DBDEC028BBDE8F08F13
:101FE800002C3FF4D3ADD5E5284601F06FFFE7E7B5
:101FF800284B0124204B0124104B0124004B0124C1
:10200800044B0124991A0024103001F0A3B800BF32
:10201800103001F0C1B800BFF8B500F1100705464F
:1020280000F1400400F5E07638462DED028B01F012
:102038007FF8384601F08AF83846B0EE408A01F059
:1020480073F8D0ED007AF8EE677A88EE270A85ED06
:10205800860A01E095ED860A2046203401F04AF907
:10206800B442F7D1BDEC028BF8BD00BF103001F0CF
:102078006DB800BF90ED860A704700BF143001F0BC
:10208800E7BB00BF38B500F1400400F5E075204615
:10209800203401F00BF9AC42F9D138BD704700BFCC
:1020A80000EB411191ED130A704700BF0749002268
:1020B800074B01F1600010B4302459601A611C60AC
:1020C8001A755DF8044BC3E902027047000000303E
:1020D800DC100020F0B5462387B0016000220371B0
:1020E8000124FA26194605AB8DF8142002964022E1
:1020F800009323460194054602F010FB002840F0A7
:102108009B809DF814300DF117074022284603F0F4
:102118007F030097CDE901468DF814308DF817300C
:102128002346297902F022FB002840F0858004200C
:1021380003F08AFC05AB4022284600932346CDE9EC
:102148000146297902F0EAFA002875D19DF8143081
:1021580040220097284603F0BF03CDE901468DF8D9
:1021680014308DF817302346297902F0FFFA002839
:1021780062D1042003F068FC0DF1150343222846C0
:1021880000932346CDE90146297902F0C7FA0028D1
:1021980052D10DF116034822284600932346CDE973
:1021A8000146297902F0BAFA002845D19DF8153080
:1021B80043220097284643F001038DF815308DF827
:1021C80017309DF8163043F00103CDE901468DF82C
:1021D80016302346297902F0C9FA68BB9DF81630F3
:1021E8004822009728468DF817302346CDE9014646
:1021F800297902F0BBFAF8B905AB402228460093CA
:102208002346CDE90146297902F088FAA0B99DF85C
:10221800142023460194284602F0CF040296009722
:10222800402229798DF814408DF8174002F09EFA63
:10223800003818BF012000E0012007B0F0BD00BF42
:10224800F0B5102387B0234C012200250126002772
:1022580002A920460195CDE902234FF48052CDE929
:1022680004670CF0BBF8642003F08AFF02A94FF45E
:1022780080522046CDE9046702261027CDE902677F
:102288000CF0ACF80322102302A92046CDE9022362
:1022980000230422CDE904234FF480520CF09EF869
:1022A80040F23223042202A9019310232046CDE9EB
:1022B8000223019A012305924FF4805204930CF0F3
:1022C8008DF840F6060120460CF0A8F8284607B01D
:1022D800F0BD00BFFC1000201C4B00221C494FF031
:1022E800400C30B5054689B00220596007219A6034
:1022F8001A620124DA620A224FF4006EDC60069248
:102308002022CDE9000104200821CDE902010320A3
:102318001021CDE9040108206946C3E904024FF4FD
:10232800C072181DC3E906C24FF48052C3E909E21E
:102338000CF02AF838B92846FFF782FF003818BF92
:10234800012009B030BD204609B030BDF81000208A
:1023580040410052614A0021D0B513688EB00A91FD
:10236800002B40F0B9805E4B01214FF683700C249E
:1023780011600221D3F8D4200026032742F48052AA
:10238800C3F8D420D3F8D42002F480520092009AE3
:10239800D3F8E02042F01002C3F8E020D3F8E020A0
:1023A80002F010020192019AD3F8E02042F04002B4
:1023B800C3F8E020D3F8E02002F040020292029A2B
:1023C800D3F8E02042F00802C3F8E020D3F8E02078
:1023D80002F008020392039AD3F8E02042F48072D4
:1023E800C3F8E020D3F8E02002F480720492049A43
:1023F800D3F8E02042F08002C3F8E020D3F8E020D0
:1024080002F080020592059AD3F8E02042F02002FB
:10241800C3F8E020D3F8E02002F020020692069AE2
:10242800D3F8E02042F00402C3F8E020D3F8E0300B
:102438000C9403F0040307930323079A0B93CDE945
:10244800080108A9274806F0F3FA48F237120223D0
:1024580008A925480C94CDE90823CDE90A6706F0B8
:10246800E7FA4CF20372022308A920480C94CDE93C
:102478000823CDE90A6706F0DBFA40F2FF6202237F
:1024880008A91B480C94CDE90823CDE90A6706F092
:10249800CFFA4FF60C72022308A916480C94CDE91E
:1024A8000823CDE90A6706F0C3FA4FF63F02022374
:1024B80008A911480C94CDE90823CDE90A6706F06C
:1024C800B7FA2022022308A90A480C94CDE90A6722
:1024D800CDE9082306F0ACFA0EB0D0BDF410002008
:1024E800004402580010025800180258000C025804
:1024F80000200258001C0258001402582DE9F04F21
:10250800DFF8108406460D46144608F118002DED34
:10251800028B89B000AF03F053F9D8F8183073B3C1
:10252800D8F81C30D8F80490002B43690BBF4FF043
:10253800080A4FF0100A4FF0020B4FF0040BB9F1E4
:10254800000F2AD0A200EA46012B02F1070222F06E
:102558000702ADEB020D6846ADEB020D694600F0CF
:102568003F81022B00F0D680002B6FD02246C8474F
:10257800D5462437BD46BDEC028BBDE8F08FD8F8B0
:102588001C30002BF5D0D8F804904FF0080A4FF013
:10259800020B4369B9F1000FD4D1FB61D8F80030C0
:1025A800BB61002BE5D0D54803F088F96B46BBF139
:1025B800020F786108EE103AFB6900F083816A46E1
:1025C8005146A2EBC40295466200EA46B2FBFBF212
:1025D800AAEBC40085460AEB8200EE46F861ADEB33
:1025E800010DF8690EEB820CC7F810C0EC46ADEB94
:1025F800010D00EB8201CCF80400CCF8081001EBC7
:1026080082013869E946CCF80C1000EB8201CCF85D
:1026180000A001EB8202C9E900E0C9E90212012B1E
:1026280000F06483022B00F06C82002B00F08081A4
:10263800620849466046BB69984718EE103A243745
:102648009D46BD46BDEC028BBDE8F08F002C8DD0B9
:102658001A46D8ED0C6A9FEDB27A8446331D36F9D6
:1026680022E00CF1080C07EE90EA33F922E002327E
:10267800F8EEE77A944267EE877A67EEA67A4CED31
:10268800027A07EE90EAF8EEE77A67EE877A67EE65
:10269800A67A4CED017AE2D8F9612246C847984EED
:1026A800D8ED0D6A0020F9692B1D9FED9E7A9FEDEC
:1026B8009E6ADFED9E5A22E0F4EEC67AF1EE10FA39
:1026C800C0F2C88447F6FE72D1ED017A45F82020A1
:1026D80066EEA77AF4EEC77AF1EE10FA40F2F080CF
:1026E800F4EEC67AF1EE10FAC0F2D58447F6FE721F
:1026F80043F820200230083184427FF639AFD1ED0B
:10270800007A66EEA77AF4EEC77AF1EE10FAD3D81B
:102718003246D9E7002C3FF429AFD8ED0C6A84463D
:102728009FED787A0022331D8E4656F822100CF160
:10273800080C07EE901A53F822100232F8EEE77AE6
:10274800944267EE877A67EEA67A4CED027A07EE36
:10275800901AF8EEE77A67EE877A67EEA67A4CED7C
:10276800017AE2D871462246C7F81CE0C847664E8F
:10277800D8ED0D6A0020F9692B1D9FED6A7A9FED4F
:102788006A6ADFF894C120E0F4EEC67AF1EE10FA36
:10279800C0F279843246D1ED017A45F8202066EE00
:1027A800A77AF4EEC77AF1EE10FA40F28780F4EED9
:1027B800C67AF1EE10FAC0F25E84324643F8202061
:1027C8000230083184427FF6D3AED1ED007A66EE4E
:1027D800A77AF4EEC77AF1EE10FAD5D86246DAE7AE
:1027E800002C3FF4C3AED8ED0C6A86469FED477ABD
:1027F8004FF0000C331D56F82C200EF1080E82F411
:102808000002A2F5000207EE902A53F82C200CF1E2
:10281800020CF8EEE77A82F400026445A2F50002A1
:1028280067EE877A67EEA67A4EED027A07EE902A6F
:10283800F8EEE77A67EE877A67EEA67A4EED017AC8
:10284800D9D8F9612246C847314ED8ED0D6A002023
:10285800F9692B1D9FED337A9FED336ADFF8BCC011
:102868001FE0F4EEC67AF1EE10FAC0F2FC833246AD
:10287800D1ED017A45F8202066EEA77AF4EEC77A02
:10288800F1EE10FA18D9F4EEC67AF1EE10FAC0F2A9
:10289800DA83324643F820200230083184427FF63A
:1028A80067AED1ED007A66EEA77AF4EEC77AF1EE5C
:1028B80010FAD6D86246DBE76246EBE762467DE768
:1028C800324615E7A100D6466208073121F0070114
:1028D800ADEB010DEA46ADEB010D6946ADEB0E0D12
:1028E8000AEB8200EC46ADEB0E0D01EB8202F861BB
:1028F800E946CCE900A0C9E9001290E64C11002095
:102908000280FFFF000000300082FF7F00000034DB
:1029180082FF7F0030110020007E00807E0080FF53
:102928000000003804FF7FBF04FF7F3F00FEFF4622
:10293800002C00F0C982BBF1020FD8F8242000F067
:10294800FA827969C7F8049002EB810E5FED0C5AA0
:102958008A00DCF808100EF104007A611A46DCF8E7
:102968000C303B61331DD7F810903D61FD69C7E914
:1029780002CB8C46834636F92210D8ED0C7A06EE47
:10298800101A33F9221006EE901A3EF92210B8EE0A
:10299800C66A07EE101AF8EEE66A3BF92210B8EE9E
:1029A800C77A26EE256A66EEA56A27EE257A26EE10
:1029B800276A66EEA76A27EE277A07EE901A51086B
:1029C8000232F8EEE77A0AEB8100944280ED006A61
:1029D80005EB810067EEA57AC0ED006A0CEB81007B
:1029E80009EB810180ED007A98ED0C7A67EE877A21
:1029F800C1ED007ABFD8D7F804903D69D7E902CB7A
:102A080060466208BB6949469847D8F82C307A690D
:102A1800D8ED0D6A1A441FED3D7A1FED3D6A2B1D56
:102A2800904602F1040A5FED3F5A0022A84ED9E908
:102A380000EC51E0F4EEC67AF1EE10FAC0F2C7826B
:102A480047F6FE7045F822000CEB0100D0ED007A45
:102A580066EEA77AF4EEC77AF1EE10FA4BD9F4EEE7
:102A6800C67AF1EE10FAC0F2BA8247F6FE70BBF1F0
:102A7800020F43F822002BD0D9F808000844D0ED03
:102A8800007A66EEA77AF4EEC77AF1EE10FA36D934
:102A9800F4EEC67AF1EE10FAC0F2CD8247F6FE7077
:102AA80048F82200D9F80C000144D1ED007A66EE0E
:102AB800A77AF4EEC77AF1EE10FA1ED9F4EEC67AC8
:102AC800F1EE10FAC0F2AF8247F6FE714AF8221012
:102AD800023294427FF6B1AD51080EEB81008900B5
:102AE800D0ED007A66EEA77AF4EEC77AF1EE10FA26
:102AF800A0D83046A6E73046B9E73146E6E7304683
:102B0800CEE7002C00F0E081BBF1020FD8F82430AA
:102B180000F0E1817A69DCF8081003EB820EC7F84F
:102B280004909300DFED6B5A0EF1040000227B61E4
:102B3800DCF80C303B61331DD7F810903D61FD691E
:102B4800C7E902CB8C46834656F82210D8ED0C7A9A
:102B580007EE101A53F82210B8EEC76A07EE101ADB
:102B68005EF82210F8EEC76A07EE101A26EE256AFC
:102B78005BF82210B8EEC77A66EEA56A26EE276AD9
:102B880027EE257A66EEA76A27EE277A07EE901ACF
:102B980051080232F8EEE77A0AEB8100944280EDA0
:102BA800006A05EB810067EEA57AC0ED006A0CEBC0
:102BB800810009EB810180ED007A98ED0C7A67EECF
:102BC800877AC1ED007ABFD8D7F804903D69D7E974
:102BD80002CB60466208BB6949469847D8F82C3052
:102BE8007A69D8ED0D6A1A449FED3E7A9FED3E6AE8
:102BF800131D9246DFF8E4C00022FB612B1D364E00
:102C0800D9E9008E4EE0F4EEC67AF1EE10FAC0F281
:102C1800FC81304645F822000EEB0100D0ED007A29
:102C280066EEA77AF4EEC77AF1EE10FA49D9F4EE17
:102C3800C67AF1EE10FAC0F2EF813046BBF1020F0E
:102C480043F822002AD0D9F808000844D0ED007AC9
:102C580066EEA77AF4EEC77AF1EE10FA35D9F4EEFB
:102C6800C67AF1EE10FAC0F2C98130464AF822005D
:102C7800D9F80C000144D1ED007A66EEA77AF4EE9B
:102C8800C77AF1EE10FA1ED9F4EEC67AF1EE10FA10
:102C9800C0F2AD813146F86940F822100232944200
:102CA8007FF6CBAC510808EB81008900D0ED007AA3
:102CB80066EEA77AF4EEC77AF1EE10FAA3D860466A
:102CC800A8E76046BAE76146E5E76046CEE700BF99
:102CD8000280FFFF000000300082FF7F007E00803E
:102CE8000000003404FF7FBF04FF7F3F002C00F08A
:102CF800EB807A690021D8F82430C7F8109003EBEC
:102D0800820ED7F81C909300FD610EF104021FEDAE
:102D18000C6A7B61331D154656F821204808D8ED0A
:102D28000C6ABBF1020F82F40002A2F5000207EE62
:102D3800902A53F8212082F40002B8EEE77AA2F52F
:102D4800000227EE067A07EE902A0AEB8002F8EED8
:102D5800E77A27EE267A67EE867A82ED007A09EB23
:102D680080024FEA800067EEA67AC2ED007A27D08B
:102D78005EF8212082F40002A2F5000207EE902AF4
:102D880055F8212082F40002B8EEE77AA2F5000295
:102D980027EE067A07EE902ADCF80820F8EEE77AA4
:102DA800024427EE267A67EE867A82ED007A98ED5D
:102DB8000C7ADCF80C2067EE877A0244C2ED007AC0
:102DC80002318C42A8D8D7F8109060466208BB69D7
:102DD8004946FD699847D8F82C307A69D8ED0D6ACC
:102DE8001A441FED407A1FED406A131D9246DFF822
:102DF800C4C20022FB612B1DAB4ED9E9008E4EE008
:102E0800F4EEC67AF1EE10FAC0F2C580304645F805
:102E180022000EEB0100D0ED007A66EEA77AF4EE00
:102E2800C77AF1EE10FA49D9F4EEC67AF1EE10FA43
:102E3800C0F2BF803046BBF1020F43F822002AD00F
:102E4800D9F808000844D0ED007A66EEA77AF4EEC7
:102E5800C77AF1EE10FA35D9F4EEC67AF1EE10FA27
:102E6800C0F2AE8030464AF82200D9F80C0001447E
:102E7800D1ED007A66EEA77AF4EEC77AF1EE10FA91
:102E88001ED9F4EEC67AF1EE10FAC0F28B80314604
:102E9800F86940F82210023294427FF6CEAB51080E
:102EA80008EB81008900D0ED007A66EEA77AF4EE8F
:102EB800C77AF1EE10FAA3D86046A8E76046BAE7E9
:102EC8006146E5E76046CEE7224649466046BB696B
:102ED8009847FFF7B2BBC7F810B0002298ED0C6A0C
:102EE800331DDFED726AD7F81CB0786956F82210E6
:102EF80007EE901A53F82210B8EEE77A07EE901A08
:102F080051080232F8EEE77A27EE267A0AEB810EAC
:102F180094420BEB810167EEA67A27EE067A67EEFC
:102F2800867A8EED007AC1ED007ADFD88300D7F873
:102F380010B07B614DE61A46C7F810B098ED0C6AE0
:102F4800331DDFED5B6AD7F81CB0786936F92210BB
:102F580007EE101A33F9221007EE901AB8EEC77A66
:102F680051080232F8EEE77A27EE267A0AEB810E4C
:102F780094420BEB810167EEA67A27EE067A67EE9C
:102F8800867A8EED007AC1ED007ADFD88300D7F813
:102F980010B07B6134E5F0EE675AFEEEE45A15EEA8
:102FA800900A34E7F0EE675AFEEEE45A15EE901AEE
:102FB8006EE7F0EE675AFEEEE45A15EE900A3AE72D
:102FC800F0EE675AFEEEE45A15EE900A4BE767EE0C
:102FD800A57AFDEEE77A17EE900A00B232E567EEC1
:102FE800A57AFDEEE77A17EE900A00B23FE5F0EE1B
:102FF800675AFEEEE05A15EE901A4CE6F0EE675A64
:10300800FEEEE05A15EE900A30E6F0EE675AFEEE54
:10301800E05A15EE900AFDE5F0EE675AFEEEE05A2A
:1030280015EE900A0AE667EEA57AFDEEE77A17EE46
:10303800901A09B24AE567EEA57AFDEEE77A17EE2F
:10304800900A00B22CE5F0EE675AFEEEE45A15EE4F
:10305800902A1FE467EEA57AFDEEE77A17EE902A2C
:1030680012B2FFF731BBF0EE675AFEEEE45A15EEE6
:10307800902AFFF7FDBBF0EE675AFEEEE05A15EE18
:10308800902AFFF79BBBF0EE675AFEEEE05A15EE6A
:10309800902AFFF780BB67EEA57AFDEEE77A17EE78
:1030A800902A12B2FFF724BB82FF7F000000003095
:1030B800000000387E0080FF30B5184C154685B0FA
:1030C800046004F1080EEC460FC98EE80F00D4ED39
:1030D800047AF5EEC07A8CE80F00F1EE10FA1ADDEA
:1030E800B7EE006A94ED057A27EE277AC6EE276ACE
:1030F80084ED0D7AC4ED0C6A6DB1204640F8185F76
:1031080002F05EFB064903690020064A2162A262BA
:10311800E36005B030BD012005B030BD301100209E
:10312800C0200030C000003000680830704700BF81
:10313800B1F5807F03680A4628BF4FF48072B1F565
:10314800807F9A6094BF0020012070470068183083
:1031580002F0A2BB30B5046883B00D46E3694BB1F9
:10316800A3680020E26A616A9B00009004F11C00D9
:1031780002F028FBA3680748A26A9B00216A009016
:1031880004F1180002F01EFB0020C4E9005003B04F
:1031980030BD00BF0525002410B50468A3691BB124
:1031A80004F1180002F06CFBE3691BB104F11C0088
:1031B80002F066FB002010BD10B4074B4FF07E51A3
:1031C80030240022032019619C60D8605DF8044B0C
:1031D8005961C3E90622704730110020F6EE007AE3
:1031E8009FED166A20EE207A0160F7EE006A80ED06
:1031F800036A80ED020A27EE277AC6EE877AF4EE94
:10320800E67AF1EE10FA11DDF0EE667A4FF07E51B3
:103218004FF0000C02760022C0ED017AC0F814C00D
:10322800016143768276C0ED070A7047F4EEC67AEC
:10323800F1EE10FAEAD5F0EE467AE7E70000000072
:10324800DFED187AB6EE007AF7EE006A9FED166A9F
:1032580060EE277A016080ED036A80ED020A67EE6E
:10326800877A86EEA77AB4EEE67AF1EE10FA10DDE8
:10327800B0EE667A4FF0804C4FF07C514FF480727C
:10328800012380ED017AC0F810C041610283837682
:103298007047B4EEC67AF1EE10FAEBD5B0EE467A86
:1032A800E8E700BF6F12033B000000000268037EDE
:1032B800128807EE902AFBEEC87A1BB1B7EE007AA7
:1032C80077EE677AD0ED056A90ED047A77EEE67AC4
:1032D800437E67EE877A0BB1F1EE677A90ED030AC9
:1032E80090ED017A77EEC07AA7EE270A80ED030AFF
:1032F800704700BF837E80ED020AABB9D0ED077A34
:1033080027EE800AF6EE007AB7EE007A20EE270A5A
:10331800C7EE007AF4EEC77AF1EE10FA07DDF0EEA8
:10332800477AC0ED017A7047DFED067AE8E7F5EEF7
:10333800C07AF1EE10FAF4D5DFED037AC0ED017A28
:10334800704700BF6F12033B0000000070B584B0E7
:10335800002504461646ADF80C102B462A4603995C
:10336800009500F0CDFEA582A67504B070BD00BF23
:1033780010B586B00446ADF80C10ADF8141002F084
:1033880061FB4FF48071002220600123A18004F1C9
:103398000800A1830599009200F0B2FE06B010BDA6
:1033A80010B5044602F04EFB0021226821718242CA
:1033B80000D110BD0346012204F1080023602271E8
:1033C80000F084FF227F617F53005BB281B180F0FF
:1033D800010252B21343DBB27F2B2377E9D102F00B
:1033E80031FB07EE900AF8EE677AC4ED087A10BD53
:1033F80042B2EFE710B4002383B00324018080F8C1
:10340800503080F85120C0E9014303B05DF8044B07
:10341800704700BF2DE9F04FBE4F0024BE4D8DB060
:10342800037007F140034260804616468946202211
:1034380021463846C5F88835C5F88475CDE9024473
:10344800CDE90444CDE90644CDE90844CDE90A4470
:1034580011F010FB2022214605F26250C5F85145B3
:10346800C5F85545C5F85945C5F85D4511F002FB45
:1034780085F85065D8F8043085F86846002B62D086
:1034880005F5AA6A09F1500B264609EB040128192B
:103498005222013611F0E0FA4FF0000327F8023B00
:1034A8001BF804300AF8013F002B70D0D8F804301C
:1034B8004FF0010254349E4285F86826E5D3974AB6
:1034C800082195F850350026C5F88C254FF4802240
:1034D80093480027C5F8A4350023C5F89025012294
:1034E800C5F89C1595F86816C5F8943585F8A03583
:1034F800C5F89825C0E9006700293ED0C5F8B82569
:1035080085F8A13585F8A835002298F80030C5F867
:10351800BC25C5F8C025002B40D001220020012180
:10352800013B85F8C4257F4AC2E90001082B37D83A
:10353800DFE813F0BD00C200C700CC00D100D60000
:10354800DB00E100E800C5F89435F6B285F8A0354F
:103558000020724B0021C5F8A465C5F88C354FF4DE
:103568008023C5F890350123C5F898350823C5F898
:103578009C3505F5B663C3E90001012385F8A1353B
:10358800002385F8A8350323C5F8B835BCE7D8F873
:1035980004305434B3423FF678AF90E785F8C43529
:1035A800614803F015FB034608B1FFBEFEE702A918
:1035B8005D48029303F06CFC0446002875D104238F
:1035C80040F2FF720A90CDE9082395F85035002B98
:1035D80000F0F58006234FF05409019309FB0453CA
:1035E80093F85130072B07D8DFE803F0595C56539E
:1035F800504D4A040723079326B206EB4606C6EB4E
:10360800C60605EB8608B700404600F09BFC09FBA0
:10361800045393F85030042B00F3AD80022B00F3D1
:10362800C08000F0BC802B19002283F8402515F8D3
:10363800262098F80130002A7CD0022A00F08D80DC
:10364800012A40F0B480012B00F0B380002B374BE7
:1036580018BF0023059305A9019B3348069302F080
:10366800F3FD002840F0AE80013495F85035E4B2FF
:10367800A34240F2A4802E4B53F824300193ADE7C7
:1036880006230793B8E705230793B5E704230793B1
:10369800B2E703230793AFE702230793ACE70023BE
:1036A8000793A9E701230793A6E7FFBEFEE70320D8
:1036B800402142E9020173E70720602142E9020143
:1036C8006EE70F20802142E9020169E71F20A0214F
:1036D80042E9020164E73F20C02142E902015FE7B5
:1036E8007F20E02142E902015AE7FF204FF4807170
:1036F80042E9020154E740F2FF104FF4907142E9A9
:1037080002014DE740F2FF304FF4A07142E9020197
:1037180046E700BFC040003068110020002002408A
:103728001817002038170020F41600200002B025D2
:103738002C4B0124062B36D0072B3CD0022B49D02A
:10374800032B49D0002B4BD0012B47D0042B49D059
:10375800052B254B18BF00237CE7042B25D0052B10
:103768002BD08BB3012B31D0022B31D0032B1F4B25
:1037780018BF00236EE70323143705EB040B4FF043
:10378800000A2F448BF8403538460AF1010A00F048
:10379800D9FB9BF8403514375345F5DC47E701233F
:1037A800EAE70223E8E7124B54E7124B52E70023FB
:1037B80050E7114B4EE7114B4CE7114B4AE70DB060
:1037C800BDE8F08FFFBEFEE70E4B43E70E4B41E727
:1037D8000E4B3FE70E4B3DE70E4B3BE70E4B39E7F1
:1037E8000E4B37E70E4B35E70000B84F00209036F8
:1037F8000800900C1000C0102000F0148000501D2C
:10380800000180210004002A0008302E00106032D8
:103818000040C03A0080F03E0000524700002143BB
:103828000000844B38B5094C40F2FF724FF001118B
:1038380004F28C55284603F0D9FA94F85025D4F8A8
:1038480084152846BDE8384002F0F0BF6811002012
:10385800014803F0B7B800BFF4160020034B0F2946
:10386800D3F8840598BF00EB410070476811002029
:10387800244B02689A4200D07047234A0023234809
:10388800D2F8D81030B5224C41F0200183B0C4F8EA
:10389800F0050920C4F8F83504F5BE65C4F8F40548
:1038A8004FF48060C2F8D8104FF40061D2F8D820E5
:1038B800C4F8000694F8680602F02002C4F8FC3543
:1038C80098420192C4F804164FF40051C4F8103617
:1038D8002846C4F81436019B14BF00234FF48073A4
:1038E800C4F80816C4F80C3603F0FEFE08B1FFBE93
:1038F800FEE704F28C53C4F8D855C4F8283603B050
:1039080030BD00BF00200240004402584000024081
:1039180068110020014804F039BD00BF5817002085
:1039280002682DE9F84F504B9A4201D0BDE8F88F54
:103938004E4D95F86836002BF8D095F85035002B89
:103948007BD0002405F13C0905F2625605F5AA670B
:10395800A04613E003F0010117F811BCA9F12800F3
:1039680000F0C0FCBBF1010F25D895F850350134A3
:1039780009F154090236A2B293422BD917F8012F44
:10398800002AF4D0D5F884350021327833F81400B1
:10399800D5F8883503EB041323F812003388013374
:1039A8009BB233805FFA83FA3A789A42D2D88A4631
:1039B800A6F80080D0E7CAF34001A9F1140000F08E
:1039C80091FCBBF1020FCAF38001CED0484600F04B
:1039D80089FCCAE7002395F8680625490922984218
:1039E800C5F8F8354FF48060C5F8F015C5F8F4252A
:1039F8004FF400614FF40052C5F8FC3508BF4FF48E
:103A08008073C5F80006C5F80416C5F80826002214
:103A18001848C5F80C36C5F81026C5F8142603F062
:103A280063FE08B1FFBEFEE795F85025D5F884156A
:103A38001148BDE8F84F02F0F9BE0D4909224FF4CC
:103A48008060C5F8F835C5F8F0154FF40061C5F881
:103A5800F4254FF40052C5F8FC35C5F80006C5F842
:103A68000416C5F80826D2E7002002406811002095
:103A78004000024058170020F4160020704700BF8D
:103A88000C4B4FF60B71002203F5A8601980DA6021
:103A980099821A6219855A6399879A64C3E901223F
:103AA800C3E90622C3E90B22C3E910225433984222
:103AB800ECD1704768110020504B02689A4200D040
:103AC80070474F4BD3F8E81030B541F000514D4CDA
:103AD80087B0D4F85421C3F8E810D3F8E81001F0FF
:103AE800005104910499D3F8E01041F00101C3F8A2
:103AF800E010D3F8E03003F001030593059B32F0A2
:103B080002033DD0013A012A6CD9D4F85831012B6F
:103B18000AD000223620114603F034FA362007B0C6
:103B2800BDE8304003F06CBAD4F8543133F00202E7
:103B380035D0013B012BECD8442240233249334D88
:103B4800C4F88C1000212846C4F8B010C4E9242316
:103B580000224FF48063C4E926234FF400624FF437
:103B68000053C4E928234FF480724FF48033C4E92A
:103B78002A2303F0B9FD88B9E560C4F8C440C8E752
:103B88004FF48061032204F5BA700093ADF80C106D
:103B9800039900F0B5FAD4F85421B3E7FEE71C4BBB
:103BA800A2634322636140231A4DC4E9062300221D
:103BB8004FF480632846C4E908234FF400624FF4A9
:103BC8000053C4E90A234FF480724FF48033C4E9E8
:103BD8000C2303F089FD20B9D4F85431A560E464BE
:103BE800A7E7FEE74FF4A061002303220A48ADF8D7
:103BF8000C100399009300F083FA86E700740040E4
:103C080000440258D81700202804024064180020F5
:103C180010040240EC17002060190020014804F04D
:103C2800B5BB00BFEC170020014804F0AFBB00BFD4
:103C38006418002010B5054C204603F06FFB04F50E
:103C48008270BDE810400AF03FBE00BFD8170020C0
:103C5800164BD3F85421D3F86411022A4FEA5101C4
:103C680030B583B00CD088B2D3F86821D3F870414E
:103C780002EB400300930CB16846A04703B030BD87
:103C8800D3F86C21002AF9D088B2D3F86841D3F868
:103C9800705104EB400402EB4002CDE90042002DD4
:103CA800ECD06846A84703B030BD00BFD817002045
:103CB800134BD3F85421022A10B582B00CD0D3F894
:103CC8006811D3F87021009122B1D3F864116846C5
:103CD8004908904702B010BDD3F86C21002AF9D0EA
:103CE800D3F86811D3F87041CDE90012002CF1D057
:103CF800D3F8641168464908A04702B010BD00BF58
:103D0800D8170020094BD3F85421022A0DD000B54A
:103D1800D3E95B1283B0019122B1D3F8641101A8F1
:103D28004908904703B05DF804FB7047D817002096
:103D38000B4BD3F85421022A10D0D3F8641110B5D4
:103D4800D3E95B24C1F34F0382B0490802EB430374
:103D580001930CB101A8A04702B010BD704700BF85
:103D6800D817002030B58C463A4C3B4D8DB00460D6
:103D780004F5A87EBCE80F00AEE80F00DCF80030C0
:103D880020462560CEF8003003F0DAF90023D4F895
:103D980058510393CDB11622012D049218D0002258
:103DA800D4F860110125D4F854319142CDE9065276
:103DB80018BF0222059233F0020235D0013B012BD5
:103DC8003DD9002528460DB030BD02230493E6E70F
:103DD800224A0093C4F80C31C4F81431C4F8042101
:103DE800C4F81C31CDE9013302F028F8D4F8503179
:103DF8004BF68032C4F80851002B08BF1346B0FBBD
:103E0800F3F304F58270C4F810310AF01FFB0028A0
:103E1800D8D120230290694604F5827000930AF0F5
:103E2800FDFD0028BBD0CDE703A90A4803F0AAFA94
:103E38000028C7D1D4F85431013B012BC1D8102236
:103E480003A9044803F09EFA051E18BF0125284659
:103E58000DB030BDD817002000740040001000409D
:103E680070B504681D4682B01046D4F85831012B4D
:103E780003D0D4F85431022B24D1D4F85C31069AFB
:103E8800002BC4F86811C4F870212B460CBF082613
:103E98000026C4F86C010A46C4F864510021204683
:103EA800009603F063F9D4F86C212B4610212046C4
:103EB800009603F05BF904F582700AF07DFB0020A0
:103EC80002B070BD012002B070BD00BF10B504681B
:103ED800D4F85831012B09D1D4F8543133F0020108
:103EE80006D0013B012B0BD9002010BD012010BDCD
:103EF800204603F0C7F9D4F85431013B012BF3D81D
:103F08001021204603F0BEF9002010BD000000007B
:103F18009FED097B0A4B00224FF60B71C3F88021F5
:103F2800C3F88C21A3F87411A3F8881183ED5E7B84
:103F3800C3E96422704700BF0000000000000000D1
:103F4800D817002003780B2B2DD042780F2A2AD8B7
:103F58004168022910B590B03ED0032902D001294A
:103F680000D000210C918168012902D0022918BFD4
:103F780000210D91C168022904D0032902D001292A
:103F880018BF00210A2B0E910ED85B4C04EB83243A
:103F980004610A2B17D8DFE803F009A09284766839
:103FA8005A4C3E30220070470024F1E7534BD3F8B7
:103FB800E01041F00101C3F8E010D3F8E03003F05D
:103FC80001030093009B01230BA9204693400B9308
:103FD80004F02EFD10B010BD11210C91C3E7474B22
:103FE800D3F8E01041F48061C3F8E010D3F8E03072
:103FF80003F480630A930A9BE5E7404BD3F8E0108B
:1040080041F40071C3F8E010D3F8E03003F4007312
:104018000993099BD7E7394BD3F8E01041F4807135
:10402800C3F8E010D3F8E03003F480730893089BDA
:10403800C9E7324BD3F8E01041F08001C3F8E01033
:10404800D3F8E03003F080030793079BBBE72B4BC3
:10405800D3F8E01041F04001C3F8E010D3F8E030A5
:1040680003F040030693069BADE7244BD3F8E0101A
:1040780041F02001C3F8E010D3F8E03003F020034A
:104088000593059B9FE71D4BD3F8E01041F0100105
:10409800C3F8E010D3F8E03003F010030493049B56
:1040A80091E7164BD3F8E01041F00801C3F8E0108F
:1040B800D3F8E03003F008030393039B83E70F4B27
:1040C800D3F8E01041F00401C3F8E010D3F8E03071
:1040D80003F004030293029B75E7084BD3F8E01042
:1040E80041F00201C3F8E010D3F8E03003F0020316
:1040F8000193019B67E700BF000002580044025883
:1041080010B592B0ADF804100180C9B2149C0B2907
:10411800C460C0E901233FD090F801C0BCF10F0F83
:104128003AD8022A3FD0032A02D0012A00D000221E
:104138000E92012B02D0022B18BF0023022C0F93E2
:104148002CD0032C2AD0012C28D000230A29109324
:1041580027D85C4A02EB812202610A2914D8DFE8D9
:1041680001F0A39587796B5D4F4133250600564BC7
:10417800D3F8E01041F48061C3F8E010D3F8E030E0
:1041880003F480630C930C9B01230DA9104603FADA
:104198000CF30D9304F04CFC12B010BD0A291094D6
:1041A800D7D90022D8E711220E92C2E7464BD3F89E
:1041B800E01041F40071C3F8E010D3F8E03003F4E4
:1041C80000730B930B9BDFE73F4BD3F8E01041F4F0
:1041D8008071C3F8E010D3F8E03003F480730A93D9
:1041E8000A9BD1E7384BD3F8E01041F08001C3F8BF
:1041F800E010D3F8E03003F080030993099BC3E78C
:10420800314BD3F8E01041F04001C3F8E010D3F887
:10421800E03003F040030893089BB5E72A4BD3F836
:10422800E01041F02001C3F8E010D3F8E03003F0CB
:1042380020030793079BA7E7234BD3F8E01041F02F
:104248001001C3F8E010D3F8E03003F01003069330
:10425800069B99E71C4BD3F8E01041F00801C3F81E
:10426800E010D3F8E03003F008030593059B8BE7D3
:10427800154BD3F8E01041F00401C3F8E010D3F86F
:10428800E03003F004030493049B7DE70E4BD3F85E
:10429800E01041F00201C3F8E010D3F8E03003F079
:1042A80002030393039B6FE7074BD3F8E01041F039
:1042B8000101C3F8E010D3F8E03003F001030293E2
:1042C800029B61E7000002580044025808B501212A
:1042D80043780069994089B204F0ACFD003818BFF2
:1042E800012008BD01230A464178006903FA01F15B
:1042F80089B204F0A5BD00BF10B5002386B0122214
:1043080004460493CDE902230368022B1FDC002B2B
:1043180001DB0423059323790A2B1FD8114800EBEE
:1043280083206279012301A99340019304F080FB63
:10433800A3790A2B14D80B4800EB8320E2790123D8
:1043480001A99340019304F073FB06B010BD032B41
:10435800E1D10623059323790A2BDFD90020E0E772
:104368000020EBE700000258634A0368934210B547
:104378008CB028D0614A934258D0614A934200F0E9
:104388009480604A934201D00CB010BD5E4C5F48E7
:10439800D4F8E03043F00203C4F8E030D4F8E03059
:1043A80003F002030A930A9BFFF7A6FFD4F8F43040
:1043B80043F08003C4F8F430D4F8F43003F08003F9
:1043C8000B930B9BE0E7504C5148D4F8E03043F096
:1043D8000203C4F8E030D4F8E03003F0020301939C
:1043E800019BFFF789FFD4F8E83000221F2043F42F
:1043F80000131146C4F8E830D4F8E83003F4001389
:104408000293029BD4F8D83043F00103C4F8D830A3
:10441800D4F8D83003F001030393039B02F0B2FDF4
:104428001F200CB0BDE8104002F0EABD364C3948F8
:10443800D4F8E03043F08003C4F8E030D4F8E0303A
:1044480003F080030493049BD4F8E03043F00203A4
:10445800C4F8E030D4F8E03003F002030593059B7C
:10446800FFF74AFFD4F8E8300022212043F4800304
:104478001146C4F8E830D4F8E83003F48003069312
:10448800069BD4F8D83043F00103C4F8D830D4F8E8
:10449800D83003F001030793079B02F073FD212036
:1044A8000CB0BDE8104002F0ABBD1B48FFF724FF7D
:1044B800154B00224820D3F8E840114644F4000484
:1044C800C3F8E840D3F8E84004F400040894089CD2
:1044D800D3F8D84044F00104C3F8D840D3F8D83012
:1044E80003F001030993099B02F04CFD48200CB02E
:1044F800BDE8104002F084BD005400400058004060
:10450800005C0040001C005800440258181C0020A1
:1045180078190020581A0020381B00202DE9F04394
:104528001A4B87B000254FF010099E46EC46184BF1
:10453800FF22E04667461A700EF118060EF13004A5
:10454800CDE90055CDE90255ADF80090BCE80F0063
:10455800CDE90455AEE80F009CE803000095ADF8DE
:1045680000908EE80300B8E80F000FC69CE803002F
:104578000095ADF8009086E803000FCF0FC49CE8C3
:10458800030084E8030007B0BDE8F08304000020BE
:104598007419002010B5EFF3108472B6084B1A781E
:1045A800120602D504B962B610BD1878054B40B2A0
:1045B800C0EBC00003EB4010143003F0E7FEF1E756
:1045C8007419002078190020014805F025BD00BFA6
:1045D800041A0020014805F01FBD00BFE41A00209E
:1045E800014805F019BD00BFC41B00202DE9F043A8
:1045F8000D6885B0404EC5EBC503032D4FEA431740
:1046080006EB4313036041DCCA680C46012A3DD817
:104618004FEAC5084CD020689C466168A8EB05099C
:10462800A2680DF1100EE36806EB4919ACE80F001B
:10463800324B227C8CF80020D9F808C00FCB0EE949
:104648000F000EEB8503BCF1010F53F8103CC9F8BD
:104658008C3032D0BCF1020F43D0BCF1000F36D001
:10466800227C8C37A8EB050500233744520006EB63
:10467800451601213846C6F8AC30C6E92521C6E9F9
:104688002733C6E9293305F0D7F918B1012005B059
:10469800BDE8F0830146384605F0CAFC0028F5D18C
:1046A8000146384605F0EEFC003818BF0120EEE759
:1046B8000A7C103A672AAED9E8E701F0BDFB104B37
:1046C80098420CBF0F4B104BC9F89030C8E701F067
:1046D800B3FB0B4B98420CBF0C4B0D4BC9F89030F9
:1046E800BEE701F0A9FB064B98420CBF094B0A4BE9
:1046F800C9F89030B4E700BF78190020B44A012403
:10470800000E27072D0FB0303211D0205F43906084
:104718008A62E030200BA0101A0980102DE9F041C0
:10472800046884B09846E368BDF82C70CBB90D4690
:1047380016468C34204605F077FC2028FAD120460E
:104748000C9C69004346324689B2CDE901740A9C43
:10475800009405F0FBFA003818BF012004B0BDE84A
:10476800F081012004B0BDE8F08100BF2DE9F041DF
:10477800046884B09846E368BDF82C70CBB90D4640
:1047880016468C34204605F04FFC2028FAD12046E6
:104798000C9C69004346324689B2CDE901740A9CF3
:1047A800009405F09FF9003818BF012004B0BDE857
:1047B800F081012004B0BDE8F08100BF094B6FF023
:1047C800F41110225960C3F8E4101A7483F8F02029
:1047D800C3F8C41183F8D021C3F8A41283F8B02217
:1047E800704700BF7819002030B5002395B04FF40A
:1047F8008071062204460B9306921393CDE90C139D
:10480800CDE90E33CDE9113301F01AFB07282BD07F
:1048180004F1100541F2883206A9284606F070FC1A
:1048280028B10123184684F85C3015B030BD022247
:10483800022306A92846CDE9002310220123CDE949
:10484800022300224FF48003CDE9042305224FF010
:10485800807306926A460F9341F2883306F0BCFDD6
:104868000028DED115B030BD0323012084F85C3068
:1048780015B030BD0000000070B50023A4B04FF0A3
:1048880080724FF480750446ADF806300D93CDE97B
:1048980010320122CDE90E53CDE91223CDE91433AC
:1048A800002943D0F02300F1100508AEADF806301A
:1048B800C02341F2883231462846089306F020FC8E
:1048C80028B10123184684F85C3024B070BD41F249
:1048D80088320DF10601284606F07CFC03460028C4
:1048E800EFD105224FF480711E93284616924FF09F
:1048F80080721B9321931F9202AA9FED1F7BCDE923
:104908001C13CDE922338DED027B9FED1D7B41F217
:10491800883316A98DED047B9FED1B7B8DED067BFF
:1049280006F05AFD0028CCD124B070BD00F1100566
:1049380008AE612341F2883231462846089306F0D2
:10494800DFFB0028BDD141F288320DF1060128466F
:1049580006F0BEFC0028B4D1BDF80630204623F08E
:10496800780343F04003ADF80630FFF73DFF002819
:104978009ED0A6E7AFF30080000000000100000011
:1049880010000000010000000000000000004000CE
:104998002DE9F04F00234FF4807501264FF0807801
:1049A80004462DED028BABB08DF80730139321939D
:1049B800299314950E96CDF85C80CDE91533CDE991
:1049C8001863CDE91A33CDE92253CDE92433CDE973
:1049D800273306231C9301F033FA072808D004F183
:1049E800100741F288321CA9384606F089FB40B10D
:1049F8000123184684F85C302BB0BDEC028BBDE86F
:104A0800F08F4FF0020A4FF0020B4FF0050941F208
:104A1800883308AA1CA93846CDF89480CDF8709040
:104A28009FED2F8BCDE908AB4FF0000A4FF4800BB8
:104A38008DED0A8BCDE90CAB06F0CEFC0028D7D162
:104A480041F2883238460EA906F05AFB0028CFD129
:104A5800402341F288320DF1070138468DF80730BE
:104A680006F0B8FB0028C3D141F288330EA902AA88
:104A78003846CDF83890CDF85C809FED1B7BCDE9AA
:104A880006AB8DED027B9FED1A7B8DED047B06F066
:104A9800A3FC03460028ABD1CDF870904FF0010974
:104AA800CDF894804FF00008219308AA29931CA9F7
:104AB80038462295CDE92333CDE9273341F28833AF
:104AC8008DED0A8BCDE90CABCDE9088906F084FCA5
:104AD800002891D0304684F85C608DE7AFF3008001
:104AE800100000000100000040000000430000002A
:104AF80000800000010000002DE9F04F00234FF472
:104B0800807601254FF0807804462DED028BABB0FE
:104B1800CDE9153313932193299314960E95CDF867
:104B28005C80CDE91853CDE91A33CDE92263CDE98C
:104B38002433CDE9273306231C9301F081F9072894
:104B480008D004F1100741F288321CA9384606F053
:104B5800D7FA40B10123184684F85C302BB0BDEC7D
:104B6800028BBDE8F08F4FF0020A4FF0020B4FF0B6
:104B7800050941F2883308AA1CA93846CDF8948063
:104B8800CDF870909FED308BCDE908AB4FF0000A5F
:104B98004FF4800B8DED0A8BCDE90CAB06F01CFCB5
:104BA8000028D7D141F2883238460EA906F0A8FA73
:104BB8000028CFD1402341F288320DF10701384651
:104BC8008DF8073006F006FB0028C3D19DF80730A2
:104BD80008AA0C90FF2008934FF400430EA90B95E8
:104BE800CDF83890CDF85C80CDE909034FF4800307
:104BF80038460D9341F2883306F0EEFB0346002851
:104C0800A8D10022219329931CA938462296CDF8D1
:104C18007090CDF89480CDE92333CDE92733012373
:104C2800CDE9022341F2883302AA8DED048BCDE948
:104C380006AB06F0D1FB002890D0284684F85C50DB
:104C48008CE700BFAFF300801000000001000000F7
:104C580070B50122AAB004460D465F48C02104F091
:104C6800EFF800265D4B06965B4895FAA5F5CDE969
:104C78000466D3F8E02042F02002C3F8E020C02206
:104C8800D3F8E03003F0200301930123019902A92E
:104C9800CDE9022303F0CCFE142001F071FA32466C
:104CA800C0214D4804F0CCF8142001F069FA012223
:104CB800C021494804F0C4F8142001F061FA012326
:104CC800474AE6612261C4E90533002D77D0B5FA79
:104CD80085F1013900234FF4807604F11005C4E909
:104CE80008162846C4E90B3306F09CF930B10123B5
:104CF8001D4684F85C3028462AB070BD662316909D
:104D0800179041F2883213900EA91B900E93CDE9AB
:104D18001460CDE91900284606F0F2F90028E6D11A
:104D280099230EA941F2883228460E9306F0E8F935
:104D38000028DCD105230121249008AA219027907E
:104D48001C934FF08073CDE92260CDE92800102034
:104D5800259341F28833CDE90A019FED1D7B0020A0
:104D68004FF48001CDE90C011CA928468DED087B84
:104D780006F032FB0028BAD12046FFF7BDFE002816
:104D8800B5D1284606F0AAF905460028AFD12379FF
:104D98000A2B18D963790121994003F083FFA3797D
:104DA8000A2B0ED80F4800EB83200126E17906FA7A
:104DB80001F103F077FF266684F864609BE71F2102
:104DC80088E70020F1E7074800EB8320E2E700BF0F
:104DD80000000000010000000014025800440258BE
:104DE80000500052000002582DE9F041684CA2B072
:104DF8000D46046001F024F807284BD028682346A4
:104E0800AA68696807C3AA89184620F8042B267B74
:104E1800677B06F063F9002834D1012E94F86430DA
:104E280014BF4FF480154FF400052366002B39D0CA
:104E3800584B95FAA5F523610123C4E905330023EE
:104E4800E361002D6ED0B5FA85F1013900234FF4E6
:104E580080785148C4E90818C4E90B3306F0E2F831
:104E680080B966230B90139041F2883206A9069305
:104E7800CDE90C80CDE90E00CDE91100464806F0D9
:104E88003FF9A0B101231D4684F85C30284622B0C2
:104E9800BDE8F08101250323284684F85C3022B060
:104EA800BDE8F08129462046FFF7D2FEC0E79923E6
:104EB80041F2883206A93848069306F021F90028FD
:104EC800E0D105231C9019906A4614934FF0807323
:104ED800219014A91D9341F288339FED277BCDE9DA
:104EE8001A80CDE91F008DED007B9FED257B2A48B8
:104EF8008DED027B9FED247B8DED047B06F06CFA33
:104F08000028BFD131462248FFF7B6FC0028B9D1A6
:104F18001F48FFF73DFD05460028B3D127B10223FE
:104F28002366B3E71F2191E7EB230026002718909B
:104F380014934FF440631F9006AA1B934FF4005339
:104F4800209014A917934FF4404313481C93A023AF
:104F5800CDF868801693062319934FF08053219358
:104F68004FF04073CDE906671D9306F0ADFA0028AF
:104F7800D5D087E7AFF300800000000001000000F3
:104F880010000000010000000000000000004000C8
:104F9800F81C002000500052081D00205E4B0268DB
:104FA8002DE9F0419A428CB04FF00004CDE9074456
:104FB800CDE909440B9402D00CB0BDE8F081574B01
:104FC800574DD3F8D420574F42F48042564EDFF85D
:104FD8005C81C3F8D420D3F8D42002F48042009234
:104FE800009ADA6F42F48042DA67DA6F22F480427C
:104FF800DA67D3F8E02042F04002C3F8E020D3F8A3
:10500800E02002F040020192019AD3F8E02042F039
:105018002002C3F8E020D3F8E02002F02002029238
:10502800029AD3F8E02042F01002C3F8E020D3F847
:10503800E02002F010020392039AD3F8E02042F035
:105048000202C3F8E020D3F8E03003F0020304932F
:10505800049B22E014F0FC0252D103F1200155F820
:10506800211008780A2839D891F801C0012109923D
:1050780007EB802201FA0CF107910221CDF8148088
:10508800089103210A910CA90B4413F81C3C07A9A9
:10509800104601340B9303F0CBFC2A6EE3B2002ACE
:1050A800D8D0052B2CD803F11A0255F822100A780B
:1050B8000A2A18D9497801228A4002210792002237
:1050C800CDE9081203210A910CA90B4496E80300C4
:1050D8000590ADF8181013F81C3CD8E74878012162
:1050E80009928140C8E74878012107EB8222814074
:1050F800022007910021CDE9080103210A91E3E785
:1051080000225C20114601F03DFF5C2001F078FF91
:105118000CB0BDE8F08100BF0050005200440258B6
:10512800F81C0020000002586C4B01240A0A090AE6
:105138000268F8B5194B9A4200D0F8BD184A002405
:10514800184F0125D2F8D430174E23F48043C2F803
:10515800D43011E014F0FC0F1BD157F821301A7825
:105168000020597801340A2A05FA01F198BF06EBA4
:10517800822089B203F096FDE3B23A6E03F1200172
:10518800002AE7D0052B03F11A0202D857F822307B
:10519800E5E75C20BDE8F84001F040BF0050005250
:1051A80000440258F81C002000000258014806F08C
:1051B80017BA00BF081D00200E4B6FF0F412002133
:1051C800981C30B41C1D9D1D9A605D671C67C3E95F
:1051D8000022C3E9181103F10A0203F1080130BCE7
:1051E800C3E91A30C3E91E12C3E92030C3E9221209
:1051F800704700BFF81C002038B5036871B9026A0F
:1052080000F1280500F5AC74012A0CBF00214021EB
:105218008BBB1D4B5722C0F858310DE0426A00F194
:10522800C00500F5E874012A0CBF00214021EBB14C
:10523800164B5A22C0F8D03100232046C4E9012178
:105248004FF480524FF48061636262614FF4804290
:10525800C4E903314FF48073C4E906234FF40033E3
:10526800236202F041FA58B1FFBEFEE7084B58220C
:10527800C0F8D031E0E7074B5922C0F85831DBE7D6
:10528800C5E92044A56338BD100002407000024003
:1052980028000240580002402DE9F043C28889B036
:1052A80081468388ADF800200089B9F80A10B9F85A
:1052B8000C20ADF80230D9F81830ADF80400ADF87C
:1052C8000610ADF80820002B3FD0D9F81C70B7FAAB
:1052D80087F77F09012502236C460DF10A06DFF8DE
:1052E80070800695CDE9043599F80420207882422B
:1052F800627818D0D9F80010F9B1012902D1F8B1B3
:105308000A2107910A2805FA02F203A994BF08EBBB
:1053180080200020039203F08BFB0234A642E3D1E5
:1053280009B0BDE8F08399F805109142E2D1002F49
:10533800F3D0D9F800100029DFD106210791E1E761
:10534800022A0CBF08210A21DBE70127C2E700BFB8
:1053580000000258534A0368934230B505468BB0A3
:1053680055D02032934252D04F4A934204D0203233
:10537800934201D00BB030BD4C4C4D48D4F8E030CE
:1053880043F00103C4F8E030D4F8E03003F001033F
:105398000593059BD4F8E03043F00803C4F8E030E7
:1053A800D4F8E03003F008030693069BD4F8E03005
:1053B80043F04003C4F8E030D4F8E03003F0400391
:1053C8000793079BD4F8F03043F40003C4F8F03097
:1053D800D4F8F03003F400030893089BFFF75CFF50
:1053E800D4F8D830296843F001032F4A3048C4F86C
:1053F800D830891AD4F8D83018BF012103F0010336
:105408000993099B0BB0BDE83040FFF7F5BE274C68
:105418002848D4F8E03043F00103C4F8E030D4F869
:10542800E03003F001030093009BD4F8E03043F030
:105438001003C4F8E030D4F8E03003F0100301930F
:10544800019BD4F8E03043F04003C4F8E030D4F8CE
:10545800E03003F040030293029BD4F8F03043F4A9
:105468008003C4F8F030D4F8F03003F480030393D9
:10547800039BFFF711FFD4F8D830296843F00103E4
:10548800084A0C48C4F8D830891AD4F8D83018BF5C
:10549800012103F001030493049B0BB0BDE83040E5
:1054A800FFF7AABE04580140045C014000440258BA
:1054B800E41F0020881D0020014802F067BF00BFDC
:1054C800E01E0020014802F061BF00BF581F002005
:1054D800014802F05BBF00BF3C210020014802F0F8
:1054E80055BF00BFB42100201A4A0368934210B484
:1054F8000BD02032934208D0174A934216D020325C
:10550800934213D05DF8044B7047144B0022D3F834
:105518005442C3F85822002CF4D0D3F84802D3E9F7
:10552800931223465DF8044B520818470B4B002290
:10553800D3F8B044C3F8B424002CE3D0D3F8AC2497
:10554800D3F8A814D3F8A404520823465DF8044BF2
:10555800184700BF04580140045C0140881D002022
:10556800184A0368934210B40BD02032934208D0F3
:10557800154A934217D02032934214D05DF8044B59
:105588007047124BD3E994245208C3F85822002CD0
:10559800F4D0D3E99201234601EB820100EB8200AB
:1055A8005DF8044B1847094BD3F8AC24D3F8B04442
:1055B8005208C3F8B424002CE0D0D3F8A814D3F8C8
:1055C800A404E8E704580140045C0140881D002059
:1055D8002DE9F0470C684FF41776774F86B004FB37
:1055E80006F6012C07EB0608C0F8008000F39F8040
:1055F80000230D468E46C446C8F85032C8E9923397
:1056080069A3D3E900236AA1D1E90001CDE9022306
:1056180006AB03EB8403CDE9040153F810AC53F84F
:10562800089CBEE80F00ACE80F00BEE80F00ACE82D
:105638000F009EE80300C8F828A0C8F8C0908CE8BE
:1056480003002B69042B0CD8DFE803F078828C96D2
:1056580003004FF41773594A03FB04739A64C3F8A1
:10566800E020AA692B6A002A42D0002B4FF4177356
:1056780008BF022203FB047318BF0322DA62012267
:105688001A63EA696B6A002A3FD1191E4FF417732F
:1056980018BF012103FB0473C3E9311269690129A9
:1056A80043D0022947D1032500214FF4177306F18F
:1056B80028002A46019103FB0473002438445C64E3
:1056C8005C63DC65C3F8DC40C3F8CC40C3F8F44045
:1056D800C3E90F44C3E91544C3E93544C3E93B446E
:1056E800022308F083FB019900284FD0FFBEFEE794
:1056F800191E4FF4177318BF012103FB0473C3E984
:105708000B12EA696B6A002ABFD0002B4FF417739B
:105718000CBF0222032203FB0473C3F8C420012236
:10572800C3F8C82069690129BBD10225BDE701205A
:1057380006B0BDE8F08700252946B6E74FF4177391
:105748004FF4FA5203FB04739A64C3F8E02088E725
:105758004FF417734FF47A5203FB04739A64C3F837
:10576800E0207EE74FF417734FF4FA4203FB04730B
:105778009A64C3F8E02074E74FF417734BF680324D
:1057880003FB04739A64C3F8E0206AE706F1C000DB
:1057980002232A46384408F029FB0028C8D0FFBE57
:1057A800FEE700BFAFF3008004580140045C0140ED
:1057B80024580140245C0140881D00200077010026
:1057C8000068704770B5046882B015460E46C4F884
:1057D8005032C4E99212069AC4F85422A269012AE6
:1057E80026D0626A012A9AB211D0294604F1C00073
:1057F800019208F023FC236A019A012B10D0294654
:1058080004F1280008F01AFC002002B070BD04F171
:10581800C000019208F0A4FC236A019A012BEED182
:10582800314604F1280008F09BFC002002B070BD4E
:10583800226A012A9AB211D0294604F1280001925D
:1058480008F0FCFB636A019A012B10D0294604F189
:10585800C00008F0F3FB002002B070BD04F128007E
:10586800019208F07DFC636A019A012BEED1314662
:1058780004F1C00008F074FC002002B070BD00BF45
:1058880010B5046804F1280008F06AFB04F1C000B0
:1058980008F066FB002010BD03681B69042B05D8BF
:1058A800044A02EB830393ED000A70479FED020A56
:1058B800704700BF744B012400803B470368D3F84E
:1058C80058027047064B6FF0F4124FF60B71C3E99C
:1058D80001229981A3F86812C3E99822704700BF92
:1058E800881D0020704700BF08B500F037FCBDE8F0
:1058F800084001F021BC00BF064808B503680BB199
:1059080003F0A2FA044803681BB1BDE8084004F09C
:10591800E5BB08BD5827002048220020064808B5E6
:1059280003680BB103F090FA044803681BB1BDE8A3
:10593800084004F0D3BB08BD5827002048220020A7
:10594800064808B503680BB103F07EFA04480368FB
:105958001BB1BDE8084004F0C1BB08BD58270020B2
:1059680048220020364BDA6A520062D59A6A9A6A4F
:105978009A6A9B6A180600D500BE314B9B6A990645
:1059880000D500BE2E4B9B6ADA0600D500BE2C4B14
:105998009B6A1B0700D500BE294B9B6A980700D558
:1059A80000BE274B9B6AD90700D500BE244B9B6AD3
:1059B8001A0400D500BE224B9B6A9B0400D500BE8A
:1059C8001F4B9B6AD80400D500BE1D4B9B6A190566
:1059D80000D500BE1A4B9B6A5A0500D500BE184B6D
:1059E8009B6A9B0500D500BE154B9B6AD80500D560
:1059F80000BE134B9B6A990100D500BE104B9B6AF1
:105A0800DA0100D500BE0E4B9B6A1B0300D500BE11
:105A18000B4B9B6A580300D500BE094B9B6A990340
:105A280000D500BE064B9B6ADA0306D400BE00BE52
:105A3800FEE7DB6A9B07FAD5F8E700BEF6E700BF8A
:105A480000ED00E000F096BB00F09ABBB0B1431E39
:105A5800022B12D81F4B9B6803F17843B3F5003F24
:105A68000BD3022831D003282BD11B4B1B4A1A60B9
:105A78001B4B00221A6601F0E5BA704700B540F2E8
:105A8800063189B04FF60B720346ADF8081002993B
:105A98000090ADF80C2001220690CDE9040003A87F
:105AA800FEF72EFB03A80121FEF71CFC0A2000F0DC
:105AB80067FB0B4B00221A6609B05DF804EB01F096
:105AC800C1BA054B00221A60D2E7034B054A1A6097
