:020000042400D6
:1000000000000220E9050024DD0500245139002408
:10001000DD050024DD050024DD05002400000000CE
:10002000000000000000000000000000DD050024CA
:10003000DD05002400000000DD050024D538002483
:10004000DD050024DD050024DD050024DD05002498
:10005000DD050024DD050024DD050024DD05002488
:10006000DD050024DD050024DD05002451360024D3
:100070005D360024B11A0024693600247536002448
:10008000690001242D270024DD050024DD0500245E
:10009000DD050024DD050024DD050024DD05002448
:1000A000DD050024DD050024DD050024DD05002438
:1000B000E9F10024F5F1002401F200246127002475
:1000C000DD0500246D270024DD05002431EA00242D
:1000D0003DEA00249DFE0024C9FE0024FDFE00240C
:1000E000DD050024DD05002400000000DD050024FE
:1000F000DD050024DD050024DD050024DD050024E8
:10010000DD050024DD0500240DF2002449EA002469
:1001100031FF002465FF0024D11D0024DD050024EB
:10012000B91D0024C51D00246DEA0024A1EA0024A5
:100130009D000124DD050024DD050024DD050024EB
:1001400000000000000000000000000000000000AF
:10015000DD050024DD050024DD05002499FF0024D1
:1001600079270024DD050024E5380024093900241E
:10017000DD0500242D390024DD050024DD050024E3
:10018000DD050024DD050024CDFF0024010001244D
:1001900055EA002461EA0024DD050024DD05002481
:1001A000DD050024DD050024DD050024DD05002437
:1001B00045330024DD050024DD050024DD05002491
:1001C000DD050024DD050024DD050024DD05002417
:1001D000DD050024DD050024DD050024DD05002407
:1001E000DD050024DD050024DD050024DD050024F7
:1001F000DD050024DD050024DD050024DD050024E7
:10020000DD050024DD050024DD050024DD050024D6
:10021000DD050024DD050024DD050024DD050024C6
:10022000DD050024DD050024DD05002400000000BC
:10023000DD050024DD05002400000000DD050024AC
:10024000DD050024DD050024DD050024DD05002496
:10025000DD050024DD050024DD050024DD05002486
:10026000DD050024DD050024DD050024DD05002476
:10027000DD050024DD050024350001240000000018
:10028000DD050024DD050024DD050024000000005C
:0802900000000000DD05002460
:1002980010B5054C237833B9044B13B10448AFF3B8
:1002A80000800123237010BD80030020000000009F
:1002B8000823012408B5034B1BB103490348AFF3D6
:1002C800008008BD000000008403002008230124EA
:1002D80053B94AB9002908BF00281CBF4FF0FF31A5
:1002E8004FF0FF3000F074B9ADF1080C6DE904CEA1
:1002F80000F006F8DDF804E0DDE9022304B07047F9
:100308002DE9F047089D04468E46002B4DD18A42C0
:10031800944669D9B2FA82F252B101FA02F3C2F1F3
:10032800200120FA01F10CFA02FC41EA030E944084
:100338004FEA1C48210CBEFBF8F61FFA8CF708FBA5
:1003480016E341EA034306FB07F199420AD91CEB7D
:10035800030306F1FF3080F01F81994240F21C81AF
:10036800023E63445B1AA4B2B3FBF8F008FB1033F7
:1003780044EA034400FB07F7A7420AD91CEB04042C
:1003880000F1FF3380F00A81A74240F207816444FC
:10039800023840EA0640E41B00261DB1D440002381
:1003A800C5E900433146BDE8F0878B4209D9002DE5
:1003B80000F0EF800026C5E9000130463146BDE86F
:1003C800F087B3FA83F6002E4AD18B4202D38242D9
:1003D80000F2F980841A61EB030301209E46002D88
:1003E800E0D0C5E9004EDDE702B9FFDEB2FA82F2DD
:1003F800002A40F09280A1EB0C014FEA1C471FFA3B
:100408008CFE0126200CB1FBF7F307FB131140EA21
:1004180001410EFB03F0884208D91CEB010103F1EE
:10042800FF3802D2884200F2CB804346091AA4B2B0
:10043800B1FBF7F007FB101144EA01440EFB00FE84
:10044800A64508D91CEB040400F1FF3102D2A645E9
:1004580000F2BB800846A4EB0E0440EA03409CE788
:10046800C6F12007B34022FA07FC4CEA030C20FA35
:1004780007F401FA06F31C43F9404FEA1C4900FA55
:1004880006F3B1FBF9F8200C1FFA8CFE09FB1811D2
:1004980040EA014108FB0EF0884202FA06F20BD945
:1004A8001CEB010108F1FF3A80F08880884240F295
:1004B8008580A8F102086144091AA4B2B1FBF9F0D9
:1004C80009FB101144EA014100FB0EFE8E4508D9D4
:1004D8001CEB010100F1FF346CD28E456AD9023859
:1004E800614440EA0840A0FB0294A1EB0E01A1423E
:1004F800C846A64656D353D05DB1B3EB080261EBAC
:100508000E0101FA07F722FA06F3F1401F43C5E985
:10051800007100263146BDE8F087C2F12003D840BB
:100528000CFA02FC21FA03F3914001434FEA1C47FD
:100538001FFA8CFEB3FBF7F007FB10360B0C43EAEF
:10054800064300FB0EF69E4204FA02F408D91CEB9F
:10055800030300F1FF382FD29E422DD9023863449D
:100568009B1B89B2B3FBF7F607FB163341EA03413D
:1005780006FB0EF38B4208D91CEB010106F1FF388C
:1005880016D28B4214D9023E6144C91A46EA004683
:1005980038E72E46284605E70646E3E61846F8E615
:1005A8004B45A9D2B9EB020864EB0C0E0138A3E75E
:1005B8004646EAE7204694E74046D1E7D0467BE73F
:1005C800023B614432E7304609E76444023842E7B7
:1005D800704700BF684620F007018D46FEE700BF60
:1005E8000A480B4A904208B503D0121A094911F07B
:1005F80087FD0948094A904203D0121A002111F0D8
:100608008DFD11F059FD00F055F8FEE700000020BF
:100618007C03002048230124800300206C3B002039
:10062800704700BF38B500F1B8050446284600F009
:100638008DF9204600F0AEF8284600F01DFC194B55
:1006480004F128001A78597842EA012100F05AFF8B
:10065800284600F011FC144B04F14C001A78597824
:1006680042EA012100F04EFF284600F005FC0F4B3E
:1006780004F170001A78597842EA012100F042FF2B
:10068800284600F0F9FB0A4B04F194001A785978CF
:1006980042EA012100F036FF28463021BDE8384003
:1006A80000F0C0BB982101249C210124A42101242D
:1006B800B4210124F8B512480026FFF7B3FF01253D
:1006C80003F0B2F9074603F0AFF904462A460121C0
:1006D800E31B0B48B3F5FA7F0BD900F07BF83246E1
:1006E8000221074885F0010586F00106274600F03B
:1006F80071F8044800F01EFF014800F071F8E2E7C5
:100708009C030020C40300201F4800231F4A2049DF
:1007180010B44FF60B74C0F8D830C0E90043C0E9F4
:100728000543C0E90C43C0E91543C0E91E43C0E9CD
:100738002743C0E93834C0E90233C0E90733C0E9C8
:100748000E33C0E91733C0E92033C0E92933C0E9C3
:100758003133C0E93A33C0F8F030A0F8BC42C0F8F1
:10076800C832C0E99E43C0E9A443C0E9AA43C0E92E
:10077800A0335DF8044BC0E9A633C0E9AC33C0E947
:10078800B03311F085BC00BF9C030020000000209E
:10079800290600240D4B30B51A7883B00024597807
:1007A800054642EA012123460122009401F070FD2A
:1007B800074B009405F114001A785978234642EA49
:1007C8000121012201F064FD03B030BDA8210124FC
:1007D800AC2101240129114618BF143001F04ABE8A
:1007E80090F84430FF2B00D0704770B584B00446B1
:1007F80003F01AF907EE900AD4ED126AF8EE677A58
:100808009FED257A77EEE67AF4EEC77AF1EE10FAE4
:100818003FDB04F1B800002504F11406039000F052
:100828002FFB039800F0FAFA1C4B009520461A7823
:1008380059782B4642EA0121012201F029FD184A84
:1008480000952B46117830465278042541EA02215A
:10085800012201F01DFD0121204601F00BFE0021BF
:10086800304601F007FE642003F0E0F8002120463E
:1008780001F000FE3046012101F0FCFD642003F088
:10088800D5F8013DE7D1032004B0BDE8704003F07E
:10089800CFB804B070BD00BF00803B45A82101243B
:1008A800AC21012400294ED0274BF0B5D0E9002413
:1008B800481E03F10C0E951C03F1100C4E00AC42BF
:1008C80018BF052802EB41058CBF012000206245B6
:1008D80038BFAE452CBF01270027384227D0264411
:1008E800644538BFB64522D39D890026D8894FEA8A
:1008F800510E65F30F06A44602EB8E0E65F31F46F4
:10090800002560F30F0560F31F45104640F8046B9F
:1009180070454CF8045BF9D121F00100C90705D5F1
:10092800998922F81010DB8924F81030F0BD023ABA
:10093800023C023D998922F8021FAA42D98924F86B
:10094800021FF7D1F0BD7047740600202DE9F04F63
:1009580040F201130E4A012680462DED028BADF2BE
:10096800844DC0F81C22ADF81430002304968DF88D
:10097800163003F055FA044603F0A8F804A9054612
:1009880040B93CB140468DF8166003F0C9F90BE058
:1009980074060020404603F0C3F9002D00F02A82B7
:1009A80008F1080000F086FB072C24AC0CD0D249D3
:1009B80008F10C00D14BD24AC4E9001301232146A7
:1009C800A260A38102F0D8FA0322012300251AA904
:1009D80002A8DFF83CA3029508F1100B0DF15009AD
:1009E80027462E46CDE91E2300220123CDE92023E8
:1009F80001220023CDE92223C24BCDE91A5303F18A
:100A0800007303F540731C934FF44173ADF87430D1
:100A180002F032FE01230AA903A80D950A930C934C
:100A2800102303958DF83830B74B0B9301F0A6FED1
:100A3800039908F1200000F03BFA0DF1180C9AE830
:100A48000F008CE80F006146029A584600F044FCFB
:100A5800584600F08BFC5846B0EE408A00F074FC13
:100A6800D0ED007A4FF60B7300200021F8EE677A7C
:100A78000DF5836223800AF1100CA382CE4688EE1E
:100A8800277AE560C4E90155CDE92A012385A387C2
:100A980025626563C4E90B55CDE93401A4F85430E7
:100AA800A56488ED867ACDE93A01A4F86830A4F8FF
:100AB8007C3025666567C4E91B55CDE94401A4F877
:100AC8009030A4F8A830C4F88850C4F89C50C4E901
:100AD8002555C4E92B55A4F8BC30C4F8B450CDE969
:100AE8005401A4F8D030A4F8E430C4F8C850C4F8CD
:100AF800DC50C4E93555CDE95E01A4F8FC30C4F8F2
:100B0800F050CDE96401A4F81031A4F82431C4F8F8
:100B18000851C4F81C51C4E94555CDE96E01A4F843
:100B28003831A4F85031A4F86431C4F83051C4F80D
:100B38004451C4F85C51C4E94F55C4E95555CDE951
:100B48007E01C4F87051A4F87831A4F88C31C4F847
:100B58008451C4E95F55CDE98801A4F8A431C4F8EB
:100B68009851CDE98E01A4F8B831A4F8CC31C4F875
:100B7800B051C4F8C451C4E96F55CDE99801A4F83F
:100B8800E031A4F8F831A4F80C32C4F8D851C4F80C
:100B9800EC51C4F80452C4E97955C4E97F55CDE94C
:100BA800A801A4F82032A4F83432C4F81852C4F8C2
:100BB8002C52C4E98955CDE9B201A4F84C32C4F8E5
:100BC8004052CDE9B801A4F86032A4F87432C4F8F0
:100BD8005852C4F86C52C4E99955CDE9C201A4F839
:100BE8008832A4F8A032A4F8B432C4F88052C4F809
:100BF8009452C4F8AC52C4E9A355C4E9A955CDE947
:100C0800D201A4F8C832A4F8DC32C4F8C052C4F83F
:100C1800D452C4E9B355CDE9DC01A4F8F432C4F8E0
:100C2800E852CDE9E201C4F80053A4F80833A4F867
:100C38001C33C4F81453C4E9C355CDE9EC01A4F836
:100C48003033A4F84833A4F85C33C4F82853C4F804
:100C58003C53C4F85453C4E9CD55C4E9D355CDE940
:100C6800FC01A4F87033A4F88433C4F86853C4F8BA
:100C78007C53C4E9DD55C2E900010DF58662A4F88C
:100C88009C33C4F89053C2E900010DF58B62A4F8B7
:100C9800B033A4F8C433C4F8A853C4F8BC53C4E9A7
:100CA800ED55C2E90001A4F8D833C4F8D053C4F80C
:100CB800E453BCE80F00AEE80F009CE80300C4E969
:100CC800F7558EE8030039F8161001363846022227
:100CD80000F05AFC0C2E07F15407F4D108F1140760
:100CE800214604233246384608F1400500249FED8A
:100CF800078A00F059FC17E00508050905070506ED
:100D0800050A060604020404010A010B6F12033BDC
:100D18003421012400F06CFE98ED860A014628462D
:100D2800013400F07BFB2035072CE1B23846F1D9BD
:100D3800E1B2013400F05CFE00230146F0EE480AFF
:100D480028461A4698ED860A00F036FB0C2CEAD1A4
:100D580000242C4A08F12C00234611680094012233
:100D680001F096FA284B012208F5E070196800F0A6
:100D7800B7FB264B012208F5EC70196800F0B0FBB0
:100D8800234A234608F5F87011680122009401F0FF
:100D98007FFA204A234608F5017011680122009461
:100DA80001F076FA0123D8F81C024BF680320FA91D
:100DB800139410300F92CDE911330223109301F0F0
:100DC8009BF8384600F0F8FDD8F81C42237D04F162
:100DD80010059BB92846104D2368D4E901120095E7
:100DE80001F008F9012323750DF2844DBDEC028B47
:100DF800BDE8F08F002C3FF4D3ADD5E5284601F0CF
:100E08002FF9E7E7B8210124B0210124A02101240A
:100E18009021012494210124AD080024103000F011
:100E2800A9BA00BFF8B500F11007054600F1400463
:100E380000F5E07638462DED028B00F089FA384649
:100E480000F094FA3846B0EE408A00F07DFAD0ED12
:100E5800007AF8EE677A88EE270A85ED860A01E0BF
:100E680095ED860A2046203400F00EFBB442F7D1F7
:100E7800BDEC028BF8BD00BF90ED860A704700BF3D
:100E8800143000F0AFBD00BF07490022074B01F145
:100E9800600010B4302459601A611C601A755DF83E
:100EA800044BC3E9020270470000003074060020BA
:100EB800F0B5462387B00160002203710124FA26A9
:100EC800194605AB8DF8142002964022009323465C
:100ED8000194054601F0EAFC002840F09B809DF84B
:100EE80014300DF117074022284603F07F030097BE
:100EF800CDE901468DF814308DF81730234629794D
:100F080001F0FCFC002840F08580042002F08EFDF2
:100F180005AB4022284600932346CDE901462979AE
:100F280001F0C4FC002875D19DF8143040220097C8
:100F3800284603F0BF03CDE901468DF814308DF83B
:100F480017302346297901F0D9FC002862D1042002
:100F580002F06CFD0DF11503432228460093234649
:100F6800CDE90146297901F0A1FC002852D10DF103
:100F780016034822284600932346CDE901462979DD
:100F880001F094FC002845D19DF8153043220097C4
:100F9800284643F001038DF815308DF817309DF879
:100FA800163043F00103CDE901468DF8163023468B
:100FB800297901F0A3FC68BB9DF8163048220097F8
:100FC80028468DF817302346CDE90146297901F0E6
:100FD80095FCF8B905AB4022284600932346CDE995
:100FE8000146297901F062FCA0B99DF81420234636
:100FF8000194284602F0CF040296009740222979EE
:101008008DF814408DF8174001F078FC003818BFAF
:10101800012000E0012007B0F0BD00BFF0B51023AB
:1010280087B0234C012200250126002702A920466B
:101038000195CDE902234FF48052CDE904670BF006
:1010480017F8642003F08CF802A94FF48052204668
:10105800CDE9046702261027CDE902670BF008F8EE
:101068000322102302A92046CDE9022300230422EB
:10107800CDE904234FF480520AF0FAFF40F23223FC
:10108800042202A9019310232046CDE90223019AE4
:10109800012305924FF4805204930AF0E9FF40F6C9
:1010A800060120460BF004F8284607B0F0BD00BF43
:1010B800940600201C4B00221C494FF0400C30B510
:1010C800054689B00220596007219A601A620124F6
:1010D800DA620A224FF4006EDC6006922022CDE923
:1010E800000104200821CDE9020103201021CDE9E7
:1010F800040108206946C3E904024FF4C072181DB0
:10110800C3E906C24FF48052C3E909E20AF086FF38
:1011180038B92846FFF782FF003818BF012009B008
:1011280030BD204609B030BD900600204041005235
:10113800614A0021D0B513688EB00A91002B40F0A7
:10114800B9805E4B01214FF683700C241160022197
:10115800D3F8D4200026032742F48052C3F8D420C1
:10116800D3F8D42002F480520092009AD3F8E020F9
:1011780042F01002C3F8E020D3F8E02002F0100299
:101188000192019AD3F8E02042F04002C3F8E0202F
:10119800D3F8E02002F040020292029AD3F8E0204D
:1011A80042F00802C3F8E020D3F8E02002F0080279
:1011B8000392039AD3F8E02042F48072C3F8E02047
:1011C800D3F8E02002F480720492049AD3F8E02065
:1011D80042F08002C3F8E020D3F8E02002F0800259
:1011E8000592059AD3F8E02042F02002C3F8E020E7
:1011F800D3F8E02002F020020692069AD3F8E02005
:1012080042F00402C3F8E020D3F8E0300C9403F075
:10121800040307930323079A0B93CDE9080108A950
:10122800274805F0F5FB48F23712022308A925489C
:101238000C94CDE90823CDE90A6705F0E9FB4CF2E7
:101248000372022308A920480C94CDE90823CDE9AC
:101258000A6705F0DDFB40F2FF62022308A91B487C
:101268000C94CDE90823CDE90A6705F0D1FB4FF6C8
:101278000C72022308A916480C94CDE90823CDE97D
:101288000A6705F0C5FB4FF63F02022308A911487B
:101298000C94CDE90823CDE90A6705F0B9FB2022B3
:1012A800022308A90A480C94CDE90A67CDE9082366
:1012B80005F0AEFB0EB0D0BD8C06002000440258ED
:1012C8000010025800180258000C0258002002585A
:1012D800001C02580014025830B5184C154685B049
:1012E800046004F1080EEC460FC98EE80F00D4ED37
:1012F800047AF5EEC07A8CE80F00F1EE10FA1ADDE8
:10130800B7EE006A94ED057A27EE277AC6EE276ACB
:1013180084ED0D7AC4ED0C6A6DB1204640F8185F73
:1013280002F0A2FA064903690020064A2162A26275
:10133800E36005B030BD012005B030BDC80600200F
:10134800C0200030C000003000680830704700BF7F
:10135800B1F5807F03680A4628BF4FF48072B1F563
:10136800807F9A6094BF0020012070470068183081
:1013780002F088BA10B50468A3691BB104F118001B
:1013880002F074FAE3691BB104F11C0002F06EFA72
:10139800002010BD10B4074B4FF07E5130240022BE
:1013A800032019619C60D8605DF8044B5961C3E95A
:1013B80006227047C8060020F6EE007A9FED166AEE
:1013C80020EE207A0160F7EE006A80ED036A80ED76
:1013D800020A27EE277AC6EE877AF4EEE67AF1EE6D
:1013E80010FA11DDF0EE667A4FF07E514FF0000CE6
:1013F80002760022C0ED017AC0F814C0016143767C
:101408008276C0ED070A7047F4EEC67AF1EE10FA5C
:10141800EAD5F0EE467AE7E700000000DFED187A3B
:10142800B6EE007AF7EE006A9FED166A60EE277A4C
:10143800016080ED036A80ED020A67EE877A86EE26
:10144800A77AB4EEE67AF1EE10FA10DDB0EE667A1D
:101458004FF0804C4FF07C514FF48072012380EDA7
:10146800017AC0F810C04161028383767047B4EEF8
:10147800C67AF1EE10FAEBD5B0EE467AE8E700BF8F
:101488006F12033B00000000837E80ED020AABB9B7
:10149800D0ED077A27EE800AF6EE007AB7EE007AEA
:1014A80020EE270AC7EE007AF4EEC77AF1EE10FABA
:1014B80007DDF0EE477AC0ED017A7047DFED067A76
:1014C800E8E7F5EEC07AF1EE10FAF4D5DFED037A2D
:1014D800C0ED017A704700BF6F12033B00000000A7
:1014E80070B584B0002504461646ADF80C102B469E
:1014F8002A460399009500F0CBFEA582A67504B094
:1015080070BD00BF10B586B00446ADF80C10ADF83C
:10151800141002F089FA4FF4807100222060012330
:10152800A18004F10800A1830599009200F0B0FEA3
:1015380006B010BD10B5044602F076FA0021226804
:101548002171824200D110BD0346012204F1080036
:101558002360227100F082FF227F617F53005BB21B
:1015680081B180F0010252B21343DBB27F2B2377A3
:10157800E9D102F059FA07EE900AF8EE677AC4ED5D
:10158800087A10BD42B2EFE710B4002383B00324F9
:10159800018080F8503080F85120C0E9014303B041
:1015A8005DF8044B704700BF2DE9F04FBE4F002493
:1015B800BE4D8DB0037007F1400342608046164669
:1015C8008946202221463846C5F88835C5F88475ED
:1015D800CDE90244CDE90444CDE90644CDE9084407
:1015E800CDE90A4410F09AFD2022214605F2625006
:1015F800C5F85145C5F85545C5F85945C5F85D457F
:1016080010F08CFD85F85065D8F8043085F86846E8
:10161800002B62D005F5AA6A09F1500B264609EBA2
:10162800040128195222013610F06AFD4FF0000318
:1016380027F8023B1BF804300AF8013F002B70D052
:10164800D8F804304FF0010254349E4285F86826D9
:10165800E5D3974A082195F850350026C5F88C251A
:101668004FF4802293480027C5F8A4350023C5F815
:1016780090250122C5F89C1595F86816C5F894358B
:1016880085F8A035C5F89825C0E9006700293ED03F
:10169800C5F8B82585F8A13585F8A835002298F849
:1016A8000030C5F8BC25C5F8C025002B40D0012264
:1016B80000200121013B85F8C4257F4AC2E90001C9
:1016C800082B37D8DFE813F0BD00C200C700CC00F4
:1016D800D100D600DB00E100E800C5F89435F6B289
:1016E80085F8A0350020724B0021C5F8A465C5F81F
:1016F8008C354FF48023C5F890350123C5F898350B
:101708000823C5F89C3505F5B663C3E90001012334
:1017180085F8A135002385F8A8350323C5F8B83521
:10172800BCE7D8F804305434B3423FF678AF90E7BA
:1017380085F8C435614803F03BFA034608B1FFBE9B
:10174800FEE702A95D48029303F092FB04460028D5
:1017580075D1042340F2FF720A90CDE9082395F869
:101768005035002B00F0F58006234FF05409019303
:1017780009FB045393F85130072B07D8DFE803F02F
:10178800595C5653504D4A040723079326B206EB7B
:101798004606C6EBC60605EB8608B700404600F0CD
:1017A80099FC09FB045393F85030042B00F3AD80E7
:1017B800022B00F3C08000F0BC802B19002283F8B4
:1017C800402515F8262098F80130002A7CD0022AF6
:1017D80000F08D80012A40F0B480012B00F0B38026
:1017E800002B374B18BF0023059305A9019B3348ED
:1017F800069302F019FD002840F0AE80013495F8F8
:101808005035E4B2A34240F2A4802E4B53F8243062
:101818000193ADE706230793B8E705230793B5E7D8
:1018280004230793B2E703230793AFE70223079341
:10183800ACE700230793A9E701230793A6E7FFBEB8
:10184800FEE70320402142E9020173E707206021F7
:1018580042E902016EE70F20802142E9020169E7AF
:101868001F20A02142E9020164E73F20C02142E98C
:1018780002015FE77F20E02142E902015AE7FF20E9
:101888004FF4807142E9020154E740F2FF104FF42F
:10189800907142E902014DE740F2FF304FF4A07128
:1018A80042E9020146E700BFC040003000070020BF
:1018B80000200240B00C0020D00C00208C0C00202E
:1018C8000002B025BC210124062B36D0072B3CD0C2
:1018D800022B49D0032B49D0002B4BD0012B47D0EA
:1018E800042B49D0052B254B18BF00237CE7042B7C
:1018F80025D0052B2BD08BB3012B31D0022B31D027
:10190800032B1F4B18BF00236EE70323143705EB87
:10191800040B4FF0000A2F448BF8403538460AF183
:10192800010A00F0D7FB9BF8403514375345F5DC26
:1019380047E70123EAE70223E8E7124B54E7124B93
:1019480052E7002350E7114B4EE7114B4CE7114B80
:101958004AE70DB0BDE8F08FFFBEFEE70E4B43E748
:101968000E4B41E70E4B3FE70E4B3DE70E4B3BE777
:101978000E4B39E70E4B37E70E4B35E70000B84FF3
:10198800002090360800900C1000C0102000F014C1
:101998008000501D000180210004002A0008302E1C
:1019A800001060320040C03A0080F03E000052470C
:1019B800000021430000844B38B5094C40F2FF7207
:1019C8004FF0011104F28C55284603F0FFF994F802
:1019D8005025D4F884152846BDE8384002F016BFD3
:1019E80000070020014802F0DDBF00BF8C0C00207A
:1019F800034B0F29D3F8840598BF00EB41007047CB
:101A080000070020244B02689A4200D07047234AFE
:101A180000232348D2F8D81030B5224C41F02001D9
:101A280083B0C4F8F0050920C4F8F83504F5BE659C
:101A3800C4F8F4054FF48060C2F8D8104FF4006180
:101A4800D2F8D820C4F8000694F8680602F02002FC
:101A5800C4F8FC3598420192C4F804164FF40051BA
:101A6800C4F810362846C4F81436019B14BF002366
:101A78004FF48073C4F80816C4F80C3603F024FE3B
:101A880008B1FFBEFEE704F28C53C4F8D855C4F879
:101A9800283603B030BD00BF002002400044025881
:101AA8004000024000070020014804F05FBC00BF6E
:101AB800F00C002002682DE9F84F504B9A4201D0F3
:101AC800BDE8F88F4E4D95F86836002BF8D095F89C
:101AD8005035002B7BD0002405F13C0905F26256F5
:101AE80005F5AA67A04613E003F0010117F811BC39
:101AF800A9F1280000F0BEFCBBF1010F25D895F82C
:101B08005035013409F154090236A2B293422BD957
:101B180017F8012F002AF4D0D5F88435002132783F
:101B280033F81400D5F8883503EB041323F81200B2
:101B3800338801339BB233805FFA83FA3A789A424A
:101B4800D2D88A46A6F80080D0E7CAF34001A9F1A6
:101B5800140000F08FFCBBF1020FCAF38001CED055
:101B6800484600F087FCCAE7002395F8680625492F
:101B780009229842C5F8F8354FF48060C5F8F01589
:101B8800C5F8F4254FF400614FF40052C5F8FC3550
:101B980008BF4FF48073C5F80006C5F80416C5F8E9
:101BA800082600221848C5F80C36C5F81026C5F8CE
:101BB800142603F089FD08B1FFBEFEE795F850250D
:101BC800D5F884151148BDE8F84F02F01FBE0D493D
:101BD80009224FF48060C5F8F835C5F8F0154FF4C0
:101BE8000061C5F8F4254FF40052C5F8FC35C5F876
:101BF8000006C5F80416C5F80826D2E700200240FA
:101C08000007002040000240F00C00208C0C00204F
:101C1800704700BF0C4B4FF60B71002203F5A8600C
:101C28001980DA6099821A6219855A6399879A64C9
:101C3800C3E90122C3E90622C3E90B22C3E9102242
:101C480054339842ECD1704700070020504B02688B
:101C58009A4200D070474F4BD3F8E81030B541F0A6
:101C680000514D4C87B0D4F85421C3F8E810D3F88C
:101C7800E81001F0005104910499D3F8E01041F004
:101C88000101C3F8E010D3F8E03003F00103059335
:101C9800059B32F002033DD0013A012A6CD9D4F8F1
:101CA8005831012B0AD000223620114603F05AF988
:101CB800362007B0BDE8304003F092B9D4F854316B
:101CC80033F0020235D0013B012BECD844224023EB
:101CD8003249334DC4F88C1000212846C4F8B0109E
:101CE800C4E9242300224FF48063C4E926234FF477
:101CF80000624FF40053C4E928234FF480724FF474
:101D08008033C4E92A2303F0DFFC88B9E560C4F80E
:101D1800C440C8E74FF48061032204F5BA70009309
:101D2800ADF80C10039900F0B3FAD4F85421B3E7D6
:101D3800FEE71C4BA2634322636140231A4DC4E9AA
:101D4800062300224FF480632846C4E908234FF491
:101D580000624FF40053C4E90A234FF480724FF431
:101D68008033C4E90C2303F0AFFC20B9D4F8543114
:101D7800A560E464A7E7FEE74FF4A061002303220F
:101D88000A48ADF80C100399009300F081FA86E731
:101D98000074004000440258700D002028040240DE
:101DA800FC0D002010040240840D0020F80E0020D5
:101DB800014804F0DBBA00BF840D0020014804F09C
:101DC800D5BA00BFFC0D002010B5054C204603F025
:101DD80095FA04F58270BDE810400AF0BFBB00BF59
:101DE800700D0020164BD3F85421D3F86411022A41
:101DF8004FEA510130B583B00CD088B2D3F86821CE
:101E0800D3F8704102EB400300930CB16846A04739
:101E180003B030BDD3F86C21002AF9D088B2D3F8CA
:101E28006841D3F8705104EB400402EB4002CDE95D
:101E38000042002DECD06846A84703B030BD00BF73
:101E4800700D0020134BD3F85421022A10B582B02C
:101E58000CD0D3F86811D3F87021009122B1D3F8CF
:101E6800641168464908904702B010BDD3F86C2148
:101E7800002AF9D0D3F86811D3F87041CDE90012DF
:101E8800002CF1D0D3F8641168464908A04702B085
:101E980010BD00BF700D0020094BD3F85421022A51
:101EA8000DD000B5D3E95B1283B0019122B1D3F80C
:101EB800641101A84908904703B05DF804FB704716
:101EC800700D00200B4BD3F85421022A10D0D3F800
:101ED800641110B5D3E95B24C1F34F0382B04908FC
:101EE80002EB430301930CB101A8A04702B010BD57
:101EF800704700BF700D002030B58C463A4C3B4D02
:101F08008DB0046004F5A87EBCE80F00AEE80F00B1
:101F1800DCF8003020462560CEF8003003F000F9E8
:101F28000023D4F858510393CDB11622012D049201
:101F380018D00022D4F860110125D4F85431914208
:101F4800CDE9065218BF0222059233F0020235D0BD
:101F5800013B012B3DD9002528460DB030BD022399
:101F68000493E6E7224A0093C4F80C31C4F814310C
:101F7800C4F80421C4F81C31CDE9013301F04EFF47
:101F8800D4F850314BF68032C4F80851002B08BF02
:101F98001346B0FBF3F304F58270C4F810310AF06D
:101FA8009FF80028D8D120230290694604F5827052
:101FB80000930AF07DFB0028BBD0CDE703A90A48AF
:101FC80003F0D0F90028C7D1D4F85431013B012BD4
:101FD800C1D8102203A9044803F0C4F9051E18BF8C
:101FE800012528460DB030BD700D0020007400405A
:101FF8000010004070B504681D4682B01046D4F841
:102008005831012B03D0D4F85431022B24D1D4F801
:102018005C31069A002BC4F86811C4F870212B466D
:102028000CBF08260026C4F86C010A46C4F864519F
:1020380000212046009603F089F8D4F86C212B463D
:1020480010212046009603F081F804F582700AF00A
:10205800FDF8002002B070BD012002B070BD00BFC5
:1020680010B50468D4F85831012B09D1D4F854318B
:1020780033F0020106D0013B012B0BD9002010BD23
:10208800012010BD204603F0EDF8D4F85431013B8F
:10209800012BF3D81021204603F0E4F8002010BDEE
:1020A8009FED097B0A4B00224FF60B71C3F8802184
:1020B800C3F88C21A3F87411A3F8881183ED5E7B13
:1020C800C3E96422704700BF000000000000000060
:1020D800700D002003780B2B2DD042780F2A2AD8B8
:1020E8004168022910B590B03ED0032902D00129D9
:1020F80000D000210C918168012902D0022918BF63
:1021080000210D91C168022904D0032902D00129B8
:1021180018BF00210A2B0E910ED85B4C04EB8324C8
:1021280004610A2B17D8DFE803F009A092847668C7
:102138005A4C3E30220070470024F1E7534BD3F845
:10214800E01041F00101C3F8E010D3F8E03003F0EB
:1021580001030093009B01230BA9204693400B9396
:1021680004F056FC10B010BD11210C91C3E7474B89
:10217800D3F8E01041F48061C3F8E010D3F8E03000
:1021880003F480630A930A9BE5E7404BD3F8E01019
:1021980041F40071C3F8E010D3F8E03003F40073A1
:1021A8000993099BD7E7394BD3F8E01041F48071C4
:1021B800C3F8E010D3F8E03003F480730893089B69
:1021C800C9E7324BD3F8E01041F08001C3F8E010C2
:1021D800D3F8E03003F080030793079BBBE72B4B52
:1021E800D3F8E01041F04001C3F8E010D3F8E03034
:1021F80003F040030693069BADE7244BD3F8E010A9
:1022080041F02001C3F8E010D3F8E03003F02003D8
:102218000593059B9FE71D4BD3F8E01041F0100193
:10222800C3F8E010D3F8E03003F010030493049BE4
:1022380091E7164BD3F8E01041F00801C3F8E0101D
:10224800D3F8E03003F008030393039B83E70F4BB5
:10225800D3F8E01041F00401C3F8E010D3F8E030FF
:1022680003F004030293029B75E7084BD3F8E010D0
:1022780041F00201C3F8E010D3F8E03003F00203A4
:102288000193019B67E700BF000002580044025811
:1022980010B592B0ADF804100180C9B2149C0B2996
:1022A800C460C0E901233FD090F801C0BCF10F0F12
:1022B8003AD8022A3FD0032A02D0012A00D00022AD
:1022C8000E92012B02D0022B18BF0023022C0F9371
:1022D8002CD0032C2AD0012C28D000230A291093B3
:1022E80027D85C4A02EB812202610A2914D8DFE868
:1022F80001F0A39587796B5D4F4133250600564B56
:10230800D3F8E01041F48061C3F8E010D3F8E0306E
:1023180003F480630C930C9B01230DA9104603FA68
:102328000CF30D9304F074FB12B010BD0A2910943D
:10233800D7D90022D8E711220E92C2E7464BD3F82C
:10234800E01041F40071C3F8E010D3F8E03003F472
:1023580000730B930B9BDFE73F4BD3F8E01041F47E
:102368008071C3F8E010D3F8E03003F480730A9367
:102378000A9BD1E7384BD3F8E01041F08001C3F84D
:10238800E010D3F8E03003F080030993099BC3E71A
:10239800314BD3F8E01041F04001C3F8E010D3F816
:1023A800E03003F040030893089BB5E72A4BD3F8C5
:1023B800E01041F02001C3F8E010D3F8E03003F05A
:1023C80020030793079BA7E7234BD3F8E01041F0BE
:1023D8001001C3F8E010D3F8E03003F010030693BF
:1023E800069B99E71C4BD3F8E01041F00801C3F8AD
:1023F800E010D3F8E03003F008030593059B8BE762
:10240800154BD3F8E01041F00401C3F8E010D3F8FD
:10241800E03003F004030493049B7DE70E4BD3F8EC
:10242800E01041F00201C3F8E010D3F8E03003F007
:1024380002030393039B6FE7074BD3F8E01041F0C7
:102448000101C3F8E010D3F8E03003F00103029370
:10245800029B61E7000002580044025808B50121B8
:1024680043780069994089B204F0D4FC003818BF59
:10247800012008BD01230A464178006903FA01F1E9
:1024880089B204F0CDBC00BF10B5002386B012227B
:1024980004460493CDE902230368022B1FDC002BBA
:1024A80001DB0423059323790A2B1FD8114800EB7D
:1024B80083206279012301A99340019304F0A8FACB
:1024C800A3790A2B14D80B4800EB8320E279012367
:1024D80001A99340019304F09BFA06B010BD032BA9
:1024E800E1D10623059323790A2BDFD90020E0E701
:1024F8000020EBE700000258634A0368934210B5D6
:102508008CB028D0614A934258D0614A934200F077
:102518009480604A934201D00CB010BD5E4C5F4875
:10252800D4F8E03043F00203C4F8E030D4F8E030E7
:1025380003F002030A930A9BFFF7A6FFD4F8F430CE
:1025480043F08003C4F8F430D4F8F43003F0800387
:102558000B930B9BE0E7504C5148D4F8E03043F024
:102568000203C4F8E030D4F8E03003F0020301932A
:10257800019BFFF789FFD4F8E83000221F2043F4BD
:1025880000131146C4F8E830D4F8E83003F4001317
:102598000293029BD4F8D83043F00103C4F8D83032
:1025A800D4F8D83003F001030393039B02F0DAFC5C
:1025B8001F200CB0BDE8104002F012BD364C39485F
:1025C800D4F8E03043F08003C4F8E030D4F8E030C9
:1025D80003F080030493049BD4F8E03043F0020333
:1025E800C4F8E030D4F8E03003F002030593059B0B
:1025F800FFF74AFFD4F8E8300022212043F4800393
:102608001146C4F8E830D4F8E83003F480030693A0
:10261800069BD4F8D83043F00103C4F8D830D4F876
:10262800D83003F001030793079B02F09BFC21209D
:102638000CB0BDE8104002F0D3BC1B48FFF724FFE4
:10264800154B00224820D3F8E840114644F4000412
:10265800C3F8E840D3F8E84004F400040894089C60
:10266800D3F8D84044F00104C3F8D840D3F8D830A0
:1026780003F001030993099B02F074FC48200CB095
:10268800BDE8104002F0ACBC0054004000580040C7
:10269800005C0040001C005800440258B0110020A3
:1026A800100F0020F00F0020D01000202DE9F0437B
:1026B8001A4B87B000254FF010099E46EC46184B80
:1026C800FF22E04667461A700EF118060EF1300434
:1026D800CDE90055CDE90255ADF80090BCE80F00F2
:1026E800CDE90455AEE80F009CE803000095ADF86D
:1026F80000908EE80300B8E80F000FC69CE80300BE
:102708000095ADF8009086E803000FCF0FC49CE851
:10271800030084E8030007B0BDE8F083040000204C
:102728000C0F002010B5EFF3108472B6084B1A781E
:10273800120602D504B962B610BD1878054B40B22E
:10274800C0EBC00003EB4010143003F00FFEF1E7BC
:102758000C0F0020100F0020014805F04DBC00BFF1
:102768009C0F0020014805F047BC00BF7C100020EA
:10277800014805F041BC00BF5C1100202DE9F04381
:102788000D6885B0404EC5EBC503032D4FEA4317CE
:1027980006EB4313036041DCCA680C46012A3DD8A6
:1027A8004FEAC5084CD020689C466168A8EB05092B
:1027B800A2680DF1100EE36806EB4919ACE80F00AA
:1027C800324B227C8CF80020D9F808C00FCB0EE9D8
:1027D8000F000EEB8503BCF1010F53F8103CC9F84C
:1027E8008C3032D0BCF1020F43D0BCF1000F36D090
:1027F800227C8C37A8EB050500233744520006EBF2
:10280800451601213846C6F8AC30C6E92521C6E987
:102818002733C6E9293305F0FFF818B1012005B0C0
:10282800BDE8F0830146384605F0F2FB0028F5D1F3
:102838000146384605F016FC003818BF0120EEE7BF
:102848000A7C103A672AAED9E8E701F0E5FA104B9E
:1028580098420CBF0F4B104BC9F89030C8E701F0F5
:10286800DBFA0B4B98420CBF0C4B0D4BC9F8903060
:10287800BEE701F0D1FA064B98420CBF094B0A4B50
:10288800C9F89030B4E700BF100F00205C21012484
:10289800000E27072D0FB0303211D0205F43906013
:1028A8008A62E030200BA0101A0980102DE9F0414F
:1028B800046884B09846E368BDF82C70CBB90D461F
:1028C80016468C34204605F09FFB2028FAD1204676
:1028D8000C9C69004346324689B2CDE901740A9CD2
:1028E800009405F023FA003818BF012004B0BDE8B1
:1028F800F081012004B0BDE8F08100BF2DE9F0416E
:10290800046884B09846E368BDF82C70CBB90D46CE
:1029180016468C34204605F077FB2028FAD120464D
:102928000C9C69004346324689B2CDE901740A9C81
:10293800009405F0C7F8003818BF012004B0BDE8BE
:10294800F081012004B0BDE8F08100BF094B6FF0B1
:10295800F41110225960C3F8E4101A7483F8F020B7
:10296800C3F8C41183F8D021C3F8A41283F8B022A5
:10297800704700BF100F002030B5002395B04FF40A
:102988008071062204460B9306921393CDE90C132B
:10299800CDE90E33CDE9113301F042FA07282BD0E7
:1029A80004F1100541F2883206A9284606F098FB82
:1029B80028B10123184684F85C3015B030BD0222D6
:1029C800022306A92846CDE9002310220123CDE9D8
:1029D800022300224FF48003CDE9042305224FF09F
:1029E800807306926A460F9341F2883306F0E4FC3E
:1029F8000028DED115B030BD0323012084F85C30F7
:102A080015B030BD0000000070B50023A4B04FF031
:102A180080724FF480750446ADF806300D93CDE909
:102A280010320122CDE90E53CDE91223CDE914333A
:102A3800002943D0F02300F1100508AEADF80630A8
:102A4800C02341F2883231462846089306F048FBF5
:102A580028B10123184684F85C3024B070BD41F2D7
:102A680088320DF10601284606F0A4FB034600282B
:102A7800EFD105224FF480711E93284616924FF02D
:102A880080721B9321931F9202AA9FED1F7BCDE9B1
:102A98001C13CDE922338DED027B9FED1D7B41F2A6
:102AA800883316A98DED047B9FED1B7B8DED067B8E
:102AB80006F082FC0028CCD124B070BD00F11005CE
:102AC80008AE612341F2883231462846089306F061
:102AD80007FB0028BDD141F288320DF106012846D6
:102AE80006F0E6FB0028B4D1BDF80630204623F0F6
:102AF800780343F04003ADF80630FFF73DFF0028A8
:102B08009ED0A6E7AFF3008000000000010000009F
:102B1800100000000100000000000000000040005C
:102B28002DE9F04F00234FF4807501264FF080788F
:102B380004462DED028BABB08DF80730139321932B
:102B4800299314950E96CDF85C80CDE91533CDE91F
:102B58001863CDE91A33CDE92253CDE92433CDE901
:102B6800273306231C9301F05BF9072808D004F1EA
:102B7800100741F288321CA9384606F0B1FA40B174
:102B88000123184684F85C302BB0BDEC028BBDE8FD
:102B9800F08F4FF0020A4FF0020B4FF0050941F297
:102BA800883308AA1CA93846CDF89480CDF87090CF
:102BB8009FED2F8BCDE908AB4FF0000A4FF4800B47
:102BC8008DED0A8BCDE90CAB06F0F6FB0028D7D1CA
:102BD80041F2883238460EA906F082FA0028CFD191
:102BE800402341F288320DF1070138468DF807304D
:102BF80006F0E0FA0028C3D141F288330EA902AAF0
:102C08003846CDF83890CDF85C809FED1B7BCDE938
:102C180006AB8DED027B9FED1A7B8DED047B06F0F4
:102C2800CBFB03460028ABD1CDF870904FF00109DB
:102C3800CDF894804FF00008219308AA29931CA985
:102C480038462295CDE92333CDE9273341F288333D
:102C58008DED0A8BCDE90CABCDE9088906F0ACFB0C
:102C6800002891D0304684F85C608DE7AFF300808F
:102C780010000000010000004000000043000000B8
:102C880000800000010000002DE9F04F00234FF400
:102C9800807601254FF0807804462DED028BABB08D
:102CA800CDE9153313932193299314960E95CDF8F6
:102CB8005C80CDE91853CDE91A33CDE92263CDE91B
:102CC8002433CDE9273306231C9301F0A9F80728FC
:102CD80008D004F1100741F288321CA9384606F0E2
:102CE800FFF940B10123184684F85C302BB0BDECE5
:102CF800028BBDE8F08F4FF0020A4FF0020B4FF045
:102D0800050941F2883308AA1CA93846CDF89480F1
:102D1800CDF870909FED308BCDE908AB4FF0000AED
:102D28004FF4800B8DED0A8BCDE90CAB06F044FB1C
:102D38000028D7D141F2883238460EA906F0D0F9DA
:102D48000028CFD1402341F288320DF107013846DF
:102D58008DF8073006F02EFA0028C3D19DF8073009
:102D680008AA0C90FF2008934FF400430EA90B9576
:102D7800CDF83890CDF85C80CDE909034FF4800395
:102D880038460D9341F2883306F016FB03460028B7
:102D9800A8D10022219329931CA938462296CDF860
:102DA8007090CDF89480CDE92333CDE92733012302
:102DB800CDE9022341F2883302AA8DED048BCDE9D7
:102DC80006AB06F0F9FA002890D0284684F85C5043
:102DD8008CE700BFAFF30080100000000100000086
:102DE80070B50122AAB004460D465F48C02104F020
:102DF80017F800265D4B06965B4895FAA5F5CDE9D0
:102E08000466D3F8E02042F02002C3F8E020C02294
:102E1800D3F8E03003F0200301930123019902A9BC
:102E2800CDE9022303F0F4FD142001F099F93246AC
:102E3800C0214D4803F0F4FF142001F091F901225C
:102E4800C021494803F0ECFF142001F089F901235F
:102E5800474AE6612261C4E90533002D77D0B5FA07
:102E680085F1013900234FF4807604F11005C4E997
:102E780008162846C4E90B3306F0C4F830B101231C
:102E88001D4684F85C3028462AB070BD662316902B
:102E9800179041F2883213900EA91B900E93CDE93A
:102EA8001460CDE91900284606F01AF90028E6D181
:102EB80099230EA941F2883228460E9306F010F99C
:102EC8000028DCD105230121249008AA219027900D
:102ED8001C934FF08073CDE92260CDE928001020C3
:102EE800259341F28833CDE90A019FED1D7B00202F
:102EF8004FF48001CDE90C011CA928468DED087B13
:102F080006F05AFA0028BAD12046FFF7BDFE00287D
:102F1800B5D1284606F0D2F805460028AFD1237966
:102F28000A2B18D963790121994003F0ABFEA379E4
:102F38000A2B0ED80F4800EB83200126E17906FA08
:102F480001F103F09FFE266684F864609BE71F2169
:102F580088E70020F1E7074800EB8320E2E700BF9D
:102F6800000000000100000000140258004402584C
:102F780000500052000002582DE9F041684CA2B000
:102F88000D46046000F04CFF07284BD02868234604
:102F9800AA68696807C3AA89184620F8042B267B03
:102FA800677B06F08BF8002834D1012E94F8643042
:102FB80014BF4FF480154FF400052366002B39D059
:102FC800584B95FAA5F523610123C4E9053300237D
:102FD800E361002D6ED0B5FA85F1013900234FF475
:102FE80080785148C4E90818C4E90B3306F00AF898
:102FF80080B966230B90139041F2883206A9069394
:10300800CDE90C80CDE90E00CDE91100464806F067
:1030180067F8A0B101231D4684F85C30284622B029
:10302800BDE8F08101250323284684F85C3022B0EE
:10303800BDE8F08129462046FFF7D2FEC0E7992374
:1030480041F2883206A93848069306F049F8002864
:10305800E0D105231C9019906A4614934FF08073B1
:10306800219014A91D9341F288339FED277BCDE968
:103078001A80CDE91F008DED007B9FED257B2A4846
:103088008DED027B9FED247B8DED047B06F094F99A
:103098000028BFD131462248FFF7B6FC0028B9D135
:1030A8001F48FFF73DFD05460028B3D127B102238D
:1030B8002366B3E71F2191E7EB230026002718902A
:1030C80014934FF440631F9006AA1B934FF40053C8
:1030D800209014A917934FF4404313481C93A0233E
:1030E800CDF868801693062319934FF080532193E7
:1030F8004FF04073CDE906671D9306F0D5F9002817
:10310800D5D087E7AFF30080000000000100000081
:103118001000000001000000000000000000400056
:103128009012002000500052A01200205E4B02684E
:103138002DE9F0419A428CB04FF00004CDE90744E4
:10314800CDE909440B9402D00CB0BDE8F081574B8F
:10315800574DD3F8D420574F42F48042564EDFF8EB
:103168005C81C3F8D420D3F8D42002F480420092C2
:10317800009ADA6F42F48042DA67DA6F22F480420A
:10318800DA67D3F8E02042F04002C3F8E020D3F831
:10319800E02002F040020192019AD3F8E02042F0C8
:1031A8002002C3F8E020D3F8E02002F020020292C7
:1031B800029AD3F8E02042F01002C3F8E020D3F8D6
:1031C800E02002F010020392039AD3F8E02042F0C4
:1031D8000202C3F8E020D3F8E03003F002030493BE
:1031E800049B22E014F0FC0252D103F1200155F8AF
:1031F800211008780A2839D891F801C001210992CC
:1032080007EB802201FA0CF107910221CDF8148016
:10321800089103210A910CA90B4413F81C3C07A937
:10322800104601340B9303F0F3FB2A6EE3B2002A35
:10323800D8D0052B2CD803F11A0255F822100A7899
:103248000A2A18D9497801228A40022107920022C5
:10325800CDE9081203210A910CA90B4496E8030052
:103268000590ADF8181013F81C3CD8E748780121F0
:1032780009928140C8E74878012107EB8222814002
:10328800022007910021CDE9080103210A91E3E713
:1032980000225C20114601F065FE5C2001F0A0FED2
:1032A8000CB0BDE8F08100BF005000520044025845
:1032B8009012002000000258FC2101240A0A090A81
:1032C8000268F8B5194B9A4200D0F8BD184A002494
:1032D800184F0125D2F8D430174E23F48043C2F892
:1032E800D43011E014F0FC0F1BD157F821301A78B4
:1032F8000020597801340A2A05FA01F198BF06EB33
:10330800822089B203F0BEFCE3B23A6E03F12001D9
:10331800002AE7D0052B03F11A0202D857F8223009
:10332800E5E75C20BDE8F84001F068BE00500052B7
:10333800004402589012002000000258014806F08C
:103348003FB900BFA01200200E4B6FF0F41200210D
:10335800981C30B41C1D9D1D9A605D671C67C3E9ED
:103368000022C3E9181103F10A0203F1080130BC75
:10337800C3E91A30C3E91E12C3E92030C3E9221297
:10338800704700BF9012002038B5036871B9026A0F
:1033980000F1280500F5AC74012A0CBF002140217A
:1033A8008BBB1D4B5722C0F858310DE0426A00F123
:1033B800C00500F5E874012A0CBF00214021EBB1DB
:1033C800164B5A22C0F8D03100232046C4E9012107
:1033D8004FF480524FF48061636262614FF480421F
:1033E800C4E903314FF48073C4E906234FF4003372
:1033F800236202F069F958B1FFBEFEE7084B582274
:10340800C0F8D031E0E7074B5922C0F85831DBE764
:10341800C5E92044A56338BD100002407000024091
:1034280028000240580002402DE9F043C28889B0C4
:1034380081468388ADF800200089B9F80A10B9F8E8
:103448000C20ADF80230D9F81830ADF80400ADF80A
:103458000610ADF80820002B3FD0D9F81C70B7FA39
:1034680087F77F09012502236C460DF10A06DFF86C
:1034780070800695CDE9043599F8042020788242B9
:10348800627818D0D9F80010F9B1012902D1F8B141
:103498000A2107910A2805FA02F203A994BF08EB4A
:1034A80080200020039203F0B3FA0234A642E3D14D
:1034B80009B0BDE8F08399F805109142E2D1002FD8
:1034C800F3D0D9F800100029DFD106210791E1E7F0
:1034D800022A0CBF08210A21DBE70127C2E700BF47
:1034E80000000258534A0368934230B505468BB032
:1034F80055D02032934252D04F4A934204D02032C2
:10350800934201D00BB030BD4C4C4D48D4F8E0305C
:1035180043F00103C4F8E030D4F8E03003F00103CD
:103528000593059BD4F8E03043F00803C4F8E03075
:10353800D4F8E03003F008030693069BD4F8E03093
:1035480043F04003C4F8E030D4F8E03003F040031F
:103558000793079BD4F8F03043F40003C4F8F03025
:10356800D4F8F03003F400030893089BFFF75CFFDE
:10357800D4F8D830296843F001032F4A3048C4F8FA
:10358800D830891AD4F8D83018BF012103F00103C4
:103598000993099B0BB0BDE83040FFF7F5BE274CF7
:1035A8002848D4F8E03043F00103C4F8E030D4F8F8
:1035B800E03003F001030093009BD4F8E03043F0BF
:1035C8001003C4F8E030D4F8E03003F0100301939E
:1035D800019BD4F8E03043F04003C4F8E030D4F85D
:1035E800E03003F040030293029BD4F8F03043F438
:1035F8008003C4F8F030D4F8F03003F48003039368
:10360800039BFFF711FFD4F8D830296843F0010372
:10361800084A0C48C4F8D830891AD4F8D83018BFEA
:10362800012103F001030493049B0BB0BDE8304073
:10363800FFF7AABE04580140045C01400044025848
:103648007C15002020130020014802F08FBE00BF27
:1036580078140020014802F089BE00BFF014002051
:10366800014802F083BE00BFD4160020014802F0D2
:103678007DBE00BF4C1700202DE9F0470C684FF4C1
:103688001776774F86B004FB06F6012C07EB060881
:10369800C0F8008000F39F8000230D468E46C44684
:1036A800C8F85032C8E9923369A3D3E900236AA164
:1036B800D1E90001CDE9022306AB03EB8403CDE990
:1036C800040153F810AC53F8089CBEE80F00ACE8AE
:1036D8000F00BEE80F00ACE80F009EE80300C8F832
:1036E80028A0C8F8C0908CE803002B69042B0CD8DC
:1036F800DFE803F078828C9603004FF41773594A79
:1037080003FB04739A64C3F8E020AA692B6A002AB1
:1037180042D0002B4FF4177308BF022203FB047337
:1037280018BF0322DA6201221A63EA696B6A002A67
:103738003FD1191E4FF4177318BF012103FB0473FF
:10374800C3E931126969012943D0022947D1032508
:1037580000214FF4177306F128002A46019103FB54
:103768000473002438445C645C63DC65C3F8DC40A3
:10377800C3F8CC40C3F8F440C3E90F44C3E9154487
:10378800C3E93544C3E93B44022308F01FFB019910
:1037980000284FD0FFBEFEE7191E4FF4177318BF5D
:1037A800012103FB0473C3E90B12EA696B6A002A5F
:1037B800BFD0002B4FF417730CBF0222032203FB68
:1037C8000473C3F8C4200122C3F8C8206969012919
:1037D800BBD10225BDE7012006B0BDE8F087002572
:1037E8002946B6E74FF417734FF4FA5203FB0473F4
:1037F8009A64C3F8E02088E74FF417734FF47A52BD
:1038080003FB04739A64C3F8E0207EE74FF4177350
:103818004FF4FA4203FB04739A64C3F8E02074E798
:103828004FF417734BF6803203FB04739A64C3F8A2
:10383800E0206AE706F1C00002232A46384408F06F
:10384800C5FA0028C8D0FFBEFEE700BFAFF300806E
:1038580004580140045C014024580140245C0140A4
:1038680020130020007701000068704710B5046835
:1038780004F1280008F064FB04F1C00008F060FBC4
:10388800002010BD03681B69042B05D8044A02EB0D
:10389800830393ED000A70479FED020A704700BF4B
:1038A8000422012400803B47064B6FF0F4124FF6C8
:1038B8000B71C3E901229981A3F86812C3E9982220
:1038C800704700BF20130020704700BF08B500F004
:1038D80035FCBDE8084001F01FBC00BF064808B52C
:1038E80003680BB103F0A0FA044803681BB1BDE8F4
:1038F800084004F0E3BB08BDF01C0020E0170020DE
:10390800064808B503680BB103F08EFA044803684B
:103918001BB1BDE8084004F0D1BB08BDF01C002075
:10392800E0170020064808B503680BB103F07CFADD
:10393800044803681BB1BDE8084004F0BFBB08BDDC
:10394800F01C0020E0170020364BDA6A520062D5DE
:103958009A6A9A6A9A6A9B6A180600D500BE314B21
:103968009B6A990600D500BE2E4B9B6ADA0600D5E5
:1039780000BE2C4B9B6A1B0700D500BE294B9B6AD7
:10398800980700D500BE274B9B6AD90700D500BE13
:10399800244B9B6A1A0400D500BE224B9B6A9B04E9
:1039A80000D500BE1F4B9B6AD80400D500BE1D4B36
:1039B8009B6A190500D500BE1A4B9B6A5A0500D5AB
:1039C80000BE184B9B6A9B0500D500BE154B9B6A31
:1039D800D80500D500BE134B9B6A990100D500BEDF
:1039E800104B9B6ADA0100D500BE0E4B9B6A1B0385
:1039F80000D500BE0B4B9B6A580300D500BE094B8F
:103A08009B6A990300D500BE064B9B6ADA0306D46D
:103A180000BE00BEFEE7DB6A9B07FAD5F8E700BEEA
:103A2800F6E700BF00ED00E000F094BB00F098BBA3
:103A3800B0B1431E022B12D81F4B9B6803F1784389
:103A4800B3F5003F0BD3022831D003282BD11B4BF1
:103A58001B4A1A601B4B00221A6601F0E3BA704732
:103A680000B540F2063189B04FF60B720346ADF847
:103A7800081002990090ADF80C2001220690CDE9BB
:103A8800040003A8FEF704FC03A80121FEF7F2FCDA
:103A98000A2000F065FB0B4B00221A6609B05DF89E
:103AA80004EB01F0BFBA054B00221A60D2E7034BC2
:103AB800054A1A60CEE700BF00ED00E0000080383C
:103AC800FA4E07B00044025807B0FE5A0A4B9B68EA
:103AD80003F17843B3F5003F0BD3084B986848B11E
:103AE8009868012806D09868022803D09B680320AC
:103AF80070470120704700BF00ED00E000008038EB
:103B08002DE9F041CEB004464C2200210AA80EF05F
:103B180005FB2022002102A80EF000FBC022002194
:103B28001EA80EF0FBFA022005F086F92368012B87
:103B38004FF0000354D0584A02250193C820D16A97
:103B4800564B21F00101D162D26A02F001020192C2
:103B58009A6942F440429A619B6903F44043019395
:103B6800019B4E4A93699B04FCD54D4902240022CF
:103B780001268B6A04274FF0080823F00303234328
:103B88008B62052316900AA818934FF48033109679
:103B9800179419941597CDF86880CDE91B22212236
:103BA800CDE91344CDE90A2305F0AAFE00B1FEE7EA
:103BB8003F220323294602A8CDE902230022082335
:103BC800CDE9042340224023CDE9062340234FF4C6
:103BD8008062CDE9082306F02DFA0346B8B1FEE766
:103BE8002E4A04250093F02091692B4B41F4404163
:103BF8009161926902F440420092DA6A42F001024D
:103C0800DA62DB6A03F001030093009BA9E7202234
:103C180026932E9380212C924FF4805231930625BF
:103C28003F931EA8279236924FF4803225914FF485
:103C38004011329247920022289580254091102108
:103C4800CDF888802B9720962A91CDE92F3440F221
:103C5800271329934FF480632D930023CDE923463E
:103C6800CDE93C234FF480740C234494022421931F
:103C780007A3D3E90023CDE93445CDE91E2306F097
:103C8800C5FC00B1FEE705F0FBF84EB0BDE8F081D9
:103C98000F130F03000000000004005800480258EA
:103CA8000044025870B584B0012401F0E3F94FF4E0
:103CB80080764FF04052194B68460025ADF8004019
:103CC8000396CDE9012301F0F3F919224FF040439F
:103CD80068468DF8082001938DF80F40ADF80D6007
:103CE8008DF801408DF80A5001F0E2F902230B2209
:103CF80068468DF80F508DF801304FF062538DF8FB
:103D080008200193ADF80D408DF80A4001F0D0F974
:103D1800042001F0BDF904B070BD00BF0E0001031E
:103D280030B50D46044685B0D1E9000184E80300AA
:103D380000F0D4F9AB79002B63D00CF07FFBFEF7D1
:103D4800B5FC0AF031FE0CF01DF82B795BB3304C52
:103D5800636913F4803326D1C4F88430BFF34F8FDE
:103D6800D4F8801043F6E07EC1F34E3CC1F3C9019C
:103D78004FEA4C1C0CEA0E000B4640EA8372013BEA
:103D8800C4F860225A1CF8D1ACF1200C1CF1200FA9
:103D9800F0D1BFF34F8F636943F480336361BFF39E
:103DA8004F8FBFF36F8F6B79B3B1194A536913F40F
:103DB800003311D1BFF34F8FBFF36F8FC2F850326A
:103DC800BFF34F8FBFF36F8F536943F400335361D1
:103DD800BFF34F8FBFF36F8F4FF0FF3200230024E4
:103DE800002569460B4802928DF80C30CDE9004554
:103DF8000BF00EFA07480BF073FA09F071FF05B0E3
:103E080030BD2046FFF77CFE2046FFF74BFF94E7C6
:103E180000ED00E0D817002006F074BA06F0BABA30
:103E28001C4B9B6803F17842B2F5003F25D3B3F5EC
:103E3800803F20D303F16042B2F5003F1FD303F166
:103E48005C42B2F5002F1CD303F17042B2F5902FFB
:103E580019D303F14842B2F5803F16D303F18042EB
:103E6800B2F1806F13D303F1E043B3F5000F2CBF19
:103E78000820072070470120704700207047022063
:103E880070470320704704207047052070470620BC
:103E9800704700BF00ED00E003480023034A0449CF
:103EA80003600EF0F5B800BFD8170020000000200E
:103EB800D138002400F2C441D0F8080509F076BAD8
:103EC80001EBC10300EB8303D0F80805D3F888227F
:103ED80009F09CBA01EBC10300EB8303D0F8080595
:103EE8009A6C09F0CDBA00BFD0F8080509F076BB86
:103EF800016910B5044619B1022900D0FEE7012175
:103F0800D4F8080509F04AFBD4F80805BDE81040C4
:103F180009F016BB10B50446D0F8080509F042FBB5
:103F28002268D2F8003E43F00103C2F8003E236A3B
:103F380023B1034A136943F00603136110BD00BFA0
:103F480000ED00E0D0F8080509F03CBBD0F8080502
:103F580009F06ABBD0F8080509F050BBD0F808058D
:103F680009F078BBD0F8080509F076BB9446D0F87C
:103F7800C8021A4608B5634604F05AFE032802D858
:103F8800024B185C08BD032008BD00BF182201249D
:103F9800D0F8C80208B504F0CDFE032802D8024BB9
:103FA800185C08BD032008BD18220124D0F8C802F7
:103FB80008B504F003FF032802D8024B185C08BDBB
:103FC800032008BD182201240A06D0F8C83206D4F6
:103FD80001EBC10103EB810191F87E02704701F00A
:103FE8007F0101EBC10103EB810191F83E007047AD
:103FF800D0F8C80208B504F005FE032802D8024B21
:10400800185C08BD032008BD18220124D0F8C80296
:1040180008B504F06DFE032802D8024B185C08BDF1
:10402800032008BD18220124D0F8C80208B504F0FE
:104038003DFE032802D8024B185C08BD032008BDCA
:1040480018220124D0F8000309F004BED0F80003B8
:1040580009F018BED0F8000309F020BE704700BF71
:10406800D0F8000309F006BED0F8000309F006BE38
:10407800D0F8D40308B503F051FB032802D8024B4B
:10408800185C08BD022008BD1C220124704700BF2F
:104098000F4B1B780BB90120704710B504464FF43D
:1040A8007A700C4AB0FBF3F31068B0FBF3F000F041
:1040B800CBFF0F2C00D808B1012010BD00222146EB
:1040C8004FF0FF3000F04EFF034B00201C6010BD86
:1040D8004C000020740300205000002010B503207D
:1040E800124C00F02DFF05F005FF114B11499A699C
:1040F8009B69C2F3032203F00F038A5CCB5C02F0D6
:104108001F020D4903F01F03D04020FA03F3086093
:104118000E202360FFF7BCFF10B10124204610BD1C
:104128000446FFF7B3FF204610BD00BF7803002008
:10413800004402588C22012474030020034A044BD3
:1041480011681B780B441360704700BFF41F0020F0
:104158004C000020014B1868704700BFF41F002076
:1041680038B50446FFF7F6FF0546631C02D0044B3A
:104178001B781C44FFF7EEFF431BA342FAD338BD5C
:104188004C000020014B1868000C70470010005CC0
:10419800704700BF806B08B5FFF7FAFF08BD00BF86
:1041A800836B5A6D12F0500F5A6D10B51DD11968F6
:1041B80042F400725A650A6812F0080FCA681BD0E8
:1041C80012F4406F0DD1CA6894040AD45A6D22F4CF
:1041D80080725A655A6DD10403D45A6D42F00102B7
:1041E8005A651846FDF766FC10BDD2060AD4DB6C8A
:1041F800BDE81040DB6C18479007E7D01846FDF77C
:1042080059FCF1E71846FDF703FD10BD806B08B5B2
:10421800436D43F040034365836D43F004038365B6
:10422800FDF7F6FC08BD00BFF0B5002283B001928F
:1042380090F85020012A00F0B880034601201A683F
:1042480083F850009468640708D55A6D42F020023C
:104258005A65002283F8502003B0F0BD0C68002C8A
:10426800C0F2A180C4F31305002D00F0978094FAE2
:10427800A4F515B1B5FA85F5A840A40ED56928436B
:10428800D0614D681F2002F1300E04F01F04AE0902
:1042980005EA000C06F00C0600FA0CF704FA0CF418
:1042A80056F80E0020EA0700044346F80E409068CE
:1042B800400776D4956815F0080555D10C6802F1C9
:1042C800140607208F684FEAD45CC4F304540CF03A
:1042D800040C00FA04FE07FA04F4B64F5CF8060072
:1042E80020EA0E0020434CF80600386800F07040C1
:1042F800B0F1805F00F0E880D068D668C70600F1AA
:10430800EB80C6F382064869760000FA06F60F6964
:10431800042F7BD002F16004086854F827C000F02D
:10432800F8400CF0004C40EA0C00304344F82700F9
:10433800487E0E69012854F826000CBF4FF000474C
:10434800002720F00040384344F826000C7E086916
:10435800012C04D100F01F004FF40065854010695E
:1043680020F4F040054315619068C40714D4CE6862
:104378000C6806F018079048D2F8C050F840C4F30B
:104388001307204025EA07052843C2F8C0008B48D8
:10439800864257D0002C0BDB00205AE7A40EA04021
:1043A8006CE79068E0E7A40E6BE7022003B0F0BD6D
:1043B80083498A4200F0B68001F580718A4200F094
:1043C800B180804D8048A968806801F0E076C043DC
:1043D80000F00100002800F0B4807C48844200F01E
:1043E800FD807B48844200F01C817A488442D3D106
:1043F8004902D1D474498A42CED1AA68002022F059
:10440800E072324342F48002AA6022E7106E0C6820
:1044180000F0F840A506B0EB846F79D0506E00F03C
:10442800F84085426FD0906E00F0F840854274D015
:10443800D06E00F0F840854296D1D06E20F0004052
:10444800D06691E7002F4ED094FAA4F5002D00F025
:104458008C80B5FA85F0013000F01F06092E40F275
:104468008480B5FA85F580060126013500F0F8400C
:1044780094FAA4F405F01F0506FA05F50543002C87
:1044880000F0DF80B4FA84F4A0196FF01D0600F084
:104498001F04032010FB0460000540F0007028434F
:1044A800072402F11405C60DC0F3045006F00406F3
:1044B80004FA00F7745924EA07048F6807FA00F031
:1044C800204370510C6865E7D6684869C6F38206D0
:1044D800760000FA06F61AE77608486906F0080634
:1044E80000FA06F613E7A40E013404F01F06092E9D
:1044F8002DD8A506012005F0F845B040054306EB88
:1045080046000005CBE7506E20F0004050668AE771
:10451800106E20F00040106680E7906E20F000409A
:10452800906685E726482C4D00F58070A96850F8FC
:10453800F86C8068304301F0E076C04300F0010079
:1045480048E75A6D012042F020025A6581E606EBE1
:104558004600A50601241E3805F0F84504FA06F6BB
:104568000005354340F0007099E794FAA4F000285C
:104578006ED0B0FA80F00130800600F0F84094FA6E
:10458800A4F5002D62D0B5FA85F50126013505F0B0
:104598001F0506FA05F5054394FAA4F4002C52D039
:1045A800B4FA84F4013404F01F0404EB4404200535
:1045B80075E700BF0010005CFFFF0F000000FF4719
:1045C800002002400063025800600258000084CBBB
:1045D800000052C70000B8CF0023024008023FF590
:1045E800DBAE1D498A427FF4D7AE1C4A1C481268CC
:1045F800A968920921F0E071A0FB020231439209F7
:1046080041F400010132A96052000192019A002A86
:104618003FF4C2AE019A013A0192019A002AF9D1F7
:10462800BAE611F080707FF4B7AE0B498A427FF486
:10463800B3AEAA6822F0E072324342F08072AA60F8
:1046480007E608482BE74FF4401028E70225A2E7C1
:104658004FF0806093E700BF0060025874030020A9
:10466800632D3E05000050FE03689A6812F0040F9F
:104678009A6870B5044603D1120701D4002070BDB2
:10468800DA68960104D5A08A40F2011290421AD045
:1046980002299A6840D0560708D59A68900705D429
:1046A80098682D4A024042F010029A60012919D0F8
:1046B8009A68120702D59A68900734D5032914BF5F
:1046C80004250C250FE01A68500606D4234A01E099
:1046D800013A18D019684906FAD540221A609A6832
:1046E800520727D40425FFF735FD236806469B6843
:1046F8001D42C3D0FFF72EFD831B052B2368F6D977
:104708009A682A42F3D0636D012043F01003636571
:10471800A36D0343A36570BD150702D59A68920778
:1047280013D50825DFE798680B4A024042F02002BB
:104738009A60C3E79A689607D4D499680425064A0C
:104748000A4042F010029A60CDE79968024A0A408E
:1047580042F020029A60E4E7C0FFFF7F00DC0C0013
:1047680003689A68D10701D5002070479968214AE3
:10477800114270B504462CD199681F4A0A4042F08C
:1047880001029A60FFF7E6FC23681C4A054693423B
:1047980028D002F58072934224D0194A92681A6888
:1047A800D60714D4144E9A68D00704D49A683240B5
:1047B80042F001029A60FFF7CDFC431B022B2368ED
:1047C80002D91A68D10704D51A68D207EBD5002098
:1047D80070BD636D012043F010036365A36D03434F
:1047E800A36570BD074A9268D206D8D0064A93429C
:1047F800D5D1ECE73F000080C0FFFF7F00200240DA
:104808000063025800230240002102402DE9F041D4
:104818003E4D044600680F461646A84219D03C4B48
:10482800984216D03B4DAB688068420716D494F87E
:104838005020012A12D003F01F080122B8F1090FF5
:1048480084F850200DD90023012084F85030BDE8A9
:10485800F081314DAB6880684207E8D50220BDE899
:10486800F08140F2212323FA08F3DB4313EA02051F
:10487800E9D12046FFF774FF002841D1626D274B2C
:104888002168134043F480736365B8F1000F02D0C8
:104898001F4B994203D0636D23F480136365636DE6
:1048A80013F4805330D0A36D23F00603A365E06CA6
:1048B80033461B4D3A46E66A4031C563194D0564D7
:1048C800194DC5641C2541F8405C002584F85050FA
:1048D80051F83C5C45F0100541F83C5C51F8345CFB
:1048E80025F00305354341F8345C01F05BF9226893
:1048F8000E4B91680B4043F004039360BDE8F081D0
:1049080084F85050BDE8F081A365D0E7002002404C
:10491800002102400063025800230240FEF0FFFF1E
:10492800A94100249D41002415420024C0FFFF7FB7
:1049380038B503689A68950702D59B68002038BD8A
:104948009A68D40729D59A68044602F00D02012A0C
:1049580008D0636D012043F010036365A36D034322
:10496800A36538BD986803210D4A024042F002024F
:104978009A601960FFF7EEFB236805469B68D90724
:104988000BD5FFF7E7FB401B2368022802D99A687A
:10499800D207DED49B68DB07F3D4002038BD00BF04
:1049A800C0FFFF7F38B590F85030012B26D0012387
:1049B8000321044680F85030FFF756FE0546C0B97B
:1049C8002368E06CDA6822F00302DA6090F8352098
:1049D800022A16D05A6822F010025A602046FFF7C1
:1049E800A7FF054628B9626D114B134043F0010338
:1049F80063650023284684F8503038BD02252846D0
:104A080038BD01F071FA054660B1636D2046226831
:104A180043F040036365536823F010035360FFF7C6
:104A280087FFE6E72268536823F010035360D5E751
:104A3800FEEEFFFF38B5574A04460368934226D076
:104A480002F58072934222D0534B9B6813F4403F87
:104A580022D005F017FC63680546B3F5003F00F067
:104A68008880B3F5403F6CD0B3F5803F00F081807B
:104A7800FFF788FB41F2030398424BD8474B9D420E
:104A88002AD92268936843F48073936038BD444BF5
:104A98009B6813F4403FDCD14FF40020002106F05E
:104AA80005FE63680546B3F5101F6CD008D8B3F54A
:104AB800E01F50D016D9B3F5001FD9D14509D7E763
:104AC800B3F5201F45D0B3F5301FD1D1FFF75AFBFE
:104AD80041F20303984240D82268936823F4807314
:104AE800936038BDB3F5801F06D00AD9B3F5A01F6F
:104AF80002D0B3F5C01FBBD19B0C5B00B5FBF3F52F
:104B0800B6E7B3F5002FF7D023F40022B2F5802FD3
:104B1800F2D0ADE7234B9D4205D82268936823F471
:104B28004073936038BD204B9D421AD91F4B2268B1
:104B38009D42936829D823F4407343F4007393602B
:104B480038BD8508FFF71EFB41F203039842E1D800
:104B580094E7C5098CE705098AE7124BB3EB152FD3
:104B6800DBD22268936823F4407343F48073936024
:104B780038BD1B0CB5FBF3F5FFF704FB41F203034B
:104B88009842C7D87AE7850972E743F4407393607F
:104B980038BD00BF0020024000630258002D3101DB
:104BA8000023024021BCBE0041787D0181F0FA0259
:104BB80070B5002382B00193002800F0D180456DC4
:104BC8000446002D00F0BB80226893689D0003D541
:104BD8009168724B0B4093609368D80016D4704B61
:104BE80070491B6890689B09A1FB03136E499B09D8
:104BF8000140013341F0805191600193019B2BB139
:104C0800019B013B0193019B002BF9D19368D900CB
:104C180024D4636D012543F010036365A36D2B4312
:104C2800A365936813F0040F636D1DD1DB061BD4D5
:104C3800636D23F4817343F0020363659368DE07B1
:104C480028D45A4B9A4217D003F580739A4213D04E
:104C5800574B9B68D9071DD4564A15E09368002521
:104C680013F0040F636DE1D0636D012543F0100369
:104C78002846636502B070BD4C4A4F4B92689B68EA
:104C88001343D80706D44D4A9368616823F47C130C
:104C98000B439360FFF776FA41F20303A168984249
:104CA800237F52D894F815C01A04206B42EA4C327C
:104CB80002430A43012B03D1236A013B42EA4342E0
:104CC800636A23B103F47873A16A0B431A43236818
:104CD8003B49D86801400A43DA609A6812F0040F29
:104CE8009A681CD112071AD4D868364A217D024026
:104CF80042EA8132E16A0A43DA6094F83820012AEC
:104D08003AD01A6922F001021A611A692046616BC9
:104D180022F070420A431A61FFF78CFE2368E268AA
:104D2800012A21D01A6B22F00F021A63636D2846FC
:104D380023F0030343F00103636502B070BDFCF781
:104D480061FEA56584F850503EE71029AAD1617D1F
:104D58001A0442EA4132216B0A4342F01C02A9E7D5
:104D68000125284602B070BD196BA26921F00F0118
:104D7800013A0A431A63D9E7D4E90F12666C01397C
:104D88001869324342EA0142A16C0A430E490140C4
:104D98000A4342F001021A61B7E700BFC0FFFF5F94
:104DA80074030020632D3E05C0FFFF6F0020024002
:104DB80000600258006302580021024000230240AC
:104DC80003C0F0FFFCBFFFFF1EF800FCF0B5002396
:104DD80083B0019390F85030012B40D00123044652
:104DE8000E46154680F85030FFF7A2FDE8B9676D0A
:104DF80005F080421B4B06F480311B4D3B401B4F96
:104E080043F00203636523689E68354015430D43EC
:104E180045F000459D609A68002A0FDB636D23F01A
:104E2800030343F00103636503E0636D43F010037C
:104E38006365002384F8503003B0F0BD019A013255
:104E48000192019ABA42E6D3636D0022012023F051
:104E5800120384F8502043F010036365ECE7022046
:104E680003B0F0BDFDEEFFFFC0FFFE3F00F8C32515
:104E7800F0B490F850209AB00E68012A4DD003463D
:104E88002B4C002201201D681692A54283F8500081
:104E9800179208D0596D83F8502041F020015965C8
:104EA8001AB0F0BC7047234CA26852070BD5AA6809
:104EB8005A6D012042F020025A65002283F85020E2
:104EC8001AB0F0BC7047A86810F00400F0D1C6B161
:104ED800DFF868C04F68DCF8082022F440423A4303
:104EE800CCF80820AD68A2682A43D40713D48A688E
:104EF800DCF808101643104A0A401643CCF808603C
:104F0800DBE70E498A6822F440428A60A868A268F2
:104F18000243D00705D50020CFE702201AB0F0BC25
:104F280070478C683046044A22408A60C5E700BF53
:104F38000020024000210240E0F0FFFF0023024071
:104F480006494FF6FF0C0002054BCA6800F4E06002
:104F580002EA0C0210430343CB60704700ED00E007
:104F68000000FA051B4BDB68C3F3022300B5C3F14D
:104F7800070E03F1040CBEF1040F28BF4FF0040E16
:104F8800BCF1060F1AD9033B4FF0FF3C0CFA03FCA7
:104F980022EA0C024FF0FF3C00280CFA0EFC21EA32
:104FA8000C0101FA03F141EA02010ADB09010A4B8B
:104FB800C9B2034483F800135DF804FB00221346CA
:104FC800E8E700F00F000901044BC9B20344197661
:104FD8005DF804FB00ED00E000E100E0FCEC00E01F
:104FE800002807DB012300F01F01034A40098B401A
:104FF80042F82030704700BF00E100E000280DDBD8
:105008004309012200F01F000549203302FA00F08D
:1050180041F82300BFF34F8FBFF36F8F704700BF76
:1050280000E100E0BFF34F8F0549064BCA6802F460
:10503800E0621343CB60BFF34F8F00BFFDE700BFB3
:1050480000ED00E00400FA05431EB3F1807F0CD2A6
:105058004FF0E022002006494FF0F00C536107237F
:1050680081F823C09061136170470120704700BF29
:1050780000ED00E0BFF35F8F044B00215A6A22F471
:1050880080325A62C3F89410704700BF00ED00E008
:10509800064B40F00100C3F894005A6A42F480328B
:1050A8005A62BFF34F8FBFF36F8F704700ED00E078
:1050B800174A4378C2F89830017821B3436800B59D
:1050C800C2F89C30C37A90F80CC01B0690F80FE029
:1050D80043EA0C7390F80AC00B43817B43EACC4344
:1050E80090F80DC043EA8C4390F809C043EA414365
:1050F800017A43EA0E4343EA0C2343EA4103C2F828
:10510800A0305DF804FBC2F89C10C2F8A0107047EC
:1051180000ED00E0704700BF08B5FFF7FBFF08BDD2
:1051280088B110B50379044603F0FF023BB10023B0
:1051380002210122217118462361227110BD42719A
:10514800FCF784FDF3E70120704700BFF8B504467B
:105158004079069F012853D00D4611460122266842
:105168006271022222713DBBA068042F374ADFF822
:10517800E4C0C2633268C0F840C042F48052DFF82D
:10518800D8C0C0F84CC0326042D0082F3DD0002FA4
:1051980038D02A46376847F40057376000F002FDD8
:1051A8000023637138BB236805F0100101251A68D4
:1051B8008D4015431D60F8BDE068042F244ADFF8D0
:1051C8009CC0C2633268C0F840C042F08052DFF829
:1051D80090C0C0F84CC032602FD0082F24D0D7B16F
:1051E8003768002247F00057376000F0DBFC0023E7
:1051F80063710028D7D0236943F004032361F8BD05
:105208000220F8BD06F10802C4E706F11002C1E762
:1052180006F10C02BEE7376806F1140247F00057A2
:10522800376000F0BFFCE2E7376806F11C0247F080
:105238000057376000F0B6FCD9E7376806F1180266
:1052480047F00057376000F0ADFCD0E7C9520024A2
:10525800C9540024D9520024E9520024D954002406
:10526800E954002438B54FF4805C036801F0100E4F
:1052780004461D6801200CFA0EFC00FA0EF025EA1F
:105288000C051D601A6822EA00021A6059B9A06864
:1052980000F02AFE22680020136823F400531360EC
:1052A8000123237138BDE06800F01EFE226800204B
:1052B800136823F0005313600123237138BD00BF26
:1052C80010B5846B2046FCF78DFD0123237110BDBA
:1052D800806B08B5FCF7B6FD08BD00BF704700BF7E
:1052E80010B5846B2369204643F004032361FFF75C
:1052F800F5FF0123237110BD704700BF03681A68CA
:10530800910410B5044602D55A6B920418D41A6851
:10531800910002D55A6B920000D410BD04224FF0C0
:10532800005120462271226942F00202226159632B
:105338001A6822F08052BDE810401A6000F0DCB80C
:1053480004224FF400510271026942F00102026125
:1053580059631A6822F480521A60FFF7CDFF236858
:10536800D5E700BF2DE9F04143790E460968012BC6
:1053780000F09880012304290546144643714FF034
:105388000203037145D002F0100200683369012B53
:1053980008D11F24836B944023EA04047369934063
:1053A80023438363072404FA02F3C46B24EA030447
:1053B800D6E90273012B28D0022B28D0B7FA87F33D
:1053C8005B093B430B4371689340914023434FF47F
:1053D8008044C3639440036823EA040340F6FE74E0
:1053E80003609440036823EA040301240B43C021AB
:1053F800036001FA02F30268002122EA0302026054
:1054080008462C716971BDE8F0810023D9E70123B2
:10541800D7E7FEF79FFE2B6807465B6B1CBBDFF8E0
:105428009C8013EA080F0DD0FEF794FEC31B012BD6
:105438002B6803D95A6B12EA080F36D15B6B13EA53
:10544800080FF1D10120FEF78BFE2868B3690364C9
:1054580011E0FEF77FFEC31B012B2B6802D95A6BA4
:10546800002A22DB5B6B002BF3DB0120FEF778FEC2
:105478002868B369436404F0100240F2FF31836C7A
:10548800914023EA0103F16991400B43FF218364B2
:105498009140C36C23EA0103316A91400B433168A0
:1054A800C36473E70220BDE8F0812B69032243F04F
:1054B800080310462B612A71A5E700BF0080002071
:1054C80010B5846B2046FCF7FDFC0123237110BD49
:1054D800806B08B5FCF7E0FC08BD00BF704700BF53
:1054E80010B5846B2369204643F004032361FFF75A
:1054F800F5FF0123237110BD704700BF0268344BCC
:10550800344930B4344D354CAA4218BF9A420CBFC6
:10551800012300238A4208BF43F001033031A2422D
:1055280008BF43F0010330348A4208BF43F0010347
:105538003031A24208BF43F0010330348A4208BF29
:1055480043F0010301F55C71A24208BF43F0010377
:1055580004F55C748A4208BF43F001033031A2426B
:1055680008BF43F0010330348A4208BF43F0010307
:105578003031A24208BF43F0010330348A4208BFE9
:1055880043F001033031A24208BF43F001038A42CD
:1055980008BF43F0010313B9114B9A4213D1D3B298
:1055A8001049114C103BA1FB03515F2B0F4BC1F36A
:1055B800021103EA0203615C88BF0433C165836595
:1055C800184630BC704722F0FF038365F8E700BF38
:1055D80010000240400002402800024058000240EB
:1055E800B8040240ABAAAAAA2022012400FCFFFFAB
:1055F8000368294A294930B4294D2A4CAB4218BFBF
:1056080093420CBF012200228B4208BF42F00102E4
:105618002831A34208BF42F0010228348B4208BF58
:1056280042F001022831A34208BF42F001028B4236
:1056380008BF42F0010212B91B4A934213D1DBB2F0
:105648001A4C1B4A0121083B1A4DA4FB034345662B
:1056580002EB1312C3F30413920001FA03F3026678
:10566800836630BC7047DAB21349144C1944103AB7
:10567800A829A4FB02234FEA131300D80833104AC1
:1056880003F01F0501210F4C1A44A94044669200FB
:1056980081660266E5E700BF085402583054025894
:1056A8001C5402584454025894540258CDCCCCCCC3
:1056B8000096001680580258F0FBFDBFABAAAAAAB4
:1056C8000082001080080240F8B50446FEF742FD4B
:1056D800002C00F0778123680546924A934248D00F
:1056E8001832934245D030328F498B4218BF9342CB
:1056F80001F130010CBF012200228B4208BF42F0A9
:10570800010218318B4208BF42F0010218318B4266
:1057180008BF42F0010218318B4208BF42F0010273
:1057280001F556718B4208BF42F0010218318B42D5
:1057380008BF42F0010218318B4208BF42F0010253
:1057480018318B4208BF42F0010218318B4208BF62
:1057580042F0010218318B4208BF42F001021831B1
:105768008B4208BF42F001021AB9704A934240F0D6
:1057780098810022022184F8342084F835101A68B0
:1057880022F001021A6006E0FEF7E4FC431B052B39
:1057980000F2FF8023681A68D607F5D4D4E90225F9
:1057A80020692A43A1691D68024360690243E069D0
:1057B8000A4302435E482840256A2A435D4D024356
:1057C800606A042800F000812E685B4D3540B5F111
:1057D800005F80F0BB801A605A6922F0070202431A
:1057E8005A612046FFF78AFEE26D3F2302F01F024E
:1057F8009340836022684B4B50484B49824218BF04
:105808009A4200F130000CBF012300238A4208BFEE
:1058180043F001033031824208BF43F001033030C6
:105828008A4208BF43F001033031824208BF43F087
:10583800010330308A4208BF43F0010301F55C716F
:10584800824208BF43F0010300F55C708A4208BF3A
:1058580043F001033031824208BF43F00103303086
:105868008A4208BF43F001033031824208BF43F047
:10587800010330308A4208BF43F0010330318242CD
:1058880008BF43F0010330308A4208BF43F00103E8
:105898002B49824208BF43F001032A488A4208BFC5
:1058A80043F001032831824208BF43F00103283046
:1058B8008A4208BF43F001032831824208BF43F0FF
:1058C800010328308A4208BF43F00103283182428D
:1058D80008BF43F001038A4208BF43F0010313B92C
:1058E800194B9A4218D12046FFF782FEA368802BF5
:1058F8005CD06368A06EDAB2013BD4E91851072B7B
:105908002A60486059D8501E07286ED9626FD4E9BA
:105918001B31002018604A6000200123606584F86C
:105928003530F8BD1000024040000240B804024083
:105938003F8010FE0010005C0000FFFF28000240BE
:10594800085402581C540258945402586568A5F12A
:1059580029061F2E24D94F3D032D01D842F4801269
:105968001A6004285A6922F0070242EA00027FF40A
:1059780037AFE56AA06A0243002D3FF431AF002932
:1059880069D1012800F0888030F002017FF428AF47
:1059980069E0202203230120626584F83530F8BDD0
:1059A800734D25FA06F6F507DAD5D7E70023A16E79
:1059B800D4E918026360036051600023C4E91B3313
:1059C8006367A9E70120F8BD2F68D4E90B562E4379
:1059D8003243684E3E40B6F1005FB7D21A605A694A
:1059E80022F0070242F00402C4E72168624B634DCB
:1059F800A94218BF994205F114050CBF01230023E1
:105A0800A94208BF43F001031435A94208BF43F077
:105A180001031435A94208BF43F001031435A94214
:105A280008BF43F001031435A94208BF43F001033E
:105A38003BB9534B994204D0524B534913449B00F2
:105A480003E0524B524913449B0001228240C4E9AF
:105A58001B3162675DE7B1F5005F0ED0022805D9FA
:105A680003287FF4BDAEE9017FF5BAAE01234022D9
:105A78001846626584F83530F8BD03283FF6B0AEA5
:105A880001A151F820F000BF755A00246F5A002474
:105A9800755A0024A15A0024B5F1C07F7FF4A0AE46
:105AA800E4E7354A35483B49834218BF934200F141
:105AB80028000CBF012200228B4208BF42F00102DD
:105AC8002831834208BF42F0010228308B4208BFC8
